S01D000053544B333730305F6672656572746F735F626C696E6B2E733337E3
S113000000000220210400004D0400004D04000003
S11300104D0400004D0400004D0400004D04000098
S11300204D0400004D0400004D040000510A00007E
S11300304D0400004D040000F10B0000350C0000DD
S11300404D0400004D040000354800004D0400003C
S11300504D0400004D0400004D0400004D04000058
S11300604D0400004D0400004D0400004D04000048
S11300704D0400004D0400004D0400004D04000038
S11300804D0400004D0400004D0400004D04000028
S11300904D0400004D0400004D0400004D04000018
S11300A04D0400004D0400004D0400004D04000008
S11300B04D0400004D0400004D0400000145000003
S11300C04D0400004D0400004D0400004D040000E8
S11300D04D0400004D0400004D04000010B5054C13
S11300E0237833B9044B13B10448AFF300800123E0
S11300F0237010BDA800002000000000C4510000BF
S1130100084B10B51BB108480849AFF300800848F4
S1130110036803B910BD074B002BFBD0BDE81040AA
S1130120184700BF00000000C4510000AC000020CC
S1130130A400002000000000154B002B08BF134B47
S11301409D46A3F5803A00218B460F461348144A76
S1130150121A04F034FC0F4B002B00D098470E4BBE
S1130160002B00D098470020002104000D000D480A
S1130170002802D00C48AFF3008004F0EFFB20000D
S1130180290004F069FB04F0D5FB00BF000008005F
S1130190000002200000000000000000A800002071
S11301A07C250020000000000000000080B582B023
S11301B000AF03463960FB71FB79002B1FD0FB793C
S11301C0012B19D0FB79022B13D0FB79032B0DD013
S11301D0FB79042B07D0FB79052B02D141F6FF7381
S11301E00FE000230DE04FF6FF730AE04FF6FF73B4
S11301F007E04FF6FF7304E04FF6FF7301E04FF69C
S1130200FF733A68134103F00103002B04D10B4838
S113021040F29F3102F042FB0949FA793B68012020
S113022000FA03F318461346DB0013449B000B4407
S1130230183318600837BD4680BD00BFEC49000084
S11302400060004080B582B000AF1248012102F086
S11302503FFF1148012102F03BFF00237B6011E0C6
S11302600E4A7B6812F833100C4A7B68DB00134497
S11302705B68084619460422002303F0C7FD7B6827
S113028001337B607B68012BEADD002318460837C5
S1130290BD4680BD4081040000D20400504A0000E5
S11302A080B582B000AF78607B68002B11DB7B687F
S11302B0012B0EDC0A4A7B6812F83310084A7B686B
S11302C0DB0013445B6808461946FFF76FFF002301
S11302D001E04FF0FF3318460837BD4680BD00BF2C
S11302E0504A000080B582B000AF394A384B5B6C8D
S11302F043F400535364374A364BD3F8203143F068
S11303000403C2F82031334A324BD3F8203123F4AA
S11303104073C2F820312F4A2E4BD3F8B83023F45F
S11303207063C2F8B8302B4A2A4BD3F8B83043F480
S11303308063C2F8B830264B10221A6200BF244BE7
S1130340DB6A03F02003002BF9D0234A224B1B68FD
S113035043F001031360204A1F4BDB6843F08073B2
S1130360D3601E4B1E4A1A601E4802F01FFF03464C
S113037003F5D52303F2FC437B607B68DB081A4A50
S1130380A2FB03239B0A3B60184A3B68013B1361B1
S1130390164B0222C3F8F020144B4FF48072C3F8BA
S11303A004234FF06043124AC3F8B02F4FF0604368
S11303B0104AC3F8802E4FF060424FF06043D3F8E8
S11303C0003E43F00103C2F8003E0837BD4680BD3D
S11303D000800C4000600040F0ED00E0001000E000
S11303E0FF13014006000C0017916502000004E0B1
S11303F055CEACC50900010080B582B000AF4FF006
S11304007E637B607B681B68002B01D1002302E0C4
S1130410FFF768FF012318460837BD4680BD00BFBB
S1130420064880470649074A074B9A42BEBF51F81F
S1130430040B42F8040BF8E7FFF77EFECD0500003D
S1130440D051000000000020A8000020FEE700BFFB
S113045080B400AF044BDB6C1B0EDBB21846BD4608
S11304605DF8047B704700BFB081E00F80B582B0B7
S113047000AF00F01FF87860074B5B6803F00F03D0
S11304801A467B68D3407B60044A7B6813607B68B0
S113049018460837BD4680BD00800C400800002087
S11304A080B400AF024B1846BD465DF8047B70472C
S11304B0006CDC0280B582B000AF334BDB6A03F41E
S11304C07053B3F5805F0AD0B3F5005F03D0B3F582
S11304D0006F08D00BE02D4B1B687B6047E04FF4A6
S11304E000437B6043E02A4B1B687B603FE0264B64
S11304F0DB6803F4E063B3F5007F1BD0B3F5007F42
S113050005D8002B24D0B3F5807F16D02BE0B3F5AB
S1130510806F09D0B3F5A06F03D0B3F5407F06D048
S113052021E01C4B7B6021E01B4B7B601EE01B4BDE
S11305307B601BE01A4B7B6018E0FFF789FF0346E2
S1130540122B02D9174B7B6010E0174B7B600DE038
S1130550FFF77EFF0346122B02D9144B7B6005E0A4
S1130560134B7B6002E000237B6000BF00BF064B9F
S11305701B6803F4E0339B0B01337A68B2FBF3F39B
S113058018460837BD4680BD00800C40040000209A
S113059000000020003FAB01406F4001809FD50068
S11305A0C0D8A70040B56400C0CF6A00804F1200D5
S11305B040420F0080B400AF034B1B681846BD4691
S11305C05DF8047B704700BF0000002080B400AFDA
S11305D0BD465DF8047B704780B400AF4FF4004320
S11305E01846BD465DF8047B704700BF80B400AF79
S11305F04FF47A731846BD465DF8047B704700BF1C
S113060080B400AF034B1B681846BD465DF8047BFD
S1130610704700BF0400002080B400AF054A054BBA
S11306201B6923F00403136130BFBD465DF8047BEE
S1130630704700BF00ED00E080B582B000AF786085
S11306403960104A7B6813600F4A3B6813600F4B94
S113065000221A700D4B00225A7003F007FD034666
S113066003F48073002B09D003F0D8FC064B1B68FD
S1130670002B03D0044B1B68042098470837BD4661
S113068080BD00BFC4000020C8000020CC000020B2
S113069080B582B000AF03F075F9386000F018F847
S11306A00346FB71FB79002B07D0FB79032B04D89D
S11306B0FB79184600F02CF801E00023FB71386840
S11306C003F070F9FB7918460837BD4680BD00BFBA
S11306D080B483B000AF0123FB710C4B1B78002B5B
S11306E007D10223FB71094B5B78002B01D1032353
S11306F0FB71FB79032B01D90323FB71FB791846AA
S11307000C37BD465DF8047B704700BFCC00002069
S113071080B582B000AF0346FB71FB79002B02D099
S1130720FB79042B04D91C484FF4B57102F0B6F8D8
S11307301A4B1B68002B04D0184B1B68FA7910461F
S11307409847FB79013B032B18D801A252F823F0F8
S113075061070000670700006F07000077070000CB
S1130760FFF75AFF0BE0012003F0F0F907E0012046
S113077003F032FA03E003F089FA00E000BF084B0B
S11307801B68002B04D0064B1B68FA791046984767
S11307900837BD4680BD00BF604A0000C400002089
S11307A0C800002080B584B000AF78600023FB60EF
S11307B07B6803F00703002B04D07B6823F0070356
S11307C008337B6001F07AF8164B1B68002B05D1C7
S11307D0154B23F007031A46124B1A60134B1A6881
S11307E07B68134442F21F32934213D80F4B1A68AA
S11307F07B681A440D4B1B689A420BD9094B1A6843
S11308000A4B1B681344FB60084B1A687B6813444B
S1130810064A136001F060F8FB6818461037BD46BD
S113082080BD00BFFC230020D8000020F823002056
S113083080B582B000AF78607B68002B03D003489A
S1130840AB2102F02BF80837BD4680BDC44A000036
S113085080B483B000AF78607B6803F108027B68E2
S11308605A607B684FF0FF329A607B6803F108029C
S11308707B68DA607B6803F108027B681A617B6835
S113088000221A600C37BD465DF8047B704700BF38
S113089080B483B000AF78607B6800221A610C37A3
S11308A0BD465DF8047B704780B485B000AF7860C6
S11308B039607B685B68FB603B68FA685A60FB6878
S11308C09A683B689A60FB689B683A685A60FB6860
S11308D03A689A603B687A681A617B681B685A1C9C
S11308E07B681A601437BD465DF8047B704700BF0F
S11308F080B485B000AF786039603B681B68BB602A
S1130900BB68B3F1FF3F03D17B681B69FB600CE05C
S11309107B680833FB6002E0FB685B68FB60FB6894
S11309205B681A68BB689A42F6D9FB685A683B68E8
S11309305A603B685B683A689A603B68FA689A60F8
S1130940FB683A685A603B687A681A617B681B687E
S11309505A1C7B681A601437BD465DF8047B7047E7
S113096080B485B000AF78607B681B69FB607B68EE
S11309705B687A6892689A607B689B687A68526858
S11309805A60FB685A687B689A4203D17B689A680C
S1130990FB685A607B6800221A61FB681B685A1E58
S11309A0FB681A60FB681B6818461437BD465DF87F
S11309B0047B704780B485B000AFF860B9607A609A
S11309C0FB68043BFB60FB684FF080721A60FB68B5
S11309D0043BFB60BB6823F00102FB681A60FB6800
S11309E0043BFB60094AFB681A60FB68143BFB602C
S11309F07A68FB681A60FB68203BFB60FB6818465A
S1130A001437BD465DF8047B704700BF110A00002F
S1130A1080B582B000AF094B1B68B3F1FF3F03D030
S1130A200748F22101F03AFF4FF0BF0383F3118826
S1130A30BFF36F8FBFF34F8F7B60FEE70C00002086
S1130A40444B000000000000000000000000000013
S1130A50074B19680868B0E8F00F80F30988BFF302
S1130A606F8F4FF0000080F311884EF00D0E704729
S1130A700824002006480068006880F3088862B6ED
S1130A8061B6BFF34F8FBFF36F8F00DF00BF00006D
S1130A9008ED00E080B584B000AF284BFB60FB6834
S1130AA01B78DBB2BB60FB68FF221A70FB681B7803
S1130AB0DBB2FB71FB79DBB223F04003DAB2204BEB
S1130AC01A70204B07221A6009E01E4B1B68013B79
S1130AD01C4A1360FB79DBB25B00DBB2FB71FB7970
S1130AE0DBB2DBB25BB2002BEFDB164B1B681B02E5
S1130AF0144A1360134B1B6803F4E063114A136038
S1130B00BB68DAB2FB681A700F4A0F4B1B6843F4D8
S1130B107F0313600C4A0C4B1B6843F07F43136044
S1130B2003F02AFD094B00221A60FFF7A3FFFFF729
S1130B306FFF002318461037BD4680BD00E400E077
S1130B40002400200424002020ED00E00C000020FC
S1130B5080B582B000AF4FF0BF0383F31188BFF3B9
S1130B606F8FBFF34F8F7B600A4B1B680133094AB9
S1130B701360084B1B68012B09D1074B1B68DBB2C0
S1130B80002B04D0054840F27F1101F087FE08379E
S1130B90BD4680BD0C00002004ED00E0444B000085
S1130BA080B582B000AF0D4B1B68002B04D10C48FC
S1130BB04FF4C37101F072FE084B1B68013B074AF6
S1130BC01360064B1B68002B04D100237B607B68F9
S1130BD083F311880837BD4680BD00BF0C00002098
S1130BE0444B000000000000000000000000000072
S1130BF0EFF30980BFF36F8F0D4B1A6820E9F00FF4
S1130C0010602DE908404FF0BF0080F3118800F018
S1130C10C9FF4FF0000080F31188BDE8084019684F
S1130C200868B0E8F00F80F30988BFF36F8F70474E
S1130C300824002080B582B000AF4FF0BF0383F3D7
S1130C401188BFF36F8FBFF34F8F7B6000F0EEFE10
S1130C500346002B03D0064B4FF080521A6000234A
S1130C603B603B6883F311880837BD4680BD00BFF5
S1130C7004ED00E080B582B000AFEFF305837B6044
S1130C807B680F2B0ED90F4A7B6813441B78FB70CB
S1130C900D4B1B78FA789A4204D20C4840F29E21FC
S1130CA001F0FCFD0A4B1B6803F4E062094B1B686E
S1130CB09A4204D9054840F2AE2101F0EFFD08370D
S1130CC0BD4680BDF0E300E000240020444B00005A
S1130CD00CED00E00424002080B584B000AF7860FF
S1130CE039607B68FB60FB68002B04D12A4840F222
S1130CF01B1101F0D3FDFFF72BFFFB681A68FB689B
S1130D00DB6BF968096C01FB03F31A44FB685A6056
S1130D10FB6800229A63FB681A68FB689A60FB68A8
S1130D201A68FB68DB6B013BF968096C01FB03F390
S1130D301A44FB68DA60FB68FF2283F84420FB68EE
S1130D40FF2283F845203B68002B14D1FB681B6904
S1130D50002B1AD0FB681033184600F0BDFF034681
S1130D60002B12D00D4B4FF080521A60BFF34F8FFF
S1130D70BFF36F8F09E0FB6810331846FFF768FD77
S1130D80FB6824331846FFF763FDFFF709FF0123CF
S1130D9018461037BD4680BDC44B000004ED00E08A
S1130DA090B58BB002AFF860B9601346FB71FB6875
S1130DB0002B04D114484FF4C47101F06FFDBB68DB
S1130DC0002B02D10023FB6104E0FB68BA6802FB3C
S1130DD003F3FB61FB6948331846FFF7E3FCB86192
S1130DE0BB69002B0BD0BB6948337B61FC79BB69C1
S1130DF00093F868B9687A69234600F007F8BB697C
S1130E0018462437BD4690BDC44B000080B584B05D
S1130E1000AFF860B9607A60FB70BB68002B03D147
S1130E20BB69BA691A6002E0BB697A681A60BB6977
S1130E30FA68DA63BB69BA681A64B8690121FFF712
S1130E404BFF1037BD4680BD80B58AB000AFF86057
S1130E50B9607A603B6000237B62FB683B623B6A5B
S1130E60002B04D1654840F2D92101F017FDBB687D
S1130E70002B08D13B6A1B6C002B04D05F4840F266
S1130E80DA2101F00BFD3B68022B08D13B6ADB6BD6
S1130E90012B04D0594840F2DB2101F0FFFC01F0A2
S1130EA0B1F80346002B07D17B68002B04D05348CC
S1130EB040F2DE2101F0F2FCFFF74AFE3B6A9A6B36
S1130EC03B6ADB6B9A4202D33B68022B29D1386A16
S1130ED0B9683A6800F012FAF8613B6A5B6A002B61
S1130EE010D03B6A2433184600F0F6FE0346002B6C
S1130EF013D0434B4FF080521A60BFF34F8FBFF3B0
S1130F006F8F0AE0FB69002B07D03D4B4FF08052F6
S1130F101A60BFF34F8FBFF36F8FFFF741FE0123BA
S1130F2067E07B68002B03D1FFF73AFE002360E003
S1130F307B6A002B06D107F11403184600F02CFF3E
S1130F4001237B62FFF72CFE00F0B8FCFFF700FEE4
S1130F503B6A93F84430DBB25BB2B3F1FF3F03D199
S1130F603B6A002283F844203B6A93F84530DBB2A5
S1130F705BB2B3F1FF3F03D13B6A002283F8452003
S1130F80FFF70EFE07F114023B1D1046194600F050
S1130F9021FF0346002B24D1386A00F0A9FA034646
S1130FA0002B18D03B6A03F110027B6810461946E7
S1130FB000F04CFE386A00F033FA00F08DFC034672
S1130FC0002B15D10E4B4FF080521A60BFF34F8F98
S1130FD0BFF36F8F0CE0386A00F022FA00F07CFC5B
S1130FE06AE7386A00F01CFA00F076FC002300E09F
S1130FF062E718462837BD4680BD00BFC44B0000D9
S113100004ED00E080B58CB000AFF860B9607A60A0
S11310103B60FB68BB62BB6A002B04D1374840F2DB
S11310209F3101F03BFCBB68002B08D1BB6A1B6CF1
S1131030002B04D031484FF4687101F02FFC3B6859
S1131040022B08D1BB6ADB6B012B04D02B4840F286
S1131050A13101F023FCFFF70DFEEFF311824FF0F5
S1131060BF0383F31188BFF36F8FBFF34F8FFA6110
S1131070BB61FB697B62BB6A9A6BBB6ADB6B9A429E
S113108002D33B68022B2CD1BB6A93F8453087F816
S11310902330B86AB9683A6800F030F997F9233018
S11310A0B3F1FF3F12D1BB6A5B6A002B16D0BB6A57
S11310B02433184600F010FE0346002B0ED07B6844
S11310C0002B0BD07B6801221A6007E097F82330CD
S11310D00133DBB2DAB2BB6A83F845200123FB6239
S11310E001E00023FB627B6A7B617B6983F31188E7
S11310F0FB6A18463037BD4680BD00BFC44B0000B4
S113110080B58AB000AFF860B9607A603B600023B4
S11311107B62FB683B623B6A002B04D1754840F25A
S1131120DC4101F0BBFBBB68002B08D13B6A1B6CA4
S1131130002B04D06F4840F2DD4101F0AFFB00F01A
S113114061FF0346002B07D17B68002B04D069485C
S11311504FF49C6101F0A2FBFFF7FAFC3B6A9B6B26
S1131160FB61FB69002B46D03B6ADB68BB61386AD4
S1131170B96800F02FF93B68002B21D1FB695A1E96
S11311803B6A9A633B6A1B68002B04D101F04EF85A
S113119002463B6A5A603B6A1B69002B27D03B6AB4
S11311A01033184600F098FD0346002B1FD0524B15
S11311B04FF080521A60BFF34F8FBFF36F8F16E06A
S11311C03B6ABA69DA603B6A5B6A002B0FD03B6A00
S11311D02433184600F080FD0346002B07D0464B0D
S11311E04FF080521A60BFF34F8FBFF36F8FFFF73A
S11311F0D7FC01237AE07B68002B03D1FFF7D0FCF6
S1131200002373E07B6A002B06D107F11003184614
S113121000F0C2FD01237B62FFF7C2FC00F04EFB2D
S1131220FFF796FC3B6A93F84430DBB25BB2B3F150
S1131230FF3F03D13B6A002283F844203B6A93F8C2
S11312404530DBB25BB2B3F1FF3F03D13B6A00220E
S113125083F84520FFF7A4FC07F110023B1D10465C
S1131260194600F0B7FD0346002B31D1386A00F06F
S113127029F90346002B25D03B6A1B68002B08D1B3
S1131280FFF766FC3B6A5B68184600F0D9FEFFF77F
S113129087FC3B6A03F124027B681046194600F080
S11312A0D5FC386A00F0BCF800F016FB0346002BAE
S11312B01BD1114B4FF080521A60BFF34F8FBFF315
S11312C06F8F12E0386A00F0ABF800F005FB43E7DB
S11312D0386A00F0A5F800F0FFFA386A00F0F2F876
S11312E00346002B01D0002300E035E718462837D9
S11312F0BD4680BDC44B000004ED00E080B586B05F
S113130000AFF860B9607A6000237B61FB689B6B77
S11313103B61FB681B6C002B0DD1FB681B68002B29
S11313204FD1FB685B68184600F002FF7861FB68E8
S113133000225A6045E07B68002B1AD1FB689A684A
S1131340FB681B6C1046B9681A4603F02DFBFB685A
S11313509A68FB681B6C1A44FB689A60FB689A687D
S1131360FB685B689A422CD3FB681A68FB689A6036
S113137027E0FB68DA68FB681B6C1046B9681A46FC
S113138003F012FBFB68DA68FB681B6C5B421A44CF
S1131390FB68DA60FB68DA68FB681B689A4207D26C
S11313A0FB685A68FB681B6C5B421A44FB68DA6092
S11313B07B68022B05D13B69002B02D03B69013BC2
S11313C03B613B695A1CFB689A637B691846183772
S11313D0BD4680BD80B582B000AF786039607B685F
S11313E01B6C002B19D07B68DA687B681B6C1A4471
S11313F07B68DA607B68DA687B685B689A4203D34F
S11314007B681A687B68DA607B68DA687B681B6CC7
S1131410386811461A4603F0C7FA0837BD4680BD3E
S113142080B584B000AF7860FFF792FB7B6893F8D7
S11314304530FB7313E07B685B6A002B0AD07B6842
S11314402433184600F048FC0346002B03D000F078
S113145017FD00E007E0FB7B013BDBB2FB7397F970
S11314600F30002BE7DC7B68FF2283F84520FFF771
S113147097FBFFF76DFB7B6893F84430BB7313E075
S11314807B681B69002B0ED07B681033184600F074
S113149023FC0346002B01D000F0F2FCBB7B013B94
S11314A0DBB2BB7300E003E097F90E30002BE7DCFE
S11314B07B68FF2283F84420FFF772FB1037BD4698
S11314C080BD00BF80B584B000AF7860FFF740FBFB
S11314D07B689B6B002B02D10123FB6001E000239E
S11314E0FB60FFF75DFBFB6818461037BD4680BD07
S11314F080B584B000AF7860FFF72AFB7B689A6BF5
S11315007B68DB6B9A4202D10123FB6001E000237C
S1131510FB60FFF745FBFB6818461037BD4680BDEE
S113152080B485B000AF786039600023FB6014E0BC
S11315300E4AFB6852F83330002B0BD10B49FB6881
S11315403A6841F83320094AFB68DB0013447A689F
S11315505A6005E0FB680133FB60FB68092BE7D99F
S11315601437BD465DF8047B704700BF2C2500206E
S113157080B586B000AFF860B9607A60FB687B61C3
S1131580FFF7E6FA7B6993F84430DBB25BB2B3F160
S1131590FF3F03D17B69002283F844207B6993F8E1
S11315A04530DBB25BB2B3F1FF3F03D17B6900226C
S11315B083F84520FFF7F4FA7B699B6B002B06D177
S11315C07B6924331846B9687A6800F05FFB786950
S11315D0FFF726FF1837BD4680BD00BF80B58CB02D
S11315E004AFF860B9603B601346FB80FB889B0046
S11315F01846FFF7D7F878617B69002B0ED050208E
S1131600FFF7D0F8F861FB69002B03D0FB697A6916
S11316101A6305E07869FFF70BF901E00023FB6129
S1131620FB69002B13D0FA88BB6A0093FB6A019311
S1131630FB69029300230393F868B9683B6800F0E0
S11316400FF8F86900F086F80123BB6102E04FF05F
S1131650FF33BB61BB6918462037BD4680BD00BF60
S113166080B586B000AFF860B9607A603B60BB6A51
S11316701A6B7B6803F18043013B9B0013443B617D
S11316803B6923F007033B613B6903F00703002B2D
S113169004D02F4840F22B3101F000F900237B6184
S11316A013E0BA687B6913441978BA6A7B691344F6
S11316B030330A461A71BA687B6913441B78002BCD
S11316C000D105E07B6901337B617B69092BE8D993
S11316D0BB6A002283F83D203B6A022B01D9022316
S11316E03B62BB6A3A6ADA62BB6A3A6A1A64BB6AE8
S11316F000225A64BB6A04331846FFF7C9F8BB6A70
S113170018331846FFF7C4F8BB6ABA6A1A613B6A11
S1131710C3F10302BB6A9A61BB6ABA6A5A62BB6AC2
S113172000229A64BB6A002283F84C203869F96865
S11317303A68FFF73FF90246BB6A1A607B6A002BDE
S113174002D07B6ABA6A1A601837BD4680BD00BFF2
S1131750304C000080B582B000AF7860FFF7F8F934
S11317602B4B1B6801332A4A13602A4B1B68002B3E
S113177009D1284A7B681360254B1B68012B10D1C3
S113178000F094FB0DE0244B1B68002B09D1214B86
S11317901B68DA6A7B68DB6A9A4202D81D4A7B6856
S11317A013601E4B1B6801331C4A13607B68DB6AA1
S11317B01A46012303FA02F2194B1B681343184A11
S11317C013607B68DA6A13469B0013449B00154A36
S11317D01A447B68043310461946FFF765F8FFF78F
S11317E0DFF90D4B1B68002B0ED00A4B1B68DA6A1D
S11317F07B68DB6A9A4207D20B4B4FF080521A6027
S1131800BFF34F8FBFF36F8F0837BD4680BD00BF56
S1131810B824002008240020C4240020D42400205C
S1131820C02400200C24002004ED00E080B584B026
S113183002AF002300931A4B01931A481A498C22D1
S11318400023FFF7CBFE78607B68012B02D100F008
S113185065FD78607B68012B15D14FF0BF0383F3DE
S11318601188BFF36F8FBFF34F8F3B600F4B4FF067
S1131870FF321A600E4B01221A600E4B00221A60CE
S1131880FFF708F908E07B68B3F1FF3F04D10A4889
S113189040F2847101F002F80837BD4680BD00BFF4
S11318A0DC240020991E00009C4C0000D824002059
S11318B0C4240020BC240020304C000080B400AFBD
S11318C0044B1B680133034A1360BD465DF8047B77
S11318D0704700BFE024002080B584B000AF00232F
S11318E0FB600023BB603F4B1B68002B04D13E48C8
S11318F04FF4FD6100F0D2FFFFF72AF9394B1B6862
S1131900013B384A1360374B1B68002B63D1374BBC
S11319101B68002B5FD030E0354BDB68DB68FB6075
S1131920FB6818331846FFF71BF8FB6804331846A6
S1131930FFF716F8FB68DB6A1A46012303FA02F282
S11319402C4B1B6813432B4A1360FB68DA6A13465B
S11319509B0013449B00284A1A44FB680433104636
S11319601946FEF7A1FFFB68DA6A244B1B68DB6AA1
S11319709A4202D3224B01221A601D4B1B68002B92
S1131980CAD1FB68002B01D000F018FB1D4B1B686B
S11319907B607B68002B10D000F048F80346002BD6
S11319A002D0174B01221A607B68013B7B607B6885
S11319B0002BF1D1134B00221A60114B1B68002B32
S11319C009D00123BB60104B4FF080521A60BFF363
S11319D04F8FBFF36F8FFFF7E3F8BB6818461037DC
S11319E0BD4680BDE0240020304C0000B824002017
S11319F078240020C02400200C2400200824002087
S1131A00CC240020C824002004ED00E080B483B07E
S1131A1000AF054B1B687B607B6818460C37BD46DE
S1131A205DF8047B704700BFBC24002080B586B0FD
S1131A3000AF00237B614F4B1B68002B40F0898073
S1131A404D4B1B6801333B614B4A3B6913603B6957
S1131A50002B1AD1494B1B681B68002B04D0484843
S1131A6040F6D91100F01AFF444B1B68FB60454B4C
S1131A701B68424A1360434AFB681360424B1B686D
S1131A800133414A136000F099FA404B1B683A69EC
S1131A909A424FD3394B1B681B68002B01D1012399
S1131AA000E00023002B04D0384B4FF0FF321A60C3
S1131AB040E0324B1B68DB68DB68BB60BB685B687B
S1131AC07B603A697B689A4203D2304A7B68136030
S1131AD030E0BB6804331846FEF742FFBB689B6ADC
S1131AE0002B04D0BB6818331846FEF739FFBB68D7
S1131AF0DB6A1A46012303FA02F2254B1B681343DF
S1131B00234A1360BB68DA6A13469B0013449B00A4
S1131B10204A1A44BB68043310461946FEF7C4FE33
S1131B20BB68DA6A1C4B1B68DB6A9A4201D3012347
S1131B307B61AFE7184B1B68DA6A164913469B00B2
S1131B4013449B000B441B68012B01D901237B61C7
S1131B5004E0124B1B680133104A1360104B1B68DE
S1131B60002B01D001237B617B6918461837BD46E1
S1131B7080BD00BFE0240020BC240020702400208D
S1131B80304C000074240020D0240020D8240020ED
S1131B90C02400200C24002008240020C824002095
S1131BA0CC24002080B584B000AF224B1B68002BEE
S1131BB003D0214B01221A6039E01F4B00221A6026
S1131BC01E4B1B687B607B68B3FA83F3FB70FB7866
S1131BD0C3F11F03FB601A49FA6813469B001344C0
S1131BE09B000B441B68002B04D1164840F6F621D9
S1131BF000F054FEFA6813469B0013449B00104AFD
S1131C001344BB60BB685B685A68BB685A60BB68B6
S1131C105A68BB6808339A4204D1BB685B685A6847
S1131C20BB685A60BB685B68DB68074A136010379F
S1131C30BD4680BDE0240020CC240020C024002028
S1131C400C240020304C00000824002080B582B011
S1131C5000AF786039607B68002B04D1094840F6F6
S1131C60063100F01BFE084B1B68183378681946D0
S1131C70FEF73EFE3868012100F0ECFA0837BD4655
S1131C8080BD00BF304C00000824002080B584B023
S1131C9000AFF860B9607A60FB68002B04D10C488F
S1131CA040F6313100F0FAFD0A4B1B681833F8682E
S1131CB01946FEF7F9FD7B68002B02D04FF0FF3385
S1131CC0BB60B868796800F0C5FA1037BD4680BDBE
S1131CD0304C00000824002080B584B000AF786048
S1131CE07B68DB68DB68BB60BB68002B04D12348DE
S1131CF040F6613100F0D2FDBB6818331846FEF798
S1131D002FFE1F4B1B68002B1ED1BB6804331846E3
S1131D10FEF726FEBB68DB6A1A46012303FA02F2C9
S1131D20184B1B681343174A1360BB68DA6A1346DF
S1131D309B0013449B00144A1A44BB6804331046A6
S1131D401946FEF7B1FD05E0BB6818330F48194684
S1131D50FEF7AAFDBB68DA6A0D4B1B68DB6A9A4280
S1131D6005D90123FB600B4B01221A6001E000231B
S1131D70FB60FB6818461037BD4680BD304C000040
S1131D80E0240020C02400200C240020782400201B
S1131D9008240020CC24002080B582B000AF7860F5
S1131DA07B68002B04D1084840F6C13100F076FD71
S1131DB0064B1A687B681A60054B1A687B685A6080
S1131DC00837BD4680BD00BF304C0000D024002041
S1131DD0BC24002080B584B000AF786039607B6893
S1131DE0002B04D1234840F6CB3100F057FD3B686B
S1131DF0002B04D11F4840F6CC3100F04FFDFEF714
S1131E00A7FE1D4B1B68BB603B681B68B3F1FF3F1B
S1131E1002D10023FB6026E07B681A68174B1B681D
S1131E209A4207D07B685A68BB689A4202D8012359
S1131E30FB6018E07B685B68BA68D21A3B681B6871
S1131E409A420ED23B681A687B685968BB68CB1A01
S1131E501A443B681A607868FFF79EFF0023FB6012
S1131E6001E00123FB60FEF79BFEFB681846103778
S1131E70BD4680BD304C0000BC240020D02400208E
S1131E8080B400AF034B01221A60BD465DF8047BA9
S1131E90704700BFCC24002080B582B000AF7860CA
S1131EA000F042F802F026FBFAE700BF80B582B0EA
S1131EB000AF00237B600CE07A6813469B00134458
S1131EC09B00114A13441846FEF7C2FC7B68013399
S1131ED07B607B68022BEFD90C48FEF7B9FC0C48F9
S1131EE0FEF7B6FC0B48FEF7B3FC0B48FEF7B0FC5C
S1131EF00A48FEF7ADFC0A4B044A1A60094B044A2F
S1131F001A600837BD4680BD0C24002048240020F8
S1131F105C240020782400208C240020A4240020A9
S1131F20702400207424002080B582B000AF28E023
S1131F30FFF7C4FC164B1B68002B0CBF01230023C6
S1131F40DBB27B60FFF7C8FC7B68002B19D1FEF77E
S1131F50FFFD0F4BDB68DB683B603B6804331846CE
S1131F60FEF7FEFC0B4B1B68013B0A4A13600A4B4D
S1131F701B68013B084A1360FEF712FE386800F044
S1131F800DF8054B1B68002BD2D10837BD4680BD28
S1131F908C240020B8240020A024002080B582B026
S1131FA000AF78607B681B6B1846FEF741FC7868CD
S1131FB0FEF73EFC0837BD4680BD00BF80B483B049
S1131FC000AF0E4B1B681B68002B01D1012300E0FE
S1131FD00023002B04D00A4B4FF0FF321A6008E0B4
S1131FE0064B1B68DB68DB687B607B685B68044AC4
S1131FF013600C37BD465DF8047B704770240020E5
S1132000D824002080B483B000AF0B4B1B68002B96
S113201002D101237B6008E0084B1B68002B02D12E
S113202002237B6001E000237B607B6818460C3749
S1132030BD465DF8047B7047C4240020E0240020E2
S113204080B584B000AF78607B68FB607B68002B50
S113205064D0FB68DA6A334B1B68DB6A9A425DD250
S1132060FB689B69002B06DB2E4B1B68DB6AC3F104
S11320700302FB689A61FB685969FB68DA6A1346D4
S11320809B0013449B00284A1344994201D1012325
S113209000E00023002B3CD0FB6804331846FEF715
S11320A05FFC0346002B15D1FB68DA6A1E49134610
S11320B09B0013449B000B441B68002B0AD1FB6854
S11320C0DB6A1A4601239340DA43184B1B6813401A
S11320D0164A1360134B1B68DA6AFB68DA62FB6802
S11320E0DB6A1A46012303FA02F2104B1B681343FE
S11320F00E4A1360FB68DA6A13469B0013449B0084
S1132100094A1A44FB68043310461946FEF7CCFB0F
S113211004E0044B1B68DA6AFB68DA621037BD46D8
S113212080BD00BF082400200C240020C02400200F
S113213080B584B000AF78607B68BB600023FB602F
S11321407B68002B64D0354B1B68BA689A4204D074
S1132150334840F6C76100F0A1FBBB685B6C002B01
S113216004D12F4840F6C96100F098FBBB685B6C52
S11321705A1EBB685A64BB68DA6ABB681B6C9A4215
S113218046D0BB685B6C002B42D1BB680433184655
S1132190FEF7E6FB0346002B15D1BB68DA6A21493A
S11321A013469B0013449B000B441B68002B0AD16D
S11321B0BB68DB6A1A4601239340DA431A4B1B6857
S11321C01340194A1360BB681A6CBB68DA62BB68B7
S11321D0DB6AC3F10302BB689A61BB68DB6A1A4617
S11321E0012303FA02F2104B1B6813430E4A1360D7
S11321F0BB68DA6A13469B0013449B00094A1A44DD
S1132200BB68043310461946FEF74EFB0123FB60FE
S1132210FB6818461037BD4680BD00BF0824002067
S1132220304C00000C240020C024002080B400AFF7
S1132230074B1B68002B04D0054B1B685A6C0132FA
S11322405A64034B1B681846BD465DF8047B70470F
S11322500824002080B584B000AF78603960284B32
S11322601B68FB60274B1B6804331846FEF778FB9A
S11322700346002B0BD1234B1B68DB6A1A46012350
S11322809340DA43204B1B6813401F4A13607B685A
S1132290B3F1FF3F0AD13B68002B07D0194B1B68F1
S11322A004331A481946FEF7FFFA26E0FA687B68F9
S11322B01344BB60134B1B68BA685A60BA68FB6866
S11322C09A4209D2124B1A680E4B1B68043310460B
S11322D01946FEF70DFB10E00E4B1A68094B1B68FC
S11322E0043310461946FEF703FB0B4B1B68BA6810
S11322F09A4202D2084ABB6813601037BD4680BDBB
S1132300BC24002008240020C0240020A424002091
S11323107424002070240020D824002080B584B0C8
S113232002AF00237B6000F083FA0E4B1B68002B86
S11323300AD0022300930C4B01930C480C498C22C5
S11323400023FFF74BF978607B68002B04D1094820
S113235040F2331100F0A2FA7B6818460837BD46F4
S113236080BD00BF14250020182500209124000002
S1132370A44C0000AC4C000080B588B000AFF860FD
S1132380B9607A603B600023FB61FB68002B04D1D9
S11323901F484FF4D37100F081FA1E4B1B68002BC9
S11323A030D0BB683B617B687B61FB68BB61BB6809
S11323B0052B1CDCFFF726FE0346022B0BD1154B25
S11323C01A6807F1100310461946BA6A0023FEF78B
S11323D03BFDF86116E00F4B1A6807F11003104635
S11323E0194600220023FEF72FFDF8610AE0094B8D
S11323F01A6807F11003104619463A680023FEF7DD
S113240001FEF861FB6918462037BD4680BD00BF58
S1132410AC4C00001425002080B586B002AF786073
S11324203960194B1B68DB68DB68FB60FB680433AD
S11324301846FEF795FAFB68DB69012B1DD1FB6892
S11324409A697B681344F86819463A687B6800F017
S1132450C3F80346002B10D000230093F868002132
S11324607A680023FFF788FFB860BB68002B04D1AB
S113247006484FF4027100F011FAFB685B6AF868D1
S113248098471037BD4680BD0C250020AC4C000099
S113249080B584B000AF786007F10803184600F0F7
S11324A057F8F860BB68F868194600F003F800F0C4
S11324B0D5F8F1E780B584B000AF78603960FFF7F4
S11324C0FDF907F10803184600F066F8F860BB68E8
S11324D0002B31D13B68002B0AD17A68FB689A4201
S11324E006D8FFF7F9F97868F968FFF795FF25E052
S11324F03B68002B08D0134B1B681B68002B0CBFD8
S113250001230023DBB23B600F4B19687A68FB6838
S1132510D31A084619463A68FFF72AF8FFF7DCF998
S11325200346002B0AD1094B4FF080521A60BFF3C7
S11325304F8FBFF36F8F01E0FFF7CEF91037BD4621
S113254080BD00BF102500201425002004ED00E00C
S113255080B485B000AF78600E4B1B681B68002BFD
S11325600CBF01230023DBB21A467B681A607B6828
S11325701B68002B05D1074B1B68DB681B68FB60DD
S113258001E00023FB60FB6818461437BD465DF884
S1132590047B70470C25002080B584B000AF7860C0
S11325A0FFF734FAF8600B4B1B68FA689A4205D2BD
S11325B000F0E2F87B6801221A6002E07B680022E6
S11325C01A60044AFB681360FB6818461037BD465E
S11325D080BD00BF1C25002080B586B000AFF86028
S11325E0B9607A603B6000237B61FB68BA685A601B
S11325F0FB68FA681A61BA687B689A4212D87A68EA
S11326003B68D21AFB689B699A4202D301237B611F
S11326101BE0104B1A68FB68043310461946FEF79A
S113262067F912E07A683B689A4206D2BA683B6856
S11326309A4202D301237B6107E0074B1A68FB68C7
S1132640043310461946FEF753F97B6918461837C8
S1132650BD4680BD102500200C25002080B58AB021
S113266002AF73E0BB68002B70DB3B69FB61FB6965
S11326705B69002B04D0FB6904331846FEF770F93C
S11326803B1D1846FFF788FFB861BB68092B5CD86F
S113269001A252F823F000BFC1260000C1260000A9
S11326A0C12600004D270000152700004327000025
S11326B0C1260000C12600004D2700001527000098
S11326C0FA68FB699B691A44FB68F8691146BA69A0
S11326D0FFF782FF0346002B1BD0FB695B6AF86996
S11326E09847FB69DB69012B13D1FA68FB699B6985
S11326F01A4400230093F86900210023FFF73CFEED
S113270078617B69002B04D1194840F2213100F033
S1132710C5F81BE0FA68FB699A61FB699B69002BA9
S113272004D113484FF44E7100F0B8F8FB699A696C
S1132730BB691344F8691946BA69BB69FFF74CFFD2
S113274004E0F869FEF774F800E000BF094B1A686A
S113275007F108031046194600220023FEF7D0FCB7
S11327600346002B7FF47EAF2037BD4680BD00BFFB
S1132770AC4C00001425002080B588B002AF3FE0C7
S1132780284B1B68DB681B687B61264B1B68DB6876
S1132790DB683B613B6904331846FEF7E1F83B69AB
S11327A05B6A386998473B69DB69012B28D13B692F
S11327B09A697B691344FB60FA687B699A420ED973
S11327C03B69FA685A603B693A691A61154B1A68A1
S11327D03B69043310461946FEF78AF810E00023DB
S11327E00093386900217A690023FFF7C5FDB860BA
S11327F0BB68002B04D10C4840F2923100F04EF833
S1132800084B1B681B68002BBAD1064B1B687B6006
S1132810064B1B68034A1360044A7B68136018372D
S1132820BD4680BD0C250020AC4C000010250020C6
S113283080B500AFFEF78CF9124B1B68002B1DD13D
S11328401148FEF705F81148FEF702F8104B0E4A3E
S11328501A60104B0D4A1A600A200C210022FEF760
S11328609FFA0246074B1A60064B1B68002B05D0E3
S1132870044B1B6818460849FEF752FEFEF790F910
S113288080BD00BF14250020E4240020F82400208B
S11328900C250020102500201C4D000080B483B0BE
S11328A000AF78603960FEE780B487B000AFF860AD
S11328B0B9607A60FB6803F10473DA00BB681344FF
S11328C09B007B617B697A681A601C37BD465DF8A2
S11328D0047B704780B483B000AF7860034A7B68A0
S11328E013630C37BD465DF8047B70470010084045
S11328F080B582B000AF0346FB71FB7983F001031E
S1132900DBB2002B05D10F4B1B6803F00303002B34
S113291007D1FB79002B04D00B484FF48B71FFF7E0
S1132920BDFFFB79002B05D0064803210022FFF7E9
S1132930BBFF04E0034803210122FFF7B5FF08377A
S1132940BD4680BD00100840244D000080B582B013
S113295000AF0346FB71FB79034800211A46FFF7D9
S1132960A3FF0837BD4680BD3810084080B584B049
S113297000AF78607B68002B03D07B68B3F5004F11
S113298003D907484821FFF789FF7B68B3FA83F32B
S1132990C3F11F03FB60FB6818461037BD4680BDBA
S11329A0884D000080B483B000AF78600C4B9B6B03
S11329B003F00103002B05D1094B1B6803F44053BA
S11329C0002B00D106E000BF054BDA6B7B68134097
S11329D0002BF9D10C37BD465DF8047B704700BF6E
S11329E00010084080B584B000AF78607B68002B8D
S11329F003D141488421FFF751FF7B689B68002B7A
S1132A0003D07B689B68802B03D93B488621FFF762
S1132A1045FF7B68DB68062B03D937488921FFF71C
S1132A203DFF7B681B78002B0ED07B681B7883F0FE
S1132A300103DBB2002B03D17B685B78002B03D14D
S1132A402D488D21FFF72AFF7B689B88B3F5405FF3
S1132A500CD17B689B88B3F5405F03D17B689B7C7A
S1132A60002B03D024489121FFF718FF7B689B6853
S1132A701846FFF77BFFF8607B681B78002B02D0B9
S1132A800120FFF763FF0120FFF78CFF1B4A7B68DF
S1132A909B7C53607B685B7843F00803DBB21A4687
S1132AA07B689B789B0013437A68527C12011A431B
S1132AB07B68DB685B011A43FB681B0213437A687B
S1132AC0928813437A68127C92031343BB604FF0DD
S1132AD0FF30FFF7FFFE094ABB6813607B681B7871
S1132AE0002B05D00120FFF703FF0020FFF72EFF86
S1132AF01037BD4680BD00BF884D0000001008405F
S1132B0080B582B000AF786039607B68002B03D059
S1132B100648CA21FFF7C2FE0220FFF743FF044A1A
S1132B203B68D3600837BD4680BD00BF884D0000B8
S1132B300010084080B582B000AF78607B68002B3D
S1132B4003D00548DF21FFF7A9FE044BDB681846D4
S1132B500837BD4680BD00BF884D00000010084006
S1132B6080B500AF054803210122FFF79DFE03480D
S1132B7003210022FFF798FE80BD00BF001008402B
S1132B8080B487B000AFF860B9607A60FB6803F185
S1132B900473DA00BB6813449B007B617B697A6829
S1132BA01A601C37BD465DF8047B704780B485B05D
S1132BB000AF786039607B6803F10473DA003B6826
S1132BC013449B00FB60FB681B6818461437BD4622
S1132BD05DF8047B704700BF80B584B000AF7860B7
S1132BE07B68002B03D07B68B3F5004F04D90848F9
S1132BF040F29661FFF752FE7B68B3FA83F3C3F1A8
S1132C001F03FB60FB6818461037BD4680BD00BF3C
S1132C10EC4D000080B400AF044BDB6C1B0EDBB248
S1132C201846BD465DF8047B704700BFB081E00FD5
S1132C3080B400AF054BDB6C03F47F031B0CDBB2E9
S1132C401846BD465DF8047B704700BFB081E00FB5
S1132C5080B582B000AFFFF7EBFF03464A2B04D0E8
S1132C60792B02D0482B21D022E0164B1B699BB252
S1132C7003F03F039BB21B02FB80124B9B6903F0E2
S1132C80F0039AB2FB881343FB800E4BDB6903F01D
S1132C90F0031B099AB2FB881343FB80FB88B3F54E
S1132CA0017F01D3084B09E0084B07E0074B05E01F
S1132CB007484FF48771FFF7F1FD002318460837E2
S1132CC0BD4680BDD0FF0FE000366E010048E8012C
S1132CD04C4E000080B584B000AF78600123FB60E7
S1132CE0FFF7B6FF02467B689A4204D30023FB60D9
S1132CF00023BB600BE0FFF7ABFF03465A007B6881
S1132D009A4202D30123BB6001E00223BB6008485E
S1132D101E21FA68FFF734FF0549054B5B6823F46D
S1132D208072BB681B0213434B601037BD4680BDE5
S1132D3000800C4080B582B000AF05481E21FFF72B
S1132D4035FF78607B6818460837BD4680BD00BFF4
S1132D5000800C4080B582B000AF244B5B6903F463
S1132D60E063B3F5007F1CD0B3F5007F05D8002BDA
S1132D7025D0B3F5807F1FD02AE0B3F5C06F24D0EF
S1132D80B3F5E06F1ED0B3F5407F21D1FFF742FFCA
S1132D900346122B02D9164B7B6021E0154B7B6056
S1132DA01EE0FFF737FF0346122B02D9124B7B605C
S1132DB016E0124B7B6013E0114B7B6010E0114B6B
S1132DC07B600DE0104B7B600AE0104B7B6007E0FA
S1132DD00F484FF4C671FFF761FD00237B6000BF0D
S1132DE07B6818460837BD4680BD00BF00800C4094
S1132DF0804F120040420F0040B56400C0CF6A000B
S1132E00C0D8A700809FD500406F4001003FAB01B0
S1132E104C4E000080B582B000AF0F4800F0B8FA05
S1132E200346FB70FB78072B05D0092B07D1FDF770
S1132E3041FB78600BE0FFF78DFF786007E00748FF
S1132E404FF4E371FFF72AFD00237B6000BF7B682A
S1132E5018460837BD4680BD06000C004C4E0000E5
S1132E6080B485B000AF78603960284BDB6B002BF1
S1132E7014BF01230023BB72244B41F67132DA6381
S1132E80224B5B6803F00703FB60FB68012B01D94D
S1132E90042B02D10023FB7202E00123FB7200BF6A
S1132EA07B681B4A934207D9FB7A002B01D0052388
S1132EB000E00423FB6016E07B68154A93420BD8BC
S1132EC07B68144A934207D9FB7A002B01D0032371
S1132ED000E00123FB6006E0FB7A002B01D0022313
S1132EE000E00023FB600949084B5B6823F00702FC
S1132EF0FB6813434B60BB7A002B02D0034B0022C8
S1132F00DA631437BD465DF8047B704700000C405B
S1132F100048E8010024F40080B500AFFDF7C0FAD2
S1132F20034618460021FFF79BFF80BD80B582B0A1
S1132F3000AF7860396078683968FFF791FF083727
S1132F40BD4680BD90B585B000AF78600023BB60FE
S1132F507B683B4A934208D03A4A934205D03A48A8
S1132F6040F2B531FFF79AFC00E000BF786800F04A
S1132F700FFA0346FB607B68314A934203D0314A1F
S1132F80934206D00CE0314B9B6A03F00303FB60D1
S1132F900CE02E4B9B6A03F00C039B08FB6005E0DE
S1132FA029484FF47971FFF779FC00BFFB68032BC4
S1132FB039D801A252F823F0EF2F0000C92F0000E6
S1132FC0D12F0000D92F0000FDF706FBB86032E0D6
S1132FD0FDF716FBB8602EE0FDF748FA0446FFF74C
S1132FE0A9FE0346013324FA03F3BB6023E0002364
S1132FF0BB607B68124A934203D07B68114A9342B8
S113300010D1124B9A6A7B680D498B4201D110236F
S113301000E0142322FA03F3002B03D0FDF7E6FAB1
S1133020B86008E007E0084840F20E41FFF736FCBC
S11330300023BB6000BFBB6818461437BD4690BD73
S113304002001A0003001C004C4E000000800C40DB
S113305080B483B000AF7860094B5B6D03F001036B
S1133060002B00D006E000BF054B1A6D7B681340AF
S1133070002BF9D10C37BD465DF8047B704700BFC7
S113308000800C4080B582B000AF104800F080F999
S11330900346FB70FB78032B07D0092B09D0022BC6
S11330A00BD1FDF7ADFA78600AE0FDF795FA786088
S11330B006E0FDF7FFF9786002E000237B6000BFC3
S11330C07B6818460837BD4680BD00BF0723220031
S11330D080B586B000AF78600B46FB7000233B617F
S11330E07B681B0A03F00F03013B092B33D801A2B1
S11330F052F823F031310000373100001D31000057
S113310057310000573100003D31000047310000C5
S11331105731000057310000513100001B4B7B61D7
S11331201B4800F043F803461846FFF7D3FD18E0A8
S1133130184B7B6115E0184B7B6112E0174B7B61E8
S113314001233B610DE0164B7B6110233B6108E0DA
S1133150144B7B6105E014484FF4FB61FFF79EFBC1
S113316010E07B681B0B03F01F03FB603B69002B23
S113317002D03869FFF76CFFFB787869F9681A4662
S1133180FFF7FEFC1837BD4680BD00BF40800C40F1
S11331900043020008800C4044800C4058800C40DE
S11331A060800C4078800C404C4E000090B585B097
S11331B000AF78607B6803F47813B3F5B01F00F0B8
S11331C0AB80B3F5B01F1AD8B3F5402F00F0BF8021
S11331D0B3F5402F08D8B3F5003F3CD0B3F5802FAA
S11331E02DD0002B27D0BEE0B3F5801F3CD0B3F523
S11331F0A01F47D0B3F5602F00F0AD80B3E0B3F566
S1133200081F00F0AC80B3F5081F0AD8B3F5D01F2F
S113321025D0B3F5E01F7AD0B3F5C01F00F0898044
S1133220A1E0B3F5201F4ED0B3F5281F62D0B3F54B
S1133230181F35D097E0FDF73DF9F8609BE0FDF7E6
S113324039F9F8604E4B9B6803F00F031A46FB688C
S1133250D340FB608FE0FDF709F9F8608BE0494843
S1133260FFF770FEF86086E04648FFF76BFEF860F3
S1133270434B9B6E03F0F0031B091A46FB68D340D3
S1133280FB6078E03F48FFF75DFEF8603C4B9B6EC7
S113329003F470631B0A1A46FB68D340FB606AE0C0
S11332A03848FFF74FFEF860354B9B6E03F44053EC
S11332B01C0B1020FFF790FC034623441A46FB68BE
S11332C0D340FB6057E02F48FFF73CFEF8602C4BDF
S11332D09B6E03F440531B0B1A46FB68D340FB6000
S11332E0274BDB6F03F007030133FA68B2FBF3F3F8
S11332F0FB6040E02348FFF725FEF860204B9B6EFF
S113330003F003031A46FB68D340FB6033E01E4816
S1133310FFF718FEF8602EE01B48FFF713FEF86075
S1133320174B1B6F03F003031A46FB68D340FB6083
S113333021E01548FFF706FEF860114B1B6F03F000
S113334030031B091A46FB68D340FB6013E0FFF708
S113335061FDF8600FE0FFF7FDFCF8600BE0FFF79C
S113336091FEF86007E0094840F6CC01FFF796FAB1
S11333700023FB6000BFFB6818461437BD4690BDB0
S113338000800C4002001A0003001C004C4E000098
S113339080B584B000AF78600123FB737B6803F0D1
S11333A00F03BB60BB68013B062B00F2938001A2B4
S11333B052F823F0D13300000734000043340000F6
S11333C0D5340000D53400007F340000A13400005F
S11333D0474BDB6A03F47053B3F5805F09D0B3F550
S11333E0005F03D0B3F5006F06D008E00223FB733F
S11333F008E00323FB7305E00423FB7302E00523C9
S1133400FB7300BF6EE03A4B9B6A03F00303022B8D
S113341006D0032B07D0012B08D10323FB730FE045
S11334200223FB730CE00623FB7309E0304B9B6A19
S113343003F48033002B02D00A23FB7300E000BFA7
S113344050E02B4B9B6A03F00C03082B06D00C2B8B
S113345007D0042B08D10323FB730FE00223FB7373
S11334600CE00623FB7309E0214B9B6A03F48013F1
S1133470002B02D00A23FB7300E000BF32E01C4B98
S11334801B6803F08053002B03D0B3F1805F03D09B
S113349028E00723FB7302E00923FB7300BF21E04C
S11334A0134BDB6A03F46033B3F5803F08D0B3F504
S11334B0003F08D0B3F5004F08D10923FB7308E09F
S11334C00223FB7305E00323FB7302E00123FB7378
S11334D000BF07E007484FF44761FFF7DFF9002317
S11334E0FB7300BFFB7B18461037BD4680BD00BF91
S11334F000800C404C4E000080B588B000AF78606E
S11335000B46FB700323FB610323FB7600233B6123
S11335107B6803F00F03FB60FB68013B062B00F2A2
S1133520438101A252F823F04535000033360000F0
S113353033360000A9370000A93700000137000026
S113354037370000FB78023B082B52D801A252F80F
S113355023F000BF79350000833500008D3500006D
S1133560CF350000F3350000F3350000F3350000DB
S1133570F3350000E73500000423FB610023FB76EC
S11335803DE00323FB610123FB7638E00223FB616A
S11335900223FB76FFF75CFB034601331846FFF773
S11335A099FBFDF707F80246844B9A4206D9844AF0
S11335B0834B1B6843F06003136020E0804A804B18
S11335C01B6823F0600343F02003136017E001231A
S11335D0FB610323FB76FFF73BFB034601331846ED
S11335E0FFF778FB0BE0774840F61451FFF756F9E4
S11335F0E0E0744840F61951FFF750F9DAE0FB7E39
S113360018460121012200F059F9FFF785FC6C4AA4
S1133610FB6953626C48FFF7C9FD03461846FFF780
S113362059FBFCF723FFB860B8680021FFF77EFC64
S1133630C0E0FB78013B092B3CD801A252F823F0EF
S1133640693600006F3600007F360000B536000092
S1133650B53600008F360000B5360000B5360000E0
S1133660B5360000AB36000000237B6128E0002063
S11336700121012200F022F902237B6120E00120D4
S11336800121012200F01AF901237B6118E0FCF703
S1133690EDFEB860B868FFF71DFB4C480421012219
S11336A0FFF76EFA03237B610AE000237B610123A9
S11336B03B6105E0434840F6B851FFF7EFF879E085
S11336C0FB68022B0DD13E493D4B9B6A23F48033AA
S11336D023F003037A691A433B691B0413438B6287
S11336E068E03749364B9B6A23F4801323F00C03BC
S11336F07A6992001A433B691B0513438B6259E0B4
S1133700FB78072B02D0092B07D00DE02C4A2C4B59
S11337101B6823F0805313600CE0294A284B1B6874
S113372043F08053136005E0264840F61361FFF729
S1133730B5F83FE03EE0FB78032B13D0092B21D0F2
S1133740022B2AD100200121012200F0B7F81C4BE2
S113375040225A6200BF1A4BDB6A03F48033002B09
S1133760F9D020E001200121012200F0A7F8144B38
S113377060225A6200BF124BDB6A03F40033002B51
S1133780F9D010E00E4B20225A6200BF0C4BDB6ACA
S113379003F40043002BF9D005E00A4840F65261D7
S11337A0FFF77CF806E005E0064840F62771FFF7CE
S11337B075F800BF2037BD4680BD00BF0048E80152
S11337C000800C404C4E00000043020040800C403E
S11337D080B586B000AF0346FB71FB79052B33D867
S11337E001A252F823F000BF013800000B3800009A
S11337F01938000027380000313800003B38000039
S11338002A4BDB6ADBB27B6124E0284BDB6A03F4DE
S11338107F431B0A7B611DE0244BDB6A03F47F03B7
S11338201B0C7B6116E0214BDB6A1B0E7B6111E0F4
S11338301E4B1B6BDBB27B610CE01C4B1B6B03F45C
S11338407F431B0A7B6105E0194841F22C01FFF715
S113385025F827E01120FFF79BFD0346FB74FB7C52
S1133860052B01D1FFF758FB1249124BDB6823F4F7
S1133870FF6323F00703FA7912021A437B691343A7
S1133880CB60FB7C052B06D1FCF7F0FDF860F868F3
S11338900021FFF74BFB0848FFF788FC0346184656
S11338A0FFF718FA1837BD4680BD00BFB081E00F9E
S11338B04C4E000000800C400043020080B586B0EE
S11338C000AF0346FB710B46BB7113467B71FB795A
S11338D0042B32D801A252F823F000BF293900008A
S11338E01B390000FF380000F13800000D390000DA
S11338F001233B610223FB6001237B6123E004235A
S11339003B610823FB6003237B611CE010233B61C4
S11339102023FB6005237B6115E040233B6180236A
S1133920FB6007237B610EE04FF480733B614FF42F
S11339300073FB6009237B6105E00F4841F2CC2151
S1133940FEF7ACFF14E0BB79002B0ED00B4A3B69A9
S113395013627B79002B0BD000BF09487969FFF70C
S113396025F90346002BF8D002E0044AFB681362F1
S11339701837BD4680BD00BF4C4E000000800C408F
S11339802C800C4080B483B000AFEFF310833B6015
S11339903B687B6072B67B6818460C37BD465DF8A1
S11339A0047B704780B483B000AF78607B68002BE1
S11339B000D162B60C37BD465DF8047B704700BF8A
S11339C080B500AFFCF752FD80BD00BF80B400AFEE
S11339D0034B4AF6E8529A60BD465DF8047B704793
S11339E000600C4080B400AF034B0022C3F8842075
S11339F0BD465DF8047B704700800C4080B400AF86
S1133A00044B45F60E02C3F88420BD465DF8047BE2
S1133A10704700BF00800C4080B584B000AF0346FF
S1133A20FB71FB79002B0BD12C4BDB6A2C4A136006
S1133A301120FFF7ADFC03461A462A4B1A704AE0E0
S1133A40FB79012B47D1254BD3F8843003F00103D4
S1133A50FB60FFF7D3FF0023BB60214B1B6803F01F
S1133A600103BA681343BB601D4B1B6803F01003CA
S1133A70BA681343BB601A4B1B6803F04003BA686F
S1133A801343BB60164B1B6803F00403BA6813436B
S1133A90BB60134B1B6803F48073BA681343BB60A9
S1133AA00E4ABB6813620F4B1B78052B05D00D4BD8
S1133AB01B7811201946FFF71FFD094B1B6803F003
S1133AC00103002B02D1054B02221A62FB68002B72
S1133AD001D0FFF787FF1037BD4680BD00800C4042
S1133AE0202500202425002080B483B000AF164B8D
S1133AF01B699BB203F03F039BB21B02FB80124B7A
S1133B009B6903F0F0039AB2FB881343FB800E4BCE
S1133B10DB6903F0F0031B099AB2FB881343FB80B3
S1133B20FB88B3F5827F03D3FB88B3F5017F01D112
S1133B30012300E0002303F00103DBB218460C3735
S1133B40BD465DF8047B7047D0FF0FE080B586B0BA
S1133B5000AF0346FB71FB79002B02D00020FFF776
S1133B605BFF1A4A194B1B6943F004031361FFF707
S1133B70BBFF0346FB75FB7D002B11D0144B1A6869
S1133B80144B1340FB60124AFB68C2F88030104BA0
S1133B905B6823F046033B610D4A3B69C2F88430FD
S1133BA030BFFB7D002B05D0094AFB681360084A2F
S1133BB03B695360FB79002B03D00120FFF72CFFF6
S1133BC001E0FFF7FDFE1837BD4680BD00ED00E0C3
S1133BD000E100E09CF1FD0080B586B000AF034633
S1133BE0FB71FB79002B02D00020FFF715FF234B5C
S1133BF0D3F8843003F001037B61FFF7FFFE1F4B12
S1133C004FF420721A627B69002B01D0FFF7EAFEA1
S1133C101B4A1B4B1B6943F004031361FFF764FF4A
S1133C200346FB74FB7C002B11D0164B1A68164B11
S1133C301340BB60134ABB68C2F88030114B5B6809
S1133C4023F04603FB600F4AFB68C2F8843030BFA0
S1133C50FB7C002B05D00B4ABB681360094AFB6848
S1133C605360FB79002B03D00120FFF7D5FE01E060
S1133C70FFF7A6FE1837BD4680BD00BF00800C408C
S1133C8000ED00E000E100E09CF1FD0080B584B0AF
S1133C9000AF114B1B6823F00C0343F00803BB6017
S1133CA00D4B1B6843F00C037B60FFF78FFE002372
S1133CB0FB6008E0084ABB681360074A7B6813602E
S1133CC0FB680133FB60FB68032BF3DD024ABB682E
S1133CD013601037BD4680BD00600C4080B582B0D3
S1133CE000AF03463960FB71FB79002B1FD0FB79D1
S1133CF0012B19D0FB79022B13D0FB79032B0DD0A8
S1133D00FB79042B07D0FB79052B02D141F6FF7315
S1133D100FE000230DE04FF6FF730AE04FF6FF7348
S1133D2007E04FF6FF7304E04FF6FF7301E04FF630
S1133D30FF733A68134103F00103002B04D10B48CD
S1133D4040F25931FEF7AAFD0949FA793B6801208E
S1133D5000FA03F318461346DB0013449B000B449C
S1133D60103358600837BD4680BD00BFAC4E00001C
S1133D700060004080B582B000AF03463960FB713B
S1133D80FB79002B1FD0FB79012B19D0FB79022B77
S1133D9013D0FB79032B0DD0FB79042B07D0FB79CF
S1133DA0052B02D141F6FF730FE000230DE04FF61F
S1133DB0FF730AE04FF6FF7307E04FF6FF7304E06A
S1133DC04FF6FF7301E04FF6FF733A68134103F0B7
S1133DD00103002B04D10B4840F28631FEF75EFD4F
S1133DE00949FA793B68012000FA03F3184613469F
S1133DF0DB0013449B000B44103318600837BD46A6
S1133E0080BD00BFAC4E00000060004090B585B09E
S1133E1000AFB9607B600346FB731346BB73FB7B47
S1133E20002B1FD0FB7B012B19D0FB7B022B13D063
S1133E30FB7B032B0DD0FB7B042B07D0FB7B052BDB
S1133E4002D141F6FF730FE000230DE04FF6FF733C
S1133E500AE04FF6FF7307E04FF6FF7304E04FF6F6
S1133E60FF7301E04FF6FF73BA68134103F00103D7
S1133E70002B04D137484FF48571FEF70FFDBB7B4F
S1133E80002B0DD07B68002B05D0FB7B1846B9684E
S1133E90FFF770FF04E0FB7B1846B968FFF71EFFCD
S1133EA0BB68072B1CD82C4CFA7B2B48F97B0B46A0
S1133EB0DB000B449B0003445968BB689B00184615
S1133EC00F238340DB430B40B97BB86880008140FB
S1133ED019431346DB0013449B002344596024E038
S1133EE01D4CFA7B1C48F97B0B46DB000B449B0002
S1133EF0034408331968BB6803F18043083B9B0003
S1133F0018460F238340DB431940B87BBB6803F199
S1133F108043083B9B0000FA03F319431346DB007C
S1133F2013449B00234408331960BB7B002B0DD141
S1133F307B68002B05D0FB7B1846B968FFF71AFF96
S1133F4004E0FB7B1846B968FFF7C8FE1437BD468A
S1133F5090BD00BF104F00000060004080B485B0E9
S1133F6000AF78607B68FB60FB6893FAA3F3BB60E7
S1133F70BB68B3FA83F318461437BD465DF8047B77
S1133F80704700BF80B487B000AFF860B9607A6052
S1133F90FB6803F10473DA00BB6813449B007B6184
S1133FA07B697A681A601C37BD465DF8047B7047EC
S1133FB080B400AF034B00229A60BD465DF8047BD9
S1133FC0704700BF00600C4080B400AF034B4AF65A
S1133FD0E8529A60BD465DF8047B704700600C406F
S1133FE080B584B000AF03460A46FB711346BB712B
S1133FF0FB791846FFF7B2FFF860BB79002B14BFBA
S113400001230023DBB20448F9681A46FFF7BAFF1C
S11340101037BD4680BD00BF00A00C4080B582B003
S113402000AF0F4B01229A600E4B9B6803F0010313
S11340307B607B68002B01D0FFF7C6FF0A48002194
S11340400122FFF79FFF084800210022FFF79AFF93
S11340507B68002B01D0FFF7ABFF0837BD4680BD5E
S113406000A00C4000600C4024600C4080B485B07B
S113407000AF174B5B687B600023FB600023BB60D1
S11340801CE0144ABB68DB0013445B683B60114AC4
S1134090BB6852F833207B681340002B0BD07A683E
S11340A03B681340002B06D10A4ABB6852F83330F0
S11340B0FA681343FB60BB680133BB60BB680F2B1A
S11340C0DFD9FB6818461437BD465DF8047B70479A
S11340D000A00C40704F000080B584B000AF786041
S11340E07B68002B03D11A483E21FEF7D7FB194BFE
S11340F05B69DBB203F00F03DBB29B00FB73154B70
S11341001B6903F0C0039B09DAB2FB7B1343FB7307
S11341107B68FA7B9A700F4B1B69DBB203F03F0399
S1134120DAB27B685A700B4B9B69DBB223F00F0346
S1134130FB73084BDB6903F0F0031B09DAB2FB7B6A
S11341401343FB737B68FA7B1A701037BD4680BD3E
S1134150F04F0000D0FF0FE080B483B000AF786070
S11341607B680D4A93420BD07B680C4A934207D07C
S11341707B680B4A934203D07B680A4A934201D17D
S1134180012300E0002303F00103DBB218460C37DF
S1134190BD465DF8047B7047000001400004014007
S11341A000080140000C014080B582B000AF786087
S11341B039607868FFF7D0FF0346002B03D13448F9
S11341C04D21FEF76BFB3B681B7883F00103DBB2E8
S11341D0002B02D07B6802225A607B6800225A625C
S11341E03B689B781A063B68DB781B041A433B68E0
S11341F09B799B021A433B68DB791B0213433A68A1
S1134200127A1A433B685B78002B01D0402300E00C
S113421000231A433B685B7A002B01D0802300E023
S113422000231A433B689B7A002B01D0202300E033
S113423000231A433B68DB7A002B01D0102300E0F3
S113424000231A433B681B79002B02D04FF4005320
S113425000E000231A433B685B79002B02D04FF047
S1134260805300E000231A433B681B7B002B01D0E2
S1134270082300E000231A437B681A603B681B781C
S1134280002B02D07B6801225A600837BD4680BDEE
S1134290B850000080B584B000AFF860B9607A60AF
S11342A0F868FFF759FF0346002B03D12748822102
S11342B0FEF7F4FABB68022B03D924488321FEF7E6
S11342C0EDFA7B681B789A067B685B781B061A43B9
S11342D07B689B781B041A437B68DB781B031A43B7
S11342E07B681B799B021A437B685B791B0213432F
S11342F07A6892791A437B68DB79002B02D04FF4F9
S1134300001300E000231A437B681B7A002B02D0C1
S11343104FF4801300E000231A437B685B7A002B80
S113432001D0102300E000231A437B689B7A002B02
S113433001D0042300E000231A43F968BB68033367
S11343401B010B441A601037BD4680BDB8500000F5
S113435080B483B000AF0346FB71084997F9073076
S11343605B09FA7902F01F02012000FA02F241F817
S113437023200C37BD465DF8047B704700E100E064
S113438080B483B000AF0346FB71094997F9073045
S11343905B09FA7902F01F02012000FA02F260338D
S11343A041F823200C37BD465DF8047B704700BFFD
S11343B000E100E080B483B000AF03463960FB71D4
S11343C097F90730002B0BDA0D49FB7903F00F0343
S11343D0043B3A68D2B25201D2B20B441A7609E0D5
S11343E0084997F907303A68D2B25201D2B20B4465
S11343F083F800230C37BD465DF8047B704700BF8B
S113440000ED00E000E100E080B487B000AFF860A8
S1134410B9607A60FB6803F10473DA00BB68134483
S11344209B007B617B697A681A601C37BD465DF826
S1134430047B704780B483B000AF7860034A7B6824
S113444013630C37BD465DF8047B704700100840C9
S113445080B483B000AF78600549054B5A6B7B6824
S1134460DB4313404B630C37BD465DF8047B704758
S11344700010084080B483B000AF78600549054B54
S11344805A6B7B6813434B630C37BD465DF8047B62
S1134490704700BF0010084080B582B000AF0346EB
S11344A0FB71FB7983F00103DBB2002B05D10F4BC9
S11344B01B6803F00303002B07D1FB79002B04D006
S11344C00B484FF48B71FEF7E9F9FB79002B05D00B
S11344D0064803210022FFF797FF04E00348032165
S11344E00122FFF791FF0837BD4680BD0010084048
S11344F0CC50000080B500AFFCF7CAF880BD00BF07
S113450080B584B000AF0020FEF714FB02463223CE
S11345109A420AD00020FFF7BFFF32230020194639
S1134520FEF7EEFA0120FFF7B7FF0720FFF782FF3F
S1134530EFF311824FF0BF0383F31188BFF36F8F42
S1134540BFF34F8FBA607B60FDF770FAF860FB68C9
S1134550002B07D0074B4FF080521A60BFF34F8FE8
S1134560BFF36F8F00233B603B6883F311881037E0
S1134570BD4680BD04ED00E0B0B586B000AF1C4B75
S11345803C1D1D460FCD0FC42B6823601948012123
S1134590FEF79EFD02200021FFF722FD02237B711E
S11345A04FF440533B810123FB6001237B753B1D8A
S11345B01846FEF717FA0220FFF74AFF1F20FF21D3
S11345C0FFF7F8FE1F20FFF7DBFE1F20FFF7C0FEFA
S11345D0322300201946FEF793FA0220FFF72AFF40
S11345E00220FFF747FFFEF7BBFA1837BD46B0BD00
S11345F0305100000043020080B483B000AF034692
S1134600FB71084997F907305B09FA7902F01F0238
S1134610012000FA02F241F823200C37BD465DF870
S1134620047B704700E100E080B400AF044BDB6C16
S11346301B0EDBB21846BD465DF8047B704700BF15
S1134640B081E00F80B582B000AFFFF7EDFF034605
S1134650FB713B1D1846FFF73FFDFB790F2B0AD971
S11346603B79022B07D9054A044B1B6823F05003FE
S113467043F0100313600837BD4680BDC0800C4072
S113468080B483B000AF78604FF6FF7318460C37E0
S1134690BD465DF8047B704780B584B000AFF86018
S11346A0B9607A60F868FFF7EBFF02467B689A42CC
S11346B004D2074840F24721FEF7F0F8FA68BB68D5
S11346C01B01134438337A685A601037BD4680BDE5
S11346D04451000080B584B000AFF860B9607A60DE
S11346E0F868FFF7CDFF02467B689A4204D2074878
S11346F040F25D21FEF7D2F8FA68BB6803331B0170
S113470013447A685A601037BD4680BD4451000096
S113471080B582B000AF786039607868FFF7B0FF89
S113472002463B689A4204D205484FF41F71FEF7D3
S1134730B5F87B683A685A620837BD4680BD00BF49
S11347404451000080B483B000AF786039607B6866
S11347503A689A610C37BD465DF8047B704700BF28
S113476080B483B000AF786039607B68DA683B68F6
S11347701A437B68DA600C37BD465DF8047B7047EA
S113478080B582B000AF786039607868FFF778FF51
S113479002463B689A4204D2054840F29B31FEF738
S11347A07DF87B683A68DA610837BD4680BD00BF92
S11347B04451000080B586B000AF78607B683B61EF
S11347C03B691B68FB600123FB75174B1B88FA2BA5
S11347D01CD1FB7D002B05D0144B1B68FA33134A04
S11347E0136004E0114B1B68FA3B104A13600F4B33
S11347F01B680F4802211A46FFF74EFF3B695B68AE
S11348001846FBF74DFD084B00221A80074B1B6826
S1134810B3F57A7F01D30023FB75044B1B68002B8F
S113482001D10123FB75D0E726250020282500208F
S1134830000C014080B500AF05480121FFF782FF5D
S1134840044B1B8801339AB2024B1A8080BD00BF0F
S1134850000001402625002080B582B002AFFFF79A
S1134860F1FE0020FEF7B4FF27480121FEF730FCDB
S1134870FBF7C2FDFBF7E6FC24484FF47A71FFF71F
S11348807FFF22482249FFF78FFC20480221214A5A
S1134890FFF700FD1D4B204A9A621C480021FFF7D8
S11348A037FF1E4B1B68194802211A46FFF712FFF7
S11348B01A4B1B68154802211A46FFF7EDFE1348F0
S11348C00121FFF74DFF0220FFF796FE0020002193
S11348D0FBF7B2FE01230093002301931048114912
S11348E09622114BFCF77AFE0123009300230193D7
S11348F00B480E4996220E4BFCF770FEFCF796FF10
S113490000231846BD4680BD00520400000001404B
S113491010000020200000200400010028250020B1
S1134920B5470000A85100002C000020B45100003D
S11349303400002008B5074B044613B10021AFF33F
S11349400080054B1868836A03B19847204600F03D
S11349503FF800BF00000000C05100000E4B70B5CE
S11349601E460E4C0025E41AA410A54204D056F8A5
S1134970253098470135F8E700F02CF8084B094C2E
S11349801E46E41AA4100025A54204D056F825308A
S113499098470135F8E770BD9C0000209C0000207A
S11349A09C000020A000002010B5431E0A44914240
S11349B004D011F8014B03F8014FF8E710BD03468A
S11349C00244934202D003F8011BFAE77047000047
S11349D0FEE700BFF8B500BFF8BC08BC9E467047B0
S11349E0F8B500BFF8BC08BC9E4670472F757372BB
S11349F02F6C6F63616C2F53696D706C696369749C
S1134A007953747564696F5F76342F646576656C69
S1134A106F7065722F73646B732F6765636B6F5F61
S1134A2073646B5F73756974652F76312E312F2F24
S1134A30706C6174666F726D2F656D6C69622F693D
S1134A406E632F656D5F6770696F2E6800000000EC
S1134A500400000002000000040000000300000045
S1134A602F7573722F6C6F63616C2F53696D706C4B
S1134A70696369747953747564696F5F76342F64FC
S1134A806576656C6F7065722F73646B732F6765E1
S1134A90636B6F5F73646B5F73756974652F7631D5
S1134AA02E312F706C6174666F726D2F656D647238
S1134AB0762F736C6565702F7372632F736C6565E5
S1134AC0702E63002F7573722F6C6F63616C2F539C
S1134AD0696D706C696369747953747564696F5F27
S1134AE076342F646576656C6F7065722F73646BB2
S1134AF0732F6765636B6F5F73646B5F7375697442
S1134B00652F76312E312F7574696C2F7468697234
S1134B10645F70617274792F6672656572746F7305
S1134B202F536F757263652F706F727461626C6559
S1134B302F4D656D4D616E672F686561705F312E15
S1134B40630000002F7573722F6C6F63616C2F53B9
S1134B50696D706C696369747953747564696F5FA6
S1134B6076342F646576656C6F7065722F73646B31
S1134B70732F6765636B6F5F73646B5F73756974C1
S1134B80652F76312E312F7574696C2F74686972B4
S1134B90645F70617274792F6672656572746F7385
S1134BA02F536F757263652F706F727461626C65D9
S1134BB02F4743432F41524D5F434D332F706F7244
S1134BC0742E63002F7573722F6C6F63616C2F5397
S1134BD0696D706C696369747953747564696F5F26
S1134BE076342F646576656C6F7065722F73646BB1
S1134BF0732F6765636B6F5F73646B5F7375697441
S1134C00652F76312E312F7574696C2F7468697233
S1134C10645F70617274792F6672656572746F7304
S1134C202F536F757263652F71756575652E6300FB
S1134C302F7573722F6C6F63616C2F53696D706C79
S1134C40696369747953747564696F5F76342F642A
S1134C506576656C6F7065722F73646B732F67650F
S1134C60636B6F5F73646B5F73756974652F763103
S1134C702E312F7574696C2F74686972645F70616A
S1134C807274792F6672656572746F732F536F75C2
S1134C907263652F7461736B732E630049444C45D2
S1134CA000000000546D7220537663002F757372F8
S1134CB02F6C6F63616C2F53696D706C69636974D9
S1134CC07953747564696F5F76342F646576656CA7
S1134CD06F7065722F73646B732F6765636B6F5F9F
S1134CE073646B5F73756974652F76312E312F751C
S1134CF074696C2F74686972645F70617274792F5F
S1134D006672656572746F732F536F757263652F66
S1134D1074696D6572732E6300000000546D7251E6
S1134D20000000002F7573722F6C6F63616C2F533A
S1134D30696D706C696369747953747564696F5FC4
S1134D4076342F646576656C6F7065722F73646B4F
S1134D50732F6765636B6F5F73646B5F73756974DF
S1134D60652F76312E312F2F706C6174666F726DE2
S1134D702F656D6C69622F696E632F656D5F627557
S1134D807274632E680000002F7573722F6C6F634A
S1134D90616C2F53696D706C6963697479537475B0
S1134DA064696F5F76342F646576656C6F706572C5
S1134DB02F73646B732F6765636B6F5F73646B5FD3
S1134DC073756974652F76312E312F706C6174663A
S1134DD06F726D2F656D6C69622F7372632F656DD1
S1134DE05F62757274632E63000000002F75737226
S1134DF02F6C6F63616C2F53696D706C6963697498
S1134E007953747564696F5F76342F646576656C65
S1134E106F7065722F73646B732F6765636B6F5F5D
S1134E2073646B5F73756974652F76312E312F2F20
S1134E30706C6174666F726D2F656D6C69622F6939
S1134E406E632F656D5F636D752E68002F757372C9
S1134E502F6C6F63616C2F53696D706C6963697437
S1134E607953747564696F5F76342F646576656C05
S1134E706F7065722F73646B732F6765636B6F5FFD
S1134E8073646B5F73756974652F76312E312F707F
S1134E906C6174666F726D2F656D6C69622F7372CD
S1134EA0632F656D5F636D752E6300002F757372DC
S1134EB02F6C6F63616C2F53696D706C69636974D7
S1134EC07953747564696F5F76342F646576656CA5
S1134ED06F7065722F73646B732F6765636B6F5F9D
S1134EE073646B5F73756974652F76312E312F2F60
S1134EF0706C6174666F726D2F656D6C69622F6979
S1134F006E632F656D5F6770696F2E680000000027
S1134F102F7573722F6C6F63616C2F53696D706C96
S1134F20696369747953747564696F5F76342F6447
S1134F306576656C6F7065722F73646B732F67652C
S1134F40636B6F5F73646B5F73756974652F763120
S1134F502E312F706C6174666F726D2F656D6C6984
S1134F60622F7372632F656D5F6770696F2E6300C4
S1134F7001000000000000000200000081000000A9
S1134F80040000009100000008000000010000007F
S1134F90100000000300000020000000DFEF00000C
S1134FA0400000009FEF000080000000190700008F
S1134FB00001000019060000000200001F040000A8
S1134FC0000400001F0200000008000001000000AF
S1134FD0001000000100000000200000010000009B
S1134FE000400000010000000080000001000000FB
S1134FF02F7573722F6C6F63616C2F53696D706CB6
S1135000696369747953747564696F5F76342F6466
S11350106576656C6F7065722F73646B732F67654B
S1135020636B6F5F73646B5F73756974652F76313F
S11350302E312F706C6174666F726D2F656D6C69A3
S1135040622F7372632F656D5F73797374656D2E50
S1135050630000002F7573722F6C6F63616C2F53A4
S1135060696D706C696369747953747564696F5F91
S113507076342F646576656C6F7065722F73646B1C
S1135080732F6765636B6F5F73646B5F73756974AC
S1135090652F76312E312F2F706C6174666F726DAF
S11350A02F656D6C69622F696E632F656D5F74691E
S11350B06D65722E680000002E2E2F656D6C69627E
S11350C02F656D5F74696D65722E63002F75737241
S11350D02F6C6F63616C2F53696D706C69636974B5
S11350E07953747564696F5F76342F646576656C83
S11350F06F7065722F73646B732F6765636B6F5F7B
S113510073646B5F73756974652F76312E312F2F3D
S1135110706C6174666F726D2F656D6C69622F6956
S11351206E632F656D5F62757274632E6800000094
S11351300101000000300000010000000000000038
S1135140010000002F7573722F6C6F63616C2F5315
S1135150696D706C696369747953747564696F5FA0
S113516076342F646576656C6F7065722F73646B2B
S1135170732F6765636B6F5F73646B5F73756974BB
S1135180652F76312E312F2F706C6174666F726DBE
S11351902F656D6C69622F696E632F656D5F74692D
S11351A06D65722E680000004C6564426C696E6B1C
S11351B0310000004C6564426C696E6B3200430040
S10B51C03C0000200000000087
S10B51C870AFFF7F010000003D
S11351D0006CDC0200800000809FD500AAAAAAAA65
S11351E001010000000000000000000000000000B9
S11351F00003000003020300000000000A00000096
S11352000000000014000000010000000000000085
S1135210000000000000000000000000000000008A
S1135220000000000000000000000000BE5100006B
S1135230000000000000000000000000000000006A
S1135240000000000000000000000000000000005A
S1135250000000000000000000000000000000004A
S11352600000000000000000000000000101000038
S10B5270DD0000000000000055
S9030421D7
