S01700006D6F746F722D636F6E74726F6C6C65722E7333373B
S113000000000220AD010000D9010000D901000068
S1130010D9010000D9010000D9010000D901000074
S1130020D9010000D9010000D9010000D901000064
S1130030D9010000D9010000D9010000D901000054
S1130040D9010000D901000081060000D901000097
S1130050D9010000D9010000D9010000D901000034
S1130060D9010000D9010000D9010000D901000024
S1130070D9010000D9010000D9010000D901000014
S1130080D9010000D9010000D9010000D901000004
S1130090D9010000D9010000D9010000D9010000F4
S11300A0D9010000D9010000D9010000D9010000E4
S11300B0D9010000D9010000D9010000D9010000D4
S11300C0D9010000D9010000D9010000D9010000C4
S11300D0D9010000D9010000D901000010B5054C78
S11300E0237833B9044B13B10448AFF300800123E0
S11300F0237010BD78000020000000008C08000070
S1130100084B10B51BB108480849AFF300800848F4
S1130110036803B910BD074B002BFBD0BDE81040AA
S1130120184700BF000000008C0800007C0000207D
S11301307400002000000000154B002B08BF134B77
S11301409D46A3F5803A00218B460F461348144A76
S1130150121A00F077FB0F4B002B00D098470E4B80
S1130160002B00D098470020002104000D000D480A
S1130170002802D00C48AFF3008000F03DFB2000C3
S1130180290000F049FA00F023FB00BF000008003A
S113019000000220000000000000000078000020A1
S11301A0980000200000000000000000064880477E
S11301B00649074A074B9A42BEBF51F8040B42F85E
S11301C0040BF8E7FFF7B8FFB90200009808000035
S11301D00000002078000020FEE700BF294AD36A0F
S11301E003F47053B3F5805F2AD0B3F5005F24D0D5
S11301F0B3F5006F11D0D36803F4E063B3F5007F67
S11302003DD020D9B3F5806F37D0B3F5A06F32D08D
S1130210B3F5407F24D0002301E01B4B1B68194A2F
S11302201A4910685268C0F382300130B3FBF0F011
S113023002F00F03D84008607047154B1B68EEE7C7
S11302404FF40043EBE76BB1B3F5807FE3D1114B7F
S1130250114AD86C114BB0F1985F28BF1346DEE702
S11302600F4BDCE70B4B0F4AD86C0F4BB0F1985F88
S113027028BF1346D3E70D4BD1E70D4BCFE70D4B0A
S1130280CDE700BF00800C400400002008000020DF
S113029000000020B081E00F40B56400C0CF6A00C8
S11302A0809FD500804F120040420F00003FAB01F9
S11302B0406F4001C0D8A700704700BFF0B5C0F33D
S11302C00323013B83B00446092B0CD8DFE803F079
S11302D01C1E200B0B0D190B0B05254DC4F3043408
S11302E02C44A400216003B0F0BD224D0120224A19
S11302F0C4F30434536DDB07F2D4136D1842FCD1FC
S1130300EEE71E4D1020F2E71D4DE7E71D4DE5E732
S11303100191FFF763FF1C4B0199DA6CC2F30742AA
S11303204A2A0FD0792A0DD0482A184B18BF002327
S11303309842174A174B94BF002001201060164DB5
S11303401860CBE7154E164A3369B569F66903F0B0
S11303503F07C6F3031343EA072305F0F0050B4EEA
S11303602B43B3F5017F2CBF13463346E0E700BFB0
S1130370C003E410C002E41000800C400003E41049
S11303804000E4102002E410B081E00F0048E801CE
S113039078009043A00090430002E410D0FF0FE0E7
S11303A000366E01F0B5C40052B1002B38D02518C8
S11303B0AD0005F18045012605F5C0458E402E614E
S11303C02518AD00072905F1804517D805F5C04566
S11303D06F684FEA810E0F2606FA0EF627EA060723
S11303E002FA0EF63E436E603AB9204403BB154B45
S11303F08000012203448A405A60F0BD01F1804626
S113040005F5C045083EAF68B6004FF00F0E0EFA72
S113041006FE27EA0E0702FA06F63E43AE60E3E75D
S11304202718084DBF0001263D448E406E60C7E783
S1130430800000F18040012300F5C0408B4003613F
S1130440F0BD00BF106000400B4A5169136901F010
S11304500F01C3F3811343EA81038370136903F02B
S11304603F0343709169D36901F0F002C3F30313AE
S113047013430370704700BFD0FF0FE02DE9F0472E
S113048091F80090B9F1000F01D1022343604B7839
S11304904C7A8A7A002B18BF4FF0400ACB7A08BFF7
S11304A04FF0000A002C18BF4FF080080C7908BFE9
S11304B04FF00008002A18BF4FF0200C4A7908BFFB
S11304C04FF0000C002B18BF4FF0100E0B7B08BF31
S11304D04FF0000E002C14BF4FF400570027002AE1
S11304E0CA7814BF4FF080560026002B8B780C7A04
S11304F04FEA024242EA03628B7942EA0402C97972
S113050042EA832242EA012343EA0A0343EA08084F
S113051048EA0C0C4CEA0E0E4EEA070714BF0825F5
S113052000253E433543002343620560B9F1000FC3
S113053001D001234360BDE8F08700BFD3792DE9E2
S1130540F041157A002B547A14BF4FF400184FF081
S11305500008002D557814BF4FF4801C4FF0000C98
S1130560002C147896794FEA0565937A45EA8465F8
S1130570947845EA0605D67814BF4FF0100E4FF074
S1130580000E45EA0444002B1379557944EA0634F5
S113059044EA832242EA052343EA080343EA0C0CB3
S11305A014BF0427002703314CEA0E0E09014EEA5A
S11305B007074750BDE8F08130B441F6F97140F6C1
S11305C0AA6541F205040E4A00239042C560036007
S11305D0446083604361C364816443650CD0094A09
S11305E08365904204D0084B984201D030BC7047D8
S11305F00023C36530BC7047036530BC8365704716
S113060000C0004000C4004000C8004003695B060D
S1130610FCD54163704700BF70B5154B86B0DC6CE8
S113062001A8FFF711FFB4F1805F0AD39DF80430ED
S1130630022B06D90F4A136823F0500343F010032A
S113064013600D4D01AC00F08BF800F029F80FCDCC
S11306500FC42B680DF103060DF11305237003E09D
S113066016F8011FFFF7D2FFAE420448F8D1FEE7A7
S1130670B081E00FC0800C407008000000C400404E
S1130680054B064A012199611368642BD4BF5B189A
S113069000231360704700BF000001409400002055
S11306A070B52C4888B00121FFF708FE2A480121C3
S11306B02A4DFFF703FE04200246022100230024F2
S11306C0FFF770FE01262846032301AA02218DF8B4
S11306D00A308DF804408DF805408DF806408DF8F9
S11306E007408DF808408DF80B408DF80C408DF8CC
S11306F00D408DF80E408DF80960FFF71FFFAB6ABF
S1130700642243F4803343F00403AB622846EA6175
S11307100823EA6504A98DF810608DF811408DF85E
S113072013408DF814408DF815408DF816408DF85F
S113073017408DF818408DF819408DF81A408DF83F
S11307401B408DF81C408DF81230FFF797FE08B05F
S113075070BD00BF00D2040000820400000C014000
S11307602DE9F0411748FFF727FF174B19461A6880
S113077042F480421A601A6A42F004021A62CB6A96
S1130780114A1B07FBD542F2020C40F6054541F61F
S1130790F97440F203100B4B0C494FF002084FF070
S11307A0140E01274FF41856C2F82480C2F844C02E
S11307B0C1F870E0CF675E61DD609C645865BDE898
S11307C0F08100BF00C4004000800C400060004085
S11307D008B5074B044613B10021AFF30080054B65
S11307E01868836A03B19847204600F033F800BFC5
S11307F000000000880800000E4B70B51E460E4C29
S11308000025E41AA410A54204D056F825309847D0
S11308100135F8E700F020F8084B094C1E46E41AAD
S1130820A4100025A54204D056F825309847013578
S1130830F8E770BD6C0000206C0000206C00002004
S11308407000002003460244934202D003F8011BC7
S1130850FAE77047FEE700BFF8B500BFF8BC08BC74
S11308609E467047F8B500BFF8BC08BC9E4670476A
S11308700A0D48656C6C6F20576F726C64210A0D09
S113088000000000430000000C00002000000000F5
S10B0890A8F8FF7F010000003D
S113089800800000006CDC02809FD500000000008E
S11308A8000000000000000000000000000000003C
S11308B800000000000000000000000084080000A0
S11308C8000000000000000000000000000000001C
S11308D8000000000000000000000000000000000C
S11308E800000000000000000000000000000000FC
S11308F800000000000000000000000001010000EA
S10B0908DD0000000000000006
S90301AD4E
