S014000053544B333730305F626C696E6B2E733337B5
S113000000000220AD010000D9010000D901000068
S1130010D9010000D9010000D9010000D901000074
S1130020D9010000D9010000D9010000D901000064
S1130030D9010000D9010000D9010000D901000054
S1130040D9010000D9010000ED0F0000D901000022
S1130050D9010000D9010000D9010000D901000034
S1130060D9010000D9010000D9010000D901000024
S1130070D9010000D9010000D9010000D901000014
S1130080D9010000D9010000D9010000D901000004
S1130090D9010000D9010000D9010000D9010000F4
S11300A0D9010000D9010000D9010000D9010000E4
S11300B0D9010000D9010000D9010000D9010000D4
S11300C0D9010000D9010000D9010000D9010000C4
S11300D0D9010000D9010000D901000010B5054C78
S11300E0237833B9044B13B10448AFF300800123E0
S11300F0237010BD78000020000000007C14000074
S1130100084B10B51BB108480849AFF300800848F4
S1130110036803B910BD074B002BFBD0BDE81040AA
S1130120184700BF000000007C1400007C00002081
S11301307400002000000000154B002B08BF134B77
S11301409D46A3F5803A00218B460F461348144A76
S1130150121A01F043F80F4B002B00D098470E4BB6
S1130160002B00D098470020002104000D000D480A
S1130170002802D00C48AFF3008001F009F82000F9
S1130180290000F03FFF00F0EFFF00BF000008006F
S113019000000220000000000000000078000020A1
S11301A0980000200000000000000000064880477E
S11301B00649074A074B9A42BEBF51F8040B42F85E
S11301C0040BF8E7FFF7B8FF910300008814000060
S11301D00000002078000020FEE700BF294AD36A0F
S11301E003F47053B3F5805F2AD0B3F5005F24D0D5
S11301F0B3F5006F11D0D36803F4E063B3F5007F67
S11302003DD020D9B3F5806F37D0B3F5A06F32D08D
S1130210B3F5407F24D0002301E01B4B1B68194A2F
S11302201A4910685268C0F382300130B3FBF0F011
S113023002F00F03D84008607047154B1B68EEE7C7
S11302404FF40043EBE76BB1B3F5807FE3D1114B7F
S1130250114AD86C114BB0F1985F28BF1346DEE702
S11302600F4BDCE70B4B0F4AD86C0F4BB0F1985F88
S113027028BF1346D3E70D4BD1E70D4BCFE70D4B0A
S1130280CDE700BF00800C400400002008000020DF
S113029000000020B081E00F40B56400C0CF6A00C8
S11302A0809FD500804F120040420F00003FAB01F9
S11302B0406F4001C0D8A70000487047006CDC02C2
S11302C0274AD36A03F47053B3F5805F24D0B3F59F
S11302D0005F1ED0B3F5006F11D0D36803F4E06360
S11302E0B3F5007F39D01AD9B3F5806F33D0B3F5A5
S11302F0A06F2ED0B3F5407F1FD0002001E0194B32
S11303001868174B1B68C3F382330133B0FBF3F057
S11303107047154B1868F4E74FF40040F1E773B1E8
S1130320B3F5807FE9D1114A114BD06C114AB0F179
S1130330985F2CBF18461046E3E70F48E1E70B4AE5
S11303400E4BD06C0E4AB0F1985F2CBF1846104685
S1130350D7E70C48D5E70C48D3E70C48D1E700BFF2
S113036000800C400400002000000020B081E00F59
S113037040B56400C0CF6A00809FD500804F120052
S113038040420F00003FAB01406F4001C0D8A700BE
S1130390704700BF4FF40040704700BF4FF47A70BD
S11303A0704700BF014B1868704700BF0000002071
S11303B0FEE700BF38B5334B0446DB6CC3F3074399
S11303C04A2B2CD0792B2AD0482B12D02E484FF40C
S11303D08771FFF7EDFF00239C420DD800200346F0
S11303E02A492B4A0B60536823F4807318435060E6
S11303F038BD284B9C42F1D9224BDB6CC3F3074335
S11304004A2B2AD0792B28D0482B1DD01E484FF4D4
S11304108771FFF7CDFF4FF400700123E0E71E481A
S11304201E4A03698169C06903F03F05C0F30313E1
S113043043EA052301F0F00116480B43B3F5017FAD
S11304402CBF13460346C7E71548844294BF4FF4B4
S113045080704FF400700123C2E70F49114B086903
S11304608A69C96900F03F00C1F3031141EA002120
S113047002F0F0020A480A43B2F5017F28BF184689
S1130480E3E700BFB081E00F08120000780090435A
S113049000800C400048E801D0FF0FE000366E01F8
S11304A00090D003006CDC02674B70B598420446A0
S11304B002D0664B98420BD104F00F03013B062B8C
S11304C000F28380DFE803F033734C81815A0A0021
S11304D05F4840F2B531FFF76BFFEDE75D4BDB6A38
S11304E003F46033B3F5803F2BD0B3F5003F00F045
S11304F09880B3F5004F48D0534B9C427AD0534B6D
S11305009C4240F08580534B9B6AC3F38103022BCA
S113051022D0032B00F09180012B7ED04D4B14226E
S11305209B6AD34041D0BDE87040FFF737BF494BC9
S1130530DB6A03F47053B3F5805F72D0B3F5005FE8
S113054023D1414B9C4255D0404B9C42DBD0404888
S11305504FF47971FFF72CFFBDE87040FFF722BF1D
S11305603C4A936A03F00C03082BEAD00C2B0CD002
S1130570042B56D0936ADB0207D4BDE7354B1B68C6
S113058013F0805301D0002BB6D02F4B9C4231D0B6
S11305902E4B9C42B7D02E484FF47971FFF708FFD9
S11305A02B4840F20E41FFF703FF002070BD294A9B
S11305B0936A03F00303022BC3D0032BE5D0012B72
S11305C02FD0936ADA03E0D496E71F4E20484FF405
S11305D04761FFF7EDFEB4420CD01C4DAC4292D003
S11305E01B484FF47971FFF7E3FEB4420CD0AC42E0
S11305F0DBD193E7174B9B6A03F00303022BABD0C9
S1130600032B1AD0012B08D0124B10229B6A88E7C7
S11306100F484FF47971FFF7CBFEBDE87040FFF748
S1130620B9BE094B9C42E5D0084B9C423FF46BAFEA
S113063007484FF47971FFF7BBFEFFF7CFFD064B78
S11306401B680133D84070BD02001A0003001C006F
S11306500812000000800C407800904300F00F0066
S1130660013808B5062852D8DFE800F014243551C3
S1130670514604002D4BDB6A03F46033B3F5803F2D
S11306804ED0B3F5003F49D0B3F5004F0CBF09205D
S1130690012008BD254BDB6A03F47053B3F5805F7A
S11306A03CD0B3F5005F3BD0B3F5006F0CBF042022
S11306B0052008BD1D4B986A00F0030002282ED0C7
S11306C003282FD0012829D09B6A13F4803F0CBF44
S11306D001200A2008BD154A936A03F00C03082B75
S11306E01ED00C2B1ED0042B18D0936A13F4801F39
S11306F00CBF01200A2008BD0C4B1B6813F080536B
S113070012D0B3F1805F0CBF0920012008BD084856
S11307104FF44761FFF74CFE002008BD032008BDDD
S1130720022008BD062008BD072008BD00800C403B
S11307300812000000F47810B0F5B01F08B500F0FE
S11307409E8014D8B0F5402F00F08B8026D8B0F5E9
S1130750003F79D0B0F5802F00F0B780002877D023
S1130760704840F6CC01FFF723FE002008BDB0F529
S1130770081F00F09F8037D8B0F5D01F5FD0B0F5C8
S1130780E01F69D0B0F5C01FEAD16748FFF78CFEBF
S1130790664B1B6FC3F30113D84008BDB0F5801F2F
S11307A035D0B0F5A01F73D0B0F5602FD8D15F4B12
S11307B05B6903F4E063B3F5007F00F0A58040F2C9
S11307C08C80B3F5C06F00F0AB80B3F5E06F00F040
S11307D0A580B3F5407F00F08F8052484FF4C67176
S11307E0FFF7E6FD002008BDB0F5201F18D0B0F5D6
S11307F0281F56D0B0F5181FB2D14D48FFF754FE4C
S11308004A4B9B6EC3F301330433D84008BD4848B8
S1130810FFF74AFE454B9B6EC3F30313D84008BD54
S11308204348FFF741FE414B9A6EDB6FC2F301323E
S113083003F00703D0400133B0FBF3F008BD3C489C
S1130840BDE80840FFF730BEBDE80840FFF7C6BC6E
S1130850BDE80840FFF734BD3348BDE80840FFF762
S113086023BE3448FFF7FAFE0728A0D00928EFD0AA
S11308702C484FF4E371FFF79BFD002008BD2A4884
S1130880FFF712FE294B1B6F03F00303D84008BD8A
S11308902748FFF709FE254B9B6EC3F30323D8407B
S11308A008BD2348FFF700FE204B9B6E03F00303B3
S11308B0D84008BD2048FFF7D1FE032814D00928EA
S11308C0C6D0022814D0002008BDFFF7F9FC174B4E
S11308D09B6803F00F03D84008BDEBB1B3F5807FEC
S11308E07FF47BAF154808BDBDE80840FFF752BD53
S11308F0BDE80840FFF756BD114BDB6CB3F1985FC0
S11309002CBF1048104808BD0D4BDB6CB3F1985F49
S11309102CBF0E480E4808BD0E4808BD0E4808BD41
S11309200E4808BD0812000003001C0000800C40A3
S113093002001A0006000C0007232200C0D8A700FA
S1130940B081E00F804F120040420F0040B56400B8
S1130950C0CF6A00809FD500406F4001003FAB01CB
S113096030B5C0F30323013B83B00446092B2AD8D6
S1130970DFE803F01C1E2029290D19292905164832
S1130980C4F304340444A400216003B030BD13480C
S11309900125134AC4F30434536DDB07F2D4136DF9
S11309A01D42FCD1EEE70F481025F2E70E48E7E7B9
S11309B00E48E5E70E480191FFF7BCFEFFF7FAFC8D
S11309C00C480199DCE70C484FF4FB6103B0BDE827
S11309D03040FFF7EDBC00BFC003E410C002E410D8
S11309E000800C400003E4104000E4102002E410F6
S11309F0004302000002E4100812000070B505284C
S1130A0000F2D980DFE800F02C30353A3E038B4BFE
S1130A101B6BC3F307258A4B0446DA6A02F470524F
S1130A20B2F5805F73D0B2F5005F70D0B2F5006F9D
S1130A306DD0FFF741FC41F67132824BDE6BDA6315
S1130A405A6802F00702042A20D80123934013F0C5
S1130A50130F1BD07C4B984240F2E880042220E024
S1130A60764BDB6ADDB2D6E7744BDB6AC3F307254A
S1130A70D1E7724BDB6AC3F30745CCE76F4BDB6A04
S1130A801D0EC8E76D4B1B6BDDB2C4E76E4B98427D
S1130A9000F2B5806D4B6E4A034493428CBF022230
S1130AA0032268494B6823F0070313434B600EB1DC
S1130AB00023CB63624AD06820F4FF6020F0070073
S1130AC040EA04232B43D360FFF788FB41F67132DD
S1130AD05C4BDC6BDA635B6803F00703042B00F206
S1130AE09080012202FA03F313F0130F00F08980BF
S1130AF0554B984240F29280042252494B6823F0AD
S1130B00070313434B6064B10023CB6309E04C49F2
S1130B10CA6822F4FF6323F0070343EA04232B4348
S1130B20CB60FFF75BFB454B0446DB6CC3F3074329
S1130B304A2B2BD0792B29D0482B25D045484FF46C
S1130B408771FFF735FC00239C420AD80020034636
S1130B5041493B4A0B60536823F480731843506047
S1130B6070BD364BDB6CC3F307434A2B33D0792B70
S1130B7031D0482B26D037484FF48771FFF718FC43
S1130B804FF400700123E3E72F4BDDE73348344A89
S1130B9003698169C06903F03F05C0F3031343EAA5
S1130BA0052301F0F00128480B43B3F5017F2CBF66
S1130BB013460346C8E7274841F22C01BDE87040BC
S1130BC0FFF7F6BB2748A0422CBF4FF480704FF4C8
S1130BD000700123BCE72149234B08698A69C9696C
S1130BE000F03F00C1F3031141EA002102F0F002DA
S1130BF01C480A43B2F5017F28BF1846E3E70522E3
S1130C004FE7114B984201D9052276E70F4B104A62
S1130C10034493428CBF022203226EE70B4B0C4A1F
S1130C20034493428CBF0022012266E7074B084A23
S1130C30034493428CBF0022012232E7B081E00FCB
S1130C4000800C4000000C400048E801FFDB0BFF73
S1130C50FF23F4000812000078009043D0FF0FE057
S1130C6000366E010090D003006CDC0204282DE9EC
S1130C70F04104460D461746984631D9052800F040
S1130C80AB8058484FF48571FFF792FB7FBBE600B9
S1130C9031198900072D01F1804142D801F5C04185
S1130CA048684FEA850E0F2303FA0EF320EA030285
S1130CB007FA0EF313434B6087B9B8F1000F50D114
S1130CC0042C60D84FF6FF732B41DB075DD5344409
S1130CD0454BA40001222344AA405A60BDE8F08198
S1130CE04FF6FF732B41DE07CBD5002FCFD0B8F1E1
S1130CF0000F26D0042C60D84FF6FF732B41D80781
S1130D004FD5E60033199B0003F1804301223119CA
S1130D1003F5C043AA408900072D1A6101F18041FF
S1130D20BCD905F1804301F5C041083B88689B00AC
S1130D300F229A4020EA020207FA03F313438B605E
S1130D40BAE7042C3ED84FF6FF732B41D90722D5BE
S1130D50E6003119244B890001220B44AA405A6051
S1130D6096E7042C33D84FF6FF732B41DA071ED5D0
S1130D703444A40004F18044012304F5C044AB408E
S1130D802361BDE8F081052C29D0184840F259317F
S1130D90FFF70EFB9BE7154840F25931FFF708FBBC
S1130DA0D6E7124840F28631FFF702FBA9E70F4865
S1130DB040F28631FFF7FCFADAE7052CF1D141F66F
S1130DC0FF739BE7052CE6D141F6FF73BDE7052CC5
S1130DD0EDD141F6FF73C8E741F6FF7382E741F6B0
S1130DE0FF7371E7C8120000106000402813000070
S1130DF010B50446B0B10E4A5169136901F00F01F0
S1130E00C3F3811343EA8103A370136903F03F031F
S1130E1063709169D36901F0F002C3F303131343C0
S1130E20237010BD03483E21FFF7C2FAE3E700BF79
S1130E30D0FF0FE08C1300003A4B2DE9F0479842A5
S1130E4005460C460FD003F5806398420BD003F59A
S1130E508063984207D003F58063984203D03248F8
S1130E604D21FFF7A5FA94F800A0BAF1000F01D1C3
S1130E7002236B606378617A002BA27AE37A14BF51
S1130E804FF040094FF00009002918BF4FF08008C7
S1130E90217908BF4FF00008002A18BF4FF0200C3A
S1130EA0627908BF4FF0000C002B18BF4FF0100EF2
S1130EB0237B08BF4FF0000E002914BF4FF40057E6
S1130EC00027002AE27814BF4FF080560026002B3A
S1130ED0A378217A4FEA024242EA0362A37942EA02
S1130EE00102E17942EA832242EA012343EA090347
S1130EF043EA080848EA0C0C4CEA0E0E4EEA0707CF
S1130F0014BF082000203E43304300236B62286056
S1130F10BAF1000F03D001236B60BDE8F087BDE890
S1130F20F08700BF00000140F01300002D4B2DE9B5
S1130F30F041984206460D4614460FD003F58063EF
S1130F4098420BD003F58063984207D003F5806381
S1130F50984203D024488221FFF72AFA022D3BD875
S1130F60E379217A002B627A14BF4FF400184FF012
S1130F70000800296178A37A14BF4FF4801C4FF055
S1130F80000C002A2278A0794FEA016114BF4FF0C7
S1130F90100E4FF0000E41EA8261002BA378E27834
S1130FA041EA000141EA0341237941EA02326179CD
S1130FB042EA832242EA012343EA080343EA0C0C8F
S1130FC014BF0427002703354CEA0E0E2D014EEA08
S1130FD007077751BDE8F08103488321FFF7E8F95B
S1130FE0BEE700BF00000140F0130000034B044AB9
S1130FF00121996113880B4413807047000001405C
S1131000940000202DE9F0414B4B8CB0DC6C08A817
S1131010FFF7EEFEB4F1805F0AD39DF82030022B77
S113102006D9464A136823F0500343F010031360B3
S11310300020FFF7E3FC42480121FFF791FC4148FF
S11310400121FFF78DFC40480121FFF789FC0420B2
S1131050024602210023FFF709FE04200246032171
S11310600123FFF703FE394A01AB10685168384E7B
S113107003C3384FB2F808E0917A002401254FF4F5
S11310807A72A3F800E09970049408940594069485
S11310908DF81C4009940A948DF82C408DF810505A
S11310A08DF811508DF820508DF82150FA61F261BD
S11310B07C6274627465F465FB68274A2B430421DF
S11310C0FB603046116001AA0221FFF72FFF234B7A
S11310D03846B36208A9FFF7AFFE304604A9FFF70C
S11310E0ABFEB0461E4EA7F520473388FA2B08D036
S11310F0B4F57A7F14D23388002C08BF0125FA2B6B
S1131100F6D17DB1FA34B4F5803F0FD20822002322
S1131110B4F57A7FC8F85C40C7F8A8203380EAD3D6
S11311200025E2E7FA3CB4F5803FEFD30D4840F2E6
S11311304721FFF73DF9E9E7B081E00FC0800C409B
S113114000D204000052040000820400681400006D
S1131150000C01400000014000E100E00400010037
S1131160940000200414000008B5074B044613B192
S11311700021AFF30080054B1868836A03B19847D8
S1131180204600F033F800BF00000000781400008F
S11311900E4B70B51E460E4C0025E41AA410A54251
S11311A004D056F8253098470135F8E700F020F8C8
S11311B0084B094C1E46E41AA4100025A54204D08D
S11311C056F8253098470135F8E770BD6C000020CB
S11311D06C0000206C0000207000002003460244D4
S11311E0934202D003F8011BFAE77047FEE700BF01
S11311F0F8B500BFF8BC08BC9E467047F8B500BF00
S1131200F8BC08BC9E4670472F7573722F6C6F63D1
S1131210616C2F53696D706C69636974795374756B
S113122064696F5F76342F646576656C6F70657280
S11312302F73646B732F6765636B6F5F73646B5F8E
S113124073756974652F76312E312F706C617466F5
S11312506F726D2F656D6C69622F7372632F656D8C
S11312605F636D752E6300002F7573722F6C6F634F
S1131270616C2F53696D706C69636974795374750B
S113128064696F5F76342F646576656C6F70657220
S11312902F73646B732F6765636B6F5F73646B5F2E
S11312A073756974652F76312E312F2F706C6174CC
S11312B0666F726D2F656D6C69622F696E632F6541
S11312C06D5F636D752E68002F7573722F6C6F637D
S11312D0616C2F53696D706C6963697479537475AB
S11312E064696F5F76342F646576656C6F706572C0
S11312F02F73646B732F6765636B6F5F73646B5FCE
S113130073756974652F76312E312F706C61746634
S11313106F726D2F656D6C69622F7372632F656DCB
S11313205F6770696F2E63002F7573722F6C6F6324
S1131330616C2F53696D706C69636974795374754A
S113134064696F5F76342F646576656C6F7065725F
S11313502F73646B732F6765636B6F5F73646B5F6D
S113136073756974652F76312E312F2F706C61740B
S1131370666F726D2F656D6C69622F696E632F6580
S11313806D5F6770696F2E68000000002F757372BF
S11313902F6C6F63616C2F53696D706C6963697432
S11313A07953747564696F5F76342F646576656C00
S11313B06F7065722F73646B732F6765636B6F5FF8
S11313C073646B5F73756974652F76312E312F707A
S11313D06C6174666F726D2F656D6C69622F7372C8
S11313E0632F656D5F73797374656D2E6300000000
S11313F02E2E2F656D6C69622F656D5F74696D6546
S1131400722E63002F7573722F6C6F63616C2F5390
S1131410696D706C696369747953747564696F5F1D
S113142076342F646576656C6F7065722F73646BA8
S1131430732F6765636B6F5F73646B5F7375697438
S1131440652F76312E312F2F706C6174666F726D3B
S11314502F656D6C69622F696E632F656D5F7469AA
S11314606D65722E68000000000300000302030093
S113147000000043000000000C00002000000000F9
S10B1480B8ECFF7F010000003D
S113148800800000006CDC02809FD5000000000092
S11314980000000000000000000000000000000040
S11314A800000000000000000000000073140000A9
S11314B80000000000000000000000000000000020
S11314C80000000000000000000000000000000010
S11314D80000000000000000000000000000000000
S11314E800000000000000000000000001010000EE
S10B14F8DD000000000000000B
S90301AD4E
