:100000000000022085030000B1030000B1030000DE
:10001000B1030000B1030000B1030000B103000010
:10002000B1030000B1030000B1030000C1070000EC
:10003000B1030000B1030000510800009508000062
:10004000B1030000B1030000993A0000B1030000C1
:10005000B1030000B1030000B1030000B1030000D0
:10006000B1030000B1030000B1030000B1030000C0
:10007000B1030000B1030000B1030000B1030000B0
:10008000B1030000B1030000B1030000B1030000A0
:10009000B1030000B1030000B1030000B103000090
:1000A000B1030000B1030000B1030000B103000080
:1000B000B1030000B1030000B103000019390000D2
:1000C000B1030000B1030000B1030000B103000060
:1000D000B1030000B1030000B103000010B5054CEE
:1000E000237833B9044B13B10448AFF300800123E4
:1000F000237010BDA8000020000000005042000046
:10010000084B10B51BB108480849AFF300800848F8
:10011000036803B910BD074B002BFBD0BDE81040AE
:10012000184700BF0000000050420000AC00002053
:10013000A400002000000000154B002B08BF134B4B
:100140009D46A3F5803A00218B460F461348144A7A
:10015000121A03F084FD0F4B002B00D098470E4B72
:10016000002B00D098470020002104000D000D480E
:10017000002802D00C48AFF3008003F03FFD2000C0
:10018000290003F095FC03F025FD00BF00000800E6
:10019000000002200000000000000000A800002075
:1001A00080250020000000000000000008B50B487A
:1001B000012102F0D5FC0A48012102F0D1FC042003
:1001C00002460221002303F03FF9042002460321E6
:1001D000002303F039F9002008BD00BF408104006E
:1001E00000D20400012821D838B5134B13F8304051
:1001F00003EBC003042C5D6810D84FF6FF732B414E
:10020000DB070DD504EBC404A40004F180440123F2
:1002100004F5C044AB402361002038BD052C08D054
:10022000064840F2863102F00DF9EBE74FF0FF305F
:10023000704741F6FF73E2E7F03C00008C3C0000A1
:10024000012821D838B5134B13F8304003EBC00315
:10025000042C5D6810D84FF6FF732B41DB070DD5DA
:1002600004EBC404A40004F18044012304F5C04459
:10027000AB40A361002038BD052C08D0064840F2F1
:100280009F3102F0DFF8EBE74FF0FF30704741F6A7
:10029000FF73E2E7F03C00008C3C00002A492B4B46
:1002A0000A46486C70B540F400504864D3F8200109
:1002B000102440F00400C3F82001D3F8200120F4FA
:1002C0004070C3F82001D3F8B80020F47060C3F880
:1002D000B800D3F8B80040F48060C3F8B8000C62EE
:1002E000D36A9B06FCD51A4B1A491A681A4C42F07D
:1002F00001021A60DA68194842F08072DA600C6014
:1003000002F018FB00F5D52000F2FC40144BC008A9
:10031000A3FB002313499B0A134C14484FF060427F
:10032000013B02264FF480750B61C1F8F060C1F803
:100330000453C2F8B04FC2F8800ED2F8003E43F02A
:100340000103C2F8003E70BD00800C400060004018
:10035000F0ED00E0001000E0FF13014006000C008B
:1003600017916502000004E055CEACC509000100FC
:1003700008B54FF07E63186810B1FFF78FFF0120BA
:1003800008BD00BF064880470649074A074B9A4206
:10039000BEBF51F8040B42F8040BF8E7FFF7CCFEA0
:1003A000750500005C42000000000020A80000204D
:1003B000FEE700BF294AD36A03F47053B3F5805FA8
:1003C0002AD0B3F5005F24D0B3F5006F11D0D36805
:1003D00003F4E063B3F5007F3DD020D9B3F5806F1F
:1003E00037D0B3F5A06F32D0B3F5407F24D00023CF
:1003F00001E01B4B1B68194A1A4910685268C0F388
:1004000082300130B3FBF0F002F00F03D8400860F7
:100410007047154B1B68EEE74FF40043EBE76BB1F9
:10042000B3F5807FE3D1114B114AD86C114BB0F179
:10043000985F28BF1346DEE70F4BDCE70B4B0F4AF4
:10044000D86C0F4BB0F1985F28BF1346D3E70D4B24
:10045000D1E70D4BCFE70D4BCDE700BF00800C403F
:10046000040000200800002000000020B081E00F00
:1004700040B56400C0CF6A00809FD500804F120055
:1004800040420F00003FAB01406F4001C0D8A700C1
:1004900000487047006CDC02274AD36A03F47053AB
:1004A000B3F5805F24D0B3F5005F1ED0B3F5006FC5
:1004B00011D0D36803F4E063B3F5007F39D01AD9C3
:1004C000B3F5806F33D0B3F5A06F2ED0B3F5407F76
:1004D0001FD0002001E0194B1868174B1B68C3F3AD
:1004E00082330133B0FBF3F07047154B1868F4E723
:1004F0004FF40040F1E773B1B3F5807FE9D1114AC1
:10050000114BD06C114AB0F1985F2CBF18461046C1
:10051000E3E70F48E1E70B4A0E4BD06C0E4AB0F10F
:10052000985F2CBF18461046D7E70C48D5E70C4813
:10053000D3E70C48D1E700BF00800C400400002046
:1005400000000020B081E00F40B56400C0CF6A0019
:10055000809FD500804F120040420F00003FAB014A
:10056000406F4001C0D8A700014B1868704700BF1A
:1005700004000020704700BF4FF40040704700BFE8
:100580004FF47A70704700BF014B1868704700BF86
:100590000000002070B50B4B0B4D0C4C00221A7064
:1005A0005A702860216003F03DF8C30500D470BD87
:1005B00003F01AF82368002BF9D0BDE8704004203E
:1005C000184700BFCC000020C8000020C400002055
:1005D00038B502F031FE184B04461A78A2B95B78A0
:1005E000FBB9164B1B680BB103209847012002F0A2
:1005F000A3FE0325124B1B680BB1284698472046E3
:1006000002F01EFE284638BD0C4B1B680BB10120C2
:1006100098470C4A136923F00403136130BF012586
:10062000E8E7064B1B680BB102209847012002F057
:100630000BFE0225DEE700BFCC000020C800002032
:10064000C400002000ED00E038B5044643071CBF9D
:1006500020F00704083401F015F90E4B1D689DB118
:1006600042F21F310C4A13681C448C4207D8A34243
:1006700005D21D44146001F0C7F9284638BD002595
:1006800001F0C2F9284638BD044D25F007051D606C
:10069000E6E700BFFC230020D0000020DC000020A3
:1006A00018B10248AB2101F0CDBE7047003D0000FB
:1006B00000F108034FF0FF310022816080E80C0058
:1006C000C3600361704700BF00230361704700BF30
:1006D00090E80C0010B49C6801328C609C684B6000
:1006E000616099605DF8044B08610260704700BF6B
:1006F00030B40D686B1C11D000F1080200E01A46FE
:1007000053681C68A542FAD204684B6001349960B2
:100710008A6051600861046030BC704702695368A8
:10072000F2E700BF43688168026910B4996081688C
:1007300054684B601368844208BF5160013B00213C
:1007400001615DF8044B1846136070470648006865
:10075000006880F3088862B661B6BFF34F8FBFF3BD
:100760006F8F00DF00BF000008ED00E008B5084B08
:100770001B68013303D00748F22101F063FE4FF0FC
:10078000BF0383F31188BFF36F8FBFF34F8FFEE773
:100790000C000020803D0000074B10B421F0010147
:1007A0004FF0807440F8202C00E9120040F80C3C17
:1007B0005DF8044B403870476D07000000000000F2
:1007C000074B19680868B0E8F00F80F30988BFF399
:1007D0006F8F4FF0000080F311884EF00D0E7047C0
:1007E000882400204FF0BF0383F31188BFF36F8F7D
:1007F000BFF34F8F084A13680133012B136000D0F9
:100800007047064B1B6813F0FF0FF9D0044840F205
:100810007F1101F017BE00BF0C00002004ED00E0C6
:10082000803D000010B5084C23682BB1013B2360CC
:100830000BB983F3118810BD04484FF4C37101F064
:1008400001FE2368F2E700BF0C000020803D00009D
:10085000EFF30980BFF36F8F0D4B1A6820E9F00F9B
:1008600010602DE908404FF0BF0080F3118801F0BF
:10087000A1F94FF0000080F31188BDE80840196825
:100880000868B0E8F00F80F30988BFF36F8F7047F6
:100890008824002008B54FF0BF0383F31188BFF30D
:1008A0006F8FBFF34F8F00F0FBFF18B1034B4FF07A
:1008B00080521A60002383F3118808BD04ED00E024
:1008C00010B5204B82B01A78FF21D2B20192197074
:1008D0001B781D4CDBB28DF803309DF803309DF87A
:1008E00003101A4803F0BF030722090623700260B1
:1008F0000DD5062200E00A469DF80330511E5B002C
:10090000DBB28DF803309DF803301B06F3D4019958
:1009100012020C4C0E4BC9B202F4E062026021706C
:100920001A6842F47F021A601A6842F07F421A6025
:1009300003F030F8074B00221A60FFF707FFFFF7BC
:1009400015FF00BF00E400E0002400200424002084
:1009500020ED00E00C00002008B5EFF305830F2B1D
:1009600005D90E490E4A5B5C12789A420FD80D4B9E
:100970000D4A1B68126803F4E063934200D808BD77
:100980000A4840F2AE21BDE8084001F05BBD0748CF
:1009900040F29E2101F056FDE9E700BFF0E300E0E0
:1009A000002400200CED00E004240020803D000025
:1009B00070B50E460546002834D05EB306FB05F040
:1009C0004830FFF741FE044600F1480300B32360BE
:1009D000E5632664FFF706FF226CE36B216803FBE7
:1009E00002F39A1A0A440B440020FF25A063E26038
:1009F0006360A16004F1100084F8445084F845500D
:100A0000FFF756FE04F12400FFF752FEFFF70AFF3E
:100A1000204670BD4820FFF717FE04460346002815
:100A2000D5D1F5E702484FF4C47101F00BFDC4E7DE
:100A3000003E00002DE9F04F85B0884601921D462A
:100A40000446002800F0C881B8F1000F00F0CD8105
:100A5000022D00F0368101F037FA18B9019B002B06
:100A600040F0A581FFF7BEFEA26BE36B4FF00009DB
:100A70009A424E46AB4FC0F08D80022D00F02B8184
:100A80000198002800F03981B9F1000F00F096803C
:100A9000FFF7C8FE00F0F6FEFFF7A4FE94F844301E
:100AA000FF2B08BF84F8446094F84530FF2B08BF43
:100AB00084F84560FFF7B6FE02A801A901F0C2F96B
:100AC000002840F02181FFF78DFEA26BE36B9A4274
:100AD00078D0FFF7A7FEFFF785FE94F845305FFA60
:100AE00083FA4FFA8AF3002B1ADD636AC3B104F16B
:100AF000240907E00AF1FF33DBB25FFA83FA7BB126
:100B0000636A6BB1484601F043F90028F2D001F066
:100B1000D5F90AF1FF33DBB25FFA83FA002BEFD18C
:100B2000FF2384F84530FFF77DFEFFF75BFE94F866
:100B300044305FFA83FA4FFA8AF3002B1ADD2369F7
:100B4000C3B104F1100907E00AF1FF33DBB25FFA29
:100B500083FA7BB123696BB1484601F019F900288B
:100B6000F2D001F0ABF90AF1FF33DBB25FFA83FA9E
:100B7000002BEFD1FF2384F84430FFF753FE00F041
:100B800043FFFFF72FFEA26BE36B4FF001099A4280
:100B9000BFF473AF226CA66B002A79D12568002DB3
:100BA00000F03D810136636AA663002B40F0278187
:100BB000FFF738FE012005B0BDE8F08F02A801F074
:100BC0002BF965E704F11009FFF72CFE484601995F
:100BD00001F02AF8FFF706FE94F845A05FFA8AFABA
:100BE0004FFA8AF3002B1CDD636AD3B104F1240BA6
:100BF00008E00AF1FF3A5FFA8AF35FFA83FA83B1F9
:100C0000636A73B1584601F0C3F80028F1D00AF1C5
:100C1000FF3A01F053F95FFA8AF35FFA83FA002B87
:100C2000EED1FF2384F84530FFF7FCFDFFF7DAFD36
:100C300094F844305FFA83FA4FFA8AF3002B06DC0B
:100C400015E00AF1FF33DBB25FFA83FA7BB1236967
:100C50006BB1484601F09CF80028F2D001F02EF963
:100C60000AF1FF33DBB25FFA83FA002BEFD1FF23E7
:100C700084F84430FFF7D6FD00F0C6FE002880D18E
:100C80004FF080533B60BFF34F8FBFF36F8F78E718
:100C90004146002D00F09180E06802F0D5FF236C02
:100CA000E2685B4221681A448A42E26002D26268CA
:100CB0001344E360022D7FF475AF002E08BF0126B8
:100CC00071E7E36B012B3FF4C6AE174840F2DB211E
:100CD00001F0B8FBBFE6226CA66B002A3FF45EAFC2
:100CE0004146E06802F0B0FF236CE2685B42216895
:100CF0001A448A42E260DAD3DFE70090FFF792FD00
:100D0000009805B0BDE8F08FFFF76CFD94F84550F2
:100D1000EDB26BB2002B1BDD636ACBB104F124068C
:100D20000AE000BF04ED00E0003E0000013DEBB230
:100D3000DDB26BB1636A5BB1304601F029F800287F
:100D4000F4D0013D01F0BAF8EBB2DDB2002BF1D1E5
:100D5000FF2384F84530FFF765FDFFF743FD94F866
:100D60004450EDB26BB2002B16DD2369A3B104F140
:100D7000100605E0013DEBB2DDB26BB123695BB15A
:100D8000304601F005F80028F4D0013D01F096F856
:100D9000EBB2DDB2002BF1D1FF2384F84430FFF732
:100DA00041FD00F031FE002005B0BDE8F08F224883
:100DB00040F2DE2101F046FB54E6A06802F044FF59
:100DC000A168236C62680B449342A360FFF4EAAE0F
:100DD00023680136A360E6E6174840F2D92101F006
:100DE00031FBB8F1000F7FF433AE236C002B3FF4DE
:100DF0002FAE114840F2DA2101F024FB28E604F17D
:100E0000240000F0C5FF00283FF4D2AE0B4B4FF09A
:100E100080521A60BFF34F8FBFF36F8FC8E66068D0
:100E200001F0B2F8636A0136A6636560002BE6D173
:100E30000028EBD1BCE600BF003E000004ED00E05E
:100E40002DE9F0470F4691469A46044600286BD09C
:100E5000002F70D0BAF1020F4ED0FFF77DFDEFF3F7
:100E600011884FF0BF0383F31188BFF36F8FBFF377
:100E70004F8FA16BE26B914207D3BAF1020F33D0CF
:100E8000002088F31188BDE8F08794F84550226C63
:100E9000EDB2A66B7AB92768002F65D00136FF2D19
:100EA000A66351D00135EDB284F84550012088F396
:100EB0001188BDE8F087BAF1000F26D03946E06806
:100EC00002F0C2FE236CE2685B4221681A448A4247
:100ED000E26002D262681344E360BAF1020FDDD12E
:100EE000002E08BF0126DAE794F84550226CEDB2D7
:100EF000A66B002ACFD0E1E7E36B012BADD01D48F4
:100F000040F2A13101F09EFAA7E73946A06802F04D
:100F10009BFEA168236C62680B449342A360BDD31F
:100F200023680136A360BAE7124840F29F3101F00E
:100F300089FA002F8ED1236C002B8BD00D484FF4F3
:100F4000687101F07FFA85E7636A002BAED004F187
:100F5000240000F01DFF0028A8D0B9F1000FA5D093
:100F60000120C9F800008CE7606801F00DF86760A7
:100F700094E700BF003E00002DE9F04F85B08B469E
:100F8000019298460446002800F0BB81BBF1000F97
:100F900000F0C08100F098FF18B9019B002B40F0D1
:100FA000A381FFF71FFCA36B00273D46AC4E002B2F
:100FB00040F0F480019B002B00F07281002F00F0C4
:100FC0001081FFF72FFC00F05DFCFFF70BFC94F89D
:100FD0004430FF2B08BF84F8445094F84530FF2B71
:100FE00008BF84F84550FFF71DFC02A801A900F0D6
:100FF00029FF00286DD1FFF7F5FBA36B002B40F014
:10100000F480FFF70FFC2368002B00F04F8104F100
:1010100024094846019900F007FEFFF7E3FB94F826
:1010200045305FFA83FA4FFA8AF3002B06DC15E0AD
:101030000AF1FF33DBB25FFA83FA7BB1636A6BB10B
:10104000484600F0A5FE0028F2D000F037FF0AF174
:10105000FF33DBB25FFA83FA002BEFD1FF2384F872
:101060004530FFF7DFFBFFF7BDFB94F844305FFA34
:1010700083FA4FFA8AF3002B1ADD2369C3B104F116
:10108000100907E00AF1FF33DBB25FFA83FA7BB1A4
:1010900023696BB1484600F07BFE0028F2D000F0D7
:1010A0000DFF0AF1FF33DBB25FFA83FA002BEFD1B9
:1010B000FF2384F84430FFF7B5FB00F0A5FC0028BF
:1010C00065D14FF080533360BFF34F8FBFF36F8F05
:1010D0005DE0FFF787FB94F845305FFA83FA4FFA3B
:1010E0008AF3002B1ADD636AC3B104F1240907E017
:1010F0000AF1FF33DBB25FFA83FA7BB1636A6BB14B
:10110000484600F045FE0028F2D000F0D7FE0AF174
:10111000FF33DBB25FFA83FA002BEFD1FF2384F8B1
:101120004530FFF77FFBFFF75DFB94F844305FFA33
:1011300083FA4FFA8AF3002B1ADD2369C3B104F155
:10114000100907E00AF1FF33DBB25FFA83FA7BB1E3
:1011500023696BB1484600F01BFE0028F2D000F076
:10116000ADFE0AF1FF33DBB25FFA83FA002BEFD159
:10117000FF2384F84430FFF755FB00F045FCFFF7F0
:1011800031FBA36B002B00F08B80FFF74BFBFFF7CD
:1011900029FBA36B0127002B3FF40CAF226CE56801
:1011A00062B16068A9188142E16028BF2168584691
:1011B00028BFE160009302F047FD009BB8F1000FEB
:1011C0007CD12268013BA363002A00F0AD80236933
:1011D000002B40F08F80FFF725FB012005B0BDE814
:1011E000F08F02A800F018FEEBE6FFF71BFBFFF7FD
:1011F000F9FA94F845305FFA83FA4FFA8AF3002B34
:101200001ADD636AC3B104F1240907E00AF1FF3370
:10121000DBB25FFA83FA7BB1636A6BB1484600F0D8
:10122000B7FD0028F2D000F049FE0AF1FF33DBB22F
:101230005FFA83FA002BEFD1FF2384F84530FFF7E4
:10124000F1FAFFF7CFFA94F844305FFA83FA4FFAD5
:101250008AF3002B1CDD2369D3B104F1100909E0E6
:1012600004ED00E00AF1FF33DBB25FFA83FA7BB1F1
:1012700023696BB1484600F08BFD0028F2D000F0E6
:101280001DFE0AF1FF33DBB25FFA83FA002BEFD1C8
:10129000FF2384F84430FFF7C5FA00F0B5FB76E78A
:1012A000FFF7C0FA002005B0BDE8F08FFFF79AFA0B
:1012B000606800F019FEFFF7B5FAA8E6636AE5601A
:1012C000002B88D004F1240000F062FD002882D0B9
:1012D000174B4FF080521A60BFF34F8FBFF36F8FE1
:1012E000FFF7A0FA012079E712484FF49C6101F062
:1012F000A9F856E604F1100000F04AFD0028E7D1F5
:1013000069E70C4840F2DC4101F09CF8BBF1000FAA
:101310007FF440AE236C002B3FF43CAE054840F216
:10132000DD4101F08FF835E600F088FE60604EE7A1
:1013300004ED00E0003E0000184B10B41A68AAB19A
:101340009A68DAB11A69DAB19A69DAB11A6ADAB165
:101350009A6ADAB11A6BDAB19A6BDAB11A6C22B105
:101360009A6CCAB15DF8044B7047082203EBC204C3
:10137000606043F832105DF8044B70470122F5E7D6
:101380000222F3E70322F1E70422EFE70522EDE76B
:101390000622EBE70722E9E70922E7E730250020EC
:1013A00070B505460E461446FFF71CFA95F8443012
:1013B000FF2B04BF002385F8443095F84530FF2B00
:1013C00004BF002385F84530FFF72CFAAB6B2BB92F
:1013D0003146224605F1240000F07AFCFFF702FABC
:1013E00095F84540E4B263B2002B16DD6B6AA3B1F9
:1013F00005F1240605E0013CE3B2DCB26BB16B6A97
:101400005BB1304600F0C4FC0028F4D0013C00F091
:1014100055FDE3B2DCB2002BF1D1FF2385F8453056
:10142000FFF700FAFFF7DEF995F84440E4B263B243
:10143000002B16DD2B69A3B105F1100605E0013C78
:10144000E3B2DCB26BB12B695BB1304600F0A0FCBB
:101450000028F4D0013C00F031FDE3B2DCB2002BF7
:10146000F1D1FF2385F84430BDE87040FFF7DAB9C9
:101470002DE9F84F9600814630460D4698460B9F61
:10148000FFF7E2F88246002800F0AA805020FFF71C
:10149000DBF80446002800F0A080C0F830A02B78CC
:1014A000043E80F834302B78564426F007062BB3E0
:1014B0006B7880F835306B7803B3AB7880F83630D2
:1014C000AB78DBB1EB7880F83730EB78B3B12B79C0
:1014D00080F838302B798BB16B7980F839306B79A3
:1014E00063B1AB7980F83A30AB793BB1EB7980F8F6
:1014F0003B30EB7913B12B7A80F83C300A9D4FF0EA
:10150000000B022D28BF022504F1040AE5622564C0
:10151000504684F83DB0C4F844B0FFF7D5F8C5F1A3
:10152000030504F11800FFF7CFF8C4F848B0A5612F
:10153000246184F84CB06462304649464246FFF765
:101540002BF9206007B13C60FFF74CF93B4A3C4F58
:101550001368013313603B68002B45D0DFF810811E
:10156000D8F800307BB3E36ADFF808C1DFF808E1A0
:10157000DCF80060DEF800200125324805FA03F9A6
:1015800003EB830349EA020200EB830051462E4439
:10159000CCF80060CEF80020FFF79AF8FFF742F988
:1015A000D8F80030B3B13A68E36AD26A9A4211D2ED
:1015B000254B4FF080521A60BFF34F8FBFF36F8FF0
:1015C0002846BDE8F88F3A68E36AD26A9A4298BF23
:1015D0003C60C9E72846BDE8F88F5046FFF760F841
:1015E0004FF0FF30BDE8F88F3C601368012B03D04B
:1015F000E36ADFF87C80B7E71248FFF759F8134E2B
:101600001348FFF755F8134D1348FFF751F83046CC
:10161000FFF74EF82846FFF74BF81048FFF748F859
:101620000F48FFF745F80F48FFF742F80E4B0F4AF7
:101630001E60DFF83C80E36A156095E7D82400203F
:10164000882400204424002004ED00E0B024002081
:1016500058240020C42400206C2400208C24002066
:10166000182400202C24002010240020A82400206E
:1016700014240020AC240020DC2400202DE9F843B1
:101680004FF40C70FEF7E0FF0546002800F09E8046
:101690005020FEF7D9FF0446002800F09480002671
:1016A00044214C2245234920271D84F8351084F815
:1016B000362084F83730256384F8340084F83860A5
:1016C000384684F83D60E66226646664FEF7FCFFF7
:1016D00005F50B7504F11800FEF7F6FF25F0070578
:1016E00003233246A664A3615149284684F84C601E
:1016F00024616462FFF750F84E4B20601C60FFF7D6
:1017000071F84D4ADFF86C91136801331360D9F812
:101710000030002B61D0DFF86081D8F80030002B5A
:1017200044D0E36ADFF854C1DFF854E1DCF800602C
:10173000DEF80050012241489A4003EB83032A431C
:1017400000EB830039460136CCF80060CEF800206B
:10175000FEF7BEFFFFF766F8D8F800306BB1D9F896
:101760000020E36AD26A9A4207D2354B4FF080528A
:101770001A60BFF34F8FBFF36F8F00F0BBFC0128DF
:101780001DD14FF0BF0383F31188BFF36F8FBFF3F9
:101790004F8F2C4B2C494FF0FF3400220C60C8F8BF
:1017A00000001A60BDE8F843FFF78AB8D9F80020B6
:1017B000E36AD26A9A4298BFC9F80040B2E70130A2
:1017C00004D0BDE8F8832846FEF76AFFBDE8F84379
:1017D0001E4840F2847100F035BEC9F8004013681D
:1017E000012B03D0E36ADFF890809BE71348FEF7F4
:1017F0005FFF174E1748FEF75BFF174D1748FEF7C0
:1018000057FF3046FEF754FF2846FEF751FF1448B5
:10181000FEF74EFF1348FEF74BFF1348FEF748FF55
:10182000124B134A1E60DFF85080E36A156079E7B7
:10183000391B0000A0240020D824002044240020CC
:1018400004ED00E0A4240020082400206C3E0000E9
:10185000B024002058240020C42400206C24002040
:101860008C240020182400202C2400201024002088
:10187000A82400208824002014240020AC24002068
:10188000DC240020024A136801331360704700BF54
:1018900080240020014B1868704700BFA42400205A
:1018A0002DE9F04F4C4B83B01B68CBB94B4B1D68F7
:1018B00001351D6015B34A4B01931B689D423AD216
:1018C000DFF83C91DFF83C810024D8F80030DB6A77
:1018D00003EB830359F82330022B28BF012404E0D3
:1018E000404A00241368013313603F4B1B68002BF0
:1018F00018BF0124204603B0BDE8F08F3B4F3B6882
:101900001B68002B5ED13A4B39681868394A386039
:10191000196013683549013313603B681B68002B5D
:1019200047D12F4B1A4601934FF0FF3313601346F4
:101930001B689D42C4D32D4FDFF8C490DFF8C480EC
:101940002D4E00242CE0294B1B68DB68D3F80CB02B
:10195000DBF804200BF1040A954239D35046FEF718
:10196000E1FEDBF828200BF118000AB1FEF7DAFEE1
:10197000DBF82C003268012303FA00FE00EB800044
:101980004EEA0202514609EB80003260FEF7A0FEEB
:10199000D8F80010DBF82C20CB6A9A4228BF01242B
:1019A0003B681B68002BCED1019A4FF0FF331360C8
:1019B0008BE70B680A4ADB680192DB685B6813609F
:1019C00013467AE70D4840F6D91100F03BFD9AE73F
:1019D000019B1A6079E700BF80240020A424002026
:1019E0000824002040240020E024002010240020AF
:1019F000A82400200C240020DC2400206C3E0000E1
:101A000044240020882400202DE9F84F3E4C236810
:101A1000002B68D0FEF7E6FE2368013B23602468B4
:101A2000002C5AD1394B1B68002B56D0DFF800A18F
:101A3000DFF80081D346364E364FDAF80030012504
:101A40002BB3DBF80C30DC6804F1040904F1180056
:101A5000FEF768FE4846FEF765FEE06A336805FA61
:101A600000F200EB80001343494607EB800033602F
:101A7000FEF72EFE284BE26A1B68DB6A9A42DCD333
:101A8000DAF80030C8F800500125002BD9D13CB15C
:101A9000224B1A68126862BB214B4FF0FF321A606A
:101AA000204E346844B10125FFF7FAFE08B1C8F8AA
:101AB0000050013CF8D13460D8F800306BB11A4BBB
:101AC0004FF080521A60BFF34F8FBFF36F8F012426
:101AD000FEF7A8FE2046BDE8F88F0024FEF7A2FE20
:101AE0002046BDE8F88F11484FF4FD6100F0AAFCD4
:101AF00090E71A680A4BD2680A4ED26852681A6098
:101B00003468002CD8D0CEE780240020D8240020D0
:101B1000DC240020442400208824002010240020FD
:101B2000082400204024002004ED00E06C3E00006A
:101B30008C240020E02400201A4E1B4D2DE98848FB
:101B4000B146A846194CDFF868B006E0236837684C
:101B500001332360FFF758FF2FB92B68002BF5D115
:101B600001F0D8FEF9E7FEF73DFED9F80C30D3F8C6
:101B70000CA00AF10400FEF7D5FDDBF80030013BB4
:101B8000CBF80030D8F80030013BC8F80030FEF741
:101B900049FEDAF83000FEF783FD5046FEF780FD7F
:101BA000DBE700BF182400208424002080240020CC
:101BB000D8240020164B1B68FBB91649164A70B58D
:101BC0000B601468B4FA84F4E4B2C4F11F04A600F4
:101BD000124D331955F823309BB13444A4002A190F
:101BE000536808345B682C44A342536004BF5B68AD
:101BF0005360DA680A4B1A6070BD064B01221A6006
:101C00007047084840F6F62100F01CFCE5E700BFED
:101C100080240020E0240020DC2400204424002034
:101C2000882400206C3E000070B50C460646002853
:101C300038D01F4D304629681831FEF759FD1D4B2D
:101C40001E6828680430FEF76DFD40B92B681A49FC
:101C5000D86A0A680123834022EA03030B60631CED
:101C600019D02B683444A6425C60114B0BD8134A40
:101C7000106819680431FEF73BFD114B1A68944255
:101C800038BF1C6070BD0F4ABDE87040106819680D
:101C90000431FEF72DBD29680B480431BDE87040C2
:101CA000FEF716BD094840F6063100F0CBFBC0E751
:101CB00088240020A4240020DC24002010240020FC
:101CC00008240020A82400202C2400206C3E0000C2
:101CD000F8B50C4617460646002842D0244D30463B
:101CE00029681831FEF7F4FC224B1E68286804307E
:101CF0002FB1FEF717FD20BB4FF0FF3402E0FEF7D7
:101D000011FD40B92B681C49D86A0A680123834039
:101D100022EA03030B60631C11D02B683444B442E5
:101D20005C60134B15D3154A106819680431FEF72F
:101D3000DFFC134B1A6894420AD21C60F8BD002FD6
:101D4000EBD029680F480431BDE8F840FEF7C0BC6D
:101D5000F8BD0D4A10681968BDE8F8400431FEF777
:101D6000C7BC0A4840F6313100F06CFBB6E700BF53
:101D700088240020A4240020DC240020102400203B
:101D8000082400202C240020A82400206C3E000001
:101D9000F8B5C368DC6854B304F118052846FEF7AB
:101DA000C1FC164B1B68EBB9271D154E3846FEF7D4
:101DB000B9FCE36A3568012212489A4003EB8303B9
:101DC0002A43394600EB83003260FEF781FC0E4B5C
:101DD000E26A1B68DB6A9A4283BF0C4B01201860E1
:101DE0000020F8BD29460A48FEF772FCEFE70948D3
:101DF00040F6613100F026FBCEE700BF80240020D2
:101E0000DC2400204424002088240020E02400203A
:101E10008C2400206C3E000010B5044630B1064A08
:101E2000064B12681B6884E80C0010BD044840F69D
:101E3000C13100F007FBF2E70C240020A4240020AD
:101E40006C3E0000F8B50D460446B8B10DB3FEF780
:101E5000C9FC2B681649581C0A6815D0154E27680E
:101E600030688742606801D0824202D2171ABB42B2
:101E700015D80125FEF7D6FC2846F8BD0E4840F6D9
:101E8000CB3100F0DFFAE1E70025FEF7CBFC284676
:101E9000F8BD094840F6CC3100F0D4FAD7E79B1AD8
:101EA00036680A6803442B60002526606260E1E71B
:101EB000A42400200C2400206C3E0000014B0122D1
:101EC0001A607047E0240020054B1B6833B1054BB6
:101ED0001B68002B0CBF02200020704701207047B8
:101EE0001424002080240020002843D02DE9F04154
:101EF000224CC36A2268D26A934212D28269002AB3
:101F000004DB2268D26AC2F1030282611C4D03EB3A
:101F10008303426905EB83039A4204D02368DB6A9A
:101F2000C362BDE8F08100F1040807464046FEF7B1
:101F3000F9FB00BBFB6A134E03EB830255F822202A
:101F400032B93268012101FA03F322EA0303336054
:101F500023683268DB6A01249C4003EB8300FB6248
:101F600044EA0203414605EB80003360BDE8F041DE
:101F7000FEF7AEBB7047034EEAE700BF882400209F
:101F800044240020DC24002000284CD0274B2DE9DD
:101F9000F0411B680446984204D0254840F6C761CA
:101FA00000F050FA636CF3B1E16A226C013B91429C
:101FB000636400D013B10020BDE8F081271D3846CE
:101FC000FEF7B0FBB0B9E36A1A4803EB830250F89E
:101FD0002220194E82B93268012101FA03F322EA64
:101FE0000303336008E0124840F6C96100F02AFAA2
:101FF000636CD9E70F48104E236C32680125C3F19A
:10200000030C03EB830E05FA03F8E36200EB8E008A
:1020100048EA02033946C4F818C03360FEF758FB9B
:102020002846BDE8F0810020704700BF88240020CA
:102030006C3E000044240020DC240020044B1A687D
:102040001AB119684A6C01324A641868704700BFB7
:10205000882400202DE9F047224E84B0DFF89090CC
:10206000B0460CE0DB68DC681F68251D2846FEF7DB
:1020700059FB636A20469847E369012B0BD033680C
:1020800018491A68002AEDD1174A106813600860D1
:1020900004B0BDE8F087A3694FF0000A3B44BB429F
:1020A00017D8D9F8003073B1CDF804A00297039483
:1020B000FFF70AFFD9F8000001A952465346FEF780
:1020C000B9FC0028DBD1094840F2923100F0BAF99E
:1020D000D5E7636024612946D8F80000FEF708FBC5
:1020E000CDE700BFE424002018250020D83E0000E2
:1020F00010250020F0B51C4C83B0FEF773FB25685B
:10210000C5B1FEF78FFB236863B1184A0223019221
:102110000093174817498C220023FFF7A9F908B14B
:1021200003B0F0BD144840F2331100F08BF90020E9
:1021300003B0F0BD114F124E3846FEF7B9FA3046E3
:10214000FEF7B6FADFF844E00E4B2A460A200C21CF
:10215000CEF800701E60FEF72BFC20600028D0D067
:102160000949FFF7E9F8CCE7102500201C250020DD
:10217000FD210000503F0000D83E0000E824002070
:10218000FC24002018250020483F0000E424002003
:1021900070B50D4686B0044610B3164E306870B167
:1021A000052D0395049205940BDCFFF78DFE0228A4
:1021B0000ED000223068134603A9FEF73BFC06B0A0
:1021C00070BD1A4603A90023FEF73AFE06B070BDA3
:1021D000306803A90A9A0023FEF72CFC06B070BDF4
:1021E00005484FF4D3718DE80C0000F02BF99DE801
:1021F0000C00D2E710250020D83E00002DE9F04F5A
:102200008A4D8B4FAA46DFF838928A4C89B03B68DA
:102210001E68002E4ED0DB68D3F800B0FFF732FB0B
:10222000FFF738FB2B688046984255D38345CAF8A0
:1022300000005DD90022C8EB0B012068FFF7B0F861
:10224000FFF7E2FB38B97C4A4FF080531360BFF3CD
:102250004F8FBFF36F8F4FF0000801260022134607
:10226000206805A9FEF788FE0028D0D0059B002B2A
:10227000F4DBDDF81CB0DBF814200BF104000AB12C
:10228000FEF750FAFFF706FB2968024688422AD378
:1022900005992A60092906FA01F0DFD810F4047FB5
:1022A0006ED110F0C70F42D18306D7D55846FEF73E
:1022B000F7F9D2E7FFF7E6FAFFF7ECFA2B6880466A
:1022C000984209D3D9F80030CAF800001A68B3461A
:1022D000B2FA82F25209AEE7FFF7BCFEC5F8008001
:1022E000FFF792FBB7E70390FFF7B4FE039ACFE73F
:1022F000FFF78AFB4E4B1B68DB68DE68311D084622
:102300000391FEF70FFAF2690399012A03D0736A69
:10231000304698479FE7B26936610BEB02004045B3
:1023200070604AD9424B1868FEF7E2F9EFE7069968
:10233000DBF81860CBF810B070189042CBF80400AE
:1023400031D8521A964227D8DBF8242058469047B5
:10235000DBF81C20012A80D1DBF81860069A0021E6
:10236000CDF80080584632440B46FFF711FF002895
:102370007FF473AF314840F2213100F063F86CE72D
:102380000699CBF81810002937D011449142CBF8A8
:102390000410CBF810B00AD80BF10401D9F80000F2
:1023A000FEF7A6F959E7914201D98142CCD90BF148
:1023B00004013868FEF79CF94FE7CBEB080842456B
:1023C0002FD822681B4B92B14FF000080393CDF831
:1023D00018B00796CDF81480FFF776FD039B4246B0
:1023E000186805A94346FEF725FB00288FD113483E
:1023F0004FF4027100F026F889E710484FF44E714F
:10240000039200F01FF8039ADBF81810CBF810B015
:1024100050189042CBF80400C9D800293FF41DAFF2
:10242000BAE7D9F80000FEF763F970E71425002039
:10243000E42400201025002004ED00E0D83E000038
:1024400018250020FEE700BFF8B50446002871D02B
:10245000A368013B7F2B63D8E368062B5BD8237806
:1024600013B16378002B38D0A388B3F5405F3CD01C
:10247000A5686B1EB3F5004F57D2B5FA85F52078E5
:10248000C5F11F0510B12E4B01221A602D498B6B2F
:10249000DE0706D40B6813F4405F02D0CA6BD20784
:1024A000FCD4A27C274EA3887260E768617843EA77
:1024B0004717A27841F008013943677C237C41EA41
:1024C000820242EA071242EA833343EA05234FF0CD
:1024D000FF323263336080B9F8BD1B488D21FFF7AE
:1024E000B1FFA388B3F5405FC2D1A37C002BBFD05E
:1024F00015489121FFF7A6FFBAE733689B0704D17F
:1025000012484FF48B71FFF79DFF11490C4A0023CD
:102510000B601360F8BD0C488921FFF793FF9EE71D
:1025200009488621FFF78EFF96E707484821FFF705
:1025300089FFA2E704488421FFF784FF88E700BFF2
:102540000007024300100840583F0000BC3F000055
:102550000C00024310B50C4618B10948CA21FFF718
:1025600071FF084A936BD90706D4136813F4405FD0
:1025700002D0D36B9B07FCD4024BDC6010BD00BFC4
:10258000583F00000010084008B518B10348DF218B
:10259000FFF758FF024BD86808BD00BF583F000046
:1025A00000100840024B0121002219601A60704798
:1025B0000C00024338B5334B0446DB6CC3F30743CE
:1025C0004A2B2CD0792B2AD0482B12D02E484FF4EE
:1025D0008771FFF737FF00239C420DD80020034688
:1025E0002A492B4A0B60536823F4807318435060C8
:1025F00038BD284B9C42F1D9224BDB6CC3F3074317
:102600004A2B2AD0792B28D0482B1DD01E484FF4B6
:102610008771FFF717FF4FF400700123E0E71E48B2
:102620001E4A03698169C06903F03F05C0F30313C3
:1026300043EA052301F0F00116480B43B3F5017F8F
:102640002CBF13460346C7E71548844294BF4FF496
:1026500080704FF400700123C2E70F49114B0869E5
:102660008A69C96900F03F00C1F3031141EA002102
:1026700002F0F0020A480A43B2F5017F28BF18466B
:10268000E3E700BFB081E00F2040000078009043F6
:1026900000800C400048E801D0FF0FE000366E01DA
:1026A0000090D003006CDC02674B70B59842044682
:1026B00002D0664B98420BD104F00F03013B062B6E
:1026C00000F28380DFE803F033734C81815A0A0003
:1026D0005F4840F2B531FFF7B5FEEDE75D4BDB6AD1
:1026E00003F46033B3F5803F2BD0B3F5003F00F027
:1026F0009880B3F5004F48D0534B9C427AD0534B4F
:102700009C4240F08580534B9B6AC3F38103022BAC
:1027100022D0032B00F09180012B7ED04D4B142250
:102720009B6AD34041D0BDE87040FDF729BF494BBB
:10273000DB6A03F47053B3F5805F72D0B3F5005FCA
:1027400023D1414B9C4255D0404B9C42DBD040486A
:102750004FF47971FFF776FEBDE87040FDF714BFC6
:102760003C4A936A03F00C03082BEAD00C2B0CD0E4
:10277000042B56D0936ADB0207D4BDE7354B1B68A8
:1027800013F0805301D0002BB6D02F4B9C4231D098
:102790002E4B9C42B7D02E484FF47971FFF752FE72
:1027A0002B4840F20E41FFF74DFE002070BD294A34
:1027B000936A03F00303022BC3D0032BE5D0012B54
:1027C0002FD0936ADA03E0D496E71F4E20484FF4E7
:1027D0004761FFF737FEB4420CD01C4DAC4292D09B
:1027E0001B484FF47971FFF72DFEB4420CD0AC4278
:1027F000DBD193E7174B9B6A03F00303022BABD0AB
:10280000032B1AD0012B08D0124B10229B6A88E7A9
:102810000F484FF47971FFF715FEBDE87040FDF7E2
:10282000ABBE094B9C42E5D0084B9C423FF46BAFDA
:1028300007484FF47971FFF705FEFDF7BBFD064B26
:102840001B680133D84070BD02001A0003001C0051
:102850002040000000800C407800904300F00F0002
:10286000013808B5062852D8DFE800F014243551A5
:10287000514604002D4BDB6A03F46033B3F5803F0F
:102880004ED0B3F5003F49D0B3F5004F0CBF09203F
:10289000012008BD254BDB6A03F47053B3F5805F5C
:1028A0003CD0B3F5005F3BD0B3F5006F0CBF042004
:1028B000052008BD1D4B986A00F0030002282ED0A9
:1028C00003282FD0012829D09B6A13F4803F0CBF26
:1028D00001200A2008BD154A936A03F00C03082B57
:1028E0001ED00C2B1ED0042B18D0936A13F4801F1B
:1028F0000CBF01200A2008BD0C4B1B6813F080534D
:1029000012D0B3F1805F0CBF0920012008BD084838
:102910004FF44761FFF796FD002008BD032008BD76
:10292000022008BD062008BD072008BD00800C401D
:102930002040000000F47810B0F5B01F08B500F09A
:102940009E8014D8B0F5402F00F08B8026D8B0F5CB
:10295000003F79D0B0F5802F00F0B780002877D005
:10296000704840F6CC01FFF76DFD002008BDB0F5C2
:10297000081F00F09F8037D8B0F5D01F5FD0B0F5AA
:10298000E01F69D0B0F5C01FEAD16748FFF78CFEA1
:10299000664B1B6FC3F30113D84008BDB0F5801F11
:1029A00035D0B0F5A01F73D0B0F5602FD8D15F4BF4
:1029B0005B6903F4E063B3F5007F00F0A58040F2AB
:1029C0008C80B3F5C06F00F0AB80B3F5E06F00F022
:1029D000A580B3F5407F00F08F8052484FF4C67158
:1029E000FFF730FD002008BDB0F5201F18D0B0F56E
:1029F000281F56D0B0F5181FB2D14D48FFF754FE2E
:102A00004A4B9B6EC3F301330433D84008BD48489A
:102A1000FFF74AFE454B9B6EC3F30313D84008BD36
:102A20004348FFF741FE414B9A6EDB6FC2F3013220
:102A300003F00703D0400133B0FBF3F008BD3C487E
:102A4000BDE80840FFF730BEBDE80840FDF7B2BC66
:102A5000BDE80840FDF720BD3348BDE80840FFF75A
:102A600023BE3448FFF7FAFE0728A0D00928EFD08C
:102A70002C484FF4E371FFF7E5FC002008BD2A481D
:102A8000FFF712FE294B1B6F03F00303D84008BD6C
:102A90002748FFF709FE254B9B6EC3F30323D8405D
:102AA00008BD2348FFF700FE204B9B6E03F0030395
:102AB000D84008BD2048FFF7D1FE032814D00928CC
:102AC000C6D0022814D0002008BDFDF7E5FC174B46
:102AD0009B6803F00F03D84008BDEBB1B3F5807FCE
:102AE0007FF47BAF154808BDBDE80840FDF744BD45
:102AF000BDE80840FDF748BD114BDB6CB3F1985FB2
:102B00002CBF1048104808BD0D4BDB6CB3F1985F2B
:102B10002CBF0E480E4808BD0E4808BD0E4808BD23
:102B20000E4808BD2040000003001C0000800C403F
:102B300002001A0006000C0007232200C0D8A700DC
:102B4000B081E00F804F120040420F0040B564009A
:102B5000C0CF6A00809FD500406F4001003FAB01AD
:102B600030B5C0F30323013B83B00446092B2AD8B8
:102B7000DFE803F01C1E2029290D19292905164814
:102B8000C4F304340444A400216003B030BD1348EE
:102B90000125134AC4F30434536DDB07F2D4136DDB
:102BA0001D42FCD1EEE70F481025F2E70E48E7E79B
:102BB0000E48E5E70E480191FFF7BCFEFFF7FAFC6F
:102BC0000C480199DCE70C484FF4FB6103B0BDE809
:102BD0003040FFF737BC00BFC003E410C002E41070
:102BE00000800C400003E4104000E4102002E410D8
:102BF000004302000002E4102040000038B500F05D
:102C00000F04631E062B3BD8DFE803F02B1B1B3A97
:102C10003A110400032940D0092964D0022952D076
:102C2000BDE83840AD4840F65261FFF70BBC0729BC
:102C30002DD0092940D1AA4A136843F0805313606C
:102C400038BD0139092900F22F81DFE811F0AA000F
:102C5000C500D1002D012D0122012D012D012D01D5
:102C600003010239082900F22681DFE811F0B000E3
:102C70004400CC00F9002401240124012401A9000E
:102C8000964840F62771BDE83840FFF7DBBB944A11
:102C9000136823F08053136038BD914B4021914A53
:102CA00019621368002BFCD08D4B60211A465962C3
:102CB000D36A9903FCD538BD884840F61361BDE856
:102CC0003840FFF7BFBB864B4FF48071864A1962CC
:102CD0001368002BFCD0824B40211A465962D36AFC
:102CE000D803FCD538BD7E4B20211A465962D36AE1
:102CF0001B04FCD538BD7B4A0324402378490B6272
:102D00001368002BFCD0FDF7C3FB41F67132774B03
:102D1000DD6BDA635B6803F00703042B00F2D380FA
:102D2000012202FA03F313F0130F00F0CC80704B72
:102D3000984240F20B8104226C494B6823F0070350
:102D400013434B600DB10023CB63654B69485C6254
:102D5000FFF7F0FDFFF72EFCFDF72CFB41F671327B
:102D6000624BDC6BDA635B6803F00703042B00F251
:102D7000AF80012202FA03F313F0130F00F0A880D2
:102D80005B4B984240F2DA80042258494B6823F0AA
:102D9000070313434B60002C00F094800023CB63A7
:102DA00038BD00210B460A46022C4D4800F0BC807D
:102DB000826A22F4801323F00C030B43836238BD34
:102DC000464840F61451BDE83840FFF73BBB464A41
:102DD00004244FF4807391E7414B4FF48071424AD1
:102DE00019621368002BFCD0082100230222DBE7C4
:102DF0003B4B40213B4A19621368002BFCD0042155
:102E000000230122D0E73C4BDB6CC3F307434A2B82
:102E100000F0A680792B00F0A380482B00F09E8064
:102E20002E484FF48771FFF70DFB0120FFF7C2FB1F
:102E3000FDF79AFB2A4A2E4B02249842136896BF4C
:102E400023F0600343F0600343F0200313602B4A38
:102E5000042353E74FF480114FF480330022A3E79B
:102E6000254BDB6CC3F307434A2B00F08F80792B93
:102E700000F08C80482B00F0878018484FF4877151
:102E8000FFF7E0FA01200124FFF794FB23461C4AD8
:102E900034E7FDF78FFAFFF78DFB1A4B01221A601A
:102EA0000C21002303227FE70C4840F6B851BDE80F
:102EB0003840FFF7C7BA094840F61951BDE8384015
:102EC000FFF7C0BA38BD0A4B98421DD9052233E737
:102ED000074B984220D9052257E700BF2040000049
:102EE00000800C409C059043A405904300000C40DA
:102EF0000048E80100430200B081E00F8C059043D8
:102F000084059043100890432A4B2B4A0344934274
:102F10008CBF022203220FE7264B274A0344934229
:102F20008CBF0222032230E742EA0301826A22F4C4
:102F3000803323F003030B43836238BD1D4B1E4ACD
:102F4000034493428CBF002201221EE7194B1A4A08
:102F5000034493428CBF00220122EDE6174865E747
:102F60001749184B08698A69C96900F03F00C1F325
:102F7000031141EA002102F0F00210480A43B2F5C1
:102F8000017F28BF184651E70C487CE70C490D4BE0
:102F900008698A69C96900F03F00C1F3031141EA79
:102FA000002102F0F00205480A43B2F5017F28BF74
:102FB000184668E7FFDB0BFFFF23F4000148E80138
:102FC000D0FF0FE001366E0170B5052800F2D98000
:102FD000DFE800F02C30353A3E038B4B1B6BC3F31C
:102FE00007258A4B0446DA6A02F47052B2F5805F14
:102FF00073D0B2F5005F70D0B2F5006F6DD0FDF701
:1030000047FA41F67132824BDE6BDA635A6802F09E
:103010000702042A20D80123934013F0130F1BD07A
:103020007C4B984240F2E880042220E0764BDB6A39
:10303000DDB2D6E7744BDB6AC3F30725D1E7724BE9
:10304000DB6AC3F30745CCE76F4BDB6A1D0EC8E7AD
:103050006D4B1B6BDDB2C4E76E4B984200F2B5803E
:103060006D4B6E4A034493428CBF0222032268498F
:103070004B6823F0070313434B600EB10023CB636F
:10308000624AD06820F4FF6020F0070040EA042381
:103090002B43D360FDF78EF941F671325C4BDC6B4C
:1030A000DA635B6803F00703042B00F290800122CF
:1030B00002FA03F313F0130F00F08980554B984286
:1030C00040F29280042252494B6823F007031343D5
:1030D0004B6064B10023CB6309E04C49CA6822F419
:1030E000FF6323F0070343EA04232B43CB60FDF780
:1030F00061F9454B0446DB6CC3F307434A2B2BD0E5
:10310000792B29D0482B25D045484FF48771FFF7FC
:1031100099F900239C420AD80020034641493B4AC2
:103120000B60536823F480731843506070BD364BB6
:10313000DB6CC3F307434A2B33D0792B31D0482BB8
:1031400026D037484FF48771FFF77CF94FF40070B1
:103150000123E3E72F4BDDE73348344A03698169F4
:10316000C06903F03F05C0F3031343EA052301F0F0
:10317000F00128480B43B3F5017F2CBF13460346EB
:10318000C8E7274841F22C01BDE87040FFF75AB963
:103190002748A0422CBF4FF480704FF400700123E9
:1031A000BCE72149234B08698A69C96900F03F00DF
:1031B000C1F3031141EA002102F0F0021C480A4366
:1031C000B2F5017F28BF1846E3E705224FE7114B10
:1031D000984201D9052276E70F4B104A03449342E7
:1031E0008CBF022203226EE70B4B0C4A034493422E
:1031F0008CBF0022012266E7074B084A0344934232
:103200008CBF0022012232E7B081E00F00800C4029
:1032100000000C400048E801FFDB0BFFFF23F40037
:103220002040000078009043D0FF0FE000366E0190
:103230000090D003006CDC02EFF3108072B6704790
:1032400000B962B6704700BF70B50446002856D179
:103250003249334A0B6943F004030B6111699369E6
:10326000D26901F03F01C2F3031242EA012203F0E6
:10327000F0031343B3F5827F0AD3B3F5017F07D080
:10328000002230BF9AB9BCB9BDE87040FDF792B8D2
:10329000244B254E196801220E40C3F880605D68FA
:1032A00025F04605C3F8845030BF002AEBD01D4BF3
:1032B0001E605D60002CE7D045F60E0340F255110C
:1032C0001A4A1B4DD2F88440C2F884302B68194842
:1032D00019401162017804F00104052903F001038B
:1032E00005D01120FFF78AFC2B6803F0010383B19E
:1032F00024B10E4B0022C3F8842070BD70BD0B4A70
:103300000B4BD26A11201A60FFF7A8FA094B18700C
:103310009EE7064B02221A62EAE700BF00ED00E0DA
:10332000D0FF0FE000E100E09CF1FD0000800C40C8
:10333000202500202425002070B50446002866D1F1
:1033400045F60E00394B4FF42071D3F88420C3F8B2
:103350008400D207196248BF0022354948BFC3F82C
:1033600084200B69334A43F004030B6111699369AC
:10337000D26901F03F01C2F3031242EA012203F0D5
:10338000F0031343B3F5827F0AD3B3F5017F07D06F
:10339000002230BF9AB9BCB9BDE87040FDF70AB849
:1033A000254B264E196801220E40C3F880605D68E7
:1033B00025F04605C3F8845030BF002AEBD01E4BE1
:1033C0001E605D60002CE7D045F60E0340F25511FB
:1033D000164A1B4DD2F88440C2F884302B68194835
:1033E00019401162017804F00104052903F001037A
:1033F00005D01120FFF702FC2B6803F0010383B115
:1034000024B10A4B0022C3F8842070BD70BD074A66
:103410000B4BD26A11201A60FFF720FA094B187083
:103420008EE7024B02221A62EAE700BF00800C40DE
:1034300000ED00E0D0FF0FE000E100E09CF1FD00B6
:10344000202500202425002004282DE9F0410446F1
:103450000D461746984631D9052800F0AB805848EC
:103460004FF48571FEF7EEFF7FBBE600311989004E
:10347000072D01F1804142D801F5C04148684FEA6B
:10348000850E0F2303FA0EF320EA030207FA0EF368
:1034900013434B6087B9B8F1000F50D1042C60D8AA
:1034A0004FF6FF732B41DB075DD53444454BA40039
:1034B00001222344AA405A60BDE8F0814FF6FF7311
:1034C0002B41DE07CBD5002FCFD0B8F1000F26D08F
:1034D000042C60D84FF6FF732B41D8074FD5E60078
:1034E00033199B0003F180430122311903F5C043D6
:1034F000AA408900072D1A6101F18041BCD905F16C
:10350000804301F5C041083B88689B000F229A4028
:1035100020EA020207FA03F313438B60BAE7042C94
:103520003ED84FF6FF732B41D90722D5E60031195B
:10353000244B890001220B44AA405A6096E7042CD0
:1035400033D84FF6FF732B41DA071ED53444A4005D
:1035500004F18044012304F5C044AB402361BDE87D
:10356000F081052C29D0184840F25931FEF76AFF46
:103570009BE7154840F25931FEF764FFD6E7124841
:1035800040F28631FEF75EFFA9E70F4840F2863130
:10359000FEF758FFDAE7052CF1D141F6FF739BE700
:1035A000052CE6D141F6FF73BDE7052CEDD141F6C0
:1035B000FF73C8E741F6FF7382E741F6FF7371E7D7
:1035C000E0400000106000408C3C000090FAA0F049
:1035D000B0FA80F000F18750003100F5A02018BF4C
:1035E00001218000016070470B4B01220B499A605A
:1035F0008B6813400BD010B44AF6E85408480023F7
:103600008C6002605DF8044B03608B607047044976
:103610000A600B60704700BF00A00C4000600C40C7
:1036200080048C433B4B5B6803F001029907104612
:1036300004D513F0810F08BF42F00200590704D5EA
:1036400013F0910F08BF40F00400190701D5002ABC
:103650005CD0D90603D5990708BF40F01000990641
:1036600004D54EF6DF71194000294CD0590604D517
:103670004EF69F711940002942D0190604D540F238
:1036800019711940002938D0D90503D540F21961C4
:10369000194079B3990503D540F21F41194031B360
:1036A000590503D540F21F211940E9B1190500D58C
:1036B000BAB1D90400D58AB1990400D55AB15904D8
:1036C00000D52AB11B0402D50AB940F40040704766
:1036D00040F48040F6E740F40050F0E740F48050BA
:1036E000EAE740F40060E4E740F48060DEE740F49D
:1036F0000070D5E740F48070CCE740F08000C3E76D
:1037000040F04000B9E740F02000AFE740F008008B
:103710009FE700BF00A00C4010B50446B0B10E4AB0
:103720005169136901F00F01C3F3811343EA810367
:10373000A370136903F03F0363709169D36901F0CB
:10374000F002C3F303131343237010BD03483E215B
:10375000FEF778FEE3E700BFD0FF0FE04041000036
:103760003A4B2DE9F047984205460C460FD003F539
:10377000806398420BD003F58063984207D003F52D
:103780008063984203D032484D21FEF75BFE94F8E7
:1037900000A0BAF1000F01D102236B606378617A57
:1037A000002BA27AE37A14BF4FF040094FF00009D2
:1037B000002918BF4FF08008217908BF4FF000089A
:1037C000002A18BF4FF0200C627908BF4FF0000CA0
:1037D000002B18BF4FF0100E237B08BF4FF0000ED8
:1037E000002914BF4FF400570027002AE27814BFC5
:1037F0004FF080560026002BA378217A4FEA024230
:1038000042EA0362A37942EA0102E17942EA8322B1
:1038100042EA012343EA090343EA080848EA0C0C98
:103820004CEA0E0E4EEA070714BF082000203E4364
:10383000304300236B622860BAF1000F03D00123EC
:103840006B60BDE8F087BDE8F08700BF0000014075
:10385000A44100002D4B2DE9F041984206460D464B
:1038600014460FD003F5806398420BD003F58063B4
:10387000984207D003F58063984203D02448822100
:10388000FEF7E0FD022D3BD8E379217A002B627A26
:1038900014BF4FF400184FF0000800296178A37A94
:1038A00014BF4FF4801C4FF0000C002A2278A0793E
:1038B0004FEA016114BF4FF0100E4FF0000E41EAC5
:1038C0008261002BA378E27841EA000141EA0341DA
:1038D000237941EA0232617942EA832242EA0123F2
:1038E00043EA080343EA0C0C14BF042700270335FE
:1038F0004CEA0E0E2D014EEA07077751BDE8F08124
:1039000003488321FEF79EFDBEE700BF0000014093
:10391000A4410000FCF75CBE08B50020FEF734FEB1
:1039200032280DD0174B01221A6000203221FEF7F9
:1039300011FE154B1B689B071ED0124B00221A600C
:10394000114B07221A63EFF311834FF0BF0282F38A
:103950001188BFF36F8FBFF34F8FFDF7A1FF38B111
:103960000A4B4FF080521A60BFF34F8FBFF36F8F37
:10397000002383F3118808BD05484FF48B71FEF7CF
:1039800061FDDAE70C0002430010084004ED00E09E
:10399000BC3F000070B51B4D86B001AC0FCD0FC40D
:1039A0002B68194801212360184CFFF7D9F8002132
:1039B0000220FFF70BFE022501234FF4405201A81D
:1039C000ADF8082003938DF815308DF80550FEF7FB
:1039D0003BFD626B0E4B22F002024FF00046E021ED
:1039E0006263002083F81F13C3F8806132211E60D8
:1039F000FEF7B0FD2563636B2B436363FEF7D2FDD7
:103A000006B070BD1C4200000043020000100840D8
:103A100000E100E02DE9F04781461B4EDFF870A081
:103A20003368DFF8708001250027BAF80020FA2AF1
:103A300009D0B3F57A7F19D2BAF80020002B08BF5D
:103A40000125FA2AF5D19DB103F57A74B4F5803FCA
:103A5000346013D2C8F85C40D9F80400FCF7F0FBDE
:103A60003368AAF80070B3F57A7FE5D30025DCE768
:103A7000A3F57A74B4F5803F3460EBD3034840F289
:103A80004721FEF7DFFCE5E728250020B8410000CC
:103A90002C250020000C0140034B044A01219961B0
:103AA00013880B4413807047000001402C25002030
:103AB00070B5394B84B0DC6C03A8FFF72DFEB4F170
:103AC000805F0AD39DF80C30022B06D9334A136865
:103AD00023F0500343F0100313600020FFF774FA43
:103AE00001212F48FFF73CF8FCF742FCFCF75EFB96
:103AF0000020FCF777FB2B4C0120FCF773FB4FF405
:103B00007A73E36120462849FFF72AFE274A2046B8
:103B10000221FFF79FFE264A0023264EA26263621F
:103B20003568B5F5803F24D265651E4B224CDD65B6
:103B3000DA68002042F001020425DA6025600446BC
:103B400001460125FCF726FD009501941B499622AC
:103B50001B4B1C48FDF78CFC1B4996221B4B009508
:103B600001941848FDF784FCFDF788FD204604B059
:103B700070BD174840F25D21FEF764FC336865654F
:103B8000B3F5803F06D3124840F247211D46FEF7A9
:103B900059FCCAE71D46C8E7B081E00FC0800C4061
:103BA00000520400000001401C0000201000002012
:103BB000040001002825002000E100E03042000060
:103BC0002C000020153A00003C4200003400002088
:103BD000B841000008B5074B044613B10021AFF30C
:103BE0000080054B1868836A03B19847204600F0AF
:103BF0003FF800BF000000004C4200000E4B70B5C3
:103C00001E460E4C0025E41AA410A54204D056F816
:103C1000253098470135F8E700F02CF8084B094C9F
:103C20001E46E41AA4100025A54204D056F82530FB
:103C300098470135F8E770BD9C0000209C000020EB
:103C40009C000020A000002010B5431E0A449142B1
:103C500004D011F8014B03F8014FF8E710BD0346FB
:103C60000244934202D003F8011BFAE770470000B8
:103C7000FEE700BFF8B500BFF8BC08BC9E46704721
:103C8000F8B500BFF8BC08BC9E4670472F7573722C
:103C90002F6C6F63616C2F53696D706C696369740D
:103CA0007953747564696F5F76342F646576656CDB
:103CB0006F7065722F73646B732F6765636B6F5FD3
:103CC00073646B5F73756974652F76312E312F2F96
:103CD000706C6174666F726D2F656D6C69622F69AF
:103CE0006E632F656D5F6770696F2E68000000005E
:103CF00004000000020000000400000003000000B7
:103D00002F7573722F6C6F63616C2F53696D706CBC
:103D1000696369747953747564696F5F76342F646D
:103D20006576656C6F7065722F73646B732F676552
:103D3000636B6F5F73646B5F73756974652F763146
:103D40002E312F7574696C2F74686972645F7061AD
:103D50007274792F6672656572746F732F536F7505
:103D60007263652F706F727461626C652F4D656D43
:103D70004D616E672F686561705F312E63000000D2
:103D80002F7573722F6C6F63616C2F53696D706C3C
:103D9000696369747953747564696F5F76342F64ED
:103DA0006576656C6F7065722F73646B732F6765D2
:103DB000636B6F5F73646B5F73756974652F7631C6
:103DC0002E312F7574696C2F74686972645F70612D
:103DD0007274792F6672656572746F732F536F7585
:103DE0007263652F706F727461626C652F47434315
:103DF0002F41524D5F434D332F706F72742E63000D
:103E00002F7573722F6C6F63616C2F53696D706CBB
:103E1000696369747953747564696F5F76342F646C
:103E20006576656C6F7065722F73646B732F676551
:103E3000636B6F5F73646B5F73756974652F763145
:103E40002E312F7574696C2F74686972645F7061AC
:103E50007274792F6672656572746F732F536F7504
:103E60007263652F71756575652E63002F757372AA
:103E70002F6C6F63616C2F53696D706C696369742B
:103E80007953747564696F5F76342F646576656CF9
:103E90006F7065722F73646B732F6765636B6F5FF1
:103EA00073646B5F73756974652F76312E312F756E
:103EB00074696C2F74686972645F70617274792FB1
:103EC0006672656572746F732F536F757263652FB9
:103ED0007461736B732E63002F7573722F6C6F6335
:103EE000616C2F53696D706C696369747953747573
:103EF00064696F5F76342F646576656C6F70657288
:103F00002F73646B732F6765636B6F5F73646B5F95
:103F100073756974652F76312E312F7574696C2F26
:103F200074686972645F70617274792F6672656516
:103F300072746F732F536F757263652F74696D653B
:103F400072732E6300000000546D72510000000077
:103F5000546D7220537663002F7573722F6C6F63EC
:103F6000616C2F53696D706C6963697479537475F2
:103F700064696F5F76342F646576656C6F70657207
:103F80002F73646B732F6765636B6F5F73646B5F15
:103F900073756974652F76312E312F706C6174667C
:103FA0006F726D2F656D6C69622F7372632F656D13
:103FB0005F62757274632E63000000002F75737268
:103FC0002F6C6F63616C2F53696D706C69636974DA
:103FD0007953747564696F5F76342F646576656CA8
:103FE0006F7065722F73646B732F6765636B6F5FA0
:103FF00073646B5F73756974652F76312E312F2F63
:10400000706C6174666F726D2F656D6C69622F697B
:104010006E632F656D5F62757274632E68000000B9
:104020002F7573722F6C6F63616C2F53696D706C99
:10403000696369747953747564696F5F76342F644A
:104040006576656C6F7065722F73646B732F67652F
:10405000636B6F5F73646B5F73756974652F763123
:104060002E312F706C6174666F726D2F656D6C6987
:10407000622F7372632F656D5F636D752E63000031
:104080002F7573722F6C6F63616C2F53696D706C39
:10409000696369747953747564696F5F76342F64EA
:1040A0006576656C6F7065722F73646B732F6765CF
:1040B000636B6F5F73646B5F73756974652F7631C3
:1040C0002E312F2F706C6174666F726D2F656D6C61
:1040D00069622F696E632F656D5F636D752E680071
:1040E0002F7573722F6C6F63616C2F53696D706CD9
:1040F000696369747953747564696F5F76342F648A
:104100006576656C6F7065722F73646B732F67656E
:10411000636B6F5F73646B5F73756974652F763162
:104120002E312F706C6174666F726D2F656D6C69C6
:10413000622F7372632F656D5F6770696F2E630006
:104140002F7573722F6C6F63616C2F53696D706C78
:10415000696369747953747564696F5F76342F6429
:104160006576656C6F7065722F73646B732F67650E
:10417000636B6F5F73646B5F73756974652F763102
:104180002E312F706C6174666F726D2F656D6C6966
:10419000622F7372632F656D5F73797374656D2E13
:1041A000630000002E2E2F656D6C69622F656D5FB8
:1041B00074696D65722E63002F7573722F6C6F6357
:1041C000616C2F53696D706C696369747953747590
:1041D00064696F5F76342F646576656C6F706572A5
:1041E0002F73646B732F6765636B6F5F73646B5FB3
:1041F00073756974652F76312E312F2F706C617451
:10420000666F726D2F656D6C69622F696E632F65C5
:104210006D5F74696D65722E680000000101000019
:10422000003000000100000000000000010000005C
:104230004C6564426C696E6B310000004C656442F1
:104240006C696E6B32000000430000003C000020EF
:04425000000000006A
:08425400E4BEFF7F0100000041
:10425C0000800000006CDC02809FD500AAAAAAAAEC
:10426C000003000003020300000000000101000035
:10427C000000000000000000000000000A00000028
:10428C00000000001400000001000000000000000D
:10429C000000000000000000000000000000000012
:1042AC000000000000000000000000004842000078
:1042BC0000000000000000000000000000000000F2
:1042CC0000000000000000000000000000000000E2
:1042DC0000000000000000000000000000000000D2
:1042EC0000000000000000000000000001010000C0
:0842FC00DD00000000000000DD
:040000030000038571
:00000001FF
