S01D000053544B333730305F6672656572746F735F626C696E6B2E733337E3
S11300000000022085030000B1030000B1030000DA
S1130010B1030000B1030000B1030000B10300000C
S1130020B1030000B1030000B1030000C1070000E8
S1130030B1030000B103000051080000950800005E
S1130040B1030000B1030000E9370000B103000070
S1130050B1030000B1030000B1030000B1030000CC
S1130060B1030000B1030000B1030000B1030000BC
S1130070B1030000B1030000B1030000B1030000AC
S1130080B1030000B1030000B1030000B10300009C
S1130090B1030000B1030000B1030000B10300008C
S11300A0B1030000B1030000B1030000B10300007C
S11300B0B1030000B1030000B10300009D3600004D
S11300C0B1030000B1030000B1030000B10300005C
S11300D0B1030000B1030000B103000010B5054CEA
S11300E0237833B9044B13B10448AFF300800123E0
S11300F0237010BD8C00002000000000303F000081
S1130100084B10B51BB108480849AFF300800848F4
S1130110036803B910BD074B002BFBD0BDE81040AA
S1130120184700BF00000000303F0000900000208E
S11301308800002000000000154B002B08BF134B63
S11301409D46A3F5803A00218B460F461348144A76
S1130150121A03F0EEFB0F4B002B00D098470E4B06
S1130160002B00D098470020002104000D000D480A
S1130170002802D00C48AFF3008003F0A9FB200054
S1130180290003F03DFB03F08FFB00BF00000800D3
S11301900000022000000000000000008C0000208D
S11301A060250020000000000000000008B50B4896
S11301B0012102F02FFD0A48012102F02BFD042049
S11301C002460221002303F061F8042002460321C1
S11301D0002303F05BF8002008BD00BF4081040049
S11301E000D20400012821D838B5134B13F830404D
S11301F003EBC003042C5D6810D84FF6FF732B414A
S1130200DB070DD504EBC404A40004F180440123EE
S113021004F5C044AB402361002038BD052C08D050
S1130220064840F2863102F067F9EBE74FF0FF3001
S1130230704741F6FF73E2E7C439000060390000FB
S1130240012821D838B5134B13F8304003EBC00311
S1130250042C5D6810D84FF6FF732B41DB070DD5D6
S113026004EBC404A40004F18044012304F5C04455
S1130270AB40A361002038BD052C08D0064840F2ED
S11302809F3102F039F9EBE74FF0FF30704741F648
S1130290FF73E2E7C4390000603900002A492B4BA0
S11302A00A46486C70B540F400504864D3F8200105
S11302B0102440F00400C3F82001D3F8200120F4F6
S11302C04070C3F82001D3F8B80020F47060C3F87C
S11302D0B800D3F8B80040F48060C3F8B8000C62EA
S11302E0D36A9B06FCD51A4B1A491A681A4C42F079
S11302F001021A60DA68194842F08072DA600C6010
S113030002F072FB00F5D52000F2FC40144BC0084B
S1130310A3FB002313499B0A134C14484FF060427B
S1130320013B02264FF480750B61C1F8F060C1F8FF
S11303300453C2F8B04FC2F8800ED2F8003E43F026
S11303400103C2F8003E70BD00800C400060004014
S1130350F0ED00E0001000E0FF13014006000C0087
S113036017916502000004E055CEACC509000100F8
S113037008B54FF07E63186810B1FFF78FFF0120B6
S113038008BD00BF064880470649074A074B9A4202
S1130390BEBF51F8040B42F8040BF8E7FFF7CCFE9C
S11303A0750500003C3F0000000000208C00002088
S11303B0FEE700BF294AD36A03F47053B3F5805FA4
S11303C02AD0B3F5005F24D0B3F5006F11D0D36801
S11303D003F4E063B3F5007F3DD020D9B3F5806F1B
S11303E037D0B3F5A06F32D0B3F5407F24D00023CB
S11303F001E01B4B1B68194A1A4910685268C0F384
S113040082300130B3FBF0F002F00F03D8400860F3
S11304107047154B1B68EEE74FF40043EBE76BB1F5
S1130420B3F5807FE3D1114B114AD86C114BB0F175
S1130430985F28BF1346DEE70F4BDCE70B4B0F4AF0
S1130440D86C0F4BB0F1985F28BF1346D3E70D4B20
S1130450D1E70D4BCFE70D4BCDE700BF00800C403B
S1130460040000200800002000000020B081E00FFC
S113047040B56400C0CF6A00809FD500804F120051
S113048040420F00003FAB01406F4001C0D8A700BD
S113049000487047006CDC02274AD36A03F47053A7
S11304A0B3F5805F24D0B3F5005F1ED0B3F5006FC1
S11304B011D0D36803F4E063B3F5007F39D01AD9BF
S11304C0B3F5806F33D0B3F5A06F2ED0B3F5407F72
S11304D01FD0002001E0194B1868174B1B68C3F3A9
S11304E082330133B0FBF3F07047154B1868F4E71F
S11304F04FF40040F1E773B1B3F5807FE9D1114ABD
S1130500114BD06C114AB0F1985F2CBF18461046BD
S1130510E3E70F48E1E70B4A0E4BD06C0E4AB0F10B
S1130520985F2CBF18461046D7E70C48D5E70C480F
S1130530D3E70C48D1E700BF00800C400400002042
S113054000000020B081E00F40B56400C0CF6A0015
S1130550809FD500804F120040420F00003FAB0146
S1130560406F4001C0D8A700014B1868704700BF16
S113057004000020704700BF4FF40040704700BFE4
S11305804FF47A70704700BF014B1868704700BF82
S11305900000002070B50B4B0B4D0C4C00221A7060
S11305A05A702860216002F05FFFC30500D470BD5B
S11305B002F03CFF2368002BF9D0BDE87040042012
S11305C0184700BFB0000020AC000020A8000020A5
S11305D038B502F053FD184B04461A78A2B95B787B
S11305E0FBB9164B1B680BB103209847012002F09E
S11305F0C5FD0325124B1B680BB1284698472046BE
S113060002F040FD284638BD0C4B1B680BB101209D
S113061098470C4A136923F00403136130BF012582
S1130620E8E7064B1B680BB102209847012002F053
S11306302DFD0225DEE700BFB0000020AC00002045
S1130640A800002000ED00E038B5044643071CBFB5
S113065020F00704083401F015F90E4B1D689DB114
S113066042F21F310C4A13681C448C4207D8A3423F
S113067005D21D44146001F0C7F9284638BD002591
S113068001F0C2F9284638BD044D25F007051D6068
S1130690E6E700BFE0230020B4000020C0000020F3
S11306A018B10248AB2101F027BF7047D4390000CC
S11306B000F108034FF0FF310022816080E80C0054
S11306C0C3600361704700BF00230361704700BF2C
S11306D090E80C0010B49C6801328C609C684B60FC
S11306E0616099605DF8044B08610260704700BF67
S11306F030B40D686B1C11D000F1080200E01A46FA
S113070053681C68A542FAD204684B6001349960AE
S11307108A6051600861046030BC704702695368A4
S1130720F2E700BF43688168026910B49960816888
S113073054684B601368844208BF5160013B002138
S113074001615DF8044B1846136070470648006861
S1130750006880F3088862B661B6BFF34F8FBFF3B9
S11307606F8F00DF00BF000008ED00E008B5084B04
S11307701B68013303D00748F22101F0BDFE4FF09E
S1130780BF0383F31188BFF36F8FBFF34F8FFEE76F
S11307900C000020543A0000074B10B421F0010172
S11307A04FF0807440F8202C00E9120040F80C3C13
S11307B05DF8044B403870476D07000000000000EE
S11307C0074B19680868B0E8F00F80F30988BFF395
S11307D06F8F4FF0000080F311884EF00D0E7047BC
S11307E06C2400204FF0BF0383F31188BFF36F8F95
S11307F0BFF34F8F084A13680133012B136000D0F5
S11308007047064B1B6813F0FF0FF9D0044840F201
S11308107F1101F071BE00BF0C00002004ED00E068
S1130820543A000010B5084C23682BB1013B2360F7
S11308300BB983F3118810BD04484FF4C37101F060
S11308405BFE2368F2E700BF0C000020543A00006E
S1130850EFF30980BFF36F8F0D4B1A6820E9F00F97
S113086010602DE908404FF0BF0080F3118801F0BB
S1130870FBF94FF0000080F31188BDE808401968C7
S11308800868B0E8F00F80F30988BFF36F8F7047F2
S11308906C24002008B54FF0BF0383F31188BFF325
S11308A06F8FBFF34F8F00F0FBFF18B1034B4FF076
S11308B080521A60002383F3118808BD04ED00E020
S11308C010B5204B82B01A78FF21D2B20192197070
S11308D01B781D4CDBB28DF803309DF803309DF876
S11308E003101A4803F0BF030722090623700260AD
S11308F00DD5062200E00A469DF80330511E5B0028
S1130900DBB28DF803309DF803301B06F3D4019954
S113091012020C4C0E4BC9B202F4E0620260217068
S11309201A6842F47F021A601A6842F07F421A6021
S113093002F0F2FE074B00221A60FFF707FFFFF7F1
S113094015FF00BF00E400E0E4230020E8230020BA
S113095020ED00E00C00002008B5EFF305830F2B19
S113096005D90E490E4A5B5C12789A420FD80D4B9A
S11309700D4A1B68126803F4E063934200D808BD73
S11309800A4840F2AE21BDE8084001F0B5BD074871
S113099040F29E2101F0B0FDE9E700BFF0E300E082
S11309A0E42300200CED00E0E8230020543A00008A
S11309B070B50E460546002834D05EB306FB05F03C
S11309C04830FFF741FE044600F1480300B32360BA
S11309D0E5632664FFF706FF226CE36B216803FBE3
S11309E002F39A1A0A440B440020FF25A063E26034
S11309F06360A16004F1100084F8445084F8455009
S1130A00FFF756FE04F12400FFF752FEFFF70AFF3A
S1130A10204670BD4820FFF717FE04460346002811
S1130A20D5D1F5E702484FF4C47101F065FDC4E780
S1130A30D43A00002DE9F04F85B0884601921D4656
S1130A400446002800F0C881B8F1000F00F0CD8101
S1130A50022D00F0368101F091FA18B9019B002BA8
S1130A6040F0A581FFF7BEFEA26BE36B4FF00009D7
S1130A709A424E46AB4FC0F08D80022D00F02B8180
S1130A800198002800F03981B9F1000F00F0968038
S1130A90FFF7C8FE00F0F6FEFFF7A4FE94F844301A
S1130AA0FF2B08BF84F8446094F84530FF2B08BF3F
S1130AB084F84560FFF7B6FE02A801A901F01CFA0C
S1130AC0002840F02181FFF78DFEA26BE36B9A4270
S1130AD078D0FFF7A7FEFFF785FE94F845305FFA5C
S1130AE083FA4FFA8AF3002B1ADD636AC3B104F167
S1130AF0240907E00AF1FF33DBB25FFA83FA7BB122
S1130B00636A6BB1484601F09DF90028F2D001F008
S1130B102FFA0AF1FF33DBB25FFA83FA002BEFD12D
S1130B20FF2384F84530FFF77DFEFFF75BFE94F862
S1130B3044305FFA83FA4FFA8AF3002B1ADD2369F3
S1130B40C3B104F1100907E00AF1FF33DBB25FFA25
S1130B5083FA7BB123696BB1484601F073F900282D
S1130B60F2D001F005FA0AF1FF33DBB25FFA83FA3F
S1130B70002BEFD1FF2384F84430FFF753FE00F03D
S1130B8043FFFFF72FFEA26BE36B4FF001099A427C
S1130B90BFF473AF226CA66B002A79D12568002DAF
S1130BA000F03D810136636AA663002B40F0278183
S1130BB0FFF738FE012005B0BDE8F08F02A801F070
S1130BC085F965E704F11009FFF72CFE4846019901
S1130BD001F084F8FFF706FE94F845A05FFA8AFA5C
S1130BE04FFA8AF3002B1CDD636AD3B104F1240BA2
S1130BF008E00AF1FF3A5FFA8AF35FFA83FA83B1F5
S1130C00636A73B1584601F01DF90028F1D00AF166
S1130C10FF3A01F0ADF95FFA8AF35FFA83FA002B29
S1130C20EED1FF2384F84530FFF7FCFDFFF7DAFD32
S1130C3094F844305FFA83FA4FFA8AF3002B06DC07
S1130C4015E00AF1FF33DBB25FFA83FA7BB1236963
S1130C506BB1484601F0F6F80028F2D001F088F9AB
S1130C600AF1FF33DBB25FFA83FA002BEFD1FF23E3
S1130C7084F84430FFF7D6FD00F0C6FE002880D18A
S1130C804FF080533B60BFF34F8FBFF36F8F78E714
S1130C904146002D00F09180E06802F03FFE236C95
S1130CA0E2685B4221681A448A42E26002D26268C6
S1130CB01344E360022D7FF475AF002E08BF0126B4
S1130CC071E7E36B012B3FF4C6AE174840F2DB211A
S1130CD001F012FCBFE6226CA66B002A3FF45EAF63
S1130CE04146E06802F01AFE236CE2685B42216828
S1130CF01A448A42E260DAD3DFE70090FFF792FDFC
S1130D00009805B0BDE8F08FFFF76CFD94F84550EE
S1130D10EDB26BB2002B1BDD636ACBB104F1240688
S1130D200AE000BF04ED00E0D43A0000013DEBB25C
S1130D30DDB26BB1636A5BB1304601F083F8002821
S1130D40F4D0013D01F014F9EBB2DDB2002BF1D186
S1130D50FF2384F84530FFF765FDFFF743FD94F862
S1130D604450EDB26BB2002B16DD2369A3B104F13C
S1130D70100605E0013DEBB2DDB26BB123695BB156
S1130D80304601F05FF80028F4D0013D01F0F0F89E
S1130D90EBB2DDB2002BF1D1FF2384F84430FFF72E
S1130DA041FD00F031FE002005B0BDE8F08F22487F
S1130DB040F2DE2101F0A0FB54E6A06802F0AEFD93
S1130DC0A168236C62680B449342A360FFF4EAAE0B
S1130DD023680136A360E6E6174840F2D92101F002
S1130DE08BFBB8F1000F7FF433AE236C002B3FF480
S1130DF02FAE114840F2DA2101F07EFB28E604F11F
S1130E00240001F01FF800283FF4D2AE0B4B4FF042
S1130E1080521A60BFF34F8FBFF36F8FC8E66068CC
S1130E2001F00CF9636A0136A6636560002BE6D114
S1130E300028EBD1BCE600BFD43A000004ED00E08A
S1130E402DE9F0470F4691469A46044600286BD098
S1130E50002F70D0BAF1020F4ED0FFF77DFDEFF3F3
S1130E6011884FF0BF0383F31188BFF36F8FBFF373
S1130E704F8FA16BE26B914207D3BAF1020F33D0CB
S1130E80002088F31188BDE8F08794F84550226C5F
S1130E90EDB2A66B7AB92768002F65D00136FF2D15
S1130EA0A66351D00135EDB284F84550012088F392
S1130EB01188BDE8F087BAF1000F26D03946E06802
S1130EC002F02CFD236CE2685B4221681A448A42DA
S1130ED0E26002D262681344E360BAF1020FDDD12A
S1130EE0002E08BF0126DAE794F84550226CEDB2D3
S1130EF0A66B002ACFD0E1E7E36B012BADD01D48F0
S1130F0040F2A13101F0F8FAA7E73946A06802F0EF
S1130F1005FDA168236C62680B449342A360BDD3B2
S1130F2023680136A360BAE7124840F29F3101F00A
S1130F30E3FA002F8ED1236C002B8BD00D484FF495
S1130F40687101F0D9FA85E7636A002BAED004F129
S1130F50240000F077FF0028A8D0B9F1000FA5D035
S1130F600120C9F800008CE7606801F067F8676049
S1130F7094E700BFD43A00002DE9F04F85B08B46CA
S1130F80019298460446002800F0BB81BBF1000F93
S1130F9000F0C08100F0F2FF18B9019B002B40F073
S1130FA0A381FFF71FFCA36B00273D46AC4E002B2B
S1130FB040F0F480019B002B00F07281002F00F0C0
S1130FC01081FFF72FFC00F05DFCFFF70BFC94F899
S1130FD04430FF2B08BF84F8445094F84530FF2B6D
S1130FE008BF84F84550FFF71DFC02A801A900F0D2
S1130FF083FF00286DD1FFF7F5FBA36B002B40F0B6
S1131000F480FFF70FFC2368002B00F04F8104F1FC
S113101024094846019900F061FEFFF7E3FB94F8C8
S113102045305FFA83FA4FFA8AF3002B06DC15E0A9
S11310300AF1FF33DBB25FFA83FA7BB1636A6BB107
S1131040484600F0FFFE0028F2D000F091FF0AF1BC
S1131050FF33DBB25FFA83FA002BEFD1FF2384F86E
S11310604530FFF7DFFBFFF7BDFB94F844305FFA30
S113107083FA4FFA8AF3002B1ADD2369C3B104F112
S1131080100907E00AF1FF33DBB25FFA83FA7BB1A0
S113109023696BB1484600F0D5FE0028F2D000F079
S11310A067FF0AF1FF33DBB25FFA83FA002BEFD15B
S11310B0FF2384F84430FFF7B5FB00F0A5FC0028BB
S11310C065D14FF080533360BFF34F8FBFF36F8F01
S11310D05DE0FFF787FB94F845305FFA83FA4FFA37
S11310E08AF3002B1ADD636AC3B104F1240907E013
S11310F00AF1FF33DBB25FFA83FA7BB1636A6BB147
S1131100484600F09FFE0028F2D000F031FF0AF1BB
S1131110FF33DBB25FFA83FA002BEFD1FF2384F8AD
S11311204530FFF77FFBFFF75DFB94F844305FFA2F
S113113083FA4FFA8AF3002B1ADD2369C3B104F151
S1131140100907E00AF1FF33DBB25FFA83FA7BB1DF
S113115023696BB1484600F075FE0028F2D000F018
S113116007FF0AF1FF33DBB25FFA83FA002BEFD1FA
S1131170FF2384F84430FFF755FB00F045FCFFF7EC
S113118031FBA36B002B00F08B80FFF74BFBFFF7C9
S113119029FBA36B0127002B3FF40CAF226CE568FD
S11311A062B16068A9188142E16028BF216858468D
S11311B028BFE160009302F0B1FB009BB8F1000F7F
S11311C07CD12268013BA363002A00F0AD8023692F
S11311D0002B40F08F80FFF725FB012005B0BDE810
S11311E0F08F02A800F072FEEBE6FFF71BFBFFF79F
S11311F0F9FA94F845305FFA83FA4FFA8AF3002B30
S11312001ADD636AC3B104F1240907E00AF1FF336C
S1131210DBB25FFA83FA7BB1636A6BB1484600F0D4
S113122011FE0028F2D000F0A3FE0AF1FF33DBB276
S11312305FFA83FA002BEFD1FF2384F84530FFF7E0
S1131240F1FAFFF7CFFA94F844305FFA83FA4FFAD1
S11312508AF3002B1CDD2369D3B104F1100909E0E2
S113126004ED00E00AF1FF33DBB25FFA83FA7BB1ED
S113127023696BB1484600F0E5FD0028F2D000F088
S113128077FE0AF1FF33DBB25FFA83FA002BEFD16A
S1131290FF2384F84430FFF7C5FA00F0B5FB76E786
S11312A0FFF7C0FA002005B0BDE8F08FFFF79AFA07
S11312B0606800F073FEFFF7B5FAA8E6636AE560BC
S11312C0002B88D004F1240000F0BCFD002882D05B
S11312D0174B4FF080521A60BFF34F8FBFF36F8FDD
S11312E0FFF7A0FA012079E712484FF49C6101F05E
S11312F003F956E604F1100000F0A4FD0028E7D13C
S113130069E70C4840F2DC4101F0F6F8BBF1000F4C
S11313107FF440AE236C002B3FF43CAE054840F212
S1131320DD4101F0E9F835E600F0E2FE60604EE7E9
S113133004ED00E0D43A0000184B10B41A68AAB1C6
S11313409A68DAB11A69DAB19A69DAB11A6ADAB161
S11313509A6ADAB11A6BDAB19A6BDAB11A6C22B101
S11313609A6CCAB15DF8044B7047082203EBC204BF
S1131370606043F832105DF8044B70470122F5E7D2
S11313800222F3E70322F1E70422EFE70522EDE767
S11313900622EBE70722E9E70922E7E70C2500200C
S11313A070B505460E461446FFF71CFA95F844300E
S11313B0FF2B04BF002385F8443095F84530FF2BFC
S11313C004BF002385F84530FFF72CFAAB6B2BB92B
S11313D03146224605F1240000F0D4FCFFF702FA5E
S11313E095F84540E4B263B2002B16DD6B6AA3B1F5
S11313F005F1240605E0013CE3B2DCB26BB16B6A93
S11314005BB1304600F01EFD0028F4D0013C00F032
S1131410AFFDE3B2DCB2002BF1D1FF2385F84530F8
S1131420FFF700FAFFF7DEF995F84440E4B263B23F
S1131430002B16DD2B69A3B105F1100605E0013C74
S1131440E3B2DCB26BB12B695BB1304600F0FAFC5D
S11314500028F4D0013C00F08BFDE3B2DCB2002B99
S1131460F1D1FF2385F84430BDE87040FFF7DAB9C5
S11314702DE9F84F9600814630460D4698460B9F5D
S1131480FFF7E2F88246002800F0AA805020FFF718
S1131490DBF80446002800F0A080C0F830A02B78C8
S11314A0043E80F834302B78564426F007062BB3DC
S11314B06B7880F835306B7803B3AB7880F83630CE
S11314C0AB78DBB1EB7880F83730EB78B3B12B79BC
S11314D080F838302B798BB16B7980F839306B799F
S11314E063B1AB7980F83A30AB793BB1EB7980F8F2
S11314F03B30EB7913B12B7A80F83C300A9D4FF0E6
S1131500000B022D28BF022504F1040AE5622564BC
S1131510504684F83DB0C4F844B0FFF7D5F8C5F19F
S1131520030504F11800FFF7CFF8C4F848B0A5612B
S1131530246184F84CB06462304649464246FFF761
S11315402BF9206007B13C60FFF74CF93B4A3C4F54
S11315501368013313603B68002B45D0DFF810811A
S1131560D8F800307BB3E36ADFF808C1DFF808E19C
S1131570DCF80060DEF800200125324805FA03F9A2
S113158003EB830349EA020200EB830051462E4435
S1131590CCF80060CEF80020FFF79AF8FFF742F984
S11315A0D8F80030B3B13A68E36AD26A9A4211D2E9
S11315B0254B4FF080521A60BFF34F8FBFF36F8FEC
S11315C02846BDE8F88F3A68E36AD26A9A4298BF1F
S11315D03C60C9E72846BDE8F88F5046FFF760F83D
S11315E04FF0FF30BDE8F88F3C601368012B03D047
S11315F0E36ADFF87C80B7E71248FFF759F8134E27
S11316001348FFF755F8134D1348FFF751F83046C8
S1131610FFF74EF82846FFF74BF81048FFF748F855
S11316200F48FFF745F80F48FFF742F80E4B0F4AF3
S11316301E60DFF83C80E36A156095E7BC24002057
S11316406C2400202824002004ED00E094240020D1
S11316503C240020A82400205024002070240020D2
S1131660FC23002010240020F42300208C240020DC
S1131670F823002090240020C02400202DE9F84302
S11316804FF40C70FEF7E0FF0546002800F09E8042
S11316905020FEF7D9FF0446002800F0948000266D
S11316A044214C2245234920271D84F8351084F811
S11316B0362084F83730256384F8340084F83860A1
S11316C0384684F83D60E66226646664FEF7FCFFF3
S11316D005F50B7504F11800FEF7F6FF25F0070574
S11316E003233246A664A3615149284684F84C601A
S11316F024616462FFF750F84E4B20601C60FFF7D2
S113170071F84D4ADFF86C91136801331360D9F80E
S11317100030002B61D0DFF86081D8F80030002B56
S113172044D0E36ADFF854C1DFF854E1DCF8006028
S1131730DEF80050012241489A4003EB83032A4318
S113174000EB830039460136CCF80060CEF8002067
S1131750FEF7BEFFFFF766F8D8F800306BB1D9F892
S11317600020E36AD26A9A4207D2354B4FF0805286
S11317701A60BFF34F8FBFF36F8F00F015FD012880
S11317801DD14FF0BF0383F31188BFF36F8FBFF3F5
S11317904F8F2C4B2C494FF0FF3400220C60C8F8BB
S11317A000001A60BDE8F843FFF78AB8D9F80020B2
S11317B0E36AD26A9A4298BFC9F80040B2E701309E
S11317C004D0BDE8F8832846FEF76AFFBDE8F84375
S11317D01E4840F2847100F08FBEC9F800401368BF
S11317E0012B03D0E36ADFF890809BE71348FEF7F0
S11317F05FFF174E1748FEF75BFF174D1748FEF7BC
S113180057FF3046FEF754FF2846FEF751FF1448B1
S1131810FEF74EFF1348FEF74BFF1348FEF748FF51
S1131820124B134A1E60DFF85080E36A156079E7B3
S1131830ED1B000084240020BC2400202824002068
S113184004ED00E088240020EC230020403B00004D
S1131850942400203C240020A824002050240020AC
S113186070240020FC23002010240020F4230020F6
S11318708C2400206C240020F823002090240020D5
S1131880C0240020024A136801331360704700BF6C
S113189064240020014B1868704700BF882400208E
S11318A02DE9F04F4C4B83B01B68CBB94B4B1D68F3
S11318B001351D6015B34A4B01931B689D423AD212
S11318C0DFF83C91DFF83C810024D8F80030DB6A73
S11318D003EB830359F82330022B28BF012404E0CF
S11318E0404A00241368013313603F4B1B68002BEC
S11318F018BF0124204603B0BDE8F08F3B4F3B687E
S11319001B68002B5ED13A4B39681868394A386035
S1131910196013683549013313603B681B68002B59
S113192047D12F4B1A4601934FF0FF3313601346F0
S11319301B689D42C4D32D4FDFF8C490DFF8C480E8
S11319402D4E00242CE0294B1B68DB68D3F80CB027
S1131950DBF804200BF1040A954239D35046FEF714
S1131960E1FEDBF828200BF118000AB1FEF7DAFEDD
S1131970DBF82C003268012303FA00FE00EB800040
S11319804EEA0202514609EB80003260FEF7A0FEE7
S1131990D8F80010DBF82C20CB6A9A4228BF012427
S11319A03B681B68002BCED1019A4FF0FF331360C4
S11319B08BE70B680A4ADB680192DB685B6813609B
S11319C013467AE70D4840F6D91100F095FD9AE7E1
S11319D0019B1A6079E700BF64240020882400205A
S11319E0EC23002024240020C4240020F42300201D
S11319F08C240020F0230020C0240020403B000061
S1131A00282400206C2400202DE9F84F3E4C236844
S1131A10002B68D0FEF7E6FE2368013B23602468B0
S1131A20002C5AD1394B1B68002B56D0DFF800A18B
S1131A30DFF80081D346364E364FDAF80030012500
S1131A402BB3DBF80C30DC6804F1040904F1180052
S1131A50FEF768FE4846FEF765FEE06A336805FA5D
S1131A6000F200EB80001343494607EB800033602B
S1131A70FEF72EFE284BE26A1B68DB6A9A42DCD32F
S1131A80DAF80030C8F800500125002BD9D13CB158
S1131A90224B1A68126862BB214B4FF0FF321A6066
S1131AA0204E346844B10125FFF7FAFE08B1C8F8A6
S1131AB00050013CF8D13460D8F800306BB11A4BB7
S1131AC04FF080521A60BFF34F8FBFF36F8F012422
S1131AD0FEF7A8FE2046BDE8F88F0024FEF7A2FE1C
S1131AE02046BDE8F88F11484FF4FD6100F004FD75
S1131AF090E71A680A4BD2680A4ED26852681A6094
S1131B003468002CD8D0CEE764240020BC24002004
S1131B10C0240020282400206C240020F42300206A
S1131B20EC2300202424002004ED00E0403B0000CE
S1131B3070240020C424002070B500282DD0224D2C
S1131B4004462B68002B38D12B68204A0133204EE1
S1131B502B60156830680430FEF7E4FD40B9336843
S1131B601C49D86A0A680123834022EA03030B60F4
S1131B7033682C44A5425C60154B17D8164A10688C
S1131B8019680431FEF7B4FD144B1A68944238BF47
S1131B901C60FFF739FF00B170BD114B4FF080524C
S1131BA01A60BFF34F8FBFF36F8F70BD0D4A10687B
S1131BB019680431FEF79CFDEBE70B4840F2CF4176
S1131BC000F09AFCC0E700BF6424002088240020B1
S1131BD06C240020C0240020F4230020EC230020E7
S1131BE004ED00E08C240020403B00001A4E1B4D05
S1131BF02DE98848B146A846194CDFF868B006E0DC
S1131C002368376801332360FFF7FEFE2FB92B6882
S1131C10002BF5D101F040FDF9E7FEF7E3FDD9F81B
S1131C200C30D3F80CA00AF10400FEF77BFDDBF8BE
S1131C300030013BCBF80030D8F80030013BC8F845
S1131C400030FEF7EFFDDAF83000FEF729FD5046CC
S1131C50FEF726FDDBE700BFFC23002068240020FC
S1131C6064240020BC240020164B1B68FBB91649D1
S1131C70164A70B50B601468B4FA84F4E4B2C4F183
S1131C801F04A600124D331955F823309BB1344478
S1131C90A4002A19536808345B682C44A342536097
S1131CA004BF5B685360DA680A4B1A6070BD064B68
S1131CB001221A607047084840F6F62100F01CFC27
S1131CC0E5E700BF64240020C4240020C0240020D1
S1131CD0282400206C240020403B000070B50C46F2
S1131CE00646002838D01F4D304629681831FEF7C3
S1131CF0FFFC1D4B1E6828680430FEF713FD40B935
S1131D002B681A49D86A0A680123834022EA03032C
S1131D100B60631C19D02B683444A6425C60114BE1
S1131D200BD8134A106819680431FEF7E1FC114B13
S1131D301A68944238BF1C6070BD0F4ABDE87040F9
S1131D40106819680431FEF7D3BC29680B480431C4
S1131D50BDE87040FEF7BCBC094840F6063100F00F
S1131D60CBFBC0E76C24002088240020C024002082
S1131D70F4230020EC2300208C24002010240020D5
S1131D80403B0000F8B50C4617460646002842D0F2
S1131D90244D304629681831FEF79AFC224B1E6800
S1131DA0286804302FB1FEF7BDFC20BB4FF0FF3490
S1131DB002E0FEF7B7FC40B92B681C49D86A0A68F0
S1131DC00123834022EA03030B60631C11D02B68B8
S1131DD03444B4425C60134B15D3154A1068196837
S1131DE00431FEF785FC134B1A6894420AD21C6036
S1131DF0F8BD002FEBD029680F480431BDE8F84046
S1131E00FEF766BCF8BD0D4A10681968BDE8F840D5
S1131E100431FEF76DBC0A4840F6313100F06CFB2A
S1131E20B6E700BF6C24002088240020C0240020D2
S1131E30F4230020EC230020102400208C24002014
S1131E40403B0000F8B5C368DC6854B304F11805DE
S1131E502846FEF767FC164B1B68EBB9271D154E89
S1131E603846FEF75FFCE36A3568012212489A405F
S1131E7003EB83032A43394600EB83003260FEF709
S1131E8027FC0E4BE26A1B68DB6A9A4283BF0C4B49
S1131E90012018600020F8BD29460A48FEF718FC06
S1131EA0EFE7094840F6613100F026FBCEE700BFBA
S1131EB064240020C0240020282400206C24002056
S1131EC0C424002070240020403B000010B50446C8
S1131ED030B1064A064B12681B6884E80C0010BD3A
S1131EE0044840F6C13100F007FBF2E7F02300207C
S1131EF088240020403B0000F8B50D460446B8B1E4
S1131F000DB3FEF76FFC2B681649581C0A6815D0F0
S1131F10154E276830688742606801D0824202D239
S1131F20171ABB4215D80125FEF77CFC2846F8BDDC
S1131F300E4840F6CB3100F0DFFAE1E70025FEF76A
S1131F4071FC2846F8BD094840F6CC3100F0D4FABB
S1131F50D7E79B1A36680A6803442B60002526607D
S1131F606260E1E788240020F0230020403B000069
S1131F70014B01221A607047C4240020054B1B68E2
S1131F8033B1054B1B68002B0CBF022000207047A7
S1131F9001207047F823002064240020002843D047
S1131FA02DE9F041224CC36A2268D26A934212D2CC
S1131FB08269002A04DB2268D26AC2F103028261C8
S1131FC01C4D03EB8303426905EB83039A4204D05F
S1131FD02368DB6AC362BDE8F08100F104080746A8
S1131FE04046FEF79FFB00BBFB6A134E03EB8302E4
S1131FF055F8222032B93268012101FA03F322EAAA
S11320000303336023683268DB6A01249C4003EBDA
S11320108300FB6244EA0203414605EB800033601F
S1132020BDE8F041FEF754BB7047034EEAE700BF3A
S11320306C24002028240020C024002000284CD038
S1132040274B2DE9F0411B680446984204D02548EB
S113205040F6C76100F050FA636CF3B1E16A226C98
S1132060013B9142636400D013B10020BDE8F081CC
S1132070271D3846FEF756FBB0B9E36A1A4803EB4E
S1132080830250F82220194E82B93268012101FAE4
S113209003F322EA0303336008E0124840F6C961FF
S11320A000F02AFA636CD9E70F48104E236C3268AB
S11320B00125C3F1030C03EB830E05FA03F8E36275
S11320C000EB8E0048EA02033946C4F818C03360B6
S11320D0FEF7FEFA2846BDE8F0810020704700BFF5
S11320E06C240020403B000028240020C024002051
S11320F0044B1A681AB119684A6C01324A641868A8
S1132100704700BF6C2400202DE9F047224E84B0B4
S1132110DFF89090B0460CE0DB68DC681F68251D92
S11321202846FEF7FFFA636A20469847E369012BC5
S11321300BD0336818491A68002AEDD1174A106881
S11321401360086004B0BDE8F087A3694FF0000A8B
S11321503B44BB4217D8D9F8003073B1CDF804A082
S113216002970394FFF70AFFD9F8000001A9524629
S11321705346FEF75FFC0028DBD1094840F2923158
S113218000F0BAF9D5E7636024612946D8F8000065
S1132190FEF7AEFACDE700BFC8240020FC240020DF
S11321A0AC3B0000F4240020F0B51C4C83B0FEF7D7
S11321B019FB2568C5B1FEF735FB236863B1184ADE
S11321C0022301920093174817498C220023FFF73A
S11321D04FF908B103B0F0BD144840F2331100F0D8
S11321E08BF9002003B0F0BD114F124E3846FEF7B4
S11321F05FFA3046FEF75CFADFF844E00E4B2A46FD
S11322000A200C21CEF800701E60FEF7D1FB20607E
S11322100028D0D00949FFF78FF8CCE7F424002038
S113222000250020B1220000243C0000AC3B00004B
S1132230CC240020E0240020FC2400201C3C0000CE
S1132240C824002070B50D4686B0044610B3164E5F
S1132250306870B1052D0395049205940BDCFFF7EB
S11322608DFE02280ED000223068134603A9FEF723
S1132270E1FB06B070BD1A4603A90023FEF7E0FD9A
S113228006B070BD306803A90A9A0023FEF7D2FB9A
S113229006B070BD05484FF4D3718DE80C0000F012
S11322A02BF99DE80C00D2E7F4240020AC3B00009D
S11322B02DE9F04F8A4D8B4FAA46DFF838928A4CAD
S11322C089B03B681E68002E4ED0DB68D3F800B09E
S11322D0FFF7D8FAFFF7DEFA2B688046984255D309
S11322E08345CAF800005DD90022C8EB0B012068C1
S11322F0FFF756F8FFF788FB38B97C4A4FF0805354
S11323001360BFF34F8FBFF36F8F4FF000080126A8
S113231000221346206805A9FEF72EFE0028D0D01F
S1132320059B002BF4DBDDF81CB0DBF814200BF16B
S113233004000AB1FEF7F6F9FFF7ACFA2968024681
S113234088422AD305992A60092906FA01F0DFD8C0
S113235010F4047F6ED110F0C70F42D18306D7D595
S11323605846FEF79DF9D2E7FFF78CFAFFF792FA89
S11323702B688046984209D3D9F80030CAF8000087
S11323801A68B346B2FA82F25209AEE7FFF7BCFE0E
S1132390C5F80080FFF738FBB7E70390FFF7B4FEFA
S11323A0039ACFE7FFF730FB4E4B1B68DB68DE6810
S11323B0311D08460391FEF7B5F9F2690399012A24
S11323C003D0736A304698479FE7B26936610BEBD6
S11323D00200404570604AD9424B1868FEF788F9FC
S11323E0EFE70699DBF81860CBF810B0701890424C
S11323F0CBF8040031D8521A964227D8DBF82420AF
S113240058469047DBF81C20012A80D1DBF818607D
S1132410069A0021CDF80080584632440B46FFF757
S113242011FF00287FF473AF314840F2213100F0EE
S113243063F86CE70699CBF81810002937D01144DB
S11324409142CBF80410CBF810B00AD80BF1040178
S1132450D9F80000FEF74CF959E7914201D98142BD
S1132460CCD90BF104013868FEF742F94FE7CBEB06
S1132470080842452FD822681B4B92B14FF0000840
S11324800393CDF818B00796CDF81480FFF776FDC6
S1132490039B4246186805A94346FEF7CBFA002879
S11324A08FD113484FF4027100F026F889E71048E1
S11324B04FF44E71039200F01FF8039ADBF81810E2
S11324C0CBF810B050189042CBF80400C9D80029BA
S11324D03FF41DAFBAE7D9F80000FEF709F970E739
S11324E0F8240020C8240020F424002004ED00E097
S11324F0AC3B0000FC240020FEE700BFF8B5044616
S1132500002871D0A368013B7F2B63D8E368062BB6
S11325105BD8237813B16378002B38D0A388B3F544
S1132520405F3CD0A5686B1EB3F5004F57D2B5FA97
S113253085F52078C5F11F0510B12E4B01221A60D4
S11325402D498B6BDE0706D40B6813F4405F02D071
S1132550CA6BD207FCD4A27C274EA3887260E768BA
S1132560617843EA4717A27841F008013943677C50
S1132570237C41EA820242EA071242EA833343EAB5
S113258005234FF0FF323263336080B9F8BD1B4836
S11325908D21FFF7B1FFA388B3F5405FC2D1A37CBF
S11325A0002BBFD015489121FFF7A6FFBAE7336887
S11325B09B0704D112484FF48B71FFF79DFF11491B
S11325C00C4A00230B601360F8BD0C488921FFF707
S11325D093FF9EE709488621FFF78EFF96E7074899
S11325E04821FFF789FFA2E704488421FFF784FF0D
S11325F088E700BF00070243001008402C3C00009D
S1132600903C00000C00024310B50C4618B1094878
S1132610CA21FFF771FF084A936BD90706D41368E0
S113262013F4405F02D0D36B9B07FCD4024BDC60F5
S113263010BD00BF2C3C00000010084008B518B1C4
S11326400348DF21FFF758FF024BD86808BD00BFDD
S11326502C3C000000100840024B012100221960AC
S11326601A6070470C00024338B5334B0446DB6CE8
S1132670C3F307434A2B2CD0792B2AD0482B12D0F2
S11326802E484FF48771FFF737FF00239C420DD883
S1132690002003462A492B4A0B60536823F48073B5
S11326A01843506038BD284B9C42F1D9224BDB6C57
S11326B0C3F307434A2B2AD0792B28D0482B1DD0AB
S11326C01E484FF48771FFF717FF4FF40070012382
S11326D0E0E71E481E4A03698169C06903F03F05AB
S11326E0C0F3031343EA052301F0F00116480B433A
S11326F0B3F5017F2CBF13460346C7E71548844250
S113270094BF4FF480704FF400700123C2E70F4967
S1132710114B08698A69C96900F03F00C1F30311CC
S113272041EA002102F0F0020A480A43B2F5017FAF
S113273028BF1846E3E700BFB081E00FF43C000077
S11327407800904300800C400048E801D0FF0FE07F
S113275000366E010090D003006CDC02674B70B54C
S11327609842044602D0664B98420BD104F00F0302
S1132770013B062B00F28380DFE803F033734C81C6
S1132780815A0A005F4840F2B531FFF7B5FEEDE724
S11327905D4BDB6A03F46033B3F5803F2BD0B3F5B4
S11327A0003F00F09880B3F5004F48D0534B9C4253
S11327B07AD0534B9C4240F08580534B9B6AC3F3C1
S11327C08103022B22D0032B00F09180012B7ED0B9
S11327D04D4B14229B6AD34041D0BDE87040FDF7B5
S11327E0CFBE494BDB6A03F47053B3F5805F72D0FC
S11327F0B3F5005F23D1414B9C4255D0404B9C42E2
S1132800DBD040484FF47971FFF776FEBDE87040A5
S1132810FDF7BABE3C4A936A03F00C03082BEAD0D6
S11328200C2B0CD0042B56D0936ADB0207D4BDE7E3
S1132830354B1B6813F0805301D0002BB6D02F4BBF
S11328409C4231D02E4B9C42B7D02E484FF4797124
S1132850FFF752FE2B4840F20E41FFF74DFE0020D9
S113286070BD294A936A03F00303022BC3D0032BE0
S1132870E5D0012B2FD0936ADA03E0D496E71F4EFC
S113288020484FF44761FFF737FEB4420CD01C4D8B
S1132890AC4292D01B484FF47971FFF72DFEB4423D
S11328A00CD0AC42DBD193E7174B9B6A03F00303D4
S11328B0022BABD0032B1AD0012B08D0124B1022C1
S11328C09B6A88E70F484FF47971FFF715FEBDE85E
S11328D07040FDF751BE094B9C42E5D0084B9C4229
S11328E03FF46BAF07484FF47971FFF705FEFDF72E
S11328F061FD064B1B680133D84070BD02001A000D
S113290003001C00F43C000000800C40780090435D
S113291000F00F00013808B5062852D8DFE800F0AF
S113292014243551514604002D4BDB6A03F4603303
S1132930B3F5803F4ED0B3F5003F49D0B3F5004F17
S11329400CBF0920012008BD254BDB6A03F470533A
S1132950B3F5805F3CD0B3F5005F3BD0B3F5006FB7
S11329600CBF0420052008BD1D4B986A00F003002D
S113297002282ED003282FD0012829D09B6A13F4D3
S1132980803F0CBF01200A2008BD154A936A03F05A
S11329900C03082B1ED00C2B1ED0042B18D0936ACA
S11329A013F4801F0CBF01200A2008BD0C4B1B68C8
S11329B013F0805312D0B3F1805F0CBF09200120C3
S11329C008BD08484FF44761FFF796FD002008BD95
S11329D0032008BD022008BD062008BD072008BD4D
S11329E000800C40F43C000000F47810B0F5B01FF7
S11329F008B500F09E8014D8B0F5402F00F08B800D
S1132A0026D8B0F5003F79D0B0F5802F00F0B7801C
S1132A10002877D0704840F6CC01FFF76DFD002008
S1132A2008BDB0F5081F00F09F8037D8B0F5D01F5F
S1132A305FD0B0F5E01F69D0B0F5C01FEAD1674898
S1132A40FFF78CFE664B1B6FC3F30113D84008BD20
S1132A50B0F5801F35D0B0F5A01F73D0B0F5602F4E
S1132A60D8D15F4B5B6903F4E063B3F5007F00F0FA
S1132A70A58040F28C80B3F5C06F00F0AB80B3F555
S1132A80E06F00F0A580B3F5407F00F08F805248DE
S1132A904FF4C671FFF730FD002008BDB0F5201FCC
S1132AA018D0B0F5281F56D0B0F5181FB2D14D4834
S1132AB0FFF754FE4A4B9B6EC3F301330433D840F3
S1132AC008BD4848FFF74AFE454B9B6EC3F303130A
S1132AD0D84008BD4348FFF741FE414B9A6EDB6F77
S1132AE0C2F3013203F00703D0400133B0FBF3F02B
S1132AF008BD3C48BDE80840FFF730BEBDE80840CB
S1132B00FDF758BCBDE80840FDF7C6BC3348BDE836
S1132B100840FFF723BE3448FFF7FAFE0728A0D089
S1132B200928EFD02C484FF4E371FFF7E5FC0020AF
S1132B3008BD2A48FFF712FE294B1B6F03F003035D
S1132B40D84008BD2748FFF709FE254B9B6EC3F309
S1132B500323D84008BD2348FFF700FE204B9B6E9B
S1132B6003F00303D84008BD2048FFF7D1FE032833
S1132B7014D00928C6D0022814D0002008BDFDF7BF
S1132B808BFC174B9B6803F00F03D84008BDEBB1D7
S1132B90B3F5807F7FF47BAF154808BDBDE80840DE
S1132BA0FDF7EABCBDE80840FDF7EEBC114BDB6C59
S1132BB0B3F1985F2CBF1048104808BD0D4BDB6C77
S1132BC0B3F1985F2CBF0E480E4808BD0E4808BDEF
S1132BD00E4808BD0E4808BDF43C000003001C006C
S1132BE000800C4002001A0006000C00072322009B
S1132BF0C0D8A700B081E00F804F120040420F0000
S1132C0040B56400C0CF6A00809FD500406F40018A
S1132C10003FAB0130B5C0F30323013B83B004464E
S1132C20092B2AD8DFE803F01C1E2029290D1929B5
S1132C3029051648C4F304340444A400216003B0F5
S1132C4030BD13480125134AC4F30434536DDB0724
S1132C50F2D4136D1D42FCD1EEE70F481025F2E7C4
S1132C600E48E7E70E48E5E70E480191FFF7BCFE82
S1132C70FFF7FAFC0C480199DCE70C484FF4FB61C0
S1132C8003B0BDE83040FFF737BC00BFC003E41019
S1132C90C002E41000800C400003E4104000E41083
S1132CA02002E410004302000002E410F43C00009F
S1132CB038B500F00F04631E062B3BD8DFE803F0A1
S1132CC02B1B1B3A3A110400032940D0092964D074
S1132CD0022952D0BDE83840AD4840F65261FFF7B2
S1132CE00BBC07292DD0092940D1AA4A136843F007
S1132CF08053136038BD0139092900F22F81DFE8C0
S1132D0011F0AA00C500D1002D012D0122012D01D1
S1132D102D012D0103010239082900F22681DFE883
S1132D2011F0B0004400CC00F90024012401240176
S1132D302401A900964840F62771BDE83840FFF702
S1132D40DBBB944A136823F08053136038BD914B66
S1132D504021914A19621368002BFCD08D4B6021ED
S1132D601A465962D36A9903FCD538BD884840F69F
S1132D701361BDE83840FFF7BFBB864B4FF4807149
S1132D80864A19621368002BFCD0824B40211A46F4
S1132D905962D36AD803FCD538BD7E4B20211A462C
S1132DA05962D36A1B04FCD538BD7B4A03244023F3
S1132DB078490B621368002BFCD0FDF769FB41F6E0
S1132DC07132774BDD6BDA635B6803F00703042B26
S1132DD000F2D380012202FA03F313F0130F00F080
S1132DE0CC80704B984240F20B8104226C494B68B2
S1132DF023F0070313434B600DB10023CB63654BF2
S1132E0069485C62FFF7F0FDFFF72EFCFDF7D2FA8C
S1132E1041F67132624BDC6BDA635B6803F00703E3
S1132E20042B00F2AF80012202FA03F313F0130F14
S1132E3000F0A8805B4B984240F2DA8004225849A3
S1132E404B6823F0070313434B60002C00F094807D
S1132E500023CB6338BD00210B460A46022C4D48A3
S1132E6000F0BC80826A22F4801323F00C030B432D
S1132E70836238BD464840F61451BDE83840FFF738
S1132E803BBB464A04244FF4807391E7414B4FF413
S1132E908071424A19621368002BFCD00821002378
S1132EA00222DBE73B4B40213B4A19621368002BAB
S1132EB0FCD0042100230122D0E73C4BDB6CC3F39C
S1132EC007434A2B00F0A680792B00F0A380482BFF
S1132ED000F09E802E484FF48771FFF70DFB012010
S1132EE0FFF7C2FBFDF740FB2A4A2E4B022498420F
S1132EF0136896BF23F0600343F0600343F020039C
S1132F0013602B4A042353E74FF480114FF48033AA
S1132F100022A3E7254BDB6CC3F307434A2B00F0E5
S1132F208F80792B00F08C80482B00F08780184824
S1132F304FF48771FFF7E0FA01200124FFF794FBB7
S1132F4023461C4A34E7FDF735FAFFF78DFB1A4B8D
S1132F5001221A600C21002303227FE70C4840F66B
S1132F60B851BDE83840FFF7C7BA094840F61951CF
S1132F70BDE83840FFF7C0BA38BD0A4B98421DD9A6
S1132F80052233E7074B984220D9052257E700BFB3
S1132F90F43C000000800C409C059043A405904341
S1132FA000000C400048E80100430200B081E00F3B
S1132FB08C05904384059043100890432A4B2B4A78
S1132FC0034493428CBF022203220FE7264B274A75
S1132FD0034493428CBF0222032230E742EA0301F6
S1132FE0826A22F4803323F003030B43836238BDE7
S1132FF01D4B1E4A034493428CBF002201221EE74C
S1133000194B1A4A034493428CBF00220122EDE675
S1133010174865E71749184B08698A69C96900F0B8
S11330203F00C1F3031141EA002102F0F00210480D
S11330300A43B2F5017F28BF184651E70C487CE7E4
S11330400C490D4B08698A69C96900F03F00C1F356
S1133050031141EA002102F0F00205480A43B2F5E7
S1133060017F28BF184668E7FFDB0BFFFF23F4004E
S11330700148E801D0FF0FE001366E01EFF3108044
S113308072B6704700B962B6704700BF70B50446A7
S1133090002856D13249334A0B6943F004030B61CB
S11330A011699369D26901F03F01C2F3031242EA44
S11330B0012203F0F0031343B3F5827F0AD3B3F57F
S11330C0017F07D0002230BF9AB9BCB9BDE8704077
S11330D0FDF770B9244B254E196801220E40C3F840
S11330E080605D6825F04605C3F8845030BF002A2F
S11330F0EBD01D4B1E605D60002CE7D045F60E033F
S113310040F255111A4A1B4DD2F88440C2F884305B
S11331102B68194819401162017804F0010405294B
S113312003F0010305D01120FFF7C2FD2B6803F063
S1133130010383B124B10E4B0022C3F8842070BD77
S113314070BD0B4A0B4BD26A11201A60FFF7E0FBEB
S1133150094B18709EE7064B02221A62EAE700BF89
S113316000ED00E0D0FF0FE000E100E09CF1FD0085
S113317000800C40042500200825002070B504467A
S1133180002866D145F60E00394B4FF42071D3F870
S11331908420C3F88400D207196248BF002235494D
S11331A048BFC3F884200B69334A43F004030B611E
S11331B011699369D26901F03F01C2F3031242EA33
S11331C0012203F0F0031343B3F5827F0AD3B3F56E
S11331D0017F07D0002230BF9AB9BCB9BDE8704066
S11331E0FDF7E8B8254B264E196801220E40C3F8B6
S11331F080605D6825F04605C3F8845030BF002A1E
S1133200EBD01E4B1E605D60002CE7D045F60E032C
S113321040F25511164A1B4DD2F88440C2F884304E
S11332202B68194819401162017804F0010405293A
S113323003F0010305D01120FFF73AFD2B6803F0DA
S1133240010383B124B10A4B0022C3F8842070BD6A
S113325070BD074A0B4BD26A11201A60FFF758FB66
S1133260094B18708EE7024B02221A62EAE700BF8C
S113327000800C4000ED00E0D0FF0FE000E100E032
S11332809CF1FD00042500200825002004282DE9D8
S1133290F04104460D461746984631D9052800F0FA
S11332A0AB8058484FF48571FFF726F97FBBE600E1
S11332B031198900072D01F1804142D801F5C0413F
S11332C048684FEA850E0F2303FA0EF320EA03023F
S11332D007FA0EF313434B6087B9B8F1000F50D1CE
S11332E0042C60D84FF6FF732B41DB075DD53444C3
S11332F0454BA40001222344AA405A60BDE8F08152
S11333004FF6FF732B41DE07CBD5002FCFD0B8F19A
S1133310000F26D0042C60D84FF6FF732B41D8073A
S11333204FD5E60033199B0003F180430122311984
S113333003F5C043AA408900072D1A6101F18041B9
S1133340BCD905F1804301F5C041083B88689B0066
S11333500F229A4020EA020207FA03F313438B6018
S1133360BAE7042C3ED84FF6FF732B41D90722D578
S1133370E6003119244B890001220B44AA405A600B
S113338096E7042C33D84FF6FF732B41DA071ED58A
S11333903444A40004F18044012304F5C044AB4048
S11333A02361BDE8F081052C29D0184840F2593139
S11333B0FFF7A2F89BE7154840F25931FFF79CF854
S11333C0D6E7124840F28631FFF796F8A9E70F488E
S11333D040F28631FFF790F8DAE7052CF1D141F697
S11333E0FF739BE7052CE6D141F6FF73BDE7052C7F
S11333F0EDD141F6FF73C8E741F6FF7382E741F66A
S1133400FF7371E7B43D00001060004060390000B4
S113341090FAA0F0B0FA80F000F18750003100F586
S1133420A02018BF01218000016070470B4B0122CE
S11334300B499A608B6813400BD010B44AF6E854D9
S1133440084800238C6002605DF8044B03608B60C5
S1133450704704490A600B60704700BF00A00C402D
S113346000600C4080048C433B4B5B6803F001021A
S11334709907104604D513F0810F08BF42F00200EB
S1133480590704D513F0910F08BF40F00400190741
S113349001D5002A5CD0D90603D5990708BF40F0AE
S11334A01000990604D54EF6DF71194000294CD05E
S11334B0590604D54EF69F711940002942D01906C9
S11334C004D540F219711940002938D0D90503D523
S11334D040F21961194079B3990503D540F21F41AF
S11334E0194031B3590503D540F21F211940E9B100
S11334F0190500D5BAB1D90400D58AB1990400D50B
S11335005AB1590400D52AB11B0402D50AB940F4B2
S11335100040704740F48040F6E740F40050F0E784
S113352040F48050EAE740F40060E4E740F480604F
S1133530DEE740F40070D5E740F48070CCE740F05B
S11335408000C3E740F04000B9E740F02000AFE757
S113355040F008009FE700BF00A00C4010B50446EF
S1133560B0B10E4A5169136901F00F01C3F381131D
S113357043EA8103A370136903F03F036370916905
S1133580D36901F0F002C3F303131343237010BD96
S113359003483E21FEF7B0FFE3E700BFD0FF0FE092
S11335A0143E00003A4B2DE9F047984205460C467C
S11335B00FD003F5806398420BD003F580639842E3
S11335C007D003F58063984203D032484D21FEF7BB
S11335D093FF94F800A0BAF1000F01D102236B60AD
S11335E06378617A002BA27AE37A14BF4FF0400922
S11335F04FF00009002918BF4FF08008217908BF57
S11336004FF00008002A18BF4FF0200C627908BF61
S11336104FF0000C002B18BF4FF0100E237B08BF97
S11336204FF0000E002914BF4FF400570027002A62
S1133630E27814BF4FF080560026002BA378217A3D
S11336404FEA024242EA0362A37942EA0102E179C3
S113365042EA832242EA012343EA090343EA0808CF
S113366048EA0C0C4CEA0E0E4EEA070714BF082079
S113367000203E43304300236B622860BAF1000F00
S113368003D001236B60BDE8F087BDE8F08700BF7D
S113369000000140783E0000FCF79ABF08B5002006
S11336A0FEF7CCFF32280DD0174B01221A60002000
S11336B03221FEF7A9FF154B1B689B071ED0124B46
S11336C000221A60114B07221A63EFF311834FF0A3
S11336D0BF0282F31188BFF36F8FBFF34F8FFEF7E2
S11336E0DFF838B10A4B4FF080521A60BFF34F8FA6
S11336F0BFF36F8F002383F3118808BD05484FF48F
S11337008B71FEF7F9FEDAE70C0002430010084063
S113371004ED00E0903C000070B51B4D86B001AC98
S11337200FCD0FC42B68194801212360184CFFF7F3
S113373071FA00210220FFF76BFE022501234FF4EA
S1133740405201A8ADF8082003938DF815308DF888
S11337500550FEF7D3FE626B0E4B22F002024FF0CF
S11337600046E0216263002083F81F13C3F88061E0
S113377032211E60FEF748FF2563636B2B436363AE
S1133780FEF76AFF06B070BDF03E00000043020081
S11337900010084000E100E0084C08B5084B4FF465
S11337A07A721968E2612046FFF7FCFE0122054B9C
S11337B0E2600422A1681A60FEE700BF0000014035
S11337C05C25002000E100E070B50546054C066864
S11337D0A368DB07FCD56868FCF732FD3046FEF7CA
S11337E0ABF9F5E700000140034B044A012199615C
S11337F013880B4413807047000001400A25002001
S113380030B5204B85B0DC6C03A8FFF7A7FEB4F1FC
S1133810805F0AD39DF80C30022B06D91A4A13682C
S113382023F0500343F010031360FCF7A1FDFCF7F1
S1133830BDFC0020FCF7D6FC0120FCF7D3FC0020E3
S1133840044601250146FCF7A5FE009501940F49A5
S113385096220F4B0F48FDF70BFE009501940E497D
S113386096220E4B0B48FDF703FE23460C49962285
S1133870009501940B48FDF7FBFDFDF7FFFE204684
S113388005B030BDB081E00FC0800C40043F0000A3
S113389010000020C9370000103F0000180000206D
S11338A01C3F00009937000008B5074B044613B1CC
S11338B00021AFF30080054B1868836A03B1984771
S11338C0204600F03FF800BF000000002C3F00003D
S11338D00E4B70B51E460E4C0025E41AA410A542EA
S11338E004D056F8253098470135F8E700F02CF855
S11338F0084B094C1E46E41AA4100025A54204D026
S113390056F8253098470135F8E770BD800000204F
S113391080000020800000208400002010B5431E99
S11339200A44914204D011F8014B03F8014FF8E71F
S113393010BD03460244934202D003F8011BFAE788
S113394070470000FEE700BFF8B500BFF8BC08BC34
S11339509E467047F8B500BFF8BC08BC9E46704749
S11339602F7573722F6C6F63616C2F53696D706C5C
S1133970696369747953747564696F5F76342F640D
S11339806576656C6F7065722F73646B732F6765F2
S1133990636B6F5F73646B5F73756974652F7631E6
S11339A02E312F2F706C6174666F726D2F656D6C84
S11339B069622F696E632F656D5F6770696F2E682A
S11339C000000000040000000200000004000000E9
S11339D0030000002F7573722F6C6F63616C2F539B
S11339E0696D706C696369747953747564696F5F28
S11339F076342F646576656C6F7065722F73646BB3
S1133A00732F6765636B6F5F73646B5F7375697442
S1133A10652F76312E312F7574696C2F7468697235
S1133A20645F70617274792F6672656572746F7306
S1133A302F536F757263652F706F727461626C655A
S1133A402F4D656D4D616E672F686561705F312E16
S1133A50630000002F7573722F6C6F63616C2F53BA
S1133A60696D706C696369747953747564696F5FA7
S1133A7076342F646576656C6F7065722F73646B32
S1133A80732F6765636B6F5F73646B5F73756974C2
S1133A90652F76312E312F7574696C2F74686972B5
S1133AA0645F70617274792F6672656572746F7386
S1133AB02F536F757263652F706F727461626C65DA
S1133AC02F4743432F41524D5F434D332F706F7245
S1133AD0742E63002F7573722F6C6F63616C2F5398
S1133AE0696D706C696369747953747564696F5F27
S1133AF076342F646576656C6F7065722F73646BB2
S1133B00732F6765636B6F5F73646B5F7375697441
S1133B10652F76312E312F7574696C2F7468697234
S1133B20645F70617274792F6672656572746F7305
S1133B302F536F757263652F71756575652E6300FC
S1133B402F7573722F6C6F63616C2F53696D706C7A
S1133B50696369747953747564696F5F76342F642B
S1133B606576656C6F7065722F73646B732F676510
S1133B70636B6F5F73646B5F73756974652F763104
S1133B802E312F7574696C2F74686972645F70616B
S1133B907274792F6672656572746F732F536F75C3
S1133BA07263652F7461736B732E63002F75737268
S1133BB02F6C6F63616C2F53696D706C69636974EA
S1133BC07953747564696F5F76342F646576656CB8
S1133BD06F7065722F73646B732F6765636B6F5FB0
S1133BE073646B5F73756974652F76312E312F752D
S1133BF074696C2F74686972645F70617274792F70
S1133C006672656572746F732F536F757263652F77
S1133C1074696D6572732E6300000000546D7251F7
S1133C2000000000546D7220537663002F75737288
S1133C302F6C6F63616C2F53696D706C6963697469
S1133C407953747564696F5F76342F646576656C37
S1133C506F7065722F73646B732F6765636B6F5F2F
S1133C6073646B5F73756974652F76312E312F70B1
S1133C706C6174666F726D2F656D6C69622F7372FF
S1133C80632F656D5F62757274632E6300000000BC
S1133C902F7573722F6C6F63616C2F53696D706C29
S1133CA0696369747953747564696F5F76342F64DA
S1133CB06576656C6F7065722F73646B732F6765BF
S1133CC0636B6F5F73646B5F73756974652F7631B3
S1133CD02E312F2F706C6174666F726D2F656D6C51
S1133CE069622F696E632F656D5F62757274632EEE
S1133CF0680000002F7573722F6C6F63616C2F5313
S1133D00696D706C696369747953747564696F5F04
S1133D1076342F646576656C6F7065722F73646B8F
S1133D20732F6765636B6F5F73646B5F737569741F
S1133D30652F76312E312F706C6174666F726D2F22
S1133D40656D6C69622F7372632F656D5F636D754A
S1133D502E6300002F7573722F6C6F63616C2F5389
S1133D60696D706C696369747953747564696F5FA4
S1133D7076342F646576656C6F7065722F73646B2F
S1133D80732F6765636B6F5F73646B5F73756974BF
S1133D90652F76312E312F2F706C6174666F726DC2
S1133DA02F656D6C69622F696E632F656D5F636D3E
S1133DB0752E68002F7573722F6C6F63616C2F53AF
S1133DC0696D706C696369747953747564696F5F44
S1133DD076342F646576656C6F7065722F73646BCF
S1133DE0732F6765636B6F5F73646B5F737569745F
S1133DF0652F76312E312F706C6174666F726D2F62
S1133E00656D6C69622F7372632F656D5F6770698E
S1133E106F2E63002F7573722F6C6F63616C2F5359
S1133E20696D706C696369747953747564696F5FE3
S1133E3076342F646576656C6F7065722F73646B6E
S1133E40732F6765636B6F5F73646B5F73756974FE
S1133E50652F76312E312F706C6174666F726D2F01
S1133E60656D6C69622F7372632F656D5F7379730F
S1133E7074656D2E630000002E2E2F656D6C6962D3
S1133E802F656D5F74696D65722E63002F75737293
S1133E902F6C6F63616C2F53696D706C6963697407
S1133EA07953747564696F5F76342F646576656CD5
S1133EB06F7065722F73646B732F6765636B6F5FCD
S1133EC073646B5F73756974652F76312E312F2F90
S1133ED0706C6174666F726D2F656D6C69622F69A9
S1133EE06E632F656D5F74696D65722E68000000E6
S1133EF0010100000030000001000000000000008B
S1133F00010000004C6564426C696E6B3100000076
S1133F104C6564426C696E6B3200000054696D65D7
S1133F2072496E6974000000430000002000002004
S1073F300000000089
S10B3F3404C2FF7F010000003C
S1133F3C00800000006CDC02809FD500AAAAAAAA0B
S1133F4C0A00000000000000140000000100000042
S1133F5C0000000000000000000000000000000051
S1133F6C0000000000000000000000000000000041
S1133F7C283F0000000000000000000000000000CA
S1133F8C0000000000000000000000000000000021
S1133F9C0000000000000000000000000000000011
S1133FAC0000000000000000000000000000000001
S10F3FBC01010000DD0000000000000016
S903038574
