:1000000000000220AD010000D9010000D90100006C
:10001000D9010000D9010000D9010000D901000078
:10002000D9010000D9010000D9010000D901000068
:10003000D9010000D9010000D9010000D901000058
:10004000D9010000D9010000A51D0000D901000060
:10005000D9010000D9010000D9010000D901000038
:10006000D9010000D9010000D9010000D901000028
:10007000B11D0000BD1D0000C91D0000992D00002C
:10008000D9010000D9010000D9010000D901000008
:10009000D9010000D9010000D9010000D9010000F8
:1000A000D9010000D9010000CD2B0000D9010000CA
:1000B000D9010000D9010000D9010000D9010000D8
:1000C000D9010000D9010000D9010000D9010000C8
:1000D000D9010000D9010000D901000010B5054C7C
:1000E000237833B9044B13B10448AFF300800123E4
:1000F000237010BDE0000020000000001C3800004C
:10010000084B10B51BB108480849AFF300800848F8
:10011000036803B910BD074B002BFBD0BDE81040AE
:10012000184700BF000000001C380000E400002059
:10013000DC00002000000000154B002B08BF134B13
:100140009D46A3F5803A00218B460F461348144A7A
:10015000121A03F08DFA0F4B002B00D098470E4B6C
:10016000002B00D098470020002104000D000D480E
:10017000002802D00C48AFF3008003F053FA2000AF
:10018000290001F09FFC03F039FA00BF00000800CD
:10019000000002200000000000000000E00000203D
:1001A0009003002000000000000000000648804787
:1001B0000649074A074B9A42BEBF51F8040B42F862
:1001C000040BF8E7FFF7B8FF9D0300002838000094
:1001D00000000020E0000020FEE700BF294AD36AAB
:1001E00003F47053B3F5805F2AD0B3F5005F24D0D9
:1001F000B3F5006F11D0D36803F4E063B3F5007F6B
:100200003DD020D9B3F5806F37D0B3F5A06F32D091
:10021000B3F5407F24D0002301E01B4B1B68194A33
:100220001A4910685268C0F382300130B3FBF0F015
:1002300002F00F03D84008607047154B1B68EEE7CB
:100240004FF40043EBE76BB1B3F5807FE3D1114B83
:10025000114AD86C114BB0F1985F28BF1346DEE706
:100260000F4BDCE70B4B0F4AD86C0F4BB0F1985F8C
:1002700028BF1346D3E70D4BD1E70D4BCFE70D4B0E
:10028000CDE700BF00800C400400002004030020E4
:1002900000000020B081E00F40B56400C0CF6A00CC
:1002A000809FD500804F120040420F00003FAB01FD
:1002B000406F4001C0D8A70000487047006CDC02C6
:1002C000274AD36A03F47053B3F5805F24D0B3F5A3
:1002D000005F1ED0B3F5006F11D0D36803F4E06364
:1002E000B3F5007F39D01AD9B3F5806F33D0B3F5A9
:1002F000A06F2ED0B3F5407F1FD0002001E0194B36
:100300001868174B1B68C3F382330133B0FBF3F05B
:100310007047154B1868F4E74FF40040F1E773B1EC
:10032000B3F5807FE9D1114A114BD06C114AB0F17D
:10033000985F2CBF18461046E3E70F48E1E70B4AE9
:100340000E4BD06C0E4AB0F1985F2CBF1846104689
:10035000D7E70C48D5E70C48D3E70C48D1E700BFF6
:1003600000800C400400002000000020B081E00F5D
:1003700040B56400C0CF6A00809FD500804F120056
:1003800040420F00003FAB01406F4001C0D8A700C2
:10039000014B1868704700BF04000020704700BF81
:1003A0004FF40040704700BF4FF47A70704700BFB1
:1003B000014B1868704700BF0000002008B500F02E
:1003C0000F03013B062B65D8DFE803F025394764AE
:1003D00064550400474BDB6A03F46033B3F5803F98
:1003E00023D0B3F5003F6DD0B3F5004F4AD0424B58
:1003F000984262D0414B984209D13E4B9B6AC3F36D
:100400008103022B17D0032B62D0012B48D1BDE80A
:100410000840FFF7C5BF374BDB6A03F47053B3F5F1
:10042000805F4FD0B3F5005F2CD1334B984244D05E
:10043000324B9842E1D0BDE80840FFF7B9BF2D4AE2
:10044000936A03F00303022BEFD0032B1AD0012B86
:1004500038D0936ADA0315D4C9E7264A936A03F0C1
:100460000C03082BE1D00C2B0CD0042B2AD0936A60
:10047000DB0207D4BBE71F4B1B6813F0805301D08E
:10048000002BB4D01C4B984217D01C4B9842B4D0D0
:10049000002008BD184B98420FD0184B9842ACD0A2
:1004A000154B98421DD0154B9842F1D1114B142099
:1004B0009B6A33FA00F018D108BD0E4B9B6A03F01B
:1004C00003039EE70C4B9842F7D00C4B984294D014
:1004D000FFF784FE0A4B0B4A1B6812680133D840B1
:1004E00008BD044B10209B6AE3E7BDE80840FFF716
:1004F0005BBF00BF00800C4002001A0003001C001C
:1005000078009043A0009043C0F30313013B70B503
:100510000C46062B05D8DFE803F00F0404505BA15E
:10052000050070BDA84B984200F0F58003F5043338
:10053000984200F0D98070BDFFF7BEFE41F67132DF
:10054000A24BDD6BDA635B6803F00703042B06D86C
:10055000012202FA03F313F0130F40F028819C4BA1
:10056000984240F2B980052298494B6823F007036E
:1005700013434B600DB10023CB63964A013C1368D3
:1005800023F4E03343EA84341460FFF727FE41F696
:1005900071328E4BDC6BDA635B6803F00703042B6C
:1005A0007AD8012202FA03F313F0130F74D0884BA8
:1005B000984240F2EF80042272E0B1FA81F4854A59
:1005C000C4F11F04936823F00F031C43946070BDB3
:1005D000FFF772FE41F671327C4BDD6BDA635B68CC
:1005E00003F00703042B06D8012202FA03F313F0E9
:1005F000130F40F0D780764B984265D90522734996
:100600004B6823F0070313434B600DB10023CB630A
:10061000FFF756FE704BB0FBF4F0DB6CC3F30743FF
:100620004A2B00F08E80792B00F08B80684A482B93
:100630000CBF13460023B4FA84F498426749684B10
:1006400094BF00200120634A086018605368C4F119
:100650001F0423F00F031C43546096E7614B98423C
:1006600000F0EF8040F282805F4B984200F0D28031
:100670005E4B984240F0CD80564A536DDB0740F107
:10068000BF80B4FA84F4534AC4F11F04936E23F07C
:1006900003032343936670BD4D4B98420CD905224A
:1006A0004A494B6823F0070313434B60002C3FF487
:1006B00038AF0023CB6370BD4D4B4E4A0344934289
:1006C0008CBF02220322EBE7494B4A4A0344934280
:1006D0008CBF0222032292E7454B464A03449342D1
:1006E0008CBF022203223FE73A4A536DD9070BD54C
:1006F000B4FA84F4374AC4F11F04136F23F03003B3
:1007000043EA0413136770BD136D5B06F0D5136DD8
:100710005B06F9D4ECE72F4A536DDD070AD5B4FA2E
:1007200084F42C4AC4F11F04136F23F00303234302
:10073000136770BD136D5806F1D5136D5806F9D4C3
:10074000EDE72D4D2D4A2B69A969ED6903F03F06B0
:10075000C5F3031343EA062301F0F0011C4D0B43DC
:10076000B3F5017F2CBF13462B4664E7A3F5822324
:1007700098424DD1174A536DD9071DD5B4FA84F468
:10078000144AC4F11F04936E23F0F00343EA0413E8
:10079000936670BD164B174A034493428CBF0022E8
:1007A00001227DE70A4B98426AD9042227E7084BC9
:1007B00098425DD90422D7E6136D5B07DED5136D31
:1007C0005B07F9D4DAE700BF7007160000000C40A1
:1007D0000048E80100800C40B081E00F78009043B1
:1007E000A0009043602614006000260060062A00E6
:1007F000FFDB0BFFFF23F400D0FF0FE000366E019C
:10080000136D5E077FF53DAF136D5E07F8D438E7D3
:1008100070BD70BD1E4A536DD8070BD5B4FA84F471
:100820001B4AC4F11B04936E23F4405343EA043380
:10083000936670BD136D5907F0D5136D5907F9D440
:10084000ECE7134A536DDE070BD5B4FA84F4104A73
:10085000C4F11F04936E23F4706343EA0423936688
:1008600070BD136D5D07F0D5136D5D07F9D4ECE72E
:10087000084B094A034493428CBF0022012273E6CD
:10088000044B054A034493428CBF00220122B6E682
:1008900000800C40FFDB0BFFFF23F40000F00F0093
:1008A0000138062852D8DFE800F0142435515146AB
:1008B00004002B4BDB6A03F46033B3F5803F49D06F
:1008C000B3F5003F44D0B3F5004F0CBF0820012022
:1008D0007047234BDB6A03F47053B3F5805F37D066
:1008E000B3F5005F36D0B3F5006F0CBF04200520D0
:1008F00070471B4B986A00F00300022829D0032898
:100900002AD0012824D09B6A13F4803F0CBF012019
:1009100009207047124A936A03F00C03082B19D080
:100920000C2B19D0042B13D0936A13F4801F0CBF27
:100930000120092070470A4B1B6813F080530DD02B
:10094000B3F1805F0CBF0820012070470020704782
:100950000320704702207047062070470720704729
:1009600000800C4000F47810B0F5B01F08B500F01E
:1009700093800ED8B0F5402F7ED021D8B0F5003F3F
:1009800076D0B0F5802F00F0B08000287BD000201A
:1009900008BDB0F5081F00F09A8039D8B0F5D01F17
:1009A00061D0B0F5E01F72D0B0F5C01FEFD1644840
:1009B000FFF704FD634B1B6FC3F30113D84008BD61
:1009C000B0F5801F37D0B0F5A01F6ED0B0F5602F06
:1009D000DDD15C4B5B6903F4E063B3F5007F00F0AD
:1009E0009E8040F28A80B3F5C06F00F0A280B3F51C
:1009F000E06F00F0A080B3F5407FC8D1524A534B5E
:100A0000D06C534AB0F1985F34BF1846104608BD09
:100A1000B0F5201F18D0B0F5281F4FD0B0F5181F23
:100A2000B5D14C48FFF7CAFC464B9B6EC3F301336C
:100A30000433D84008BD4748FFF7C0FC414B9B6ECC
:100A4000C3F30313D84008BD4248FFF7B7FC3D4B42
:100A50009A6EDB6FC2F3013203F00703D04001331B
:100A6000B0FBF3F008BD3B48BDE80840FFF7A6BC6B
:100A7000BDE80840FFF7B2BB324A136813F0805359
:100A800046D0002B83D0BDE80840FFF719BC2C48A6
:100A9000BDE80840FFF792BC2948FFF78FFC294BBF
:100AA0001B6F03F00303D84008BD2A48FFF786FCFC
:100AB000244B9B6EC3F30323D84008BD2548FFF7A2
:100AC0007DFC204B9B6E03F00303D84008BD2248F9
:100AD000FFF7E4FE032817D00828D4D002287FF4BB
:100AE00056AFBDE80840FFF763BCFFF7E9FB154BC5
:100AF0009B6803F00F03D84008BDF3B1B3F5807FC6
:100B00007FF445AF154808BDBDE80840FFF748BC75
:100B1000536903F4E063B3F5007F7FF462AF0A4AE0
:100B20000F4BD06C0F4AB0F1985F34BF1846104697
:100B300008BD0D4808BD0D4808BD0D4808BD00BFE3
:100B400003001C0000800C40B081E00F40420F0009
:100B5000804F120002001A0007232200C0D8A7000D
:100B6000C0CF6A0040B56400003FAB01406F400158
:100B7000809FD500F0B5C0F30323013B83B004464A
:100B8000092B0CD8DFE803F01C1E200B0B0D190BF2
:100B90000B05254DC4F304342C44A400216003B09C
:100BA000F0BD224D0120224AC4F30434536DDB070B
:100BB000F2D4136D1842FCD1EEE71E4D1020F2E77F
:100BC0001D4DE7E71D4DE5E70191FFF707FB1C4BC6
:100BD0000199DA6CC2F307424A2A0FD0792A0DD064
:100BE000482A184B18BF00239842174A174B94BF46
:100BF000002001201060164D1860CBE7154E164AF4
:100C00003369B569F66903F03F07C6F3031343EA96
:100C1000072305F0F0050B4E2B43B3F5017F2CBFE6
:100C200013463346E0E700BFC003E410C002E410FF
:100C300000800C400003E4104000E4102002E410A7
:100C4000B081E00F0048E80178009043A000904395
:100C50000002E410D0FF0FE000366E0138B500F05E
:100C60000F04631E062B6AD8DFE803F0927A7A69D4
:100C700069756E00AA4A03244021AA4B19621368C1
:100C8000002BFCD0FFF718FB41F67132A64BDD6B51
:100C9000DA635B6803F00703042B06D8012202FA2B
:100CA00003F313F0130F40F05781A04B984240F22A
:100CB000B08005229C494B6823F0070313434B6027
:100CC0000DB10023CB63974B99485C62FFF74AFE56
:100CD000984BDB6CC3F307434A2B00F0A280792BBF
:100CE00000F09F80914A482B0CBF13460023984286
:100CF000914A924B94BF0020012010601860FFF7CA
:100D00006DFA41F67132884BDC6BDA635B6803F095
:100D10000703042B06D8012202FA03F313F0130F82
:100D200040F0F980814B98426BD905227E494B688F
:100D300023F0070313434B600CB10023CB637E4ABF
:100D40007E4B12681B6838BD032935D008297DD039
:100D5000022940D038BD072928D008294BD038BDFA
:100D600001390829F6D801A353F821F0630F0000D8
:100D70007F0F0000D70F0000550D0000550D00003B
:100D8000970F0000550D0000550D0000ED0F0000FD
:100D900002390329DED801A353F821F0C30E000065
:100DA000750C00005D0E0000CD0E00005D4A13685A
:100DB00023F080531360C2E75A4B4021584A19620E
:100DC0001368002BFCD0574B60211A465962D36A36
:100DD0009903FCD5B3E7534B4FF48071584A19621D
:100DE0001368002BFCD04F4B40211A465962D36A3E
:100DF000D803FCD5A3E74B4A136843F08053136034
:100E00009DE7504B504A034493428CBF0222032279
:100E10008CE74C4B4C4A034493428CBF0222032282
:100E200048E74A4C4A4A2369A169E46903F03F054F
:100E3000C4F3031343EA052301F0F0013B4C0B43D9
:100E4000B3F5017F2CBF1346234650E7354B2021D5
:100E50001A465962D36A1B04FCD570E7354BDB6C2C
:100E6000C3F307434A2B00F0F680792B00F0F380A0
:100E7000482B00F0ED80002318462E4AD26CC2F3B6
:100E800007424A2A00F0D280792A00F0CF80482A0F
:100E900018BF01232849294A0B601360FFF778FA2D
:100EA000204A224B0224984213684FF0040196BF57
:100EB00023F0600343F0600343F020031360254AEE
:100EC000DBE61F4A04244FF48071D6E6194BDB6C35
:100ED000C3F307434A2B00F0E780792B00F0E4804E
:100EE000482B00F0DE8000231846124AD26CC2F371
:100EF00007424A2A00F0C380792A00F0C080482ABD
:100F000018BF01230C490D4A01240B6013602146D0
:100F100002F2E442B1E6054B98427FD9042205E78C
:100F20009C05904300800C4000000C400048E80104
:100F300000430200B081E00F78009043A00090438E
:100F4000A4059043FFDB0BFFFF23F400D0FF0FE06D
:100F500000366E018C059043684B984256D90422A6
:100F6000A8E600252B462946022C45D064498A6A0A
:100F700022F4801323F00C032B438B62DFE6604BDB
:100F80004FF480715F4A19621368002BFCD008256A
:100F900000230221E8E7FFF721F95B4BDB6CC3F389
:100FA00007434A2B00F09480792B00F09180534A3C
:100FB000482B0CBF134600239842544D544B554ABE
:100FC00094BF002001200121286018600C251160C9
:100FD00000230321C8E74A4B40214F4A1962136896
:100FE000002BFCD0042500230121BDE74FF4801520
:100FF0004FF480330021B7E741481943826A22F455
:10100000803323F003030B43836298E6434B444A47
:10101000034493428CBF002201224BE63F4B404ADF
:10102000034493428CBF002201227FE63D490C69B4
:101030008A69C96904F03F04C1F3031141EA04213C
:1010400002F0F0020A43B2F5017F28BF034621E710
:101050000123184611E7334A012011699369D269C7
:1010600001F03F01C2F3031242EA012203F0F00350
:101070001343B3F5017F2CBF00230123FDE629496B
:101080000C698A69C96904F03F04C1F3031141EA9C
:10109000042102F0F0020A43B2F5017F28BF0346A3
:1010A00030E70123184620E71E4A012011699369A1
:1010B000D26901F03F01C2F3031242EA012203F0B8
:1010C000F0031343B3F5017F2CBF002301230CE78A
:1010D000144B154A1D699969DB6905F03F05C3F397
:1010E000031343EA052301F0F001044D0B43B3F56C
:1010F000017F2CBF13462B465EE700BF0048E80186
:1011000000800C40A4059043B081E00F780090432C
:10111000A0009043100890439C059043FFDB0BFF19
:10112000FF23F400D0FF0FE000366E0170B4837827
:101130000D4D002B4FF00803EA6A2B6204784178CA
:101140002A684FEA8404C07844EA412122F4D1633A
:1011500041EA000123F0070314BF802600260B4359
:1011600033432B6070BC704700800C4010B40428DF
:1011700006D8DFE800F0231B17081F00124A13628D
:101180005DF8044B70471148022301240029F5D073
:101190000D4B1C62002AF3D00368002BFCD05DF8D5
:1011A000044B70470A4808230424EFE709488023CA
:1011B0004024EBE7084820231024E7E707484FF4D2
:1011C00000734FF48074E1E700800C408405904385
:1011D0008C0590439C05904394059043A40590434F
:1011E000F0B5C40052B1002B38D02518AD0005F180
:1011F0008045012605F5C0458E402E612518AD00BD
:10120000072905F1804517D805F5C0456F684FEAF5
:10121000810E0F2606FA0EF627EA060702FA0EF6E8
:101220003E436E603AB9204403BB154B8000012257
:1012300003448A405A60F0BD01F1804605F5C0457F
:10124000083EAF68B6004FF00F0E0EFA06FE27EA12
:101250000E0702FA06F63E43AE60E3E72718084D94
:10126000BF0001263D448E406E60C7E7800000F15C
:101270008040012300F5C0408B400361F0BD00BFFA
:101280001060004029B1012902D11430026070477A
:10129000704710300260704711B9022343607047F5
:1012A00001234360704700BF70B40D7825B983688F
:1012B000DA0744BF022343604B788E78002BCA784C
:1012C0000BBF4FF480634FF4A05300244FF48054BD
:1012D000002E08BF23460AB143F400630A790AB11D
:1012E00043F400734A790AB143F480738A790AB1EE
:1012F00043F04003CA790AB143F080034C7A0A7A7A
:101300002401897A44EA82020A431343036025B127
:101310008368DB075CBF0123436070BC704700BF7C
:101320000B4B01220B499A608B6813400BD010B411
:101330004AF6E854084800238C6002605DF8044BCC
:1013400003608B60704704490A600B60704700BF00
:1013500000A00C4000600C4080048C433B4B5B6859
:1013600003F001029907104604D513F0810F08BF5E
:1013700042F00200590704D513F0910F08BF40F066
:101380000400190701D5002A5CD0D90603D59907B6
:1013900008BF40F01000990604D54EF6DF711940E1
:1013A00000294CD0590604D54EF69F7119400029EA
:1013B00042D0190604D540F219711940002938D0DD
:1013C000D90503D540F21961194079B3990503D5C0
:1013D00040F21F41194031B3590503D540F21F2196
:1013E0001940E9B1190500D5BAB1D90400D58AB1BF
:1013F000990400D55AB1590400D52AB11B0402D56D
:101400000AB940F40040704740F48040F6E740F4E9
:101410000050F0E740F48050EAE740F40060E4E771
:1014200040F48060DEE740F40070D5E740F480705F
:10143000CCE740F08000C3E740F04000B9E740F05F
:101440002000AFE740F008009FE700BF00A00C407D
:101450000B4A5169136901F00F01C3F3811343EA89
:1014600081038370136903F03F0343709169D3696B
:1014700001F0F002C3F3031313430370704700BF7E
:10148000D0FF0FE02DE9F04791F80090B9F1000F7F
:1014900001D1022343604B784C7A8A7A002B18BF23
:1014A0004FF0400ACB7A08BF4FF0000A002C18BF5B
:1014B0004FF080080C7908BF4FF00008002A18BFD1
:1014C0004FF0200C4A7908BF4FF0000C002B18BFDA
:1014D0004FF0100E0B7B08BF4FF0000E002C14BF16
:1014E0004FF400570027002ACA7814BF4FF08056E7
:1014F0000026002B8B780C7A4FEA024242EA036204
:101500008B7942EA0402C97942EA832242EA012342
:1015100043EA0A0343EA080848EA0C0C4CEA0E0EB8
:101520004EEA070714BF082500253E433543002334
:1015300043620560B9F1000F01D001234360BDE8AB
:10154000F08700BFD3792DE9F041157A002B547A4A
:1015500014BF4FF400184FF00008002D557814BF49
:101560004FF4801C4FF0000C002C147896794FEA51
:101570000565937A45EA8465947845EA0605D67848
:1015800014BF4FF0100E4FF0000E45EA0444002B3C
:101590001379557944EA063444EA832242EA052362
:1015A00043EA080343EA0C0C14BF04270027033165
:1015B0004CEA0E0E09014EEA07074750BDE8F081DC
:1015C00070B44CF6806140F273754FF6FF740023DF
:1015D00002260F2246600360C36085610362C46116
:1015E000436270BC03634363C36303644364C364C3
:1015F00003654365C365C0F8881003674367836765
:10160000C367C0F884207047F8B503680546DB0758
:101610002ED42348FFF7A6F92C68224B6A6904F000
:101620006004202C064603EA02032DD0402C32D061
:101630006CB340242746012503F5807305FB03F5B1
:1016400000212A460B46304601F000FD002100FB38
:1016500004F42A4630460B4601F0F8FCA2FB0701D1
:101660002A4607FB0311002301F0F0FC2044F8BDDB
:101670000B48FFF777F92B686A690A4B8024064606
:10168000134027460125D7E701252746D4E7102434
:1016900027460125D0E7802427460325CCE700BF55
:1016A00040810400C0FF1F00CB4303F005035B0033
:1016B000C360C160704700BFF8B5044640F6AA6732
:1016C00041F2050641F6F9702D4A00239442E76085
:1016D0000D4623606660A3606361E364A064636594
:1016E0004AD0284AA365944243D0274B9C4240D01D
:1016F000AB7C1BB1236843F080432360EB7C1BB1C0
:101700002B7D43F01003A365298A6B7BEA890B4389
:10171000686813436360AE682F7B18B3202F26D010
:101720001CD9402F18D0602F13D1042306FB03F3DC
:10173000800000EB5300B0FBF3F32268043B22F07F
:10174000600222602168114A9B011A400F43276002
:1017500062612B78E360F8BD0623E7E7002FF8D13C
:101760001023E3E70A48FFF7FDF8202FD8D108231C
:10177000DCE70023E365BBE72365A365B8E700BFAB
:1017800000C0004000C4004000C80040C0FF1F006F
:101790004081040030B441F6F97140F6AA6541F287
:1017A00005040E4A00239042C560036044608360D4
:1017B0004361C364816443650CD0094A83659042E8
:1017C00004D0084B984201D030BC70470023C36559
:1017D00030BC7047036530BC8365704700C0004073
:1017E00000C4004000C8004003695B06FCD54163AB
:1017F000704700BF0368DB0610D451B900F10472D2
:101800005201136853B1836813F00103FBD11360D5
:10181000704700F10470400101230360704700BF6E
:101820000368D90707D583689A0704D48368DB0760
:10183000FCD40123436070474A780B780AB143F027
:1018400002038A780AB143F00403CA780AB143F06C
:1018500008030A790AB143F020034A790AB143F038
:1018600040038A790AB143F01003CA79097A120356
:1018700042EA01221A438368DB07FCD40260704706
:101880008368DB07FCD4400100F18440012303613D
:10189000704700BF2DE9F0434E4F3C78ACB10028B3
:1018A00000F0938071B14C4D4418002110F8013BB9
:1018B000C1F30F224B40DBB235F81310A04281EA8E
:1018C0000201F3D10846BDE8F083444E444DDFF8F1
:1018D00014E1A3B203F00109B9F1000F14BFAC4643
:1018E0004FF0000C4FEA530383EA0C0C15BF4FF482
:1018F000F0484FF4A0484FF4205200221CF0010C95
:1019000008BF9046B9F1000F15BFF146A9464FF444
:10191000A0420022BCF1000F14BFCC4694465B08E5
:1019200083EA0C0C88F420421CF0010F82F00102C3
:1019300018BF90465B084FEA580C8CF4204283EAAB
:10194000080818F0010F82F0010218BF94465B08E6
:101950004FEA5C0888F4204283EA0C0C1CF0010F6B
:1019600082F0010218BF90465B084FEA580C8CF4D5
:10197000204283EA080818F0010F82F0010218BF24
:1019800094465B084FEA5C0883EA0C0C1CF0010FDC
:1019900088F4204282F0010208BF42464FEA520C0E
:1019A00082EA53028CF4204312F0010F83F001030A
:1019B00018BF9C460134B4F5807F26F802CF88D149
:1019C00001233B7000287FF46DAF01460846BDE857
:1019D000F08300BFFC020020FC000020FA00002081
:1019E00001A0FFFF01F0FFFF30B52B4C83B01120A9
:1019F0000121FEF789FD20460121FEF785FD274BD9
:101A0000274D1868019001A8FFF790FB204604219C
:101A1000FFF724F911200421FFF720F920460121C6
:101A2000FFF7A8F800210A460320FFF79FFB1D4897
:101A30000121FFF79FF81C480121FFF79BF81B4885
:101A40000121FFF797F81A480121FFF793F8194889
:101A50000121FFF78FF818480121FFF78BF828467E
:101A60000121FFF787F801210A460520FFF77EFBD9
:101A700012480921FFF7F2F811480121FFF77AF81F
:101A8000012002460146FFF771FB28460321FFF7BC
:101A9000E5F803B030BD00BF40810400AC36000063
:101AA000004302000012040000D2040000520400AF
:101AB00000620400007204000082040002001A00A8
:101AC000602614002DE9F043814B97B0DC6C09AD22
:101AD0002846FFF7BDFCB4F1805F0AD39DF824309F
:101AE000022B06D97B4A136823F0500343F01003FE
:101AF0001360FFF779FF00F06DF901F0C9F901F00B
:101B000087FA01F017F904200C2105220123FFF7C1
:101B100067FB0D21052200230420FFF761FB6E48BF
:101B2000FEF720FF034611200093FEF71BFF03463C
:101B30006A480193FFF768FD0290FFF70FFC044627
:101B4000FFF7EEFB002314F0100F11931293139381
:101B50001493ADF854302C4600F0B080604E0FCE98
:101B60000FC40FCE0FC40FCE0FC4336824F8023B4E
:101B70001B0C2370284601F083FDC1B2284601F0FA
:101B800037FA0023039304930593069307938DF884
:101B90002030544E00F04AFBDFF85891DFF85881AE
:101BA000514F12E0052808D098E807002B4603C3E0
:101BB000284608211A7001F01BFA002303930493AE
:101BC0000593069307938DF8203003A801F0BAF926
:101BD0000428E7D103A801F041F868B3442001F0DC
:101BE00067F89DF80E404148FFF71AFE422C2DD0B1
:101BF00041D9462C27D0472C22D0432CDDD12C466E
:101C0000DFF8F8E04FF4005CC7F8A8C0BEE80F00AA
:101C10000FC4BEE80F000FC49EE8030044F8040B95
:101C200024F8021B0B0C28462621237001F0E0F952
:101C30002E48FFF7F5FDC0E7452001F039F8BCE775
:101C400000F06AFCB9E700F0DBFDB6E72B4696E84A
:101C500007004FF48054C7F8A84003C3140C23F8BE
:101C6000022B28460A211C7001F0C2F90DF10F0069
:101C700000F0C6FAA1E7002C96D0412C9DD196E841
:101C800007002B464FF48054C7F8A84003C3140C38
:101C900023F8022B28460A211C7001F0A9F90DF146
:101CA0000F0000F043F9012887D099E80F0085E87C
:101CB0000F0028460F2101F09BF97EE70C4E0FCE56
:101CC0000FC40FCE0FC496E80F0007C4238051E75E
:101CD000B081E00FC0800C404081040000C400408F
:101CE000B03600001437000000600040008008405B
:101CF000E43600002037000058370000303700007D
:101D0000F0B589B00E460546FFF75AFC224A01ABF2
:101D100010685168178903C3927A00241F809A7053
:101D20002146284601AA0134FFF70CFC032CF7D109
:101D3000AB6A002443F001033343AB62AB6A012278
:101D400043F002033343AB62AB6A144843F004032D
:101D50001E43AE62049405948DF810208DF8112076
:101D600006948DF81C40FEF7FDFD03460C4A2946FB
:101D7000A2FB03235B09EB61204600F0CDF8E8638A
:101D8000E864E865EB68284643F00103EB6004A9CA
:101D9000FFF778FB09B0F0BD643700004081040014
:101DA000F1197605014B01229A617047000001404C
:101DB000014B01229A61704700040140014B01224E
:101DC0009A61704700080140014B01229A617047F7
:101DD000000C014070B5032088B0014604220023A6
:101DE000FFF7FEF901200B2104220023FFF7F8F989
:101DF0000320012104220023FFF7F2F9032002212E
:101E000004220023FFF7ECF9002003460C210422F2
:101E1000FFF7E6F9002003460D210422FFF7E0F961
:101E20000120072104220023FFF7DAF9012008210D
:101E300004220023FFF7D4F9002003460E210422D8
:101E4000FFF7CEF90420024600230E21FFF7C8F960
:101E500029484FF44031294CFFF752FF28484FF4EE
:101E60004031FFF74DFF4FF480312648FFF748FF20
:101E70002046FFF7A5FB244A01AB1068516816897C
:101E800003C3957A2046002101AA1E809D70FFF7AA
:101E900059FBA26A002342F00102A2621B48012200
:101EA000049305938DF810208DF8112006938DF87A
:101EB0001C30FEF757FD164B2146A3FB00304009AE
:101EC000E06140F2DC5000F027F8E063E368204670
:101ED00043F00103E36004A9FFF7D4FA0D4B042497
:101EE0004FF480504FF400514FF480421C60186052
:101EF00019601A6008B070BD00000140000C01407C
:101F000000040140000801406437000040810400E3
:101F1000F119760500E100E0034ACB69A2FB032337
:101F2000DB0903FB00F07047D34D621030B5B14BB5
:101F300085B01A78002A00F000810278437804AD59
:101F400043EA0223A3F24C42B2F5487F88BF002344
:101F50008278ADF80030C3780DF1100E43EA022309
:101F6000A3F24C42B2F5487F88BF00230279ADF856
:101F70000230437943EA0223A3F24C42B2F5487F90
:101F800088BF00238279ADF80430C37943EA022385
:101F9000A3F24C42B2F5487F88BF0023027AADF825
:101FA0000630437A43EA0223A3F24C42B2F5487F5B
:101FB00088BF0023827AADF80830C37A43EA02234F
:101FC000A3F24C42B2F5487F88BF0023027BADF8F4
:101FD0000A30437B43EA0223A3F24C42B2F5487F26
:101FE00088BF0023827BADF80C30C37B43EA022319
:101FF000A3F24C42B2F5487F88BF0023ADF80E3003
:102000007D4B7E4A186893F84840C16905EB44044B
:10201000A2FB015134F8105CC90993F8204001FB80
:1020200005F100EB041000F1380458686160C169E3
:1020300093F84940A2FB015104AD05EB440434F888
:10204000104CC90901FB04F193F821509C6800EB86
:102050000510C163E16993F84A00A2FB015104AD88
:1020600005EB400030F8100CC90901FB00F193F8B2
:102070002250D86804EB0514E163C16993F84B4022
:10208000A2FB015104AD05EB440434F8104CC9091E
:1020900001FB04F193F823501C6900EB0510C163A8
:1020A000E16993F84C00A2FB015104AD05EB40003F
:1020B00030F8100CC90901FB00F193F8245058695D
:1020C00004EB0514E163C16993F82540A2FB0151BB
:1020D00093F84D50C9090EEB450535F8105C00EB3F
:1020E000041001FB05F100F1380498696160C169D1
:1020F00093F84E40A2FB01510EEB440434F8104C0F
:10210000C90901FB04F193F82650DC6900EB0510C6
:10211000C163E16993F84F00A2FB01120EEB40018D
:1021200031F8101CD20902FB01F293F8273001208C
:1021300004EB0314E26305B030BD2F4B104693F857
:102140004840191991F8201053F8244004EB01116C
:10215000E469CA6393F84940191991F8201053F8BB
:10216000244004EB0111E469CA6393F84A40191949
:1021700091F8201053F8244004EB0111E469CA637C
:1021800093F84B40191991F8201053F8244004EBB0
:102190000111E469CA6393F84C40191991F82010B1
:1021A00053F8244004EB0111E469CA6393F84D40ED
:1021B000191991F8201053F8244004EB0111E46937
:1021C000CA6393F84E40191991F8201053F824402F
:1021D00004EB0111E469CA6393F84F40191991F8AF
:1021E000201053F8244004EB0113E169DA6305B0D1
:1021F00030BD00BF0003002008000020D34D621056
:10220000084910B4084BCA690478A3FB023243782A
:10221000D20943EA042302FB03F30120CB635DF8F8
:10222000044B7047000C0140D34D62102DE9F04182
:10223000AF4BB04F4FF0806119604FF40042AE4891
:10224000DFF8D082AD493D78C3F8802092B00022FB
:102250000123037088F800300A80059206920792E5
:10226000089209920A920B920C920D920E920F9282
:102270001092ADF84420002D40F01981A04CA14EE1
:10228000002B62D194F848109F48621892F82020E1
:1022900054F8211001EB0212C969D36394F8491074
:1022A000621892F8202054F8211001EB0212C9693B
:1022B000D36394F84A10621892F8202054F8211041
:1022C00001EB0212C969D36394F84B10621892F8BB
:1022D000202054F8211001EB0212C969D36394F84D
:1022E0004C10621892F8202054F8211001EB0212D1
:1022F000C969D36394F84D10621892F8202054F8FD
:10230000211001EB0212C969D36394F84E106218D0
:1023100092F8202054F8211001EB0212C969D3630E
:1023200094F84F10621892F8202054F8211001EB15
:102330000212C969D363FFF773FA3B78002B40F0B0
:10234000B68098F80030002B9CD0226894F8481092
:10235000D369ADF80450A6FB030312A8ADF80650EC
:10236000ADF80850ADF80A50ADF80C50ADF80E506D
:10237000ADF81050ADF8125000EB410131F8441C9B
:10238000DB0903FB01F394F82000616802EB001203
:10239000D363CB6994F84920A6FB030312A800EB92
:1023A000420232F8442CDB0903FB02F394F82100CB
:1023B000A26801EB0011CB63D36994F84A10A6FB25
:1023C000030312A800EB410131F8441CDB0903FBB5
:1023D00001F394F82210E06802EB0112D363C369A1
:1023E00094F84B20A6FB031312A901EB420232F82A
:1023F000442CDB0903FB02F394F8232094F8241007
:1024000000EB0210C363226994F84C00D3690DF10C
:10241000480E0EEB4000A6FB03E330F8440CDB094A
:1024200003FB00F302EB011202F1380162694B6019
:10243000D36994F84D10A6FB030312A800EB4101E9
:1024400031F8441CDB0903FB01F394F82500A16972
:1024500002EB0012D363CB6994F84E20A6FB030372
:1024600012A800EB420232F8442CDB0903FB02F312
:1024700094F82600E26901EB0011CB63D36994F86C
:102480004F10A6FB030312A800EB410131F8441CD6
:10249000DB0903FB01F394F827101B4802EB011240
:1024A000D363FFF7BDF93B78002B3FF44AAF174EDB
:1024B000174D4FF4005E05AC4FF48053C6F8A030C2
:1024C000C6F8A4E00FCD0FC40FCD0FC42A680023B7
:1024D000227005A820213B7088F8003000F088FDAC
:1024E000034B4FF400421A6012B0BDE8F08100BF08
:1024F00000E100E0FD02002058000020FE02002064
:1025000008000020D34D62100080084000600040A9
:1025100070370000000300202DE9F041AE4F92B06B
:10252000AE4E00244FF400434FF0806E05ADC7F867
:102530008030C7F800E00FCE09940A940B940C94F5
:102540000FC5D6F800E0A64BA64EA74F03220D9468
:1025500005A8A5F800E011210E940F941094ADF891
:10256000444034801A7000F043FD3D78DFF88C82DF
:10257000002D40F018819D4C9D4E5EE094F848106F
:102580009C48621892F8202054F8211001EB0212A6
:10259000C969D36394F84910621892F8202054F85E
:1025A000211001EB0212C969D36394F84A10621832
:1025B00092F8202054F8211001EB0212C969D3636C
:1025C00094F84B10621892F8202054F8211001EB77
:1025D0000212C969D36394F84C10621892F8202053
:1025E00054F8211001EB0212C969D36394F84D101D
:1025F000621892F8202054F8211001EB0212C969E8
:10260000D36394F84E10621892F8202054F82110E9
:1026100001EB0212C969D36394F84F10621892F863
:10262000202054F8211001EB0212C969D363FFF78F
:10263000F7F83B78002B40F0B68098F80030002B7C
:102640009CD0226894F84810D369ADF80450A6FBDA
:10265000030312A8ADF80650ADF80850ADF80A50C3
:10266000ADF80C50ADF80E50ADF81050ADF812505A
:1026700000EB410131F8441CDB0903FB01F394F842
:102680002000616802EB0012D363CB6994F8492003
:10269000A6FB030312A800EB420232F8442CDB092C
:1026A00003FB02F394F82100A26801EB0011CB6355
:1026B000D36994F84A10A6FB030312A800EB41016A
:1026C00031F8441CDB0903FB01F394F82210E068A5
:1026D00002EB0112D363C36994F84B20A6FB0313EA
:1026E00012A901EB420232F8442CDB0903FB02F38E
:1026F00094F8232094F8241000EB0210C36322699D
:1027000094F84C00D3690DF1480E0EEB4000A6FB87
:1027100003E330F8440CDB0903FB00F302EB011286
:1027200002F1380162694B60D36994F84D10A6FB41
:10273000030312A800EB410131F8441CDB0903FB41
:1027400001F394F82500A16902EB0012D363CB6971
:1027500094F84E20A6FB030312A800EB420232F8C5
:10276000442CDB0903FB02F394F82600E26901EB39
:102770000011CB63D36994F84F10A6FB030312A892
:1027800000EB410131F8441CDB0903FB01F394F831
:102790002710184802EB0112D363FFF741F83B788A
:1027A000002B3FF44AAF144D05AC0FCD0FC495E894
:1027B000030044F8040B0026217005A814213E7084
:1027C00088F8006000F014FC034B4FF400421A60DC
:1027D00012B0BDE8F08100BF00E100E094370000D6
:1027E00058000020FE020020FD020020080000200A
:1027F000D34D621000800840A8370000000300207D
:102800002DE9F047594B96B0594E00244FF4004241
:102810004FF0806709ADC6F8802037600FCB0C946D
:102820000D940E9407C50F941A0C25F8023B514ED7
:1028300009A80E2110942A701194129413941494E0
:10284000ADF854404C4F00F0D3FB4C4ADFF83CE16C
:102850004B48317802250123AEF800400570019203
:102860000292039204923B70002940F098819DF8F7
:1028700004509DF80520434C42EA0525A5F24C483A
:10288000DFF80C91DFF80CA11FFA88F8002B40F05C
:10289000838094F84810621892F8202054F8211090
:1028A00001EB0212C969D36394F84910621892F8D7
:1028B000202054F8211001EB0212C969D36394F867
:1028C0004A10621892F8202054F8211001EB0212ED
:1028D000C969D36394F84B10621892F8202054F819
:1028E000211001EB0212C969D36394F84C106218ED
:1028F00092F8202054F8211001EB0212C969D36329
:1029000094F84D10621892F8202054F8211001EB31
:102910000212C969D36394F84E10621892F820200D
:1029200054F8211001EB0212C969D36394F84F10D7
:10293000621892F8202054F8211001EB0212C969A4
:10294000D363DAF81C301048A9FB0323DB0903FB2F
:1029500005F3CAF83C30FEF763FF3378002B40F0F4
:102960001E813B78002B94D016E000BFC0370000DA
:1029700000E100E0FD0200200003002005DC05DC92
:10298000580000200800002000800840FE020020BF
:10299000D34D6210000C0140B8F5487F84BF00237E
:1029A000ADF814309DF806209DF8073098BFADF8BB
:1029B000145043EA0223A3F24C42B2F5487F88BF89
:1029C0000023ADF816309DF808209DF809302168E5
:1029D00043EA0223A3F24C42B2F5487F88BF0023AA
:1029E000ADF818309DF80A209DF80B3016A843EA80
:1029F0000223A3F24C42B2F5487F88BF0023ADF812
:102A00001A309DF80C209DF80D300DF1580E43EA58
:102A10000223A3F24C42B2F5487F88BF0023ADF8F1
:102A20001C309DF80E209DF80F3043EA0223A3F2DC
:102A30004C42B2F5487F88BF0023ADF81E309DF8A8
:102A400010209DF8113043EA0223A3F24C42B2F564
:102A5000487F88BF0023ADF820309DF812209DF8F4
:102A6000133043EA0223A3F24C42B2F5487F88BFF9
:102A70000023ADF8223094F84820CB6900EB4202E5
:102A8000A9FB030332F8442CDB0903FB02F394F89F
:102A90002000626801EB0011CB63D36994F8491000
:102AA000A9FB030316A800EB410131F8441CDB0924
:102AB00003FB01F394F82100A16802EB0012D36339
:102AC000CB6994F84A20A9FB030316A800EB420245
:102AD00032F8442CDB0903FB02F394F82200E2688D
:102AE00001EB0011CB63D36994F84B10A9FB0303EE
:102AF00016A800EB410131F8441CDB0903FB01F38C
:102B000094F82300216902EB0012D363CB6994F897
:102B10004C20A9FB030316A800EB420232F8442C18
:102B2000DB0903FB02F394F82400626901EB001156
:102B3000CB63D36994F82500A9FB031394F84D10D7
:102B4000DB090EEB410131F8441C02EB001203FBE0
:102B500001F3A169D363CB6994F84E20A9FB030369
:102B60000EEB420232F8442CDB0903FB02F394F82B
:102B70002600E26901EB0011CB63D36994F84F1092
:102B8000A9FB03030EEB410131F8441CDB0903FBF5
:102B900001F394F8271002EB0112D363D1E6094D3B
:102BA00009AC0FCD0FC42B680027238009A8112181
:102BB000377000F01DFA044B4FF400421A6016B053
:102BC000BDE8F087D037000000E100E01D4A1E4854
:102BD0001388017864339BB2022970B4138013D038
:102BE000032911D001291FD0184A194B0425642448
:102BF0004FF480504FF400519562D460C3F8A800A0
:102C000070BCC3F8A810704740F6B7318B42EBD9BF
:102C1000104D1149002301264FF080642E7013805F
:102C20000370C1F88040DFE7B3F5FA6FDCD3094EDB
:102C3000094C00234FF08065317013800370C4F895
:102C40008050D1E7FE0200205800002000200840FC
:102C500000600040FD02002000E100E010B5837834
:102C60000446413B062B21D8DFE803F0130604207D
:102C700020040400012010BD02210330FEF70AFEEB
:102C80006279A37943EA0223C01AB0FA80F04009BE
:102C900010BD10210330FEF7FDFDE27C237D43EAE9
:102CA0000223C01AB0FA80F0400910BD002010BD08
:102CB000442838B5034628D045281BD0174C00239C
:102CC000637021781648FEF78FFD61781448FEF78F
:102CD0008BFD144800F0D4FCC1B2124800F088F912
:102CE000217D0F48FEF780FDBDE838400E480221E7
:102CF00000F07EB90D4A094C106895889179C4F8A6
:102D000002006370E5802172DBE7094A034C10681A
:102D10001279C4F80200A2716370D2E75C0000204F
:102D200000C400405E000020E0360000E4370000F0
:102D3000EC37000030B5164C002385B0012519464C
:102D400064222046019302938DF80E308DF80550D1
:102D50008DF808508DF80C508DF80D50FEF792FA52
:102D6000204601A9FEF7A0FA29462046FEF794FA6C
:102D70001F23A362E36A074A4FF0806143F0040314
:102D8000E362C2F88011C2F8801005B030BD00BF08
:102D90000020084000E100E03B4A1369190628D5ED
:102DA0003A4B93F88110D069CAB2C1B2995493F8E2
:102DB0008120D2B29A5C242A4AD093F881203349E8
:102DC000D2B29A5C402A29D093F884102F4A89B94C
:102DD00093F881202D490132D2B283F8812093F8F3
:102DE000813004221B0644BF002381F88130264B2A
:102DF0009A64704792F8810092F882108842E7D274
:102E000092F8811092F882008031091A1529DFDDCD
:102E1000002182F8841082F88510D9E791F8842087
:102E2000002AD1D091F8812091F88200121A022A4A
:102E300021D091F8812091F88200121A062A14D02C
:102E400093F8812093F88210521A142ABCD112E010
:102E500093F88420002AB0D1012283F8842093F8CB
:102E60008120D2B283F88220A7E791F88220013234
:102E70008A5C422AE4D1012283F8852093F88120DC
:102E8000D2B283F883209FE700C4004008030020EB
:102E9000F0B587B06C46284E284D3046FEF77AFCD8
:102EA0000320072104220123FEF79AF903200621BB
:102EB00001220023FEF794F90FCD0FC495E803001B
:102EC000002384E80300052730464FF4805269460A
:102ED0004FF4E13560248DF800300193ADF80E30E9
:102EE0008DF812308DF813308DF8143002958DF86E
:102EF0000C40ADF810208DF80D70FEF7DDFB41F6AB
:102F0000FF7340F2032EB364F26C0D4B42F00402E7
:102F10004FF400454FF48034F2643946C3F88051D1
:102F20003046C3F880411D601C60C6F854E0FEF7CF
:102F3000BBFB07B0F0BD00BF00C40040F437000089
:102F400000E100E0294A92F8843093B392F885308A
:102F50007BB3F0B492F8821092F88340C9B2E7B222
:102F6000B9423AD027D90546A7F17F035B1A7F29DA
:102F700005F8013B0B460CDC2C46C1F181060644EA
:102F8000D05C013304F8010BB442F9D1C1F18001E6
:102F90000D44781C0023D15C0133834205F8011BEA
:102FA000F9D1002382F88430042082F88530F0BC07
:102FB000704705207047034607F10104A4EB0104A4
:102FC00003F8014BEDDCBC1C641A0444505C013175
:102FD00003F8010BA342F9D1E3E7002382F8843020
:102FE000052082F88530F0BC704700BF0803002040
:102FF00051B138B50446451814F8011B0348FEF7D3
:10300000F3FBAC42F8D138BD704700BF00C40040AC
:1030100010B50C4A84B01068516801AB03C30A4C68
:10302000127A204601A91A70FEF706FC01212046FB
:10303000FEF7E0FB2046FEF723FC2046FEF7F0FB00
:1030400004B010BD0C3800000080084053B94AB9E4
:10305000002908BF00281CBF4FF0FF314FF0FF30A0
:1030600000F03CB882B0EC462DE9005000F01EF8AC
:10307000DDF804E002B00CBC704700BF2DE9F04160
:10308000069C904606460F461D4600F029F808FBB0
:1030900001FCA8FB002300FB05C5B21A2B4467EB1B
:1030A00003038646C4E90023BDE8F0812DE9F84317
:1030B000089E1746804689461D4600F067F900FBCA
:1030C00005F3A0FB074507FB0137B8EB04043D44BB
:1030D00069EB0505C6E90045BDE8F883704700BF08
:1030E00000292DE9F043C0F2A8800026002BC0F291
:1030F0009E8081468E4690469C46174604460D4665
:10310000002B3DD18A4259D9B2FA82F33BB1C3F1C7
:1031100020029D4020FA02F29F4015439C40390C4A
:10312000B5FBF1F01FFA87FE01FB10550EFB00F313
:10313000220C42EA0545AB4209D9ED1900F1FF32F4
:1031400080F00B81AB4240F2088102383D44ED1A19
:10315000B5FBF1F301FB13550EFB03FEA4B244EAE9
:103160000545AE4508D9ED1903F1FF3280F0F7802F
:10317000AE4540F2F480023B43EA0043002203E004
:103180008B420FD900221346341C18BF0124604221
:103190004FF0000565EB4501584051400019694169
:1031A000BDE8F083B3FA83F2002A40F089808B42B5
:1031B00002D3804500F2E2800123E5E712B9012342
:1031C000B3FBF2F7B7FA87F8B8F1000F3BD1ED1B6C
:1031D0004FEA174C1FFA87FE0122B5FBFCF00CFBEF
:1031E00010550EFB00F3210C41EA0545AB4207D90F
:1031F000ED1900F1FF3102D2AB4200F2C380084664
:10320000ED1AB5FBFCF30CFB13550EFB03FEA4B249
:1032100044EA0545AE4507D9ED1903F1FF3102D265
:10322000AE4500F2AD800B4643EA0043ACE75242A4
:103230006FEA060663EB43035BE7404261EB410143
:103240004FF0FF3652E707FA08F7C8F1200225FAD7
:1032500002F34FEA174CB3FBFCF11FFA87FE0CFB9D
:10326000113324FA02F205FA08F50EFB01F92A439C
:10327000100C40EA0343994504FA08F407D9DB1916
:1032800001F1FF3078D2994576D902393B44C9EB38
:103290000303B3FBFCF00CFB10330EFB00F592B202
:1032A00042EA03439D4207D9DB1900F1FF325FD2A6
:1032B0009D425DD902383B445D1B40EA01428CE7E8
:1032C000C2F1200328FA03F10CFA02FC41EA0C0CCB
:1032D0004FEA1C402EFA03F1B1FBF0F51FFA8CF710
:1032E00000FB151129FA03F30EFA02FE07FB05F99C
:1032F00043EA0E0E4FEA1E4343EA0141894508FAAC
:1033000002F808D911EB0C0105F1FF3332D28945DF
:1033100030D9023D6144C9EB0101B1FBF0F300FB80
:10332000131107FB03F71FFA8EFE4EEA014E774595
:1033300008D91EEB0C0E03F1FF3117D2774515D9D2
:10334000023BE64443EA0543A3FB0889C7EB0E0EA4
:10335000CE4509D305D0002216E71046F7E61346FE
:103360000AE794404445F6D2013BF4E70B46E9E70F
:103370001046A1E71D46CEE7014688E7134603E75E
:10338000023B51E702383D443AE700BF2DE9F043E4
:10339000002B44D18A42154604464FD9B2FA82F72F
:1033A0000E464FB1C7F12003B94020FA03F602FAE6
:1033B00007F50E4300FA07F42F0CB6FBF7F01FFADF
:1033C00085FE07FB10620EFB00F1260C46EA024365
:1033D000994209D95B1900F1FF3280F0EE809942E1
:1033E00040F2EB8002382B44591AB1FBF7F307FB8C
:1033F00013110EFB03FEA4B244EA01418E4508D925
:10340000491903F1FF3280F0DA808E4540F2D7800F
:10341000023B43EA004000263146BDE8F0838B4280
:1034200047D8B3FA83F6002E48D18B4202D38242AA
:1034300000F2CF8001203146BDE8F08312B90125AA
:10344000B5FBF2F5B5FA85FCBCF1000F78D1491B4C
:103450002F0C1FFA85FE0126B1FBF7F007FB1011B8
:103460000EFB00F2230C43EA01418A4207D94919B5
:1034700000F1FF3302D28A4200F2BC801846891A5A
:10348000B1FBF7F307FB13110EFB03FEA4B244EAF2
:103490000142964508D9521903F1FF3180F091801D
:1034A000964540F28E80023B43EA00403146BDE83B
:1034B000F083002630463146BDE8F083C6F1200493
:1034C00022FA04F5B3402B4321FA04F74FEA1348DC
:1034D000B7FBF8FC1FFA83F908FB1C7720FA04FEFF
:1034E00001FA06F509FB0CF44EEA05054FEA154E04
:1034F0004EEA0747BC4202FA06F204D9FF180CF163
:10350000FF3168D38C463F1BB7FBF8F408FB1477F8
:1035100009FB04F9ADB245EA0741894504D9C91848
:1035200004F1FF355DD32C4644EA0C44A4FB02238E
:10353000C9EB0101994249D345D0204600266BE7EB
:10354000CCF1200405FA0CF521FA04F32A0CB3FBA4
:10355000F2F61FFA85FE02FB163820FA04F701FA8C
:103560000CF10EFB06F90F433C0C44EA0843994565
:1035700000FA0CF407D95B1906F1FF3138D29945EE
:1035800036D9023E2B44C9EB0303B3FBF2F002FB36
:1035900010330EFB00F1BFB247EA0343994207D94B
:1035A0005B1900F1FF3721D299421FD902382B4411
:1035B0001746591A40EA06464EE7104614E71346E6
:1035C00027E70B4670E7B0409042B6D2601E002657
:1035D00022E7304620E7BC4294D9ACF1020C1F44EC
:1035E00091E789459FD9023C19449DE73846DFE7BA
:1035F0000E46C8E70238294441E700BF08B5074B2B
:10360000044613B10021AFF30080054B1868836AAC
:1036100003B19847204600F03BF800BF00000000CF
:10362000183800000E4B70B51E460E4C0025E41AEB
:10363000A410A54204D056F8253098470135F8E784
:1036400000F028F8084B094C1E46E41AA410002587
:10365000A54204D056F8253098470135F8E770BDEB
:10366000D4000020D4000020D4000020D800002086
:1036700003460244934202D003F8011BFAE7704765
:10368000034613F8012B002AFBD1181A01387047A2
:10369000FEE700BFF8B500BFF8BC08BC9E46704707
:1036A000F8B500BFF8BC08BC9E4670470303000095
:1036B000506C65617365207065742074686520774F
:1036C00061746368646F672C20737461727420691D
:1036D0006E697469616C697A6174696F6E2E2E2EE1
:1036E0000A0D00004D4355207265736574206E6F9E
:1036F000726D616C6C792C20737461727420696EC8
:10370000697469616C697A6174696F6E2E2E2E0A14
:103710000D00000054485255535445520A0D000004
:10372000524F56204E4F542041524D45440A0D00F1
:10373000484541525442454154205245434549561B
:1037400045442C2050455454494E4720574154433A
:1037500048444F470A0D00004E4F545950450A0D3A
:103760000000000000020000000103000000000053
:103770004D435520696E697469616C697A61746939
:103780006F6E2066696E69736865642E2E2E0A0D51
:103790000000000044495341524D494E4720737484
:1037A0006172740A0D00000044495341524D494E64
:1037B000472066696E69736865640A0D0000000041
:1037C00041524D494E472073746172740A0D0000D6
:1037D00041524D494E472066696E69736865640AB7
:1037E0000D0000004E4F2041434B000041434B2150
:1037F00000000000050000000000000000C2010001
:1038000000050000001000000000000001010100A0
:10381000000001010D4300007400002000000000C2
:0838200018C9FF7F0100000040
:1038280000800000006CDC02000001400004014040
:10383800000001400000014000080140000801406C
:1038480000040140000401400202000100010001DF
:103858000000030000000300000003000000030054
:103868000000010000000100000003000000030048
:1038780005040607010002030100000024000000FF
:103888000000000000000000000000000000000030
:1038980040000000000000000000000000000000E0
:1038A8000000000000000000000000000000000010
:1038B80000000000153800000000000000000000B3
:1038C80000000000000000000000000000000000F0
:1038D80000000000000000000000000000000000E0
:1038E80000000000000000000000000000000000D0
:1038F8000000000001010000DD00000000000000E1
:04000003000001AD4B
:00000001FF
