:1000000000000220AD010000D9010000D90100006C
:10001000D9010000D9010000D9010000D901000078
:10002000D9010000D9010000D9010000D901000068
:10003000D9010000D9010000D9010000D901000058
:10004000D9010000D9010000451B0000D9010000C2
:10005000D9010000D9010000D9010000D901000038
:10006000D9010000D9010000D9010000D901000028
:10007000511B00005D1B0000691B00007123000084
:10008000D9010000D9010000D9010000D901000008
:10009000D9010000D9010000D9010000D9010000F8
:1000A000D9010000D901000071210000D901000030
:1000B000D9010000D9010000D9010000D9010000D8
:1000C000D9010000D9010000D9010000D9010000C8
:1000D000D9010000D9010000D901000010B5054C7C
:1000E000237833B9044B13B10448AFF300800123E4
:1000F000237010BD8C0000200000000014280000B8
:10010000084B10B51BB108480849AFF300800848F8
:10011000036803B910BD074B002BFBD0BDE81040AE
:10012000184700BF000000001428000090000020C5
:100130008800002000000000154B002B08BF134B67
:100140009D46A3F5803A00218B460F461348144A7A
:10015000121A02F09FFA0F4B002B00D098470E4B5B
:10016000002B00D098470020002104000D000D480E
:10017000002802D00C48AFF3008002F065FA20009E
:10018000290001F0C1FB02F04BFA00BF000008009B
:100190000000022000000000000000008C00002091
:1001A000C003002000000000000000000648804757
:1001B0000649074A074B9A42BEBF51F8040B42F862
:1001C000040BF8E7FFF7B8FF9D03000020280000AC
:1001D000000000208C000020FEE700BF294AD36AFF
:1001E00003F47053B3F5805F2AD0B3F5005F24D0D9
:1001F000B3F5006F11D0D36803F4E063B3F5007F6B
:100200003DD020D9B3F5806F37D0B3F5A06F32D091
:10021000B3F5407F24D0002301E01B4B1B68194A33
:100220001A4910685268C0F382300130B3FBF0F015
:1002300002F00F03D84008607047154B1B68EEE7CB
:100240004FF40043EBE76BB1B3F5807FE3D1114B83
:10025000114AD86C114BB0F1985F28BF1346DEE706
:100260000F4BDCE70B4B0F4AD86C0F4BB0F1985F8C
:1002700028BF1346D3E70D4BD1E70D4BCFE70D4B0E
:10028000CDE700BF00800C4004000020B402002035
:1002900000000020B081E00F40B56400C0CF6A00CC
:1002A000809FD500804F120040420F00003FAB01FD
:1002B000406F4001C0D8A70000487047006CDC02C6
:1002C000274AD36A03F47053B3F5805F24D0B3F5A3
:1002D000005F1ED0B3F5006F11D0D36803F4E06364
:1002E000B3F5007F39D01AD9B3F5806F33D0B3F5A9
:1002F000A06F2ED0B3F5407F1FD0002001E0194B36
:100300001868174B1B68C3F382330133B0FBF3F05B
:100310007047154B1868F4E74FF40040F1E773B1EC
:10032000B3F5807FE9D1114A114BD06C114AB0F17D
:10033000985F2CBF18461046E3E70F48E1E70B4AE9
:100340000E4BD06C0E4AB0F1985F2CBF1846104689
:10035000D7E70C48D5E70C48D3E70C48D1E700BFF6
:1003600000800C400400002000000020B081E00F5D
:1003700040B56400C0CF6A00809FD500804F120056
:1003800040420F00003FAB01406F4001C0D8A700C2
:10039000014B1868704700BF04000020704700BF81
:1003A0004FF40040704700BF4FF47A70704700BFB1
:1003B000014B1868704700BF0000002008B500F02E
:1003C0000F03013B062B65D8DFE803F025394764AE
:1003D00064550400474BDB6A03F46033B3F5803F98
:1003E00023D0B3F5003F6DD0B3F5004F4AD0424B58
:1003F000984262D0414B984209D13E4B9B6AC3F36D
:100400008103022B17D0032B62D0012B48D1BDE80A
:100410000840FFF7C5BF374BDB6A03F47053B3F5F1
:10042000805F4FD0B3F5005F2CD1334B984244D05E
:10043000324B9842E1D0BDE80840FFF7B9BF2D4AE2
:10044000936A03F00303022BEFD0032B1AD0012B86
:1004500038D0936ADA0315D4C9E7264A936A03F0C1
:100460000C03082BE1D00C2B0CD0042B2AD0936A60
:10047000DB0207D4BBE71F4B1B6813F0805301D08E
:10048000002BB4D01C4B984217D01C4B9842B4D0D0
:10049000002008BD184B98420FD0184B9842ACD0A2
:1004A000154B98421DD0154B9842F1D1114B142099
:1004B0009B6A33FA00F018D108BD0E4B9B6A03F01B
:1004C00003039EE70C4B9842F7D00C4B984294D014
:1004D000FFF784FE0A4B0B4A1B6812680133D840B1
:1004E00008BD044B10209B6AE3E7BDE80840FFF716
:1004F0005BBF00BF00800C4002001A0003001C001C
:1005000078009043A0009043C0F30313013B70B503
:100510000C46062B05D8DFE803F00F0404505BA15E
:10052000050070BDA84B984200F0F58003F5043338
:10053000984200F0D98070BDFFF7BEFE41F67132DF
:10054000A24BDD6BDA635B6803F00703042B06D86C
:10055000012202FA03F313F0130F40F028819C4BA1
:10056000984240F2B980052298494B6823F007036E
:1005700013434B600DB10023CB63964A013C1368D3
:1005800023F4E03343EA84341460FFF727FE41F696
:1005900071328E4BDC6BDA635B6803F00703042B6C
:1005A0007AD8012202FA03F313F0130F74D0884BA8
:1005B000984240F2EF80042272E0B1FA81F4854A59
:1005C000C4F11F04936823F00F031C43946070BDB3
:1005D000FFF772FE41F671327C4BDD6BDA635B68CC
:1005E00003F00703042B06D8012202FA03F313F0E9
:1005F000130F40F0D780764B984265D90522734996
:100600004B6823F0070313434B600DB10023CB630A
:10061000FFF756FE704BB0FBF4F0DB6CC3F30743FF
:100620004A2B00F08E80792B00F08B80684A482B93
:100630000CBF13460023B4FA84F498426749684B10
:1006400094BF00200120634A086018605368C4F119
:100650001F0423F00F031C43546096E7614B98423C
:1006600000F0EF8040F282805F4B984200F0D28031
:100670005E4B984240F0CD80564A536DDB0740F107
:10068000BF80B4FA84F4534AC4F11F04936E23F07C
:1006900003032343936670BD4D4B98420CD905224A
:1006A0004A494B6823F0070313434B60002C3FF487
:1006B00038AF0023CB6370BD4D4B4E4A0344934289
:1006C0008CBF02220322EBE7494B4A4A0344934280
:1006D0008CBF0222032292E7454B464A03449342D1
:1006E0008CBF022203223FE73A4A536DD9070BD54C
:1006F000B4FA84F4374AC4F11F04136F23F03003B3
:1007000043EA0413136770BD136D5B06F0D5136DD8
:100710005B06F9D4ECE72F4A536DDD070AD5B4FA2E
:1007200084F42C4AC4F11F04136F23F00303234302
:10073000136770BD136D5806F1D5136D5806F9D4C3
:10074000EDE72D4D2D4A2B69A969ED6903F03F06B0
:10075000C5F3031343EA062301F0F0011C4D0B43DC
:10076000B3F5017F2CBF13462B4664E7A3F5822324
:1007700098424DD1174A536DD9071DD5B4FA84F468
:10078000144AC4F11F04936E23F0F00343EA0413E8
:10079000936670BD164B174A034493428CBF0022E8
:1007A00001227DE70A4B98426AD9042227E7084BC9
:1007B00098425DD90422D7E6136D5B07DED5136D31
:1007C0005B07F9D4DAE700BF7007160000000C40A1
:1007D0000048E80100800C40B081E00F78009043B1
:1007E000A0009043602614006000260060062A00E6
:1007F000FFDB0BFFFF23F400D0FF0FE000366E019C
:10080000136D5E077FF53DAF136D5E07F8D438E7D3
:1008100070BD70BD1E4A536DD8070BD5B4FA84F471
:100820001B4AC4F11B04936E23F4405343EA043380
:10083000936670BD136D5907F0D5136D5907F9D440
:10084000ECE7134A536DDE070BD5B4FA84F4104A73
:10085000C4F11F04936E23F4706343EA0423936688
:1008600070BD136D5D07F0D5136D5D07F9D4ECE72E
:10087000084B094A034493428CBF0022012273E6CD
:10088000044B054A034493428CBF00220122B6E682
:1008900000800C40FFDB0BFFFF23F40000F00F0093
:1008A0000138062852D8DFE800F0142435515146AB
:1008B00004002B4BDB6A03F46033B3F5803F49D06F
:1008C000B3F5003F44D0B3F5004F0CBF0820012022
:1008D0007047234BDB6A03F47053B3F5805F37D066
:1008E000B3F5005F36D0B3F5006F0CBF04200520D0
:1008F00070471B4B986A00F00300022829D0032898
:100900002AD0012824D09B6A13F4803F0CBF012019
:1009100009207047124A936A03F00C03082B19D080
:100920000C2B19D0042B13D0936A13F4801F0CBF27
:100930000120092070470A4B1B6813F080530DD02B
:10094000B3F1805F0CBF0820012070470020704782
:100950000320704702207047062070470720704729
:1009600000800C4000F47810B0F5B01F08B500F01E
:1009700093800ED8B0F5402F7ED021D8B0F5003F3F
:1009800076D0B0F5802F00F0B08000287BD000201A
:1009900008BDB0F5081F00F09A8039D8B0F5D01F17
:1009A00061D0B0F5E01F72D0B0F5C01FEFD1644840
:1009B000FFF704FD634B1B6FC3F30113D84008BD61
:1009C000B0F5801F37D0B0F5A01F6ED0B0F5602F06
:1009D000DDD15C4B5B6903F4E063B3F5007F00F0AD
:1009E0009E8040F28A80B3F5C06F00F0A280B3F51C
:1009F000E06F00F0A080B3F5407FC8D1524A534B5E
:100A0000D06C534AB0F1985F34BF1846104608BD09
:100A1000B0F5201F18D0B0F5281F4FD0B0F5181F23
:100A2000B5D14C48FFF7CAFC464B9B6EC3F301336C
:100A30000433D84008BD4748FFF7C0FC414B9B6ECC
:100A4000C3F30313D84008BD4248FFF7B7FC3D4B42
:100A50009A6EDB6FC2F3013203F00703D04001331B
:100A6000B0FBF3F008BD3B48BDE80840FFF7A6BC6B
:100A7000BDE80840FFF7B2BB324A136813F0805359
:100A800046D0002B83D0BDE80840FFF719BC2C48A6
:100A9000BDE80840FFF792BC2948FFF78FFC294BBF
:100AA0001B6F03F00303D84008BD2A48FFF786FCFC
:100AB000244B9B6EC3F30323D84008BD2548FFF7A2
:100AC0007DFC204B9B6E03F00303D84008BD2248F9
:100AD000FFF7E4FE032817D00828D4D002287FF4BB
:100AE00056AFBDE80840FFF763BCFFF7E9FB154BC5
:100AF0009B6803F00F03D84008BDF3B1B3F5807FC6
:100B00007FF445AF154808BDBDE80840FFF748BC75
:100B1000536903F4E063B3F5007F7FF462AF0A4AE0
:100B20000F4BD06C0F4AB0F1985F34BF1846104697
:100B300008BD0D4808BD0D4808BD0D4808BD00BFE3
:100B400003001C0000800C40B081E00F40420F0009
:100B5000804F120002001A0007232200C0D8A7000D
:100B6000C0CF6A0040B56400003FAB01406F400158
:100B7000809FD500F0B5C0F30323013B83B004464A
:100B8000092B0CD8DFE803F01C1E200B0B0D190BF2
:100B90000B05254DC4F304342C44A400216003B09C
:100BA000F0BD224D0120224AC4F30434536DDB070B
:100BB000F2D4136D1842FCD1EEE71E4D1020F2E77F
:100BC0001D4DE7E71D4DE5E70191FFF707FB1C4BC6
:100BD0000199DA6CC2F307424A2A0FD0792A0DD064
:100BE000482A184B18BF00239842174A174B94BF46
:100BF000002001201060164D1860CBE7154E164AF4
:100C00003369B569F66903F03F07C6F3031343EA96
:100C1000072305F0F0050B4E2B43B3F5017F2CBFE6
:100C200013463346E0E700BFC003E410C002E410FF
:100C300000800C400003E4104000E4102002E410A7
:100C4000B081E00F0048E80178009043A000904395
:100C50000002E410D0FF0FE000366E0138B500F05E
:100C60000F04631E062B6AD8DFE803F0927A7A69D4
:100C700069756E00AA4A03244021AA4B19621368C1
:100C8000002BFCD0FFF718FB41F67132A64BDD6B51
:100C9000DA635B6803F00703042B06D8012202FA2B
:100CA00003F313F0130F40F05781A04B984240F22A
:100CB000B08005229C494B6823F0070313434B6027
:100CC0000DB10023CB63974B99485C62FFF74AFE56
:100CD000984BDB6CC3F307434A2B00F0A280792BBF
:100CE00000F09F80914A482B0CBF13460023984286
:100CF000914A924B94BF0020012010601860FFF7CA
:100D00006DFA41F67132884BDC6BDA635B6803F095
:100D10000703042B06D8012202FA03F313F0130F82
:100D200040F0F980814B98426BD905227E494B688F
:100D300023F0070313434B600CB10023CB637E4ABF
:100D40007E4B12681B6838BD032935D008297DD039
:100D5000022940D038BD072928D008294BD038BDFA
:100D600001390829F6D801A353F821F0630F0000D8
:100D70007F0F0000D70F0000550D0000550D00003B
:100D8000970F0000550D0000550D0000ED0F0000FD
:100D900002390329DED801A353F821F0C30E000065
:100DA000750C00005D0E0000CD0E00005D4A13685A
:100DB00023F080531360C2E75A4B4021584A19620E
:100DC0001368002BFCD0574B60211A465962D36A36
:100DD0009903FCD5B3E7534B4FF48071584A19621D
:100DE0001368002BFCD04F4B40211A465962D36A3E
:100DF000D803FCD5A3E74B4A136843F08053136034
:100E00009DE7504B504A034493428CBF0222032279
:100E10008CE74C4B4C4A034493428CBF0222032282
:100E200048E74A4C4A4A2369A169E46903F03F054F
:100E3000C4F3031343EA052301F0F0013B4C0B43D9
:100E4000B3F5017F2CBF1346234650E7354B2021D5
:100E50001A465962D36A1B04FCD570E7354BDB6C2C
:100E6000C3F307434A2B00F0F680792B00F0F380A0
:100E7000482B00F0ED80002318462E4AD26CC2F3B6
:100E800007424A2A00F0D280792A00F0CF80482A0F
:100E900018BF01232849294A0B601360FFF778FA2D
:100EA000204A224B0224984213684FF0040196BF57
:100EB00023F0600343F0600343F020031360254AEE
:100EC000DBE61F4A04244FF48071D6E6194BDB6C35
:100ED000C3F307434A2B00F0E780792B00F0E4804E
:100EE000482B00F0DE8000231846124AD26CC2F371
:100EF00007424A2A00F0C380792A00F0C080482ABD
:100F000018BF01230C490D4A01240B6013602146D0
:100F100002F2E442B1E6054B98427FD9042205E78C
:100F20009C05904300800C4000000C400048E80104
:100F300000430200B081E00F78009043A00090438E
:100F4000A4059043FFDB0BFFFF23F400D0FF0FE06D
:100F500000366E018C059043684B984256D90422A6
:100F6000A8E600252B462946022C45D064498A6A0A
:100F700022F4801323F00C032B438B62DFE6604BDB
:100F80004FF480715F4A19621368002BFCD008256A
:100F900000230221E8E7FFF721F95B4BDB6CC3F389
:100FA00007434A2B00F09480792B00F09180534A3C
:100FB000482B0CBF134600239842544D544B554ABE
:100FC00094BF002001200121286018600C251160C9
:100FD00000230321C8E74A4B40214F4A1962136896
:100FE000002BFCD0042500230121BDE74FF4801520
:100FF0004FF480330021B7E741481943826A22F455
:10100000803323F003030B43836298E6434B444A47
:10101000034493428CBF002201224BE63F4B404ADF
:10102000034493428CBF002201227FE63D490C69B4
:101030008A69C96904F03F04C1F3031141EA04213C
:1010400002F0F0020A43B2F5017F28BF034621E710
:101050000123184611E7334A012011699369D269C7
:1010600001F03F01C2F3031242EA012203F0F00350
:101070001343B3F5017F2CBF00230123FDE629496B
:101080000C698A69C96904F03F04C1F3031141EA9C
:10109000042102F0F0020A43B2F5017F28BF0346A3
:1010A00030E70123184620E71E4A012011699369A1
:1010B000D26901F03F01C2F3031242EA012203F0B8
:1010C000F0031343B3F5017F2CBF002301230CE78A
:1010D000144B154A1D699969DB6905F03F05C3F397
:1010E000031343EA052301F0F001044D0B43B3F56C
:1010F000017F2CBF13462B465EE700BF0048E80186
:1011000000800C40A4059043B081E00F780090432C
:10111000A0009043100890439C059043FFDB0BFF19
:10112000FF23F400D0FF0FE000366E0110B4042856
:1011300006D8DFE800F0231B17081F00124A1362CD
:101140005DF8044B70471148022301240029F5D0B3
:101150000D4B1C62002AF3D00368002BFCD05DF815
:10116000044B70470A4808230424EFE7094880230A
:101170004024EBE7084820231024E7E707484FF412
:1011800000734FF48074E1E700800C4084059043C5
:101190008C0590439C05904394059043A40590438F
:1011A000F0B5C40052B1002B38D02518AD0005F1C0
:1011B0008045012605F5C0458E402E612518AD00FD
:1011C000072905F1804517D805F5C0456F684FEA36
:1011D000810E0F2606FA0EF627EA060702FA0EF629
:1011E0003E436E603AB9204403BB154B8000012298
:1011F00003448A405A60F0BD01F1804605F5C045C0
:10120000083EAF68B6004FF00F0E0EFA06FE27EA52
:101210000E0702FA06F63E43AE60E3E72718084DD4
:10122000BF0001263D448E406E60C7E7800000F19C
:101230008040012300F5C0408B400361F0BD00BF3A
:101240001060004029B1012902D1143002607047BA
:10125000704710300260704711B902234360704735
:1012600001234360704700BF70B40D7825B98368CF
:10127000DA0744BF022343604B788E78002BCA788C
:101280000BBF4FF480634FF4A05300244FF48054FD
:10129000002E08BF23460AB143F400630A790AB15D
:1012A00043F400734A790AB143F480738A790AB12E
:1012B00043F04003CA790AB143F080034C7A0A7ABA
:1012C0002401897A44EA82020A431343036025B168
:1012D0008368DB075CBF0123436070BC704700BFBD
:1012E0000B4B01220B499A608B6813400BD010B452
:1012F0004AF6E854084800238C6002605DF8044B0D
:1013000003608B60704704490A600B60704700BF40
:1013100000A00C4000600C4080048C433B4B5B6899
:1013200003F001029907104604D513F0810F08BF9E
:1013300042F00200590704D513F0910F08BF40F0A6
:101340000400190701D5002A5CD0D90603D59907F6
:1013500008BF40F01000990604D54EF6DF71194021
:1013600000294CD0590604D54EF69F71194000292A
:1013700042D0190604D540F219711940002938D01D
:10138000D90503D540F21961194079B3990503D500
:1013900040F21F41194031B3590503D540F21F21D6
:1013A0001940E9B1190500D5BAB1D90400D58AB1FF
:1013B000990400D55AB1590400D52AB11B0402D5AD
:1013C0000AB940F40040704740F48040F6E740F42A
:1013D0000050F0E740F48050EAE740F40060E4E7B2
:1013E00040F48060DEE740F40070D5E740F48070A0
:1013F000CCE740F08000C3E740F04000B9E740F0A0
:101400002000AFE740F008009FE700BF00A00C40BD
:101410000B4A5169136901F00F01C3F3811343EAC9
:1014200081038370136903F03F0343709169D369AB
:1014300001F0F002C3F3031313430370704700BFBE
:10144000D0FF0FE02DE9F04791F80090B9F1000FBF
:1014500001D1022343604B784C7A8A7A002B18BF63
:101460004FF0400ACB7A08BF4FF0000A002C18BF9B
:101470004FF080080C7908BF4FF00008002A18BF11
:101480004FF0200C4A7908BF4FF0000C002B18BF1A
:101490004FF0100E0B7B08BF4FF0000E002C14BF56
:1014A0004FF400570027002ACA7814BF4FF0805627
:1014B0000026002B8B780C7A4FEA024242EA036244
:1014C0008B7942EA0402C97942EA832242EA012383
:1014D00043EA0A0343EA080848EA0C0C4CEA0E0EF9
:1014E0004EEA070714BF082500253E433543002375
:1014F00043620560B9F1000F01D001234360BDE8EC
:10150000F08700BFD3792DE9F041157A002B547A8A
:1015100014BF4FF400184FF00008002D557814BF89
:101520004FF4801C4FF0000C002C147896794FEA91
:101530000565937A45EA8465947845EA0605D67888
:1015400014BF4FF0100E4FF0000E45EA0444002B7C
:101550001379557944EA063444EA832242EA0523A2
:1015600043EA080343EA0C0C14BF042700270331A5
:101570004CEA0E0E09014EEA07074750BDE8F0811C
:1015800070B44CF6806140F273754FF6FF7400231F
:1015900002260F2246600360C36085610362C46156
:1015A000436270BC03634363C36303644364C36403
:1015B00003654365C365C0F88810036743678367A5
:1015C000C367C0F884207047CB4303F005035B007A
:1015D000C360C160704700BFF8B5044640F6AA6713
:1015E00041F2050641F6F9702D4A00239442E76066
:1015F0000D4623606660A3606361E364A064636575
:101600004AD0284AA365944243D0274B9C4240D0FD
:10161000AB7C1BB1236843F080432360EB7C1BB1A0
:101620002B7D43F01003A365298A6B7BEA890B436A
:10163000686813436360AE682F7B18B3202F26D0F1
:101640001CD9402F18D0602F13D1042306FB03F3BD
:10165000800000EB5300B0FBF3F32268043B22F060
:10166000600222602168114A9B011A400F432760E3
:1016700062612B78E360F8BD0623E7E7002FF8D11D
:101680001023E3E70A48FFF76DF9202FD8D108238C
:10169000DCE70023E365BBE72365A365B8E700BF8C
:1016A00000C0004000C4004000C80040C0FF1F0050
:1016B0004081040030B441F6F97140F6AA6541F268
:1016C00005040E4A00239042C560036044608360B5
:1016D0004361C364816443650CD0094A83659042C9
:1016E00004D0084B984201D030BC70470023C3653A
:1016F00030BC7047036530BC8365704700C0004054
:1017000000C4004000C8004003695B06FCD541638B
:10171000704700BF0368DB0610D451B900F10472B2
:101720005201136853B1836813F00103FBD11360B6
:10173000704700F10470400101230360704700BF4F
:101740000368D90707D583689A0704D48368DB0741
:10175000FCD40123436070474A780B780AB143F008
:1017600002038A780AB143F00403CA780AB143F04D
:1017700008030A790AB143F020034A790AB143F019
:1017800040038A790AB143F01003CA79097A120337
:1017900042EA01221A438368DB07FCD402607047E7
:1017A0008368DB07FCD4400100F18440012303611E
:1017B000704700BF2DE9F0434E4F3C78ACB1002894
:1017C00000F0938071B14C4D4418002110F8013B9A
:1017D000C1F30F224B40DBB235F81310A04281EA6F
:1017E0000201F3D10846BDE8F083444E444DDFF8D2
:1017F00014E1A3B203F00109B9F1000F14BFAC4624
:101800004FF0000C4FEA530383EA0C0C15BF4FF462
:10181000F0484FF4A0484FF4205200221CF0010C75
:1018200008BF9046B9F1000F15BFF146A9464FF425
:10183000A0420022BCF1000F14BFCC4694465B08C6
:1018400083EA0C0C88F420421CF0010F82F00102A4
:1018500018BF90465B084FEA580C8CF4204283EA8C
:10186000080818F0010F82F0010218BF94465B08C7
:101870004FEA5C0888F4204283EA0C0C1CF0010F4C
:1018800082F0010218BF90465B084FEA580C8CF4B6
:10189000204283EA080818F0010F82F0010218BF05
:1018A00094465B084FEA5C0883EA0C0C1CF0010FBD
:1018B00088F4204282F0010208BF42464FEA520CEF
:1018C00082EA53028CF4204312F0010F83F00103EB
:1018D00018BF9C460134B4F5807F26F802CF88D12A
:1018E00001233B7000287FF46DAF01460846BDE838
:1018F000F08300BFA8020020A8000020A60000205E
:1019000001A0FFFF01F0FFFF30B5594B95B0DC6C33
:1019100007A8FFF77DFDB4F1805F0AD39DF81C3066
:10192000022B06D9534A136823F0500343F01003E7
:10193000136000F077FD00F01DF900F047FE00F0A5
:10194000CFFC04200C2105220023FFF729FC0023F3
:101950000D2105220420FFF723FCFFF7DFFC0446DE
:10196000FFF7BEFC002314F0100F0F931093119398
:101970001293ADF84C3007AC70D03F4D0FCD0FC473
:101980000FCD0FC40FCD0FC42B6824F8023B1B0CE6
:10199000237007A800F086FEC1B207A800F006FE7B
:1019A0000023019302930393049305938DF8183059
:1019B00000F0E2FA01A800F0A7FD0428FAD101A87E
:1019C00000F03CFC38BB9DF80630462B07D0472B77
:1019D0001ED0432B06D0452000F040FCEAE700F083
:1019E00073FBE7E7254D07AC0FCD0FC40FCD0FC438
:1019F00095E8030044F8040B24F8021B0B0C07A81D
:101A00002621237000F0D2FD1D48FFF799FED1E793
:101A100000F008FBCEE7442000F020FC9DF80630E3
:101A2000413B062BC6D801A252F823F0531A0000FE
:101A3000491A0000E5190000B5190000B5190000A9
:101A4000DF190000111A00000DF1070000F092FAF2
:101A5000B0E70DF1070000F075F9ABE7094D0FCDC8
:101A60000FC40FCD0FC495E80F0007C4238090E783
:101A7000B081E00FC0800C40D02600003427000069
:101A80000080084004270000F0B589B00E460546E6
:101A9000FFF776FD28480221FEF736FD01210A46B0
:101AA0000320FFF743FB24480521FFF7D7F8234A1B
:101AB00001AB10685168178903C3927A00241F8014
:101AC0009A702146284601AA0134FFF71BFD032C1A
:101AD000F7D1AB6A002443F001033343AB62AB6A36
:101AE000012243F002033343AB62AB6A124843F076
:101AF00004031E43AE62049405948DF810208DF803
:101B0000112006948DF81C40FEF72CFF03460C4A6A
:101B10002046A2FB03235B09EB6100F0F9F8E863C0
:101B2000E864E865EB68284643F00103EB6004A92C
:101B3000FFF788FC09B0F0BD408104005C2700007D
:101B4000D34D6210014B01229A61704700000140A1
:101B5000014B01229A61704700040140014B0122B0
:101B60009A61704700080140014B01229A61704759
:101B7000000C0140F0B5594889B00121FEF7FAFF89
:101B800057480121FEF7F6FF56480121FEF7F2FF04
:101B900055480121FEF7EEFF54480121FEF7EAFF08
:101BA0000320012104220023FFF7FAFA0320022177
:101BB00004220023FFF7F4FA032001460422002345
:101BC000FFF7EEFA0120072104220023FFF7E8FACD
:101BD0000120082104220023FFF7E2FA01200B2153
:101BE00004220023FFF7DCFA002003460C21042224
:101BF000FFF7D6FA002003460D210422FFF7D0FAA2
:101C0000002003460E210422FFF7CAFA0420002315
:101C100002460E21FFF7C4FA35484FF44031354CE7
:101C2000FFF732FF34484FF44031FFF72DFF334DBB
:101C30004FF480313248FFF727FF2046FFF7A0FC22
:101C400028460221FEF760FC01210A460320FFF727
:101C50006DFA28460521FFF701F82A4A01AB106802
:101C60005168178903C3967A0021204601AA1F8074
:101C70009E70FFF747FCA36A012243F00103A362B1
:101C8000284600230493059306938DF81C308DF8A5
:101C900010208DF81120FEF765FE03461A4A40F227
:101CA000DC50A2FB03235B09E36100F031F8E06341
:101CB000E368204643F00103E36004A9FFF7C2FB99
:101CC000124B04244FF480504FF400514FF48042E3
:101CD0001C60186019601A6009B0F0BD00D20400E1
:101CE000005204000062040000720400008204003C
:101CF00000000140000C014000040140408104004C
:101D0000000801405C270000D34D621000E100E0B4
:101D1000A0F24C43B3F5487F01D90020704710B5BD
:101D200004460648FEF71EFE054BA3FB00204009B3
:101D300004FB00F0A3FB0030C00910BD408104008B
:101D4000D34D62102DE9F04F437890F804A0047849
:101D5000467987B043EA042490F802B0C77890F837
:101D60000690C57990F80880417A90F80AC0C27A46
:101D700090F80CE0437B46EA0A2690F80EA0C07B60
:101D80000194A4F24C4447EA0B2745EA092541EAAD
:101D9000082142EA0C2243EA0E2340EA0A20B4F565
:101DA000487FADF80A70ADF80C60ADF80E50ADF894
:101DB0001010ADF81220ADF81430ADF8160059D956
:101DC0000023BDF80E406649A4F24C42B2F5487FAC
:101DD000CB6340F2B8800023BDF812406149A4F201
:101DE0004C42B2F5487FCB6340F2A0800023BDF89F
:101DF0000A405D49A4F24C42B2F5487FCB6340F201
:101E000088800023BDF810405549A4F24C42B2F539
:101E1000487FCB6470D90023BDF814405149A4F227
:101E20004C42B2F5487FCB6459D90023BDF80C4031
:101E30004D49A4F24C42B2F5487FCB6442D900230D
:101E4000BDF812404649A4F24C42B2F5487FCB653A
:101E50002BD90023BDF816404249A4F24C42B2F5FA
:101E6000487FCB6514D900233F4A0120D36507B0D2
:101E7000BDE8F08F3D48FEF775FD3D4B019CA3FB8F
:101E80000012520904FB02F4A3FB0423DB0998E7C8
:101E90003648FEF767FD364BA3FB0012520904FBE0
:101EA00002F4A3FB0423DB09DEE73048FEF75AFD0A
:101EB0002F4BA3FB0012520904FB02F4A3FB0423E3
:101EC000DB09C7E72948FEF74DFD294BA3FB0012AC
:101ED000520904FB02F4A3FB0423DB09B0E7234807
:101EE000FEF740FD224BA3FB0012520904FB02F453
:101EF000A3FB0423DB0999E71C48FEF733FD1C4BC9
:101F0000A3FB0012520904FB02F4A3FB0423DB0928
:101F100082E71648FEF726FD154BA3FB0012520977
:101F200004FB02F4A3FB0423DB096BE70F48FEF775
:101F300019FD0F4BA3FB0012520904FB02F4A3FB93
:101F40000423DB0953E70948FEF70CFD084BA3FB0C
:101F50000012520904FB02F4A3FB0423DB093BE754
:101F600000000140000401400008014040810400DD
:101F7000D34D621001207047F0B5234A234C24480A
:101F80002449002393B04FF080664FF4004516605B
:101F9000C2F8805023700193029303930493059336
:101FA00006930793089309930A930B930C930D934D
:101FB0000E930F931093ADF8443003700B7001A88B
:101FC000FFF7C0FE1448FFF7BBFB2378002BF6D0C9
:101FD000124E134D05AC4FF480534FF40057C6F822
:101FE000A030C6F8A0700FCD0FC40FCD0FC42B6862
:101FF00005A82370202100F0D9FA034B4FF40042CA
:102000001A6013B0F0BD00BF00E100E0B102002093
:10201000B2020020B00200200080084000600040B2
:1020200068270000F0B5224F93B0224D00244FF4F2
:1020300000434FF0806E05AEC7F88030C7F800E06F
:102040000FCD09940A940B940C940FC62B681A4D6B
:1020500005A811210D940E9433800F941094ADF8BF
:102060004440019402940394049400F09FFA2B7866
:1020700043B901A8FFF766FE1048FFF761FB2B7814
:10208000002BF6D00E4D05AC0FCD0FC495E8030024
:1020900044F8040B217005A8142100F087FA0949BF
:1020A000034B00204FF4004208701A6013B0F0BDDB
:1020B00000E100E08C270000B20200200080084010
:1020C000A0270000B0020020F0B5224B93B0224CB4
:1020D00000254FF4004205AE4FF08067C4F8802021
:1020E00027600FCB089509950A9507C61B4C1A0C5B
:1020F0000B9505A826F8023B0E210C950D95327024
:102100000E950F951095ADF8445000F04FFA144B12
:102110002278019302930393049342B901A8FFF735
:1021200011FE1048FFF70CFB2378002BF6D00E4D64
:1021300005AC0FCD0FC42B6805A82380112100F03A
:1021400035FA0A49044B00204FF4004208701A6027
:1021500013B0F0BDB827000000E100E0B00200209D
:1021600005DC05DC00800840C8270000B202002022
:10217000294A30B41378002B47D0284B1B8840F6EF
:10218000B7318B4206D9264B01204FF08061107089
:10219000C3F88010234A1378002B30D0224B1B88C1
:1021A000B3F5FA6F06D31E4B01204FF0806110701B
:1021B000C3F880101D4A1378DBB11D4B1B88B3F5A3
:1021C000FA6F06D3164B01204FF080611070C3F8F0
:1021D0008010184A184B0425FA244FF480504FF40D
:1021E00000519562D460C3F8A80030BCC3F8A810B1
:1021F00070470F490B88FA339BB20B80DFE70A491F
:102200000B88FA339BB20B80CAE704490B88FA3378
:102210009BB20B80B3E700BFB1020020AA020020EE
:1022200000E100E0B0020020AC020020B202002079
:10223000AE020020002008400060004010B50446B7
:1022400010210330FFF7B6FAE27C237D43EA022334
:10225000C01AB0FA80F0400910BD00BF442838B55C
:10226000034628D045281BD0174C002363702178E3
:102270001648FFF749FA61781448FFF745FA144801
:1022800000F010FAC1B2124800F090F9217D0F4819
:10229000FFF73AFABDE838400E48022100F086B94F
:1022A0000D4A094C106895889179C4F80200637052
:1022B000E5802172DBE7094A034C10681279C4F803
:1022C0000200A2716370D2E70800002000C4004041
:1022D0000A00002000270000DC270000E42700009F
:1022E00070B5012484B0002621461C480196029650
:1022F0008DF80E608DF805408DF808408DF80C4083
:102300008DF80D40FEF736FC224621460520FEF7EB
:102310000DFF134D13480921FEF7A0FC214612487A
:10232000FEF728FCFA2231462846FEF78BFF2846A6
:1023300001A9FEF799FF21462846FEF78DFF1F23CE
:10234000AB62EB6A094A4FF0806143F00403EB6231
:10235000C2F88011C2F8801004B070BD00430200C2
:102360000020084002001A006026140000E100E08E
:102370002A4A13691B0620D5294B93F80111D0690D
:10238000CAB2C1B2995493F80121D2B29A5C242AFC
:1023900036D093F801212249D2B29A5C402A22D049
:1023A00093F804111E4A49B993F801211B490132DF
:1023B000D2B2042083F801218864704792F80101A9
:1023C00092F802118842EFD292F8011192F80201BC
:1023D00001F58071091A1529E6DD002182F8041142
:1023E00082F80511E0E791F80421002AD8D00122F3
:1023F00081F8052191F80121D2B281F80321CFE7BC
:1024000093F80421002AC4D1012283F8042193F80F
:102410000121D2B283F80221BBE700BF00C4004013
:10242000B8020020F0B587B06C46324E0527304622
:10243000FFF740F911200221FEF766F801210A4654
:102440000320FEF773FE39461120FEF707FC2A48E9
:102450000121FEF78FFB29480121FEF78BFB284D58
:102460000320072104220123FEF79AFE0320062100
:1024700001220023FEF794FE0FCD0FC495E8030060
:10248000002384E803004FF48052304669464FF43D
:10249000E1348DF8003001938DF80C30ADF80E303A
:1024A0008DF812308DF813308DF814300294ADF899
:1024B00010208DF80D70FFF78FF841F6FF7340F292
:1024C000032EB364F26C0F4B42F004024FF400454C
:1024D0004FF48034F2643946C3F880513046C3F873
:1024E00080411D601C60C6F854E0FFF76DF807B02E
:1024F000F0BD00BF00C400400012040000D2040080
:10250000EC27000000E100E0274A92F804317BB399
:1025100092F8053163B3F0B492F8021192F80351C6
:10252000C9B2EDB2A94237D024D9064601356B1A9B
:1025300006F8013B34460B46C1F580770137074466
:10254000D05C013304F8010BBC42F9D1C1F58071B4
:102550000E440023D15C0133AB4206F8011BF9D1D4
:10256000002382F80431042082F80531F0BC704762
:1025700005207047034605F10104A4EB010403F8AC
:10258000014BEDDC02356C1A2044545C013103F838
:10259000014B8342F9D1E3E7002382F8043105209F
:1025A00082F80531F0BC7047B802002051B138B54F
:1025B0000446451814F8011B0348FFF7A5F8AC4280
:1025C000F8D138BD704700BF00C4004010B51148B5
:1025D00084B00121FEF7CEFA012001460246FEF743
:1025E000A5FD0D4A01AB106851680C4C03C3127A6B
:1025F000204601A91A70FFF7AFF801212046FFF726
:1026000089F82046FFF7CCF82046FFF799F804B088
:1026100010BD00BF004302000428000000800840F5
:1026200008B5074B044613B10021AFF30080054BFA
:102630001868836A03B19847204600F03BF800BF52
:1026400000000000102800000E4B70B51E460E4C16
:102650000025E41AA410A54204D056F82530984766
:102660000135F8E700F028F8084B094C1E46E41A3B
:10267000A4100025A54204D056F82530984701350E
:10268000F8E770BD8000002080000020800000205E
:102690008400002003460244934202D003F8011B49
:1026A000FAE77047034613F8012B002AFBD1181AEA
:1026B00001387047FEE700BFF8B500BFF8BC08BCA2
:1026C0009E467047F8B500BFF8BC08BC9E467047F0
:1026D000506C65617365207065742074686520773F
:1026E00061746368646F672C20737461727420690D
:1026F0006E697469616C697A6174696F6E2E2E2ED1
:102700000A0D00004D4355207265736574206E6F8D
:10271000726D616C6C792C20737461727420696EB7
:10272000697469616C697A6174696F6E2E2E2E0A04
:102730000D00000048454152544245415420524545
:102740004345495645442C2050455454494E472052
:102750005741544348444F470A0D0000000200000F
:1027600000010300000000004D435520696E6974AC
:1027700069616C697A6174696F6E2066696E6973EC
:102780006865642E2E2E0A0D000000004449534156
:10279000524D494E472073746172740A0D00000057
:1027A00044495341524D494E472066696E697368EA
:1027B00065640A0D0000000041524D494E472073E8
:1027C000746172740A0D000041524D494E472066F3
:1027D000696E69736865640A0D0000004E4F204100
:1027E000434B000041434B21000000000500000066
:1027F0000000000000C20100000500000010000001
:102800000000000001010100000001010D43000073
:08281000200000200000000080
:0828180020D9FF7F0100000040
:1028200000800000006CDC022400000000000000BA
:102830000000000000000000000000004000000058
:102840000000000000000000000000000000000088
:102850000000000000000000000000000000000078
:102860000D28000000000000000000000000000033
:102870000000000000000000000000000000000058
:102880000000000000000000000000000000000048
:102890000000000000000000000000000000000038
:0C28A00001010000DD000000000000004D
:04000003000001AD4B
:00000001FF
