:1000000000000220AD010000D9010000D90100006C
:10001000D9010000D9010000D9010000D901000078
:10002000D9010000D9010000D9010000D901000068
:10003000D9010000D9010000D9010000D901000058
:10004000D9010000D9010000591C0000D9010000AD
:10005000D9010000D9010000D9010000D901000038
:10006000D9010000D9010000D9010000D901000028
:10007000651C0000711C00007D1C0000A11F000019
:10008000D9010000D9010000D9010000D901000008
:10009000D9010000D9010000D9010000D9010000F8
:1000A000D9010000D9010000591B0000D90100004E
:1000B000D9010000D9010000D9010000D9010000D8
:1000C000D9010000D9010000D9010000D9010000C8
:1000D000D9010000D9010000D901000010B5054C7C
:1000E000237833B9044B13B10448AFF300800123E4
:1000F000237010BD8C000020000000008427000049
:10010000084B10B51BB108480849AFF300800848F8
:10011000036803B910BD074B002BFBD0BDE81040AE
:10012000184700BF00000000842700009000002056
:100130008800002000000000154B002B08BF134B67
:100140009D46A3F5803A00218B460F461348144A7A
:10015000121A02F07DFA0F4B002B00D098470E4B7D
:10016000002B00D098470020002104000D000D480E
:10017000002802D00C48AFF3008002F043FA2000C0
:10018000290001F023FC02F029FA00BF000008005A
:100190000000022000000000000000008C00002091
:1001A000F802002000000000000000000648804720
:1001B0000649074A074B9A42BEBF51F8040B42F862
:1001C000040BF8E7FFF7B8FF9D030000902700003D
:1001D000000000208C000020FEE700BF294AD36AFF
:1001E00003F47053B3F5805F2AD0B3F5005F24D0D9
:1001F000B3F5006F11D0D36803F4E063B3F5007F6B
:100200003DD020D9B3F5806F37D0B3F5A06F32D091
:10021000B3F5407F24D0002301E01B4B1B68194A33
:100220001A4910685268C0F382300130B3FBF0F015
:1002300002F00F03D84008607047154B1B68EEE7CB
:100240004FF40043EBE76BB1B3F5807FE3D1114B83
:10025000114AD86C114BB0F1985F28BF1346DEE706
:100260000F4BDCE70B4B0F4AD86C0F4BB0F1985F8C
:1002700028BF1346D3E70D4BD1E70D4BCFE70D4B0E
:10028000CDE700BF00800C4004000020AC0200203D
:1002900000000020B081E00F40B56400C0CF6A00CC
:1002A000809FD500804F120040420F00003FAB01FD
:1002B000406F4001C0D8A70000487047006CDC02C6
:1002C000274AD36A03F47053B3F5805F24D0B3F5A3
:1002D000005F1ED0B3F5006F11D0D36803F4E06364
:1002E000B3F5007F39D01AD9B3F5806F33D0B3F5A9
:1002F000A06F2ED0B3F5407F1FD0002001E0194B36
:100300001868174B1B68C3F382330133B0FBF3F05B
:100310007047154B1868F4E74FF40040F1E773B1EC
:10032000B3F5807FE9D1114A114BD06C114AB0F17D
:10033000985F2CBF18461046E3E70F48E1E70B4AE9
:100340000E4BD06C0E4AB0F1985F2CBF1846104689
:10035000D7E70C48D5E70C48D3E70C48D1E700BFF6
:1003600000800C400400002000000020B081E00F5D
:1003700040B56400C0CF6A00809FD500804F120056
:1003800040420F00003FAB01406F4001C0D8A700C2
:10039000014B1868704700BF04000020704700BF81
:1003A0004FF40040704700BF4FF47A70704700BFB1
:1003B000014B1868704700BF0000002008B500F02E
:1003C0000F03013B062B65D8DFE803F025394764AE
:1003D00064550400474BDB6A03F46033B3F5803F98
:1003E00023D0B3F5003F6DD0B3F5004F4AD0424B58
:1003F000984262D0414B984209D13E4B9B6AC3F36D
:100400008103022B17D0032B62D0012B48D1BDE80A
:100410000840FFF7C5BF374BDB6A03F47053B3F5F1
:10042000805F4FD0B3F5005F2CD1334B984244D05E
:10043000324B9842E1D0BDE80840FFF7B9BF2D4AE2
:10044000936A03F00303022BEFD0032B1AD0012B86
:1004500038D0936ADA0315D4C9E7264A936A03F0C1
:100460000C03082BE1D00C2B0CD0042B2AD0936A60
:10047000DB0207D4BBE71F4B1B6813F0805301D08E
:10048000002BB4D01C4B984217D01C4B9842B4D0D0
:10049000002008BD184B98420FD0184B9842ACD0A2
:1004A000154B98421DD0154B9842F1D1114B142099
:1004B0009B6A33FA00F018D108BD0E4B9B6A03F01B
:1004C00003039EE70C4B9842F7D00C4B984294D014
:1004D000FFF784FE0A4B0B4A1B6812680133D840B1
:1004E00008BD044B10209B6AE3E7BDE80840FFF716
:1004F0005BBF00BF00800C4002001A0003001C001C
:1005000078009043A0009043C0F30313013B70B503
:100510000C46062B05D8DFE803F00F0404505BA15E
:10052000050070BDA84B984200F0F58003F5043338
:10053000984200F0D98070BDFFF7BEFE41F67132DF
:10054000A24BDD6BDA635B6803F00703042B06D86C
:10055000012202FA03F313F0130F40F028819C4BA1
:10056000984240F2B980052298494B6823F007036E
:1005700013434B600DB10023CB63964A013C1368D3
:1005800023F4E03343EA84341460FFF727FE41F696
:1005900071328E4BDC6BDA635B6803F00703042B6C
:1005A0007AD8012202FA03F313F0130F74D0884BA8
:1005B000984240F2EF80042272E0B1FA81F4854A59
:1005C000C4F11F04936823F00F031C43946070BDB3
:1005D000FFF772FE41F671327C4BDD6BDA635B68CC
:1005E00003F00703042B06D8012202FA03F313F0E9
:1005F000130F40F0D780764B984265D90522734996
:100600004B6823F0070313434B600DB10023CB630A
:10061000FFF756FE704BB0FBF4F0DB6CC3F30743FF
:100620004A2B00F08E80792B00F08B80684A482B93
:100630000CBF13460023B4FA84F498426749684B10
:1006400094BF00200120634A086018605368C4F119
:100650001F0423F00F031C43546096E7614B98423C
:1006600000F0EF8040F282805F4B984200F0D28031
:100670005E4B984240F0CD80564A536DDB0740F107
:10068000BF80B4FA84F4534AC4F11F04936E23F07C
:1006900003032343936670BD4D4B98420CD905224A
:1006A0004A494B6823F0070313434B60002C3FF487
:1006B00038AF0023CB6370BD4D4B4E4A0344934289
:1006C0008CBF02220322EBE7494B4A4A0344934280
:1006D0008CBF0222032292E7454B464A03449342D1
:1006E0008CBF022203223FE73A4A536DD9070BD54C
:1006F000B4FA84F4374AC4F11F04136F23F03003B3
:1007000043EA0413136770BD136D5B06F0D5136DD8
:100710005B06F9D4ECE72F4A536DDD070AD5B4FA2E
:1007200084F42C4AC4F11F04136F23F00303234302
:10073000136770BD136D5806F1D5136D5806F9D4C3
:10074000EDE72D4D2D4A2B69A969ED6903F03F06B0
:10075000C5F3031343EA062301F0F0011C4D0B43DC
:10076000B3F5017F2CBF13462B4664E7A3F5822324
:1007700098424DD1174A536DD9071DD5B4FA84F468
:10078000144AC4F11F04936E23F0F00343EA0413E8
:10079000936670BD164B174A034493428CBF0022E8
:1007A00001227DE70A4B98426AD9042227E7084BC9
:1007B00098425DD90422D7E6136D5B07DED5136D31
:1007C0005B07F9D4DAE700BF7007160000000C40A1
:1007D0000048E80100800C40B081E00F78009043B1
:1007E000A0009043602614006000260060062A00E6
:1007F000FFDB0BFFFF23F400D0FF0FE000366E019C
:10080000136D5E077FF53DAF136D5E07F8D438E7D3
:1008100070BD70BD1E4A536DD8070BD5B4FA84F471
:100820001B4AC4F11B04936E23F4405343EA043380
:10083000936670BD136D5907F0D5136D5907F9D440
:10084000ECE7134A536DDE070BD5B4FA84F4104A73
:10085000C4F11F04936E23F4706343EA0423936688
:1008600070BD136D5D07F0D5136D5D07F9D4ECE72E
:10087000084B094A034493428CBF0022012273E6CD
:10088000044B054A034493428CBF00220122B6E682
:1008900000800C40FFDB0BFFFF23F40000F00F0093
:1008A0000138062852D8DFE800F0142435515146AB
:1008B00004002B4BDB6A03F46033B3F5803F49D06F
:1008C000B3F5003F44D0B3F5004F0CBF0820012022
:1008D0007047234BDB6A03F47053B3F5805F37D066
:1008E000B3F5005F36D0B3F5006F0CBF04200520D0
:1008F00070471B4B986A00F00300022829D0032898
:100900002AD0012824D09B6A13F4803F0CBF012019
:1009100009207047124A936A03F00C03082B19D080
:100920000C2B19D0042B13D0936A13F4801F0CBF27
:100930000120092070470A4B1B6813F080530DD02B
:10094000B3F1805F0CBF0820012070470020704782
:100950000320704702207047062070470720704729
:1009600000800C4000F47810B0F5B01F08B500F01E
:1009700093800ED8B0F5402F7ED021D8B0F5003F3F
:1009800076D0B0F5802F00F0B08000287BD000201A
:1009900008BDB0F5081F00F09A8039D8B0F5D01F17
:1009A00061D0B0F5E01F72D0B0F5C01FEFD1644840
:1009B000FFF704FD634B1B6FC3F30113D84008BD61
:1009C000B0F5801F37D0B0F5A01F6ED0B0F5602F06
:1009D000DDD15C4B5B6903F4E063B3F5007F00F0AD
:1009E0009E8040F28A80B3F5C06F00F0A280B3F51C
:1009F000E06F00F0A080B3F5407FC8D1524A534B5E
:100A0000D06C534AB0F1985F34BF1846104608BD09
:100A1000B0F5201F18D0B0F5281F4FD0B0F5181F23
:100A2000B5D14C48FFF7CAFC464B9B6EC3F301336C
:100A30000433D84008BD4748FFF7C0FC414B9B6ECC
:100A4000C3F30313D84008BD4248FFF7B7FC3D4B42
:100A50009A6EDB6FC2F3013203F00703D04001331B
:100A6000B0FBF3F008BD3B48BDE80840FFF7A6BC6B
:100A7000BDE80840FFF7B2BB324A136813F0805359
:100A800046D0002B83D0BDE80840FFF719BC2C48A6
:100A9000BDE80840FFF792BC2948FFF78FFC294BBF
:100AA0001B6F03F00303D84008BD2A48FFF786FCFC
:100AB000244B9B6EC3F30323D84008BD2548FFF7A2
:100AC0007DFC204B9B6E03F00303D84008BD2248F9
:100AD000FFF7E4FE032817D00828D4D002287FF4BB
:100AE00056AFBDE80840FFF763BCFFF7E9FB154BC5
:100AF0009B6803F00F03D84008BDF3B1B3F5807FC6
:100B00007FF445AF154808BDBDE80840FFF748BC75
:100B1000536903F4E063B3F5007F7FF462AF0A4AE0
:100B20000F4BD06C0F4AB0F1985F34BF1846104697
:100B300008BD0D4808BD0D4808BD0D4808BD00BFE3
:100B400003001C0000800C40B081E00F40420F0009
:100B5000804F120002001A0007232200C0D8A7000D
:100B6000C0CF6A0040B56400003FAB01406F400158
:100B7000809FD500F0B5C0F30323013B83B004464A
:100B8000092B0CD8DFE803F01C1E200B0B0D190BF2
:100B90000B05254DC4F304342C44A400216003B09C
:100BA000F0BD224D0120224AC4F30434536DDB070B
:100BB000F2D4136D1842FCD1EEE71E4D1020F2E77F
:100BC0001D4DE7E71D4DE5E70191FFF707FB1C4BC6
:100BD0000199DA6CC2F307424A2A0FD0792A0DD064
:100BE000482A184B18BF00239842174A174B94BF46
:100BF000002001201060164D1860CBE7154E164AF4
:100C00003369B569F66903F03F07C6F3031343EA96
:100C1000072305F0F0050B4E2B43B3F5017F2CBFE6
:100C200013463346E0E700BFC003E410C002E410FF
:100C300000800C400003E4104000E4102002E410A7
:100C4000B081E00F0048E80178009043A000904395
:100C50000002E410D0FF0FE000366E0138B500F05E
:100C60000F04631E062B6AD8DFE803F0927A7A69D4
:100C700069756E00AA4A03244021AA4B19621368C1
:100C8000002BFCD0FFF718FB41F67132A64BDD6B51
:100C9000DA635B6803F00703042B06D8012202FA2B
:100CA00003F313F0130F40F05781A04B984240F22A
:100CB000B08005229C494B6823F0070313434B6027
:100CC0000DB10023CB63974B99485C62FFF74AFE56
:100CD000984BDB6CC3F307434A2B00F0A280792BBF
:100CE00000F09F80914A482B0CBF13460023984286
:100CF000914A924B94BF0020012010601860FFF7CA
:100D00006DFA41F67132884BDC6BDA635B6803F095
:100D10000703042B06D8012202FA03F313F0130F82
:100D200040F0F980814B98426BD905227E494B688F
:100D300023F0070313434B600CB10023CB637E4ABF
:100D40007E4B12681B6838BD032935D008297DD039
:100D5000022940D038BD072928D008294BD038BDFA
:100D600001390829F6D801A353F821F0630F0000D8
:100D70007F0F0000D70F0000550D0000550D00003B
:100D8000970F0000550D0000550D0000ED0F0000FD
:100D900002390329DED801A353F821F0C30E000065
:100DA000750C00005D0E0000CD0E00005D4A13685A
:100DB00023F080531360C2E75A4B4021584A19620E
:100DC0001368002BFCD0574B60211A465962D36A36
:100DD0009903FCD5B3E7534B4FF48071584A19621D
:100DE0001368002BFCD04F4B40211A465962D36A3E
:100DF000D803FCD5A3E74B4A136843F08053136034
:100E00009DE7504B504A034493428CBF0222032279
:100E10008CE74C4B4C4A034493428CBF0222032282
:100E200048E74A4C4A4A2369A169E46903F03F054F
:100E3000C4F3031343EA052301F0F0013B4C0B43D9
:100E4000B3F5017F2CBF1346234650E7354B2021D5
:100E50001A465962D36A1B04FCD570E7354BDB6C2C
:100E6000C3F307434A2B00F0F680792B00F0F380A0
:100E7000482B00F0ED80002318462E4AD26CC2F3B6
:100E800007424A2A00F0D280792A00F0CF80482A0F
:100E900018BF01232849294A0B601360FFF778FA2D
:100EA000204A224B0224984213684FF0040196BF57
:100EB00023F0600343F0600343F020031360254AEE
:100EC000DBE61F4A04244FF48071D6E6194BDB6C35
:100ED000C3F307434A2B00F0E780792B00F0E4804E
:100EE000482B00F0DE8000231846124AD26CC2F371
:100EF00007424A2A00F0C380792A00F0C080482ABD
:100F000018BF01230C490D4A01240B6013602146D0
:100F100002F2E442B1E6054B98427FD9042205E78C
:100F20009C05904300800C4000000C400048E80104
:100F300000430200B081E00F78009043A00090438E
:100F4000A4059043FFDB0BFFFF23F400D0FF0FE06D
:100F500000366E018C059043684B984256D90422A6
:100F6000A8E600252B462946022C45D064498A6A0A
:100F700022F4801323F00C032B438B62DFE6604BDB
:100F80004FF480715F4A19621368002BFCD008256A
:100F900000230221E8E7FFF721F95B4BDB6CC3F389
:100FA00007434A2B00F09480792B00F09180534A3C
:100FB000482B0CBF134600239842544D544B554ABE
:100FC00094BF002001200121286018600C251160C9
:100FD00000230321C8E74A4B40214F4A1962136896
:100FE000002BFCD0042500230121BDE74FF4801520
:100FF0004FF480330021B7E741481943826A22F455
:10100000803323F003030B43836298E6434B444A47
:10101000034493428CBF002201224BE63F4B404ADF
:10102000034493428CBF002201227FE63D490C69B4
:101030008A69C96904F03F04C1F3031141EA04213C
:1010400002F0F0020A43B2F5017F28BF034621E710
:101050000123184611E7334A012011699369D269C7
:1010600001F03F01C2F3031242EA012203F0F00350
:101070001343B3F5017F2CBF00230123FDE629496B
:101080000C698A69C96904F03F04C1F3031141EA9C
:10109000042102F0F0020A43B2F5017F28BF0346A3
:1010A00030E70123184620E71E4A012011699369A1
:1010B000D26901F03F01C2F3031242EA012203F0B8
:1010C000F0031343B3F5017F2CBF002301230CE78A
:1010D000144B154A1D699969DB6905F03F05C3F397
:1010E000031343EA052301F0F001044D0B43B3F56C
:1010F000017F2CBF13462B465EE700BF0048E80186
:1011000000800C40A4059043B081E00F780090432C
:10111000A0009043100890439C059043FFDB0BFF19
:10112000FF23F400D0FF0FE000366E0110B4042856
:1011300006D8DFE800F0231B17081F00124A1362CD
:101140005DF8044B70471148022301240029F5D0B3
:101150000D4B1C62002AF3D00368002BFCD05DF815
:10116000044B70470A4808230424EFE7094880230A
:101170004024EBE7084820231024E7E707484FF412
:1011800000734FF48074E1E700800C4084059043C5
:101190008C0590439C05904394059043A40590438F
:1011A000F0B5C40052B1002B38D02518AD0005F1C0
:1011B0008045012605F5C0458E402E612518AD00FD
:1011C000072905F1804517D805F5C0456F684FEA36
:1011D000810E0F2606FA0EF627EA060702FA0EF629
:1011E0003E436E603AB9204403BB154B8000012298
:1011F00003448A405A60F0BD01F1804605F5C045C0
:10120000083EAF68B6004FF00F0E0EFA06FE27EA52
:101210000E0702FA06F63E43AE60E3E72718084DD4
:10122000BF0001263D448E406E60C7E7800000F19C
:101230008040012300F5C0408B400361F0BD00BF3A
:101240001060004029B1012902D1143002607047BA
:10125000704710300260704711B902234360704735
:1012600001234360704700BF70B40D7825B98368CF
:10127000DA0744BF022343604B788E78002BCA788C
:101280000BBF4FF480634FF4A05300244FF48054FD
:10129000002E08BF23460AB143F400630A790AB15D
:1012A00043F400734A790AB143F480738A790AB12E
:1012B00043F04003CA790AB143F080034C7A0A7ABA
:1012C0002401897A44EA82020A431343036025B168
:1012D0008368DB075CBF0123436070BC704700BFBD
:1012E0000B4B01220B499A608B6813400BD010B452
:1012F0004AF6E854084800238C6002605DF8044B0D
:1013000003608B60704704490A600B60704700BF40
:1013100000A00C4000600C4080048C433B4B5B6899
:1013200003F001029907104604D513F0810F08BF9E
:1013300042F00200590704D513F0910F08BF40F0A6
:101340000400190701D5002A5CD0D90603D59907F6
:1013500008BF40F01000990604D54EF6DF71194021
:1013600000294CD0590604D54EF69F71194000292A
:1013700042D0190604D540F219711940002938D01D
:10138000D90503D540F21961194079B3990503D500
:1013900040F21F41194031B3590503D540F21F21D6
:1013A0001940E9B1190500D5BAB1D90400D58AB1FF
:1013B000990400D55AB1590400D52AB11B0402D5AD
:1013C0000AB940F40040704740F48040F6E740F42A
:1013D0000050F0E740F48050EAE740F40060E4E7B2
:1013E00040F48060DEE740F40070D5E740F48070A0
:1013F000CCE740F08000C3E740F04000B9E740F0A0
:101400002000AFE740F008009FE700BF00A00C40BD
:101410000B4A5169136901F00F01C3F3811343EAC9
:1014200081038370136903F03F0343709169D369AB
:1014300001F0F002C3F3031313430370704700BFBE
:10144000D0FF0FE02DE9F04791F80090B9F1000FBF
:1014500001D1022343604B784C7A8A7A002B18BF63
:101460004FF0400ACB7A08BF4FF0000A002C18BF9B
:101470004FF080080C7908BF4FF00008002A18BF11
:101480004FF0200C4A7908BF4FF0000C002B18BF1A
:101490004FF0100E0B7B08BF4FF0000E002C14BF56
:1014A0004FF400570027002ACA7814BF4FF0805627
:1014B0000026002B8B780C7A4FEA024242EA036244
:1014C0008B7942EA0402C97942EA832242EA012383
:1014D00043EA0A0343EA080848EA0C0C4CEA0E0EF9
:1014E0004EEA070714BF082500253E433543002375
:1014F00043620560B9F1000F01D001234360BDE8EC
:10150000F08700BFD3792DE9F041157A002B547A8A
:1015100014BF4FF400184FF00008002D557814BF89
:101520004FF4801C4FF0000C002C147896794FEA91
:101530000565937A45EA8465947845EA0605D67888
:1015400014BF4FF0100E4FF0000E45EA0444002B7C
:101550001379557944EA063444EA832242EA0523A2
:1015600043EA080343EA0C0C14BF042700270331A5
:101570004CEA0E0E09014EEA07074750BDE8F0811C
:1015800070B44CF6806140F273754FF6FF7400231F
:1015900002260F2246600360C36085610362C46156
:1015A000436270BC03634363C36303644364C36403
:1015B00003654365C365C0F88810036743678367A5
:1015C000C367C0F884207047CB4303F005035B007A
:1015D000C360C160704700BFF8B5044640F6AA6713
:1015E00041F2050641F6F9702D4A00239442E76066
:1015F0000D4623606660A3606361E364A064636575
:101600004AD0284AA365944243D0274B9C4240D0FD
:10161000AB7C1BB1236843F080432360EB7C1BB1A0
:101620002B7D43F01003A365298A6B7BEA890B436A
:10163000686813436360AE682F7B18B3202F26D0F1
:101640001CD9402F18D0602F13D1042306FB03F3BD
:10165000800000EB5300B0FBF3F32268043B22F060
:10166000600222602168114A9B011A400F432760E3
:1016700062612B78E360F8BD0623E7E7002FF8D11D
:101680001023E3E70A48FFF76DF9202FD8D108238C
:10169000DCE70023E365BBE72365A365B8E700BF8C
:1016A00000C0004000C4004000C80040C0FF1F0050
:1016B0004081040030B441F6F97140F6AA6541F268
:1016C00005040E4A00239042C560036044608360B5
:1016D0004361C364816443650CD0094A83659042C9
:1016E00004D0084B984201D030BC70470023C3653A
:1016F00030BC7047036530BC8365704700C0004054
:1017000000C4004000C8004003695B06FCD541638B
:10171000704700BF0368DB0610D451B900F10472B2
:101720005201136853B1836813F00103FBD11360B6
:10173000704700F10470400101230360704700BF4F
:101740000368D90707D583689A0704D48368DB0741
:10175000FCD40123436070474A780B780AB143F008
:1017600002038A780AB143F00403CA780AB143F04D
:1017700008030A790AB143F020034A790AB143F019
:1017800040038A790AB143F01003CA79097A120337
:1017900042EA01221A438368DB07FCD402607047E7
:1017A0008368DB07FCD4400100F18440012303611E
:1017B000704700BF2DE9F0434E4F3C78ACB1002894
:1017C00000F0938071B14C4D4418002110F8013B9A
:1017D000C1F30F224B40DBB235F81310A04281EA6F
:1017E0000201F3D10846BDE8F083444E444DDFF8D2
:1017F00014E1A3B203F00109B9F1000F14BFAC4624
:101800004FF0000C4FEA530383EA0C0C15BF4FF462
:10181000F0484FF4A0484FF4205200221CF0010C75
:1018200008BF9046B9F1000F15BFF146A9464FF425
:10183000A0420022BCF1000F14BFCC4694465B08C6
:1018400083EA0C0C88F420421CF0010F82F00102A4
:1018500018BF90465B084FEA580C8CF4204283EA8C
:10186000080818F0010F82F0010218BF94465B08C7
:101870004FEA5C0888F4204283EA0C0C1CF0010F4C
:1018800082F0010218BF90465B084FEA580C8CF4B6
:10189000204283EA080818F0010F82F0010218BF05
:1018A00094465B084FEA5C0883EA0C0C1CF0010FBD
:1018B00088F4204282F0010208BF42464FEA520CEF
:1018C00082EA53028CF4204312F0010F83F00103EB
:1018D00018BF9C460134B4F5807F26F802CF88D12A
:1018E00001233B7000287FF46DAF01460846BDE838
:1018F000F08300BFA8020020A8000020A60000205E
:1019000001A0FFFF01F0FFFFF0B5012485B0002624
:1019100021462648019602968DF805408DF808402C
:101920008DF80C408DF80D408DF80E60FFF722F910
:10193000224621460520FFF7F9FB1D4D1D480921D0
:10194000FFF78CF921461C48FFF714F94FF4FA62AF
:1019500031462846FFF776FC284601A9FFF784FCAC
:1019600021462846FFF778FC1F23AB62EA6A134C36
:1019700042F004024FF080670420EA623346C4F864
:101980008071024627600321FFF70AFC0C4C0D4BC7
:101990000822C3F8A02023782BB90B48FFF7D0FE0C
:1019A0002378002BF9D005B0F0BD00BF0043020042
:1019B0000020084002001A006026140000E100E048
:1019C000A90200200060004000800840F0B55B4B99
:1019D000A1B0DC6C13A8FFF71BFDB4F1805F0AD344
:1019E0009DF84C30022B06D9554A136823F050035A
:1019F00043F01003136000F017FB00F0F9F900F05A
:101A0000C3FDFFF78BFC07464E4D002613ACFFF7D6
:101A100067FC0FCD1C961D961E96ADF87C600FC41A
:101A20000FCD0FC495E8030044F8040B24F8021B03
:101A30000A960B960C960D960E960F96109611968A
:101A4000ADF84860090C06AEFB06217034466BD534
:101A50003D4D0FCD0FC40FCD0FC40FCD0FC42B685C
:101A60002370304600F0FCFD34460146374D3046C9
:101A700000F07AFD002300930193029303930493F3
:101A80008DF81430FFF740FF0FCD0FC40FCD0FC4FA
:101A90002B68304624F8023B1B0C2221237000F0F7
:101AA00063FD684600F032FB0428FAD10DF1030013
:101AB0001021FFF77FFE9DF813209DF8143043EAB4
:101AC0000223984218D09DF80230432B0DD12048B4
:101AD000FFF736FE13A800F0C3FD014613A800F07F
:101AE00043FD1B48FFF72CFEDBE7452000F0EEFC32
:101AF0001748FFF725FED4E7442000F0E7FC9DF8E7
:101B000002401348FFF71CFE422C08D0432CE1D0C2
:101B1000412CC6D10DF1030000F0B6F8C1E70DF17C
:101B2000030000F063F9BCE70A4D0FCD0FC40FCDE1
:101B30000FC40FCD0FC42B68238092E7B081E00F54
:101B4000C0800C408C260000B42600001C2700003A
:101B500000800840E826000070B4084B084D094A90
:101B6000012604244FF4FA604FF080612E709C62CD
:101B7000D86070BCC2F88010704700BF00200840D9
:101B8000A902002000E100E0F0B589B00E4605464C
:101B9000FFF7F6FC11200221FEF7B6FC01210A46F0
:101BA0000220FFF7C3FA29480421FFF757F8284A13
:101BB00001AB10685168178903C3927A00241F8013
:101BC0009A702146284601AA0134FFF79BFC032C9A
:101BD000F7D1AB6A002243F001033343AB62AB6A37
:101BE000012143F002033343AB62AB6A174843F071
:101BF00004031E43AE62049205928DF810108DF816
:101C0000111006928DF81C20FEF7ACFE0246114C16
:101C10000E48A4FB02325209EA61FEF7A3FE40F22D
:101C2000DC52A4FB00135B0902FB03F3A4FB0323B8
:101C3000DB09EB63EB64EB65EB68284643F00103DB
:101C4000EB6004A9FFF7FEFB09B0F0BD4081040082
:101C500040270000D34D6210014B01229A6170476A
:101C600000000140014B01229A61704700040140CD
:101C7000014B01229A61704700080140014B01228B
:101C80009A617047000C01402DE9F04FC3788678C7
:101C900085B043EA0626ADF8026040F2DC576E4696
:101CA00090F8008090F804C090F801E0457990F831
:101CB00006B045EA0C25C47990F808A0417A90F85E
:101CC0000A90C27A4EEA082E437B90F80C8090F876
:101CD0000EC0C07B43EA082344EA0B2441EA0A21F0
:101CE00042EA092240EA0C2CDFF8FC80ADF80450EF
:101CF000ADF800E0ADF80640ADF80810ADF80A20E8
:101D0000ADF80C30ADF80EC0002536F8024B324865
:101D1000A4F24C43B3F5487F53D8FEF723FEA8FB4B
:101D200000235B0904FB03F3A8FB0323DB09B4884E
:101D30002A4A4FEA0519A4F24C414A44B1F5487FBA
:101D40002548536032D8FEF70DFEA8FB00235B093F
:101D500004FB03F3A8FB0323DB093489204AA4F224
:101D60004C414A44B1F5487F1B48536013D8FEF7F5
:101D7000F9FDA8FB0030400904FB00F4A8FB043483
:101D8000E409184B01354B44032D5C60BDD10120A3
:101D900005B0BDE8F08FFEF7E5FDA8FB003464094F
:101DA00007FB04F4A8FB0434E409EAE7FEF7DAFDD4
:101DB000A8FB00235B0907FB03F3A8FB0323DB0954
:101DC000CBE7FEF7CFFDA8FB00235B0907FB03F37E
:101DD000A8FB0323DB09AAE7408104003800014087
:101DE0003804014038080140D34D6210012070478B
:101DF000F0B55E4889B00121FEF7BCFE5C480121C8
:101E0000FEF7B8FE5B480121FEF7B4FE5A480121F7
:101E1000FEF7B0FE59480121FEF7ACFE0320012178
:101E200004220023FFF7BCF903200221042200232F
:101E3000FFF7B6F90320014604220023FFF7B0F9AB
:101E40000120072104220023FFF7AAF9012008211D
:101E500004220023FFF7A4F901200B210422002310
:101E6000FFF79EF9002003460C210422FFF798F9A2
:101E7000002003460D210422FFF792F900200346BB
:101E80000E210422FFF78CF90420002302460E21C4
:101E9000FFF786F93A484FF440313A4CFFF774FEA9
:101EA00039484FF44031FFF76FFE4FF48031374827
:101EB000FFF76AFE2046FFF763FB11200221FEF7C1
:101EC00023FB334E01210A460220FFF72FF930464B
:101ED0000421FEF7C3FE2F4A01AB10685168178931
:101EE00003C3957A0021204601AA1F809D70FFF749
:101EF00009FBA26A002342F00102A26230460122DD
:101F00000493059306938DF81C308DF810208DF8FE
:101F10001120FEF727FD02461F4D3046A5FB023279
:101F20005209E261FEF71EFD40F2DC52A5FB0013F0
:101F30005B0902FB03F3A5FB0323DB09E363E3680F
:101F4000204643F00103E36004A9FFF77BFA134B3B
:101F500004244FF480504FF400514FF480421C6031
:101F6000186019601A6009B0F0BD00BF00D204000B
:101F700000520400006204000072040000820400A9
:101F800000000140000C0140000401400008014035
:101F90004081040040270000D34D621000E100E0C2
:101FA0001F4B1A69120619D510B4D9691D4AC9B256
:101FB00092F841302429D15411D0402992F844108C
:101FC00025D0A1B90133DBB23F2B88BF002382F8B3
:101FD0004130134B04225DF8044B9A64704792F829
:101FE000441021B9012182F8423082F8441092F85D
:101FF00042100C4C8B42E5D203F14000411A1529E6
:10200000E0DD002184F8441084F84510DAE7002967
:10201000D8D0012182F8433082F84510E7E700BFAD
:1020200000C40040B0020020F0B587B06C46324ECC
:10203000324D3046FFF73EFB11200221FEF764FAD5
:1020400001210A460220FFF771F811200421FEF752
:1020500005FE2B480121FEF78DFD2A480121FEF7E0
:1020600089FD0320072104220123FFF799F80320AB
:10207000062101220023FFF793F80FCD0FC495E846
:102080000300002384E80300052730464FF4805204
:1020900069464FF4E1348DF8003001938DF80C302F
:1020A000ADF80E308DF812308DF813308DF81430F5
:1020B0000294ADF810208DF80D70FFF78DFA41F6FF
:1020C000FF7340F2032EB364F26C0F4B42F0040234
:1020D0004FF400454FF48034F2643946C3F8805120
:1020E0003046C3F880411D601C60C6F854E0FFF71D
:1020F0006BFA07B0F0BD00BF00C400404C270000E1
:102100000012040000D2040000E100E08F4991F8C1
:102110004430002B00F0178191F84530002B00F07F
:1021200012812DE9F04191F8422091F84340A242FA
:1021300000F0A181034640F20B8104F14105AD1A84
:102140003F2A03F8015B174600F38780151D0D44F5
:1021500000F1050E8E18764538BFAB42C2F1400E35
:102160002CBF01250025BEF1090F94BF002505F005
:102170000105002D00F0978143EA0605AD0740F008
:102180009281C2F13C05AD08C2F13F080135B8F1BA
:10219000020F4FEA850C40F278813768022DC0F8B3
:1021A00001707768C0F8057043D0B768032DC0F898
:1021B00009703ED0F768042DC0F80D7039D037692A
:1021C000052DC0F8117034D07769062DC0F8157050
:1021D0002FD0B769072DC0F819702AD0F769082DDC
:1021E000C0F81D7025D0376A092DC0F8217020D0A5
:1021F000776A0A2DC0F825701BD0B76A0B2DC0F87E
:10220000297016D0F76A0C2DC0F82D7011D0376BDD
:102210000D2DC0F831700CD0776B0E2DC0F83570D5
:1022200007D0B76B0F2DC0F8397002D0F56BC0F82E
:102230003D50E64502EB0C0703EB0C000CD0CD5DE6
:102240007A1C3F2A0570414D06DCAE5CBA1C402A60
:10225000467001D0AA5C827073443C4D1A1D281D43
:10226000984288BF8A4204F1010094BF01220022F3
:10227000092894BF002202F00102002A00F0F28037
:1022800043EA0502960740F0ED80E21E9208013213
:10229000022C4FEA820640F2F6802F68022A1F6065
:1022A0006F685F6036D0AF68032A9F6032D0EF68F6
:1022B000042ADF602ED02F69052A1F612AD06F699A
:1022C000062A5F6126D0AF69072A9F6122D0ED6997
:1022D000082ADD611ED00F6A092A1C4D1F6219D021
:1022E0006F6A0A2A5F6215D0AF6A0B2A9F6211D00B
:1022F000EF6A0C2ADF620DD02F6B0D2A1F6309D005
:102300006F6B0E2A5F6305D0AF6B0F2A9F6301D0FE
:10231000EA6BDA63B042324633440CD08D5C501C19
:1023200084421D70094D06DB285C023294425870CD
:1023300001DBAA5C9A70002381F8443081F84530B3
:102340000420BDE8F0810520704700BFB0020020E6
:1023500004F10105A5EB020503F8015BEBDC151D9B
:102360000D44471D8E18BE4238BFAB42A4EB020796
:102370002CBF0125002507F1010EBEF1090F94BF06
:10238000002505F00105002D00F0818043EA0605D7
:10239000AD077CD18D58033FC0F80150BD08013511
:1023A0007768022D4FEA850CC0F8057043D0B768F6
:1023B000032DC0F809703ED0F768042DC0F80D70E9
:1023C00039D03769052DC0F8117034D07769062DE2
:1023D000C0F815702FD0B769072DC0F819702AD032
:1023E000F769082DC0F81D7025D0376A092DC0F88F
:1023F000217020D0776A0A2DC0F825701BD0B76AEB
:102400000B2DC0F8297016D0F76A0C2DC0F82D706E
:1024100011D0376B0D2DC0F831700CD0776B0E2DAD
:10242000C0F8357007D0B76B0F2DC0F8397002D0E7
:10243000F66BC0F83D60E645624403EB0C063FF4E2
:102440007AAF8F5C501C844203F825701D4BFFF659
:1024500072AF185C023294427070FFF66CAF9B5CF6
:10246000B37068E7184A1C1812F8010F03F8010B43
:10247000A342F9D15FE7002381F8443081F8453069
:102480000520BDE8F081002248E71846D7E602346F
:10249000A41A013A20440A4412F8014F03F8014BF0
:1024A0008342F9D147E71D46561EC2F141020E4450
:1024B000104416F8012F05F8012B8542F9D1734419
:1024C000CBE600BFB0020020AF020020442870B568
:1024D000034636D0452828D01F4E00237370B41C05
:1024E0001E4831781C4DFFF70FF91C487178FFF733
:1024F0000BF9A81C00F0B4F8C0B240B1023005449A
:1025000014F8011B1548FFF7FFF8AC42F8D1317DF4
:102510001248FFF7F9F811480A21FFF7F5F8BDE86E
:1025200070400E480D21FFF7EFB80D4A0A4E1068B3
:1025300091889279B41CC6F802007370A180A271D0
:10254000CEE7084A044E10681279B41CC6F802009F
:1025500073702271C4E700BF0800002000C400406F
:10256000642700006C27000051B138B504464518B7
:1025700014F8011B0348FFF7C7F8AC42F8D138BD87
:10258000704700BF00C4004010B5114884B001215D
:10259000FEF7F0FA012001460246FEF7C7FD0D4A9C
:1025A00001AB106851680C4C03C3127A204601A994
:1025B0001A70FFF7D1F801212046FFF7ABF820464B
:1025C000FFF7EEF82046FFF7BBF804B010BD00BFE0
:1025D00000430200742700000080084008B5074B44
:1025E000044613B10021AFF30080054B1868836ADD
:1025F00003B19847204600F03BF800BF0000000000
:10260000802700000E4B70B51E460E4C0025E41AC4
:10261000A410A54204D056F8253098470135F8E7B4
:1026200000F028F8084B094C1E46E41AA4100025B7
:10263000A54204D056F8253098470135F8E770BD1B
:102640008000002080000020800000208400002006
:1026500003460244934202D003F8011BFAE7704795
:10266000034613F8012B002AFBD1181A01387047D2
:10267000FEE700BFF8B500BFF8BC08BC9E46704737
:10268000F8B500BFF8BC08BC9E46704748454152AB
:1026900054424541542052454345495645442C2017
:1026A00050455454494E47205741544348444F479E
:1026B0000A0D00004D4355207265736574206279E0
:1026C000207761746368646F672C2073746172741F
:1026D00020696E697469616C697A6174696F6E2EC4
:1026E0002E2E0A0D0000000024204D435520726557
:1026F000736574206E6F726D616C6C792C207374CD
:1027000061727420696E697469616C697A61746957
:102710006F6E2E2E2E20400A0D0000004D435520D6
:10272000696E697469616C697A6174696F6E20663B
:10273000696E69736865642E2E2E20400A0D0000B4
:10274000000200000001030000000000050000007E
:102750000000000000C201000005000000100000A1
:10276000000000004E4F2041434B000041434B21ED
:102770000000000001010100000001010D43000004
:08278000200000200000000011
:08278800B0D9FF7F0100000041
:1027900000800000006CDC0224000000000000004B
:1027A00000000000000000000000000040000000E9
:1027B0000000000000000000000000000000000019
:1027C0000000000000000000000000000000000009
:1027D0007D27000000000000000000000000000055
:1027E00000000000000000000000000000000000E9
:1027F00000000000000000000000000000000000D9
:1028000000000000000000000000000000000000C8
:0C28100001010000DD00000000000000DD
:04000003000001AD4B
:00000001FF
