:1000000000000220AD010000D9010000D90100006C
:10001000D9010000D9010000D9010000D901000078
:10002000D9010000D9010000D9010000D901000068
:10003000D9010000D9010000D9010000D901000058
:10004000D9010000D90100006D140000D9010000A1
:10005000D9010000D9010000D9010000D901000038
:10006000D9010000D9010000D9010000D901000028
:10007000D9010000D9010000D9010000D901000018
:10008000D9010000D9010000D9010000D901000008
:10009000D9010000D9010000D9010000D9010000F8
:1000A000D9010000D9010000D9010000D9010000E8
:1000B000D9010000D9010000D9010000D9010000D8
:1000C000D9010000D9010000D9010000D9010000C8
:1000D000D9010000D9010000D901000010B5054C7C
:1000E000237833B9044B13B10448AFF300800123E4
:1000F000237010BD7C000020000000009C17000051
:10010000084B10B51BB108480849AFF300800848F8
:10011000036803B910BD074B002BFBD0BDE81040AE
:10012000184700BF000000009C170000800000205E
:100130007800002000000000154B002B08BF134B77
:100140009D46A3F5803A00218B460F461348144A7A
:10015000121A01F0F1FA0F4B002B00D098470E4B0A
:10016000002B00D098470020002104000D000D480E
:10017000002802D00C48AFF3008001F0B7FA20004D
:10018000290001F079F801F09DFA00BF0000080095
:100190000000022000000000000000007C000020A1
:1001A000A00000200000000000000000064880477A
:1001B0000649074A074B9A42BEBF51F8040B42F862
:1001C000040BF8E7FFF7B8FF41030000A817000091
:1001D000000000207C000020FEE700BF80B400AFDC
:1001E000044BDB6C1B0EDBB21846BD465DF8047B8E
:1001F000704700BFB081E00F80B582B000AF00F063
:100200001FF87860074B5B6803F00F031A467B68A2
:10021000D3407B60044A7B6813607B6818460837CC
:10022000BD4680BD00800C400800002080B400AFB7
:10023000024B1846BD465DF8047B7047006CDC023B
:1002400080B582B000AF334BDB6A03F47053B3F573
:10025000805F0AD0B3F5005F03D0B3F5006F08D01C
:100260000BE02D4B1B687B6047E04FF400437B6045
:1002700043E02A4B1B687B603FE0264BDB6803F4BE
:10028000E063B3F5007F1BD0B3F5007F05D8002BEA
:1002900024D0B3F5807F16D02BE0B3F5806F09D062
:1002A000B3F5A06F03D0B3F5407F06D021E01C4B1F
:1002B0007B6021E01B4B7B601EE01B4B7B601BE0E7
:1002C0001A4B7B6018E0FFF789FF0346122B02D917
:1002D000174B7B6010E0174B7B600DE0FFF77EFF54
:1002E0000346122B02D9144B7B6005E0134B7B6055
:1002F00002E000237B6000BF00BF064B1B6803F4D5
:10030000E0339B0B01337A68B2FBF3F318460837EE
:10031000BD4680BD00800C4004000020000000208D
:10032000003FAB01406F4001809FD500C0D8A700BF
:1003300040B56400C0CF6A00804F120040420F00F9
:1003400080B400AFBD465DF8047B704780B400AF59
:100350004FF400431846BD465DF8047B704700BF6C
:1003600080B400AF4FF47A731846BD465DF8047B45
:10037000704700BF80B400AF034B1B681846BD46F2
:100380005DF8047B704700BF0400002080B487B094
:1003900000AFF860B9607A60FB6803F10473DA00BB
:1003A000BB6813449B007B617B697A681A601C37C9
:1003B000BD465DF8047B704780B485B000AF7860BF
:1003C00039607B6803F10473DA003B6813449B00D7
:1003D000FB60FB681B6818461437BD465DF8047B5C
:1003E000704700BF80B485B000AF78607B68002B99
:1003F00004D07B68B3F5004F00D800BF7B68B3FA28
:1004000083F3C3F11F03FB60FB6818461437BD4636
:100410005DF8047B704700BF80B400AF044BDB6C19
:100420001B0EDBB21846BD465DF8047B704700BF6B
:10043000B081E00F80B400AF054BDB6C03F47F03A9
:100440001B0CDBB21846BD465DF8047B704700BF4D
:10045000B081E00F80B582B000AFFFF7EBFF03463D
:100460004A2B04D0792B02D0482B21D022E0144B08
:100470001B699BB203F03F039BB21B02FB80104B36
:100480009B6903F0F0039AB2FB881343FB800C4B8B
:10049000DB6903F0F0031B099AB2FB881343FB806E
:1004A000FB88B3F5017F01D3064B04E0064B02E065
:1004B000054B00E0002318460837BD4680BD00BF4D
:1004C000D0FF0FE000366E010048E80180B584B02F
:1004D00000AF786039607A683B689A428CBF01232C
:1004E0000023DBB2FB6006481E21FA68FFF74EFFCF
:1004F00004480821FA68FFF749FF1037BD4680BD60
:1005000000800C4004800C4080B582B000AF0748EA
:100510001E21FFF751FF786005480821FFF74CFFC7
:1005200038607B6818460837BD4680BD00800C40A7
:1005300004800C4080B582B000AF214B5B6903F4AE
:10054000E063B3F5007F1CD0B3F5007F05D8002B26
:1005500025D0B3F5807F1FD02AE0B3F5C06F24D03B
:10056000B3F5E06F1ED0B3F5407F21D1FFF754FF04
:100570000346122B02D9134B7B601CE0124B7B60AD
:1005800019E0FFF749FF0346122B02D90F4B7B609E
:1005900011E00F4B7B600EE00E4B7B600BE00E4BCF
:1005A0007B6008E00D4B7B6005E00D4B7B6002E05B
:1005B00000237B6000BF7B6818460837BD4680BDBE
:1005C00000800C40804F120040420F0040B5640094
:1005D000C0CF6A00C0D8A700809FD500406F4001FF
:1005E000003FAB0180B582B000AF0D4800F08EFA3D
:1005F0000346FB70FB78072B05D0092B07D1FFF7CB
:100600001FFE786006E0FFF795FF786002E00023A8
:100610007B6000BF7B6818460837BD4680BD00BFC1
:1006200006000C0080B485B000AF7860284BDB6B0F
:10063000002B14BF01230023BB72254B41F67132FE
:10064000DA63234B5B6803F00703FB60FB68012B55
:1006500001D9042B02D10023FB7202E00123FB72BB
:1006600000BF7B681B4A934207D9FB7A002B01D05D
:10067000052300E00423FB6016E07B68154A9342E3
:100680000BD87B68144A934207D9FB7A002B01D020
:10069000032300E00123FB6006E0FB7A002B01D07E
:1006A000022300E00023FB600949094B5B6823F04B
:1006B0000702FB6813434B60BB7A002B02D0044B4C
:1006C0000022DA631437BD465DF8047B704700BF33
:1006D00000000C400048E8010024F40080B500AFA1
:1006E000FFF7A4FD03461846FFF79CFF80BD00BF3F
:1006F00090B585B000AF78600023BB607B68344A5A
:10070000934203D0334A934200D000E000BF7868A0
:1007100000F0FCF90346FB607B682D4A934203D04E
:100720002C4A934206D00CE02B4B9B6A03F0030348
:10073000FB6006E0284B9B6A03F00C039B08FB6000
:1007400000BFFB68032B3AD801A252F823F000BF88
:1007500087070000610700006907000071070000BB
:10076000FFF7F4FDB8602DE0FFF704FEB86029E064
:10077000FFF742FD0446FFF7C7FE0346013324FAA4
:1007800003F3BB601EE00023BB607B68104A93420A
:1007900003D07B680F4A934210D10F4B9A6A7B6853
:1007A0000B498B4201D1102300E0142322FA03F3FA
:1007B000002B03D0FFF7D4FDB86003E002E0002374
:1007C000BB6000BFBB6818461437BD4690BD00BF74
:1007D00002001A0003001C0000800C4080B483B0AB
:1007E00000AF7860094B5B6D03F00103002B00D074
:1007F00006E000BF054B1A6D7B681340002BF9D152
:100800000C37BD465DF8047B704700BF00800C408C
:1008100080B582B000AF104800F078F90346FB7055
:10082000FB78032B07D0092B09D0022B0BD1FFF744
:10083000A1FD78600AE0FFF789FD786006E0FFF728
:10084000FFFC786002E000237B6000BF7B681846F5
:100850000837BD4680BD00BF0723220090B587B092
:1008600000AF78600B46FB7000233B617B681B0A7E
:1008700003F00F03013B092B49D801A252F823F0E2
:10088000C5080000CB080000A90800000F090000FF
:100890000F090000D1080000DB0800000F0900006C
:1008A0000F090000E50800001B4B7B611B4800F0AE
:1008B00041F80446FFF7CEFD034620461946FFF7F0
:1008C00005FE12E0164B7B610FE0164B7B610CE0DE
:1008D000154B7B6101233B6107E0144B7B611023C7
:1008E0003B6102E0124B7B6100BF7B681B0B03F096
:1008F0001F03FB603B69002B02D03869FFF76EFFD6
:10090000FB787869F9681A46FFF740FD00E000BF00
:100910001C37BD4690BD00BF40800C400043020024
:1009200008800C4044800C4058800C4060800C4093
:1009300078800C4090B585B000AF78607B6803F498
:100940007813B3F5B01F00F0AB80B3F5B01F1AD821
:10095000B3F5402F00F0BF80B3F5402F08D8B3F5B2
:10096000003F3CD0B3F5802F2DD0002B27D0BEE028
:10097000B3F5801F3CD0B3F5A01F47D0B3F5602F6F
:1009800000F0AD80B3E0B3F5081F00F0AC80B3F524
:10099000081F0AD8B3F5D01F25D0B3F5E01F7AD0D1
:1009A000B3F5C01F00F08980A1E0B3F5201F4ED041
:1009B000B3F5281F62D0B3F5181F35D097E0FFF7C5
:1009C0003FFCF86096E0FFF73BFCF8604C4B9B68FF
:1009D00003F00F031A46FB68D340FB608AE0FFF781
:1009E0000BFCF86086E04748FFF782FEF86081E084
:1009F0004448FFF77DFEF860414B9B6E03F0F00327
:100A00001B091A46FB68D340FB6073E03D48FFF7C3
:100A10006FFEF8603A4B9B6E03F470631B0A1A4634
:100A2000FB68D340FB6065E03648FFF761FEF86085
:100A3000334B9B6E03F440531C0B1020FFF7D2FC8A
:100A4000034623441A46FB68D340FB6052E02D481E
:100A5000FFF74EFEF8602A4B9B6E03F440531B0BCE
:100A60001A46FB68D340FB60254BDB6F03F007039E
:100A70000133FA68B2FBF3F3FB603BE02148FFF778
:100A800037FEF8601E4B9B6E03F003031A46FB68AB
:100A9000D340FB602EE01C48FFF72AFEF86029E0F7
:100AA0001948FFF725FEF860154B1B6F03F0030391
:100AB0001A46FB68D340FB601CE01348FFF718FEA2
:100AC000F8600F4B1B6F03F030031B091A46FB68DD
:100AD000D340FB600EE0FFF785FDF8600AE0FFF70A
:100AE00029FDF86006E0FFF793FEF86002E00023BE
:100AF000FB6000BFFB6818461437BD4690BD00BFC1
:100B000000800C4002001A0003001C0080B485B075
:100B100000AF78600123FB737B6803F00F03BB60B9
:100B2000BB68013B062B00F2938001A252F823F030
:100B30004D0B0000830B0000BF0B0000510C0000A8
:100B4000510C0000FB0B00001D0C0000454BDB6A44
:100B500003F47053B3F5805F09D0B3F5005F03D0A1
:100B6000B3F5006F06D008E00223FB7308E003230F
:100B7000FB7305E00423FB7302E00523FB7300BF56
:100B800069E0384B9B6A03F00303022B06D0032B6A
:100B900007D0012B08D10323FB730FE00223FB7363
:100BA0000CE00623FB7309E02E4B9B6A03F48033B1
:100BB000002B02D00A23FB7300E000BF4BE0294B5F
:100BC0009B6A03F00C03082B06D00C2B07D0042BD8
:100BD00008D10323FB730FE00223FB730CE0062311
:100BE000FB7309E01F4B9B6A03F48013002B02D0B8
:100BF0000A23FB7300E000BF2DE01A4B1B6803F0D3
:100C00008053002B03D0B3F1805F03D023E0072390
:100C1000FB7302E00923FB7300BF1CE0114BDB6A8E
:100C200003F46033B3F5803F08D0B3F5003F08D03C
:100C3000B3F5004F08D10923FB7308E00223FB73CF
:100C400005E00323FB7302E00123FB7300BF02E016
:100C50000023FB7300BFFB7B18461437BD465DF8CD
:100C6000047B704700800C4090B587B000AF03460E
:100C7000FB71FB79052B5FD801A252F823F000BF6E
:100C8000990C0000A30C0000B10C0000BF0C000088
:100C9000C90C0000D30C0000294BDB6ADBB27B617E
:100CA0001EE0274BDB6A03F47F431B0A7B6117E0DE
:100CB000234BDB6A03F47F031B0C7B6110E0204BAA
:100CC000DB6A1B0E7B610BE01D4B1B6BDBB27B6198
:100CD00006E01B4B1B6B03F47F431B0A7B6100BFC9
:100CE0001120FFF713FF0346FB74FB7C052B01D19A
:100CF000FFF7F4FC1349134BDB6823F4FF6323F085
:100D00000703FA7912021A437B691343CB60FB7C19
:100D1000052B05D1FFF770FAF860F868FFF782FC41
:100D20000948FFF707FE0446FFF794FB03462046F9
:100D30001946FFF7CBFB00E000BF1C37BD4690BD56
:100D4000B081E00F00800C400043020080B483B00B
:100D500000AF03463960FB71FB79002B0DD0FB79A6
:100D6000012B0AD0FB79022B07D0FB79032B04D08F
:100D7000FB79042B01D0FB79052B0949FA793B68F3
:100D8000012000FA03F318461346DB0013449B00CE
:100D90000B44103358600C37BD465DF8047B704738
:100DA0000060004080B483B000AF03463960FB713F
:100DB000FB79002B0DD0FB79012B0AD0FB79022B9C
:100DC00007D0FB79032B04D0FB79042B01D0FB79EE
:100DD000052B0949FA793B68012000FA03F318460C
:100DE0001346DB0013449B000B44103318600C3790
:100DF000BD465DF8047B70470060004090B585B04B
:100E000000AFB9607B600346FB731346BB73FB7B8B
:100E1000002B0DD0FB7B012B0AD0FB7B022B07D0D4
:100E2000FB7B032B04D0FB7B042B01D0FB7B052B2E
:100E3000BB7B002B0DD07B68002B05D0FB7B1846BD
:100E4000B968FFF7AFFF04E0FB7B1846B968FFF70E
:100E50007DFFBB68072B1CD82A4CFA7B2948F97BFD
:100E60000B46DB000B449B0003445968BB689B00A6
:100E700018460F238340DB430B40B97BB8688000E2
:100E8000814019431346DB0013449B0023445960FF
:100E900024E01C4CFA7B1B48F97B0B46DB000B441F
:100EA0009B00034408331968BB6803F18043083B87
:100EB0009B0018460F238340DB431940B87BBB6877
:100EC00003F18043083B9B0000FA03F319431346E8
:100ED000DB0013449B00234408331960BB7B002BC9
:100EE0000DD17B68002B05D0FB7B1846B968FFF756
:100EF00059FF04E0FB7B1846B968FFF727FF14375A
:100F0000BD4690BD0060004080B485B000AF786001
:100F1000194B5B69DBB203F00F03DBB29B00FB7381
:100F2000154B1B6903F0C0039B09DAB2FB7B13432B
:100F3000FB737B68FA7B9A700F4B1B69DBB203F083
:100F40003F03DAB27B685A700B4B9B69DBB223F02C
:100F50000F03FB73084BDB6903F0F0031B09DAB2E4
:100F6000FB7B1343FB737B68FA7B1A701437BD4617
:100F70005DF8047B704700BFD0FF0FE080B483B002
:100F800000AF78607B680D4A93420BD07B680C4AB7
:100F9000934207D07B680B4A934203D07B680A4A8E
:100FA000934201D1012300E0002303F00103DBB2EF
:100FB00018460C37BD465DF8047B704700000140C1
:100FC0000004014000080140000C014080B582B0DF
:100FD00000AF786039607868FFF7D0FF3B681B7816
:100FE00083F00103DBB2002B02D07B6802225A603F
:100FF0007B6800225A623B689B781A063B68DB7864
:101000001B041A433B689B799B021A433B68DB79BC
:101010001B0213433A68127A1A433B685B78002B31
:1010200001D0402300E000231A433B685B7A002B89
:1010300001D0802300E000231A433B689B7A002BF9
:1010400001D0202300E000231A433B68DB7A002B09
:1010500001D0102300E000231A433B681B79002BCA
:1010600002D04FF4005300E000231A433B685B7941
:10107000002B02D04FF0805300E000231A433B685E
:101080001B7B002B01D0082300E000231A437B6860
:101090001A603B681B78002B02D07B6801225A60E3
:1010A0000837BD4680BD00BF80B584B000AFF86092
:1010B000B9607A60F868FFF761FF7B681B789A0671
:1010C0007B685B781B061A437B689B781B041A437A
:1010D0007B68DB781B031A437B681B799B021A43EE
:1010E0007B685B791B0213437A6892791A437B68A9
:1010F000DB79002B02D04FF4001300E000231A43E9
:101100007B681B7A002B02D04FF4801300E0002391
:101110001A437B685B7A002B01D0102300E0002388
:101120001A437B689B7A002B01D0042300E0002344
:101130001A43F968BB6803331B010B441A6010376C
:10114000BD4680BD80B483B000AF78607B68244A20
:1011500093420FD07B68234A93420BD07B68224A8C
:10116000934207D07B68214A934203D07B68204A90
:10117000934200D100BF7B6840F6AA62DA607B68C8
:1011800000221A607B6841F205025A607B680022E7
:101190009A607B6800225A617B680022DA647B686F
:1011A00041F6F9729A647B6800225A657B680C4AA2
:1011B000934202D17B6800221A657B6800229A65FF
:1011C0007B68084A934203D07B68074A934202D166
:1011D0007B680022DA650C37BD465DF8047B7047FA
:1011E00000C0004000C4004000C8004000E00040D3
:1011F00000E4004080B483B000AF78600B46FB7021
:1012000000BF7B681B6903F04003002BF9D0FA781C
:101210007B685A630C37BD465DF8047B704700BF9E
:1012200080B400AF044BDB6C1B0EDBB21846BD462E
:101230005DF8047B704700BFB081E00F80B582B0DD
:1012400000AFFFF7EDFF0346FB713B1D1846FFF7AC
:101250005BFEFB790F2B0AD93B79022B07D9054A94
:10126000044B1B6823F0500343F01003136008374E
:10127000BD4680BDC0800C40B0B586B000AFFFF762
:10128000DDFF00F0E3F900F049F91C4B3C461D4638
:101290000FCD0FC42B68237000237B610AE03A4610
:1012A0007B6913441B7816481946FFF7A3FF7B6937
:1012B00001337B613B46184600F046FA02467B69E3
:1012C0009A42ECD800237B6100F0E0F80346FB74FF
:1012D0007A69531C7B610B4BA3FB02135B0B42F23D
:1012E000107101FB03F3D31A002B04D1FB7C0448DB
:1012F0001946FFF77FFF00F0D7F8E5E77417000005
:1013000000C400405917B7D180B483B000AF034682
:10131000FB71084997F907305B09FA7902F01F025F
:10132000012000FA02F241F823200C37BD465DF897
:10133000047B704700E100E080B483B000AF034657
:101340003960FB71FB79002B0DD0FB79012B0AD0A2
:10135000FB79022B07D0FB79032B04D0FB79042BFC
:1013600001D0FB79052B0949FA793B68012000FA85
:1013700003F318461346DB0013449B000B44183359
:1013800018600C37BD465DF8047B70470060004074
:1013900080B483B000AF78604FF6FF7318460C3707
:1013A000BD465DF8047B704780B584B000AFF8603F
:1013B000B9607A60F868FFF7EBFFFA68BB681B0159
:1013C000134438337A685A601037BD4680BD00BF79
:1013D00080B584B000AFF860B9607A60F868FFF754
:1013E000D7FFFA68BB6803331B0113447A685A605D
:1013F0001037BD4680BD00BF80B582B000AF7860B9
:1014000039607868FFF7C4FF7B683A685A6208372A
:10141000BD4680BD80B483B000AF786039607B6822
:101420003A689A610C37BD465DF8047B704700BF8F
:1014300080B483B000AF786039607B68DA683B685D
:101440001A437B68DA600C37BD465DF8047B704751
:1014500080B582B000AF786039607868FFF798FF98
:101460007B683A68DA610837BD4680BD80B500AF59
:1014700004480121FFF7CEFF034B1B680133024AEA
:10148000136080BD000001409800002080B400AFD0
:10149000044B1B68DBB23033DBB21846BD465DF847
:1014A000047B70479800002080B500AF174B1B6885
:1014B000FA2B1CD1164B1B78002B05D0154B1B6843
:1014C0001933144A136004E0124B1B68193B114A8C
:1014D0001360104B1B68104802211A46FFF764FF87
:1014E00004200321FFF728FF084B00221A60094B54
:1014F0001B68632B02D9064B00221A70054B1B6830
:10150000002B02D1024B01221A7080BD98000020EE
:101510000C0000209C000020000C014080B58CB025
:1015200000AF0020FFF7A0FB40480121FFF796F92C
:101530003F480121FFF792F93E480121FFF78EF95C
:101540000420022104220023FFF758FC0420032179
:1015500004220123FFF752FC374A07F124031068E5
:10156000516803C31189927A19809A7007F11403A4
:1015700000221A60043300221A60043300221A6029
:10158000043300221A70013301233B7501237B755C
:101590003B1D00221A60043300221A60043300222B
:1015A0001A60043300221A70013301233B710123B6
:1015B0007B7122486421FFF74BFF21486421FFF72C
:1015C00047FF1E480021FFF717FF1D480021FFF7C6
:1015D00013FF1C4B1B681A4802211A46FFF7F8FE3E
:1015E000184B1B68164802211A46FFF7DDFE134808
:1015F0000121FFF71DFF0220FFF786FE07F12403FC
:101600000F4802211A46FFF74FFD0D4B0E4A9A6212
:101610003B1D0A481946FFF7D9FC07F11403084897
:101620001946FFF7D3FC3037BD4680BD00D2040019
:1016300000520400008204008817000000000140EE
:10164000000C01409C0000200400010080B500AFA8
:101650001948FFF777FD194A184B1B6843F480437C
:101660001360164A154B1B6A43F00403136200BF54
:10167000124BDB6A03F00803002BF9D00F4B022258
:101680005A620E4B42F202025A640D4B14221A6740
:101690000B4B0122DA67084B4FF418525A61064B84
:1016A00040F60542DA60044B41F6F9729A64024B47
:1016B00040F203125A6580BD00C4004000800C4017
:1016C0000060004008B5074B044613B10021AFF39A
:1016D0000080054B1868836A03B19847204600F0E4
:1016E0003BF800BF00000000981700000E4B70B5DB
:1016F0001E460E4C0025E41AA410A54204D056F84C
:10170000253098470135F8E700F028F8084B094CD8
:101710001E46E41AA4100025A54204D056F8253030
:1017200098470135F8E770BD700000207000002078
:10173000700000207400002003460244934202D04F
:1017400003F8011BFAE77047034613F8012B002A40
:10175000FBD1181A01387047FEE700BFF8B500BF8B
:10176000F8BC08BC9E467047F8B500BFF8BC08BC82
:101770009E4670470A0D48656C6C6F20576F726CFF
:1017800064210A0D000000000003000003020300B2
:1017900000000043000000001000002000000000D6
:0817A00098E9FF7F0100000041
:1017A800006CDC0200800000809FD5000100000072
:1017B8000000000000000000000000000000000021
:1017C8000000000000000000000000000000000011
:1017D8009317000000000000000000000000000057
:1017E80000000000000000000000000000000000F1
:1017F80000000000000000000000000000000000E1
:1018080000000000000000000000000000000000D0
:0C18180001010000DD00000000000000E5
:04000003000001AD4B
:00000001FF
