S014000053544B333730305F626C696E6B2E733337B5
S113000000000220AD010000D9010000D901000068
S1130010D9010000D9010000D9010000D901000074
S1130020D9010000D9010000D9010000D901000064
S1130030D9010000D9010000D9010000D901000054
S1130040D9010000D901000049150000D9010000C0
S1130050D9010000D9010000D9010000D901000034
S1130060D9010000D9010000D9010000D901000024
S1130070D9010000D9010000D9010000D901000014
S1130080D9010000D9010000D9010000D901000004
S1130090D9010000D9010000D9010000D9010000F4
S11300A0D9010000D9010000D9010000D9010000E4
S11300B0D9010000D9010000D9010000D9010000D4
S11300C0D9010000D9010000D9010000D9010000C4
S11300D0D9010000D9010000D901000010B5054C78
S11300E0237833B9044B13B10448AFF300800123E0
S11300F0237010BD7800002000000000D01A00001A
S1130100084B10B51BB108480849AFF300800848F4
S1130110036803B910BD074B002BFBD0BDE81040AA
S1130120184700BF00000000D01A00007C00002027
S11301307400002000000000154B002B08BF134B77
S11301409D46A3F5803A00218B460F461348144A76
S1130150121A01F009FB0F4B002B00D098470E4BED
S1130160002B00D098470020002104000D000D480A
S1130170002802D00C48AFF3008001F0CFFA200031
S1130180290001F0F3F901F0B5FA00BF00000800FE
S113019000000220000000000000000078000020A1
S11301A0980000200000000000000000064880477E
S11301B00649074A074B9A42BEBF51F8040B42F85E
S11301C0040BF8E7FFF7B8FF41030000DC1A000056
S11301D00000002078000020FEE700BF80B400AFDC
S11301E0044BDB6C1B0EDBB21846BD465DF8047B8A
S11301F0704700BFB081E00F80B582B000AF00F05F
S11302001FF87860074B5B6803F00F031A467B689E
S1130210D3407B60044A7B6813607B6818460837C8
S1130220BD4680BD00800C400800002080B400AFB3
S1130230024B1846BD465DF8047B7047006CDC0237
S113024080B582B000AF334BDB6A03F47053B3F56F
S1130250805F0AD0B3F5005F03D0B3F5006F08D018
S11302600BE02D4B1B687B6047E04FF400437B6041
S113027043E02A4B1B687B603FE0264BDB6803F4BA
S1130280E063B3F5007F1BD0B3F5007F05D8002BE6
S113029024D0B3F5807F16D02BE0B3F5806F09D05E
S11302A0B3F5A06F03D0B3F5407F06D021E01C4B1B
S11302B07B6021E01B4B7B601EE01B4B7B601BE0E3
S11302C01A4B7B6018E0FFF789FF0346122B02D913
S11302D0174B7B6010E0174B7B600DE0FFF77EFF50
S11302E00346122B02D9144B7B6005E0134B7B6051
S11302F002E000237B6000BF00BF064B1B6803F4D1
S1130300E0339B0B01337A68B2FBF3F318460837EA
S1130310BD4680BD00800C40040000200000002089
S1130320003FAB01406F4001809FD500C0D8A700BB
S113033040B56400C0CF6A00804F120040420F00F5
S113034080B400AFBD465DF8047B704780B400AF55
S11303504FF400431846BD465DF8047B704700BF68
S113036080B400AF4FF47A731846BD465DF8047B41
S1130370704700BF80B400AF034B1B681846BD46EE
S11303805DF8047B704700BF0400002080B483B094
S113039000AF78603960FEE780B487B000AFF860E2
S11303A0B9607A60FB6803F10473DA00BB68134434
S11303B09B007B617B697A681A601C37BD465DF8D7
S11303C0047B704780B485B000AF786039607B6887
S11303D003F10473DA003B6813449B00FB60FB6881
S11303E01B6818461437BD465DF8047B704700BF90
S11303F080B584B000AF78607B68002B03D07B6845
S1130400B3F5004F04D9084840F29661FFF7BEFFE8
S11304107B68B3FA83F3C3F11F03FB60FB681846E0
S11304201037BD4680BD00BF9417000080B400AFF4
S1130430044BDB6C1B0EDBB21846BD465DF8047B37
S1130440704700BFB081E00F80B400AF054BDB6C98
S113045003F47F031B0CDBB21846BD465DF8047B36
S1130460704700BFB081E00F80B582B000AFFFF7E6
S1130470EBFF03464A2B04D0792B02D0482B21D022
S113048022E0164B1B699BB203F03F039BB21B0295
S1130490FB80124B9B6903F0F0039AB2FB88134371
S11304A0FB800E4BDB6903F0F0031B099AB2FB8857
S11304B01343FB80FB88B3F5017F01D3084B09E0AC
S11304C0084B07E0074B05E007484FF48771FFF737
S11304D05DFF002318460837BD4680BDD0FF0FE0FE
S11304E000366E010048E801F417000080B584B0BE
S11304F000AF78600123FB60FFF7B6FF02467B681C
S11305009A4204D30023FB600023BB600BE0FFF797
S1130510ABFF03465A007B689A4202D30123BB60B7
S113052001E00223BB6008481E21FA68FFF734FF8C
S11305300549054B5B6823F48072BB681B021343B7
S11305404B601037BD4680BD00800C4080B582B042
S113055000AF05481E21FFF735FF78607B68184619
S11305600837BD4680BD00BF00800C4080B582B016
S113057000AF244B5B6903F4E063B3F5007F1CD048
S1130580B3F5007F05D8002B25D0B3F5807F1FD0AD
S11305902AE0B3F5C06F24D0B3F5E06F1ED0B3F5F5
S11305A0407F21D1FFF742FF0346122B02D9164B9D
S11305B07B6021E0154B7B601EE0FFF737FF0346AD
S11305C0122B02D9124B7B6016E0124B7B6013E0B6
S11305D0114B7B6010E0114B7B600DE0104B7B6096
S11305E00AE0104B7B6007E00F484FF4C671FFF739
S11305F0CDFE00237B6000BF7B6818460837BD46EC
S113060080BD00BF00800C40804F120040420F00AC
S113061040B56400C0CF6A00C0D8A700809FD50051
S1130620406F4001003FAB01F417000080B582B079
S113063000AF0F4800F0B8FA0346FB70FB78072BB5
S113064005D0092B07D1FFF7FBFD78600BE0FFF71E
S11306508DFF786007E007484FF4E371FFF796FEDB
S113066000237B6000BF7B6818460837BD4680BD09
S113067006000C00F417000080B485B000AF786069
S11306803960284BDB6B002B14BF01230023BB72A2
S1130690244B41F67132DA63224B5B6803F00703A3
S11306A0FB60FB68012B01D9042B02D10023FB72F0
S11306B002E00123FB7200BF7B681B4A934207D907
S11306C0FB7A002B01D0052300E00423FB6016E035
S11306D07B68154A93420BD87B68144A934207D926
S11306E0FB7A002B01D0032300E00123FB6006E02A
S11306F0FB7A002B01D0022300E00023FB600949B0
S1130700084B5B6823F00702FB6813434B60BB7A1A
S1130710002B02D0034B0022DA631437BD465DF888
S1130720047B704700000C400048E8010024F400FA
S113073080B500AFFFF77AFD034618460021FFF7A6
S11307409BFF80BD80B582B000AF78603960786867
S11307503968FFF791FF0837BD4680BD90B585B075
S113076000AF78600023BB607B683B4A934208D0AB
S11307703A4A934205D03A4840F2B531FFF706FEB3
S113078000E000BF786800F00FFA0346FB607B6866
S1130790314A934203D0314A934206D00CE0314BA4
S11307A09B6A03F00303FB600CE02E4B9B6A03F08F
S11307B00C039B08FB6005E029484FF47971FFF7AF
S11307C0E5FD00BFFB68032B39D801A252F823F0E2
S11307D007080000E1070000E9070000F107000036
S11307E0FFF7B4FDB86032E0FFF7C4FDB8602EE057
S11307F0FFF702FD0446FFF7A9FE0346013324FA7E
S113080003F3BB6023E00023BB607B68124A93427E
S113081003D07B68114A934210D1124B9A6A7B68C9
S11308200D498B4201D1102300E0142322FA03F373
S1130830002B03D0FFF794FDB86008E007E00848F8
S113084040F20E41FFF7A2FD0023BB6000BFBB686E
S113085018461437BD4690BD02001A0003001C0060
S1130860F417000000800C4080B483B000AF7860BF
S1130870094B5B6D03F00103002B00D006E000BFC1
S1130880054B1A6D7B681340002BF9D10C37BD461C
S11308905DF8047B704700BF00800C4080B582B0D7
S11308A000AF104800F080F90346FB70FB78032B7F
S11308B007D0092B09D0022B0BD1FFF75BFD786021
S11308C00AE0FFF743FD786006E0FFF7B9FC7860C3
S11308D002E000237B6000BF7B6818460837BD46F2
S11308E080BD00BF0723220080B586B000AF7860CA
S11308F00B46FB7000233B617B681B0A03F00F036C
S1130900013B092B33D801A252F823F04909000016
S11309104F090000350900006F0900006F0900004D
S1130920550900005F0900006F0900006F0900000D
S1130930690900001B4B7B611B4800F043F8034628
S11309401846FFF7D3FD18E0184B7B6115E0184BF0
S11309507B6112E0174B7B6101233B610DE0164B79
S11309607B6110233B6108E0144B7B6105E0144874
S11309704FF4FB61FFF70AFD10E07B681B0B03F0EB
S11309801F03FB603B69002B02D03869FFF76CFF43
S1130990FB787869F9681A46FFF7FEFC1837BD46FC
S11309A080BD00BF40800C400043020008800C4022
S11309B044800C4058800C4060800C4078800C408F
S11309C0F417000090B585B000AF78607B6803F43D
S11309D07813B3F5B01F00F0AB80B3F5B01F1AD88D
S11309E0B3F5402F00F0BF80B3F5402F08D8B3F51E
S11309F0003F3CD0B3F5802F2DD0002B27D0BEE094
S1130A00B3F5801F3CD0B3F5A01F47D0B3F5602FDA
S1130A1000F0AD80B3E0B3F5081F00F0AC80B3F58F
S1130A20081F0AD8B3F5D01F25D0B3F5E01F7AD03C
S1130A30B3F5C01F00F08980A1E0B3F5201F4ED0AC
S1130A40B3F5281F62D0B3F5181F35D097E0FFF730
S1130A50F7FBF8609BE0FFF7F3FBF8604E4B9B68F5
S1130A6003F00F031A46FB68D340FB608FE0FFF7E7
S1130A70C3FBF8608BE04948FFF770FEF86086E03E
S1130A804648FFF76BFEF860434B9B6E03F0F003A0
S1130A901B091A46FB68D340FB6078E03F48FFF728
S1130AA05DFEF8603C4B9B6E03F470631B0A1A46B0
S1130AB0FB68D340FB606AE03848FFF74FFEF860FC
S1130AC0354B9B6E03F440531C0B1020FFF790FC36
S1130AD0034623441A46FB68D340FB6057E02F4883
S1130AE0FFF73CFEF8602C4B9B6E03F440531B0B4A
S1130AF01A46FB68D340FB60274BDB6F03F0070308
S1130B000133FA68B2FBF3F3FB6040E02348FFF7DC
S1130B1025FEF860204B9B6E03F003031A46FB6826
S1130B20D340FB6033E01E48FFF718FEF8602EE068
S1130B301B48FFF713FEF860174B1B6F03F003030A
S1130B401A46FB68D340FB6021E01548FFF706FE18
S1130B50F860114B1B6F03F030031B091A46FB6846
S1130B60D340FB6013E0FFF761FDF8600FE0FFF78F
S1130B70FDFCF8600BE0FFF791FEF86007E0094820
S1130B8040F6CC01FFF702FC0023FB6000BFFB68CA
S1130B9018461437BD4690BD00800C4002001A0070
S1130BA003001C00F417000080B584B000AF786027
S1130BB00123FB737B6803F00F03BB60BB68013B3D
S1130BC0062B00F2938001A252F823F0E90B0000F7
S1130BD01F0C00005B0C0000ED0C0000ED0C00008D
S1130BE0970C0000B90C0000474BDB6A03F4705308
S1130BF0B3F5805F09D0B3F5005F03D0B3F5006FA0
S1130C0006D008E00223FB7308E00323FB7305E02E
S1130C100423FB7302E00523FB7300BF6EE03A4B31
S1130C209B6A03F00303022B06D0032B07D0012B8E
S1130C3008D10323FB730FE00223FB730CE00623AC
S1130C40FB7309E0304B9B6A03F48033002B02D022
S1130C500A23FB7300E000BF50E02B4B9B6A03F0B8
S1130C600C03082B06D00C2B07D0042B08D103232C
S1130C70FB730FE00223FB730CE00623FB7309E014
S1130C80214B9B6A03F48013002B02D00A23FB73CD
S1130C9000E000BF32E01C4B1B6803F08053002BC4
S1130CA003D0B3F1805F03D028E00723FB7302E095
S1130CB00923FB7300BF21E0134BDB6A03F46033A9
S1130CC0B3F5803F08D0B3F5003F08D0B3F5004F2B
S1130CD008D10923FB7308E00223FB7305E0032317
S1130CE0FB7302E00123FB7300BF07E007484FF4E6
S1130CF04761FFF74BFB0023FB7300BFFB7B1846E8
S1130D001037BD4680BD00BF00800C40F4170000C2
S1130D1080B586B000AF0346FB71FB79052B33D851
S1130D2001A252F823F000BF410D00004B0D00005A
S1130D30590D0000670D0000710D00007B0D0000CF
S1130D402A4BDB6ADBB27B6124E0284BDB6A03F4C9
S1130D507F431B0A7B611DE0244BDB6A03F47F03A2
S1130D601B0C7B6116E0214BDB6A1B0E7B6111E0DF
S1130D701E4B1B6BDBB27B610CE01C4B1B6B03F447
S1130D807F431B0A7B6105E0194841F22C01FFF700
S1130D90FDFA27E01120FFF707FF0346FB74FB7CF5
S1130DA0052B01D1FFF7C4FC1249124BDB6823F475
S1130DB0FF6323F00703FA7912021A437B69134392
S1130DC0CB60FB7C052B06D1FFF716FAF860F868B8
S1130DD00021FFF7B7FC0848FFF7F4FD0346184667
S1130DE0FFF784FB1837BD4680BD00BFB081E00F1C
S1130DF0F417000000800C400043020080B582B06C
S1130E0000AF03463960FB71FB79002B1FD0FB79DF
S1130E10012B19D0FB79022B13D0FB79032B0DD0B6
S1130E20FB79042B07D0FB79052B02D141F6FF7324
S1130E300FE000230DE04FF6FF730AE04FF6FF7357
S1130E4007E04FF6FF7304E04FF6FF7301E04FF63F
S1130E50FF733A68134103F00103002B04D10B48DC
S1130E6040F25931FFF792FA0949FA793B680120B7
S1130E7000FA03F318461346DB0013449B000B44AB
S1130E80103358600837BD4680BD00BF54180000B9
S1130E900060004080B582B000AF03463960FB714A
S1130EA0FB79002B1FD0FB79012B19D0FB79022B86
S1130EB013D0FB79032B0DD0FB79042B07D0FB79DE
S1130EC0052B02D141F6FF730FE000230DE04FF62E
S1130ED0FF730AE04FF6FF7307E04FF6FF7304E079
S1130EE04FF6FF7301E04FF6FF733A68134103F0C6
S1130EF00103002B04D10B4840F28631FFF746FA78
S1130F000949FA793B68012000FA03F318461346AD
S1130F10DB0013449B000B44103318600837BD46B4
S1130F2080BD00BF541800000060004090B585B03B
S1130F3000AFB9607B600346FB731346BB73FB7B56
S1130F40002B1FD0FB7B012B19D0FB7B022B13D072
S1130F50FB7B032B0DD0FB7B042B07D0FB7B052BEA
S1130F6002D141F6FF730FE000230DE04FF6FF734B
S1130F700AE04FF6FF7307E04FF6FF7304E04FF605
S1130F80FF7301E04FF6FF73BA68134103F00103E6
S1130F90002B04D137484FF48571FFF7F7F9BB7B79
S1130FA0002B0DD07B68002B05D0FB7B1846B9685D
S1130FB0FFF770FF04E0FB7B1846B968FFF71EFFDC
S1130FC0BB68072B1CD82C4CFA7B2B48F97B0B46AF
S1130FD0DB000B449B0003445968BB689B00184624
S1130FE00F238340DB430B40B97BB868800081400A
S1130FF019431346DB0013449B002344596024E047
S11310001D4CFA7B1C48F97B0B46DB000B449B0010
S1131010034408331968BB6803F18043083B9B0011
S113102018460F238340DB431940B87BBB6803F1A8
S11310308043083B9B0000FA03F319431346DB008B
S113104013449B00234408331960BB7B002B0DD150
S11310507B68002B05D0FB7B1846B968FFF71AFFA5
S113106004E0FB7B1846B968FFF7C8FE1437BD4699
S113107090BD00BFB81800000060004080B584B087
S113108000AF78607B68002B03D11A483E21FFF73C
S11310907DF9194B5B69DBB203F00F03DBB29B00F4
S11310A0FB73154B1B6903F0C0039B09DAB2FB7B8E
S11310B01343FB737B68FA7B9A700F4B1B69DBB29B
S11310C003F03F03DAB27B685A700B4B9B69DBB2C7
S11310D023F00F03FB73084BDB6903F0F0031B09D8
S11310E0DAB2FB7B1343FB737B68FA7B1A7010370D
S11310F0BD4680BD18190000D0FF0FE080B483B056
S113110000AF78607B680D4A93420BD07B680C4A31
S1131110934207D07B680B4A934203D07B680A4A08
S1131120934201D1012300E0002303F00103DBB269
S113113018460C37BD465DF8047B7047000001403B
S11311400004014000080140000C014080B582B059
S113115000AF786039607868FFF7D0FF0346002B52
S113116003D134484D21FFF711F93B681B7883F014
S11311700103DBB2002B02D07B6802225A607B6839
S113118000225A623B689B781A063B68DB781B0492
S11311901A433B689B799B021A433B68DB791B0229
S11311A013433A68127A1A433B685B78002B01D0E8
S11311B0402300E000231A433B685B7A002B01D0F4
S11311C0802300E000231A433B689B7A002B01D064
S11311D0202300E000231A433B68DB7A002B01D074
S11311E0102300E000231A433B681B79002B02D034
S11311F04FF4005300E000231A433B685B79002B53
S113120002D04FF0805300E000231A433B681B7B5D
S1131210002B01D0082300E000231A437B681A60E6
S11312203B681B78002B02D07B6801225A60083788
S1131230BD4680BDE019000080B584B000AFF86001
S1131240B9607A60F868FFF759FF0346002B03D1B1
S113125027488221FFF79AF8BB68022B03D9244858
S11312608321FFF793F87B681B789A067B685B7889
S11312701B061A437B689B781B041A437B68DB7844
S11312801B031A437B681B799B021A437B685B79B7
S11312901B0213437A6892791A437B68DB79002B2B
S11312A002D04FF4001300E000231A437B681B7A3A
S11312B0002B02D04FF4801300E000231A437B6814
S11312C05B7A002B01D0102300E000231A437B68D3
S11312D09B7A002B01D0042300E000231A43F96811
S11312E0BB6803331B010B441A601037BD4680BD35
S11312F0E019000080B483B000AF0346FB710849D5
S113130097F907305B09FA7902F01F02012000FA0D
S113131002F241F823200C37BD465DF8047B704788
S113132000E100E080B400AF044BDB6C1B0EDBB2C9
S11313301846BD465DF8047B704700BFB081E00FDE
S113134080B582B000AF03463960FB71FB79002B96
S11313501FD0FB79012B19D0FB79022B13D0FB7919
S1131360032B0DD0FB79042B07D0FB79052B02D17D
S113137041F6FF730FE000230DE04FF6FF730AE020
S11313804FF6FF7307E04FF6FF7304E04FF6FF7369
S113139001E04FF6FF733A68134103F00103002B99
S11313A004D10B4840F29F31FEF7F0FF0949FA7966
S11313B03B68012000FA03F318461346DB0013448C
S11313C09B000B44183318600837BD4680BD00BF2E
S11313D0F41900000060004080B582B000AFFFF750
S11313E0A1FF0346FB713B1D1846FFF747FEFB793F
S11313F00F2B0AD93B79022B07D9054A044B1B68EA
S113140023F0500343F0100313600837BD4680BD3A
S1131410C0800C4080B483B000AF78604FF6FF7397
S113142018460C37BD465DF8047B704780B584B020
S113143000AFF860B9607A60F868FFF7EBFF024626
S11314407B689A4204D2074840F24721FEF79EFF88
S1131450FA68BB681B01134438337A685A60103742
S1131460BD4680BD581A000080B584B000AFF86056
S1131470B9607A60F868FFF7CDFF02467B689A424C
S113148004D2074840F25D21FEF780FFFA68BB688A
S113149003331B0113447A685A601037BD4680BD7C
S11314A0581A000080B582B000AF7860396078685F
S11314B0FFF7B0FF02463B689A4204D205484FF456
S11314C01F71FEF763FF7B683A685A620837BD46AE
S11314D080BD00BF581A000080B483B000AF7860AC
S11314E039607B683A689A610C37BD465DF8047BC5
S11314F0704700BF80B483B000AF786039607B6808
S1131500DA683B681A437B68DA600C37BD465DF8DD
S1131510047B704780B582B000AF7860396078682A
S1131520FFF778FF02463B689A4204D2054840F22E
S11315309B31FEF72BFF7B683A68DA610837BD46BA
S113154080BD00BF581A000080B500AF05480121D6
S1131550FFF7C2FF044B1B8801339AB2024B1A8077
S113156080BD00BF000001409400002080B58CB015
S113157000AF0023FB62012387F82B30FFF72CFF19
S11315800020FFF7C5FB53480121FFF7ADF952488E
S11315900121FFF7A9F951480121FFF7A5F904201A
S11315A0022104220023FFF7C1FC042003210422AA
S11315B00123FFF7BBFC4A4A07F120031068516876
S11315C003C31189927A19809A7007F110030022DB
S11315D01A60043300221A60043300221A600433B0
S11315E000221A70013301233B7401237B743B46B0
S11315F000221A60043300221A60043300221A60A5
S1131600043300221A70013301233B7001237B70E1
S113161034484FF47A71FFF77DFF33484FF47A7101
S1131620FFF778FF2F480021FFF73CFF2E480021E9
S1131630FFF738FF2C480221FA6AFFF715FF2A4802
S11316400221FA6AFFF7F2FE26480121FFF752FF52
S11316500220FFF74FFE07F12003234802211A4618
S1131660FFF7EAFD204B214A9A623B461D48194682
S1131670FFF76CFD07F110031B481946FFF766FDE1
S11316801B4B1B88FA2B16D197F82B30002B03D059
S1131690FB6AFA33FB6202E0FB6AFA3BFB62124824
S11316A00221FA6AFFF7C2FE04200321FFF748FE75
S11316B00F4B00221A80FB6AB3F57A7F02D3002312
S11316C087F82B30FB6A002B02D1012387F82B30DB
S11316D0D6E700BF00D204000052040000820400D8
S11316E0BC1A000000000140000C0140040001008D
S11316F09400002008B5074B044613B10021AFF352
S11317000080054B1868836A03B19847204600F0AF
S113171033F800BF00000000CC1A00000E4B70B577
S11317201E460E4C0025E41AA410A54204D056F817
S1131730253098470135F8E700F020F8084B094CAC
S11317401E46E41AA4100025A54204D056F82530FC
S113175098470135F8E770BD6C0000206C0000204C
S11317606C0000207000002003460244934202D023
S113177003F8011BFAE77047FEE700BFF8B500BFA6
S1131780F8BC08BC9E467047F8B500BFF8BC08BC5E
S11317909E4670472F7573722F6C6F63616C2F5365
S11317A0696D706C696369747953747564696F5F8A
S11317B076342F646576656C6F7065722F73646B15
S11317C0732F6765636B6F5F73646B5F73756974A5
S11317D0652F76312E312F2F706C6174666F726DA8
S11317E02F656D6C69622F696E632F656D5F636D24
S11317F0752E68002F7573722F6C6F63616C2F5395
S1131800696D706C696369747953747564696F5F29
S113181076342F646576656C6F7065722F73646BB4
S1131820732F6765636B6F5F73646B5F7375697444
S1131830652F76312E312F706C6174666F726D2F47
S1131840656D6C69622F7372632F656D5F636D756F
S11318502E6300002F7573722F6C6F63616C2F53AE
S1131860696D706C696369747953747564696F5FC9
S113187076342F646576656C6F7065722F73646B54
S1131880732F6765636B6F5F73646B5F73756974E4
S1131890652F76312E312F2F706C6174666F726DE7
S11318A02F656D6C69622F696E632F656D5F67705C
S11318B0696F2E68000000002F7573722F6C6F63C0
S11318C0616C2F53696D706C6963697479537475B5
S11318D064696F5F76342F646576656C6F706572CA
S11318E02F73646B732F6765636B6F5F73646B5FD8
S11318F073756974652F76312E312F706C6174663F
S11319006F726D2F656D6C69622F7372632F656DD5
S11319105F6770696F2E63002F7573722F6C6F632E
S1131920616C2F53696D706C696369747953747554
S113193064696F5F76342F646576656C6F70657269
S11319402F73646B732F6765636B6F5F73646B5F77
S113195073756974652F76312E312F706C617466DE
S11319606F726D2F656D6C69622F7372632F656D75
S11319705F73797374656D2E630000002F75737245
S11319802F6C6F63616C2F53696D706C696369743C
S11319907953747564696F5F76342F646576656C0A
S11319A06F7065722F73646B732F6765636B6F5F02
S11319B073646B5F73756974652F76312E312F2FC5
S11319C0706C6174666F726D2F656D6C69622F69DE
S11319D06E632F656D5F74696D65722E680000001B
S11319E02E2E2F656D6C69622F656D5F74696D6550
S11319F0722E63002F7573722F6C6F63616C2F539B
S1131A00696D706C696369747953747564696F5F27
S1131A1076342F646576656C6F7065722F73646BB2
S1131A20732F6765636B6F5F73646B5F7375697442
S1131A30652F76312E312F2F706C6174666F726D45
S1131A402F656D6C69622F696E632F656D5F6770BA
S1131A50696F2E68000000002F7573722F6C6F631E
S1131A60616C2F53696D706C696369747953747513
S1131A7064696F5F76342F646576656C6F70657228
S1131A802F73646B732F6765636B6F5F73646B5F36
S1131A9073756974652F76312E312F2F706C6174D4
S1131AA0666F726D2F656D6C69622F696E632F6549
S1131AB06D5F74696D65722E68000000000300009C
S1131AC00302030000000043000000000C0000209B
S1071AD0000000000E
S10B1AD464E6FF7F010000003D
S1131ADC006CDC0200800000809FD5000000000038
S1131AEC00000000000000000000000000000000E6
S1131AFC000000000000000000000000C71A0000F5
S1131B0C00000000000000000000000000000000C5
S1131B1C00000000000000000000000000000000B5
S1131B2C00000000000000000000000000000000A5
S1131B3C0000000000000000000000000101000093
S10B1B4CDD00000000000000B0
S90301AD4E
